:100000000C94E5010C9416020C9416020C94160242
:100010000C9416020C9416020C9416020C94160200
:100020000C9416020C9416020C9416020C941602F0
:100030000C9416020C9416020C9416020C941602E0
:100040000C9416020C9416020C9416020C941602D0
:100050000C9416020C9416020C9416020C9478114F
:100060000C9416020C9442110C9418110C94160264
:100070000C9416020C9416020C9416020C941602A0
:100080000C9416020C9416020C9416020C94160290
:100090000C94E2100C94B8100C9416020C94C2113B
:1000A0000C9416020C9416020C9416020C94160270
:1000B0000C9416020C9416020C9416020C94160260
:1000C0000C9416020C9416020C9416020C94160250
:1000D0000C9416020C9416020C9416020C94160240
:1000E0000C9416020C9475040C94CF030C943A04EF
:1000F0000C9444040C94AC040C94B5090C94BF0506
:100100000C947B050C9440030C94C6050C94D3020C
:100110000C947F040C940F030C9467040C9440041B
:100120000C9458080C945F040C9471040C948C0586
:100130000C941E030C9482030C94D2050C94B60903
:100140000C94BD050C94A2050C944F040C9463040C
:100150000C9459040C94E3050C946D040C9448041D
:100160000C9448080C946F050C94D2020C947A04F9
:100170000C9472080C9455040C947B040C949F0806
:100180000C942F060C94E2020C9432030C944C0451
:100190000C94BB0B0C942B130C94EF050C94AB1B21
:1001A0000C9449080C94EA050C946B0800407A10F2
:1001B000F35A00A0724E18090010A5D4E80000E818
:1001C0007648170000E40B54020000CA9A3B000076
:1001D00000E1F505000080969800000040420F0005
:1001E0000000A08601000000102700000000E803C6
:1001F000000000006400000000000A000000000091
:100200000100000000002C76D888DC674F0823DF4F
:10021000C1DFAE59E1B1B796E5E3E453C63AE65122
:10022000997696E8E6C28426EB898C9B62ED407C49
:100230006FFCEFBC9C9F40F2BAA56FA5F490055AE5
:100240002AF75C936B6CF9676DC11BFCE0E40D470A
:10025000FEF520E6B500D0ED902E0300943577052D
:100260000080841E080000204E0A000000C80C33E5
:100270003333330F986E12831141EF8D2114893B74
:10028000E65516CFFEE6DB18D1844B381BF77C1DF4
:10029000901DA4BBE424203284725E228100C9F147
:1002A00024ECA1E53D2700002100240027002A00BE
:1002B0002D003000330001010000040107010A0194
:1002C00000002200250028002B002E003100340001
:1002D00002010000050108010B0100000A0B0209E0
:1002E0000C0D0E08070304010000000000000000D0
:1002F00000000000000000000000000000000000FE
:1003000000000000000012111000000000000000BA
:1003100000000000000000000000000000000000DD
:10032000000020002300260029002C002F003200AE
:100330000001000003010601090105050505070587
:1003400008080808020202020A0A08080404040451
:10035000010101010101010103030303030303037D
:10036000040707070C0C0C0C0C0C0C0C020202020C
:1003700006060606060606060B0B0B0B0B0B0B0BF5
:1003800001021020200808102040102040800201A7
:10039000020108040201010204081020408080408C
:1003A000201008040201800402018040201008048B
:1003B0000201080402010102040810204080010229
:1003C0000408102040802B13AB1B11241FBECFEF5D
:1003D000D1E2DEBFCDBF00E00CBF26E0AEE6B3E069
:1003E00001C01D92A838B207E1F713E0A0E0B2E027
:1003F000E6EBF6E400E00BBF02C007900D92AE36CC
:10040000B107D9F711E0C4EED1E000E006C02197B2
:100410000109802FFE010E940E21C33ED10780E01A
:100420000807A9F70E94E1140C9449230C940000DA
:10043000FC01A089B18982E08C93A485B5851C92CA
:10044000A685B7858FEC8C93108EA489B58986E03C
:100450008C93A289B3898C9180618C93A289B38992
:100460008C9188608C93A289B3898C9180688C93DD
:100470000288F389E02D80818F7D8083089596E046
:10048000899FD0011124A557BA4F90967C936E9303
:100490005F9791E091969C939197E091F805F09188
:1004A000F9059091F705992339F0309751F08111B2
:1004B00008C08091A7051994309719F05C968C912B
:1004C000FACF0895CF92DF92EF92FF920F931F938E
:1004D00096E0899FF0011124E557FA4F11A2278D6C
:1004E00030A12130310551F178F02230310509F485
:1004F00051C02330310509F452C01F910F91FF9074
:10050000EF90DF90CF9008956623B9F361E070E03B
:100510000E943F022FB7F8948091410490914204C9
:10052000A0914304B09144042FBF8093E3059093BE
:10053000E405A093E505B093E605DFCF9FB7F894F7
:10054000C0904104D0904204E0904304F0904404F1
:100550009FBF0091E3051091E4052091E5053091DE
:10056000E605C01AD10AE20AF30A0091F5051091D6
:10057000F60530E020E00C151D052E053F0550F472
:1005800062E070E01F910F91FF90EF90DF90CF90AD
:100590000C943F026111B1CF63E070E0F3CF70E0E3
:1005A00060E0F0CF08950895DB0114964D915C91C1
:1005B00015976D917C91DC01ED91FC910280F381A6
:1005C000E02D1994AF92BF92CF92DF92EF92FF92FB
:1005D0000F931F93CF93DF936C017B018B01040F6B
:1005E000151FEB015E01AE18BF08C017D10759F007
:1005F0006991D601ED91FC910190F081E02DC60149
:100600001995892B79F7C501DF91CF911F910F9132
:10061000FF90EF90DF90CF90BF90AF900895FC01D6
:10062000538D448D252F30E0842F90E0821B930B57
:10063000541710F0CF96089501970895FC01918DFD
:10064000828D981761F0A28DAE0FBF2FB11D5D9600
:100650008C91928D9F5F9F73928F90E008958FEFA2
:100660009FEF0895FC01918D828D981731F0828D56
:10067000E80FF11D858D90E008958FEF9FEF0895AD
:10068000FC01918D228D892F90E0805C9F4F821B11
:1006900091098F739927089585E494E00E9440039F
:1006A00021E0892B09F420E0822F089582EE94E066
:1006B0000E94400321E0892B09F420E0822F089555
:1006C000FC01A48DA80FB92FB11DA35ABF4F2C91C7
:1006D000848D90E001968F739927848FA689B789BE
:1006E0002C93A089B1898C91837080648C93938DB5
:1006F000848D981306C00288F389E02D80818F7D58
:1007000080830895EF92FF920F931F93CF93DF930F
:10071000EC0181E0888F9B8D8C8D98131AC0E8893D
:10072000F989808185FF15C09FB7F894EE89FF890C
:100730006083E889F98980818370806480839FBFAA
:1007400081E090E0DF91CF911F910F91FF90EF90AA
:100750000895F62E0B8D10E00F5F1F4F0F731127BA
:10076000E02E8C8D8E110CC00FB607FCFACFE889F5
:10077000F989808185FFF5CFCE010E946003F1CF1A
:10078000EB8DEC0FFD2FF11DE35AFF4FF0829FB769
:10079000F8940B8FEA89FB8980818062CFCFCF9359
:1007A000DF93EC01888D8823B9F0AA89BB89E88999
:1007B000F9898C9185FD03C0808186FD0DC00FB63F
:1007C00007FCF7CF8C9185FFF2CF808185FFEDCFBD
:1007D000CE010E946003E9CFDF91CF91089580E0C0
:1007E00090E0892B29F00E94560381110E9400009D
:1007F00080E090E0892B29F00E944C0381110E9437
:10080000000080E090E0892B49F080E090E0892BA7
:1008100029F00E94000081110E94000080E090E019
:10082000892B49F080E090E0892B29F00E9400009C
:1008300081110C94000008958150823108F05AC053
:10084000E82FF0E08827E85DFB4F8F4F0C940E21D6
:1008500048044C043A04400444047A044F04550408
:1008600059045F04630467046D0471047A04750419
:100870007B047F04809180008F77809380000895AF
:10088000809180008F7DF9CF80918000877FF5CFA8
:1008900084B58F7784BD089584B58F7DFBCF80911B
:1008A000B0008F778093B00008958091B0008F7D65
:1008B000F9CF809190008F77809390000895809178
:1008C00090008F7DF9CF80919000877FF5CF809148
:1008D000A0008F778093A00008958091A0008F7D65
:1008E000F9CF8091A000877FF5CF809120018F778D
:1008F000809320010895809120018F7DF9CF809110
:100900002001877FF5CFCF93DF93282F30E0F901C7
:10091000E652FD4F8491F901E058FC4FD491F90162
:10092000E65CFC4FC491CC23A1F081110E941C0411
:10093000EC2FF0E0EE0FFF1FE05EFC4FA591B491AD
:10094000EC91ED2381E090E009F480E0DF91CF911C
:10095000089580E090E0FACF862F0C9483041F93D3
:10096000CF93DF93282F30E0F901E652FD4F8491B9
:10097000F901E058FC4FD491F901E65CFC4FC491B9
:10098000CC23A9F0162F81110E941C04EC2FF0E05B
:10099000EE0FFF1FE054FD4FA591B4918FB7F8946F
:1009A000EC91111108C0D095DE23DC938FBFDF914D
:1009B000CF911F910895DE2BF8CFCF93DF93EC01F9
:1009C0008091020690910306029749F4C130D10547
:1009D00009F43DC07CF560E0209709F439C08091AE
:1009E000020690910306049749F4C130D10509F439
:1009F0005EC00CF039C0209709F444C08091020613
:100A000090910306059709F0E7C0CA30D10508F0B8
:100A1000E3C0FE018827E05FFA4F8F4F0C940E2150
:100A20006F057B058C05A205BD05BF05C605D20572
:100A3000E305EA05C230D105A9F060E0C330D10575
:100A400071F6809106060E94AF0460E006C061E086
:100A5000809106060E94AF0461E0809108060E9422
:100A6000AF04BDCF61E0EDCFC230D10539F1C33065
:100A7000D10509F0C3CF61E0809106060E94AF0462
:100A800060E022C061E0809106060E94AF0460E051
:100A9000809108060E94AF0461E080910A060E94DE
:100AA000AF0460E080910C060E94AF04A7CF60E025
:100AB000809106060E94AF0461E0EACF60E0809179
:100AC00006060E94AF0461E0809108060E94AF0410
:100AD00060E080910A060E94AF0461E0E3CF60E02D
:100AE000809106060E94AF0461E0809108060E9492
:100AF000AF0461E00BC060E0809106060E94AF0485
:100B000061E0809108060E94AF0460E080910A06CF
:100B10000E94AF0460E010C060E0809106060E9471
:100B2000AF0461E0809108060E94AF0460E080910C
:100B30000A060E94AF0461E080910C060E94AF0497
:100B400061E015C060E0809106060E94AF0461E09C
:100B5000809108060E94AF0460E080910A060E941E
:100B6000AF0461E080910C060E94AF0460E08091C8
:100B70000E06DF91CF910C94AF0461E0E4CF61E009
:100B8000809106060E94AF0460E0E2CF61E08091B0
:100B900006060E94AF0460E0809108060E94AF0440
:100BA00061E0DBCF61E0809106060E94AF0460E067
:100BB000809108060E94AF0461E080910A060E94BD
:100BC000AF0460E0CFCF61E0809106060E94AF04E1
:100BD00060E08BCF60E0F8CFDF91CF910895862F52
:100BE000642F0C94AF04CF93DF9390E0FC01E058A6
:100BF000FC4F2491865C9C4FFC0184918823C9F0B2
:100C000090E0880F991FFC01EA55FD4FA591B49122
:100C1000FC01E054FD4FC591D49161110DC09FB707
:100C2000F8948C91209582238C93888128232883A3
:100C30009FBFDF91CF910895623051F49FB7F89430
:100C40003C91822F809583238C93E8812E2BEFCFCC
:100C50008FB7F894EC912E2B2C938FBFEACF862F71
:100C6000642F0C94F3056F927F928F929F92AF92B4
:100C7000BF92CF92DF92EF92FF920F931F93CF9389
:100C8000DF9381E08093F7058FB7F894409141049A
:100C90005091420460914304709144048FBF80914D
:100CA000E7059091E805A091E905B091EA05481B98
:100CB000590B6A0B7B0B8091F3059091F405B0E022
:100CC000A0E084179507A607B70708F01DC1C0E08C
:100CD0008091F105C81760F4E091ED05F091EE0503
:100CE000EC0FF11D62E080810E94F305CF5FF0CF31
:100CF000712C812C912C540183948091F2057816EB
:100D000008F05FC0072D10E0E091EF05F091F005CD
:100D1000E00FF11F61E080810E94F305E091EF0593
:100D2000F091F005E00FF11F60E080810E94AF04B8
:100D3000D501C401072C04C0880F991FAA1FBB1F2F
:100D40000A94D2F76C017C01E094F094612C8091BC
:100D5000F1056816F8F4C62DD0E0E091ED05F091AC
:100D6000EE05EC0FFD1F80810E9483042496CC0FBA
:100D7000DD1FC557DA4F892B41F4888199818C2971
:100D80009D29998388836394E2CF888199818E21FC
:100D90009F21F7CFE091EF05F091F005E00FF11FF3
:100DA00061E080810E94AF048091EF059091F00591
:100DB000080F191F60E0F80180810E94F305739409
:100DC0009CCFCBE8D5E0FE018FEF9FEF278D30A1C0
:100DD000232B21F4148E968F858F11A2369625E051
:100DE000E73CF20799F7F12C96E0D92E8091F105B6
:100DF000F81608F050C0E12C0F2D10E0000F111F65
:100E00000D561A4F2091F205E21608F042C0F80183
:100E1000608171810E2C02C0769567950A94E2F785
:100E2000F29E900111242E0D311DEBE8F5E080E0DB
:100E3000458D568D2417350709F46AC08F5F3696A5
:100E40008A30B1F760FF23C0EBE8F5E090E080E086
:100E5000448D411117C0E091EB05F091EC05E20FD4
:100E6000F31F4081D89EF001D99EF00D1124E55763
:100E7000FA4F448F368F258F10A2178E61E00E94A3
:100E8000620205C0019636968A30910509F7E3940F
:100E9000B9CFF394ABCF80E099A19111892F269619
:100EA000F5E0C73CDF07C1F79FB7F89440914104D4
:100EB0005091420460914304709144049FBF409359
:100EC000E7055093E8056093E9057093EA058823E8
:100ED000D9F08091AC058823B9F08091AA05909152
:100EE000AB05019789F48091A705DF91CF911F9100
:100EF0000F91FF90EF90DF90CF90BF90AF909F90B9
:100F00008F907F906F9008951092F70580E0EDCF5D
:100F10006170B5CF3FB7F894809125049091260475
:100F2000A0912704B091280426B5A89B05C02F3FA7
:100F300019F00196A11DB11D3FBFBA2FA92F982FFF
:100F40008827BC01CD01620F711D811D911D42E0FA
:100F5000660F771F881F991F4A95D1F708958F92C2
:100F60009F92AF92BF92CF92DF92EF92FF926B016E
:100F70007C010E948A074B015C01C114D104E10489
:100F8000F104B9F00E948A07681979098A099B0956
:100F9000683E73408105910580F321E0C21AD108B3
:100FA000E108F10888EE880E83E0981EA11CB11CB0
:100FB000E4CFFF90EF90DF90CF90BF90AF909F90E5
:100FC0008F9008952091DA03260F3327331F2132A3
:100FD0003105ECF42091FE03FC0190E080E0243028
:100FE00069F082E00895A091DA032191AC014654A2
:100FF0005C4FA40FB52FB11D2C930196861798F363
:101000008091DA03680F6093DA0380E0089581E04D
:1010100008951092FE0381E0809300041092FF0374
:1010200061E084E10E94AF0461E085E10E94AF04C9
:10103000E9EBF0E080818E7F808380818D7F8083EB
:1010400088E48093B80085E48093BC000895CF9332
:10105000DF9391E09093B9038823B9F0C091B80071
:10106000D091BA008091BC008A7B8093BC0060E084
:1010700084E10E94AF0460E085E10E94AF040E9419
:101080000908D093BA00C093B800DF91CF910895BA
:101090000895E091300480912F04E81730F4F0E0D7
:1010A000EC56FC4F808190E008958FEF9FEF0895FC
:1010B0009091300480912F042FEF3FEF981748F460
:1010C000E92FF0E0EC56FC4F208130E09F5F9093D9
:1010D0003004C901089580912F0490913004891B38
:1010E000990B0895CF92DF92EF92FF920F931F9387
:1010F000CF93DF937C01CB018A01209193032223BC
:1011000089F0EB016B01C40ED51ECC15DD0569F02D
:101110006991D701ED91FC910190F081E02DC7011B
:101120001995F3CF642F0E94E207C801DF91CF9198
:101130001F910F91FF90EF90DF90CF900895CF9384
:10114000DF931F92CDB7DEB76983209193032223EB
:10115000F9F020912D04203258F021E030E0FC011C
:101160003383228390E080E00F90DF91CF91089548
:1011700080912E04E82FF0E0ED58FC4F9981908388
:101180008F5F80932E0480932D0481E090E0ECCF5C
:1011900061E0CE0101960E94E207F7CFCF92DF9285
:1011A000EF92FF920F931F93CF93DF93FC01C481C3
:1011B00021E020939303C093720310922E041092A7
:1011C0002D048385682B8FE795E00E949F08D091BE
:1011D0002D04D13208F092C00E948A076B017C0175
:1011E0008091FE03811165C082E08093FE0381E05F
:1011F000809300048FEF8093FD0310922204D0931C
:101200002104A3E7B3E0E1E0F4E080E0D81385C077
:101210001092230480912304CC0FC82BC093230485
:101220008091FF03813009F07CC01092FF030E947F
:101230008A076B017C01809123048093BB0080911D
:10124000B5039091B603A091B703B091B803892B71
:101250008A2B8B2B99F00E948A070091B50310917D
:10126000B6032091B7033091B8036C197D098E093C
:101270009F090617170728073907E0F18091BC007E
:1012800083FDD9CF85EC8093BC000E948A076B0157
:101290007C018091FE03823009F445C08091FD03FA
:1012A0008F3F61F18091FD03803241F18091FD0318
:1012B00025C08091B5039091B603A091B703B0917A
:1012C000B803892B8A2B8B2B09F48ACF0E948A07BB
:1012D0000091B5031091B6032091B7033091B80384
:1012E0006C197D098E099F0906171707280739070A
:1012F00008F076CF8091B4030E94270810922E0444
:1013000010922D0410929303DF91CF911F910F91B2
:10131000FF90EF90DF90CF9008959D9191938F5F14
:1013200075CF85EEB0CF8091B5039091B603A091B3
:10133000B703B091B803892B8A2B8B2B09F4A9CF63
:101340000E948A070091B5031091B6032091B7035C
:101350003091B8036C197D098E099F09061717078C
:101360002807390708F095CFC5CF089590E080E0B1
:101370000895CF92DF92EF92FF920F931F9381E037
:1013800090E09093FB058093FA050E948A070091F4
:1013900010061091110620911206309113066B0170
:1013A0007C01C01AD10AE20AF30A0091FC051091EF
:1013B000FD052091FE053091FF05C016D106E2061D
:1013C000F30618F3609310067093110680931206CB
:1013D0009093130680910406909105062091FA05DA
:1013E0003091FB052130310569F1892B11F1809194
:1013F00004069091050601979093050680930406D4
:101400008091040690910506209102063091030612
:1014100064E070E02530310511F46AE070E00E946C
:10142000B9201F910F91FF90EF90DF90CF900C9417
:10143000DD0480910006909101069093050680934B
:101440000406D5CF0196909305068093040620915B
:101450000006309101068217930791F61092050657
:1014600010920406CDCFCF93DF93209100063091E8
:101470000106032E000C440B550B60E077E883E96E
:1014800093E00E94EF20CA01B90123E030E040E080
:1014900050E00E94EF202093FC053093FD0540931F
:1014A000FE055093FF05C3E0D0E080910A02882337
:1014B00009F460C00E94B90961E084E00E94AF04B1
:1014C00060E085E00E94AF0461E086E00E94AF0426
:1014D00060E087E00E94AF0468E270E080E090E0A6
:1014E0000E94AF070E94B90961E084E00E94AF0446
:1014F00060E085E00E94AF0460E086E00E94AF04F7
:1015000061E087E00E94AF0468E270E080E090E074
:101510000E94AF070E94B90960E084E00E94AF0416
:1015200061E085E00E94AF0460E086E00E94AF04C5
:1015300061E087E00E94AF0468E270E080E090E044
:101540000E94AF070E94B90960E084E00E94AF04E6
:1015500061E085E00E94AF0461E086E00E94AF0494
:1015600060E087E00E94AF0468E270E080E090E015
:101570000E94AF07219709F098CF10920A0260E00D
:1015800084E00E94AF0460E085E00E94AF0460E068
:1015900086E00E94AF0460E087E0DF91CF910C9479
:1015A000AF04CF92DF92EF92FF920F931F93CF93EE
:1015B000DF931F921F92CDB7DEB769834A83880FEE
:1015C000991F0091760610917706000F111FE0E237
:1015D000F6E09F01205236402017310714F4119293
:1015E000F8CF2981FC01E05EF94F21838A81808355
:1015F00060E0809174060E94AF041016110604F595
:1016000001501109F801E05EF94FE080D0907206B8
:10161000C090700688E0F82E6E2D661F6627661F44
:101620008C2D0E94AF04EE0C61E08D2D0E94AF0462
:1016300060E08D2D0E94AF04FA94F110EDCFDDCF64
:1016400061E0809174060F900F90DF91CF911F9110
:101650000F91FF90EF90DF90CF900C94AF04EF923A
:10166000FF920F931F93CF937C018C0183E0000FB7
:10167000111F8A95E1F7005D194FC1E0F801119241
:101680008F0140E06C2FC7010E94D10ACF5FC930A3
:10169000A9F7CF911F910F91FF90EF9008950F93AD
:1016A0001F93CF938C01C62F0E94CE086C2F6460CD
:1016B000C8010E94CE086C2F6B7FC8010E94CE0823
:1016C00083EC90E00197F1F7CF911F910F9108956E
:1016D0000F931F93CF93DF938C01D62FC42F607F7E
:1016E000642B0E944F0B80E1D89FB00111246C2B1A
:1016F000C801DF91CF911F910F910C944F0BCF93A5
:10170000DF9300D000D01F921F92CDB7DEB798E0D4
:10171000E9E2F2E0DE01119601900D929A95E1F76F
:1017200090918006961708F46FEF262F30E0220F75
:10173000331F41E050E04C0F5D1F240F351FF901AE
:101740006081680F606840E088E796E028960FB6F1
:10175000F894DEBF0FBECDBFDF91CF910C94680B24
:1017600040E061E088E796E00E94680B8BE39FE130
:101770000197F1F7089541E00E94680B81E090E045
:101780000895FB0101900020E9F73197AF01461B56
:10179000570BDC01ED91FC910280F381E02D19944F
:1017A0008F929F92AF92BF92CF92DF92EF92FF9271
:1017B0000F931F93CF93DF93CDB7DEB7A1970FB6EB
:1017C000F894DEBF0FBECDBF6C01990FEE08FF0885
:1017D000F7FE4BC06DE285E494E00E9482038C0129
:1017E00022273327A9012C193D094E095F0919A2A7
:1017F000CE0181967C019AE0892E912CA12CB12CEE
:10180000CA01B901A50194010E94CD20605DF701D4
:1018100062937F01211531054105510589F790E05B
:1018200080E0309729F0BF0185E494E00E94C10B6D
:10183000080F191F63E772E085E494E00E94C10B72
:10184000800F911FA1960FB6F894DEBF0FBECDBFDB
:10185000DF91CF911F910F91FF90EF90DF90CF908C
:10186000BF90AF909F908F900895A701960119A205
:101870008E010F5D1F4F8AE0C82ED12CE12CF12C78
:10188000CA01B901A70196010E94CD20605DF8014F
:1018900062938F01211531054105510589F7309774
:1018A00039F0BF0185E494E00E94C10B8C01C2CFE6
:1018B00010E000E0BFCFCF93DF9366E772E085E4EE
:1018C00094E00E94C10BEC0163E772E085E494E0D0
:1018D0000E94C10B8C0F9D1FDF91CF9108950C9436
:1018E000C10B0F931F9390E0FC01E058FC4F6491F3
:1018F000FC01E65CFC4FE491F0E0EE0FFF1FE05EC0
:10190000FC4F8591949100E412E42FE030E0462FE3
:101910000E94E612611571058105910529F06F5F3E
:101920007F4F8F4F9F4F9F701F910F910895209170
:101930001E0630911F06232B39F421E0FC01808123
:10194000882361F020E00AC0BC0180911A069091C2
:101950001B060E94392321E0892BA1F7822F0895CD
:101960000F931F93CF93DF938C01EB010E948E1F87
:101970008883C80101960E948E1F8983CE01DF9162
:10198000CF911F910F910895FC0180819181009763
:1019900011F00C94D11B60E070E0CB0108950F931F
:1019A0001F93CF93DF93EC0188819981009759F0C1
:1019B0002A813B812617370730F081E0DF91CF91F4
:1019C0001F910F9108958B016F5F7F4F0E944F22EF
:1019D000009759F0998388831B830A832C813D816A
:1019E000232B59F7FC011082E8CF80E0E7CFEF927C
:1019F000FF920F931F93CF93DF936115710541F40D
:101A000080E0DF91CF911F910F91FF90EF900895AB
:101A100041155105B1F07B01EC010C811D81040FD2
:101A2000151FB8010E94CF0C882351F328813981FA
:101A30008C819D81B701820F931F0E9442231D83D9
:101A40000C8381E0DECFCF93DF931F921F92CDB73F
:101A5000DEB769831A8241E050E0BE016F5F7F4FBD
:101A60000E94F70C0F900F90DF91CF910895CF93C4
:101A7000DF93EC0188819981009711F00E94C621C3
:101A8000198218821D821C821B821A82DF91CF91DB
:101A90000895CF93DF93EC0141E050E06CE772E0F2
:101AA0000E94F70C811103C0CE010E94370DCE01B8
:101AB000DF91CF910895CF93DF93EC01FB01448137
:101AC0005581608171810E94F70C811103C0CE01A4
:101AD0000E94370DCE01DF91CF910895EF92FF92D2
:101AE0000F931F93CF93DF93EC017B018A01BA011F
:101AF0000E94CF0C81110BC0CE010E94370DCE0188
:101B0000DF91CF911F910F91FF90EF9008951D836A
:101B10000C83B701888199810E944223F0CFFC0198
:101B200011821082138212821582148250E040E0EA
:101B300065E772E00C946E0DFB0101900020E9F75F
:101B40003197AF01461B570B0C946E0D0F931F93EB
:101B5000CF93DF93CDB7DEB762970FB6F894DEBFB1
:101B60000FBECDBF8C01CB01F80111821082138210
:101B70001282158214824AE0BE016F5F7F4F0E947D
:101B8000F81BBE016F5F7F4FC8010E949C0D6296DB
:101B90000FB6F894DEBF0FBECDBFDF91CF911F917E
:101BA0000F910895FC0180819181009711F00C94B0
:101BB000C621089585ED8093BC008091B503909176
:101BC000B603A091B703B091B8030796A11DB11D4C
:101BD00023E0B695A795979587952A95D1F72091FB
:101BE000BC0024FD03C01092FE0308954091B5038C
:101BF0005091B6036091B7037091B803452B462B03
:101C0000472B69F30097A105B10541F025E32A951B
:101C1000F1F700000197A109B109E1CF8091B40368
:101C20000C942708FF920F931F93CF93DF93EC013F
:101C30008B01FB01F0800E948E1FF81621F06F2DA2
:101C4000CE010E94961FF801F1802196CE010E94DC
:101C50008E1FF81621F06F2DCE010E94961FC8012D
:101C6000DF91CF911F910F91FF900895FF920F93F5
:101C70001F93CF93DF9368E072E090E080E00E94D2
:101C8000120E66E072E08AE090E00E94120E64E0BC
:101C900072E084E190E00E94120E62E072E08EE158
:101CA00090E00E94120E60E072E088E290E00E94F4
:101CB000120E01E314E0C2E3D0E0F801F1908F01CD
:101CC000CE010E948E1FF81621F06F2DCE010E94CA
:101CD000961F2196C633D10581F7DF91CF911F91D1
:101CE0000F91FF9008950F931F93CF93DF93CDB77C
:101CF000DEB7CB54D1090FB6F894DEBF0FBECDBF0F
:101D000064E670E080E090E00E94AF0760916E03AF
:101D100070916F03809170039091710328961FAEAC
:101D20001EAE28972A961FAE1EAE2A972C961FAE7F
:101D30001EAE2C978E010F5F1F4F22E044E00E94E1
:101D4000B31B009709F4CEC0BC01CE018A5B9F4F44
:101D50000E949C0D60913104709132048091330493
:101D60009091340422961FAE1EAE229724961FAE89
:101D70001EAE249726961FAE1EAE26978E010F5FCD
:101D80001F4F22E044E00E94B31B009709F4B0C04B
:101D9000BC01CE01805C9F4F0E949C0D60910002AF
:101DA00070910102CE01CA960E94A60D60910202B6
:101DB00070910302CE01C4960E94A60D60910402A8
:101DC00070910502CE018E960E94A60D60910602CA
:101DD00070910702CE0188960E94A60D60910802BC
:101DE00070910902CE0101960E94A60D1BA21AA2B3
:101DF0001DA21CA21FA21EA269817A816115710514
:101E000031F04D815E81CE0182960E946E0DCE0131
:101E100082960E94490DBE01685D7F4F0E945B0D56
:101E20000E94490DBE01625D7F4F0E945B0D0E94C2
:101E3000490DBE016C5C7F4F0E945B0D0E94490DF5
:101E4000BE01665C7F4F0E945B0D0E94490DBE0182
:101E5000605C7F4F0E945B0D0E94490DBE016A5B72
:101E60007F4F0E945B0D26E08431920769F0FC01F0
:101E7000608171816115710509F440C0448155810B
:101E800084E196E00E946E0DCE0182960E94D20DF2
:101E9000CE0101960E94D20DCE0188960E94D20DED
:101EA000CE018E960E94D20DCE01C4960E94D20D14
:101EB000CE01CA960E94D20DCE01805C9F4F0E9437
:101EC000D20DCE018A5B9F4F0E94D20DC55BDF4FC2
:101ED0000FB6F894DEBF0FBECDBFDF91CF911F913B
:101EE0000F910895CE018A5B9F4F0E94370D32CF2C
:101EF000CE01805C9F4F0E94370D50CF84E196E069
:101F00000E94370DC1CFCF92DF92EF92FF921F93C5
:101F1000CF93DF93CDB7DEB72C970FB6F894DEBF23
:101F20000FBECDBFCE0107960E948F0D11E482EE49
:101F300094E00E944003892B09F408C182EE94E0EA
:101F40000E941E03823509F056C062E5CE01079655
:101F50000E94230D6EE772E085E494E00E946F0C0E
:101F60000E94730E64E176E085E494E00E94D4025E
:101F700064E176E082EE94E00E94D40280917B00DE
:101F8000877F80937B0010937C0080917A0080642F
:101F900080937A0080917A0086FDFCCF8091780052
:101FA00060917900762F682F072E000C880B990B13
:101FB0000E94951E20E030E040E85AE30E94D01EC7
:101FC00020E030E44CE955E40E94D01E20E030E0EF
:101FD00040E251E40E94112060936E0370936F03FE
:101FE000809370039093710364E176E085E494E05C
:101FF0000E94D4029CCF813431F562E370E080E02E
:1020000090E00E94AF07CE0107960E94C40C6B01BE
:1020100062E370E080E090E00E94AF07D092090296
:10202000C092080265E772E0CE0107960E949C0DFF
:102030000E945B0C80910802909109020E94D00BD3
:102040000E94730E95CF823411F562E370E080E058
:1020500090E00E94AF07CE0107960E94C40C6B016E
:1020600062E370E080E090E00E94AF07D092070248
:10207000C092060265E772E0CE0107960E949C0DB1
:102080000E945B0C8091060290910702D7CF8334A7
:10209000B1F462E370E080E090E00E94AF07CE010F
:1020A00007960E94C40C6B0162E370E080E090E050
:1020B0000E94AF07D0920502C0920402DBCF8434A5
:1020C000B1F462E370E080E090E00E94AF07CE01DF
:1020D00007960E94C40C6B0162E370E080E090E020
:1020E0000E94AF07D0920302C0920202C3CF853490
:1020F000B1F462E370E080E090E00E94AF07CE01AF
:1021000007960E94C40C6B0162E370E080E090E0EF
:102110000E94AF07D0920102C0920002ABCF8C3276
:1021200049F4CE0101960E948F0DCE0101960E94C6
:10213000D20D24CF682FCE0107960E94230D64E1B3
:1021400070E080E090E00E94AF0718CFCE010796C4
:102150000E94D20D2C960FB6F894DEBF0FBECDBFF5
:10216000DF91CF911F91FF90EF90DF90CF90089576
:102170001F920F920FB60F9211240BB60F922F934E
:102180003F934F935F936F937F938F939F93AF93FF
:10219000BF93EF93FF9385E494E00E946003FF9167
:1021A000EF91BF91AF919F918F917F916F915F91CF
:1021B0004F913F912F910F900BBE0F900FBE0F903C
:1021C0001F9018951F920F920FB60F9211240BB605
:1021D0000F922F938F939F93EF93FF93E09155046A
:1021E000F09156048081E0915B04F0915C0482FDE3
:1021F0001DC0908180915E048F5F8F7320915F047A
:10220000821741F0E0915E04F0E0EB5BFB4F958FAD
:1022100080935E04FF91EF919F918F912F910F908A
:102220000BBE0F900FBE0F901F9018958081F2CFBC
:102230001F920F920FB60F9211240BB60F922F938D
:102240003F934F935F936F937F938F939F93AF933E
:10225000BF93EF93FF9382EE94E00E946003FF919F
:10226000EF91BF91AF919F918F917F916F915F910E
:102270004F913F912F910F900BBE0F900FBE0F907B
:102280001F9018951F920F920FB60F9211240BB644
:102290000F922F938F939F93EF93FF93E091F2040C
:1022A000F091F3048081E091F804F091F90482FD4B
:1022B0001DC090818091FB048F5F8F732091FC047F
:1022C000821741F0E091FB04F0E0EE51FB4F958F57
:1022D0008093FB04FF91EF919F918F912F910F902D
:1022E0000BBE0F900FBE0F901F9018958081F2CFFC
:1022F0001F920F920FB60F9211242F933F938F933B
:102300009F93AF93BF938091410490914204A09119
:102310004304B09144043091240423E0230F2D376B
:1023200058F50196A11DB11D20932404809341040A
:1023300090934204A0934304B093440480912504F5
:1023400090912604A0912704B09128040196A11D24
:10235000B11D8093250490932604A0932704B09385
:102360002804BF91AF919F918F913F912F910F9032
:102370000FBE0F901F90189526E8230F0296A11DFF
:10238000B11DD2CF1F920F920FB60F9211240BB630
:102390000F922F933F934F935F936F937F938F93FE
:1023A0009F93AF93BF93EF93FF938091B900887F82
:1023B000803609F44DC008F040C0883209F4A9C045
:1023C00028F5803109F49DC0C8F4882309F4FBC0C6
:1023D000883009F496C0FF91EF91BF91AF919F9122
:1023E0008F917F916F915F914F913F912F910F90BE
:1023F0000BBE0F900FBE0F901F901895883109F4F7
:1024000088C0803241F78093FD0314C0803409F402
:102410009DC040F48033B9F38833E9F68093FD031F
:1024200085ECB0C0803509F485C0883509F496C0C4
:10243000883489F60E94DA0DCECF883909F48CC031
:1024400038F5883729F050F4883611F0803719F6BE
:1024500083E08093FE031092FC0357C0883809F490
:102460007BC0803919F0803809F0B5CF8091FC032A
:10247000803208F071C0E091FC0381E08E0F809300
:10248000FC038091BB00F0E0E452FC4F80833DC030
:10249000803B39F0E0F4803A09F479C0883A09F0D9
:1024A0009ACF84E08093FE031092DB031092DA034C
:1024B000E0912B04F0912C0419958091DA0381119D
:1024C0000FC081E08093DA031092BA0309C0803C08
:1024D00009F4A6CF883C09F4A3CF883B09F07BCF51
:1024E000E091DB0381E08E0F8093DB03F0E0E654A4
:1024F000FC4F80818093BB009091DB038091DA03D5
:1025000029C0809123048093BB0085EC8093BC009C
:1025100062CF9091220480912104981758F5E091A0
:10252000220481E08E0F80932204F0E0EF5FFB4FE6
:102530008081E9CFE091220481E08E0F8093220414
:102540008091BB00F0E0EF5FFB4F8083909122040D
:10255000809121049817C8F285E8D8CFE091220431
:1025600081E08E0F809322048091BB00F0E0EF5F4A
:10257000FB4F80838091000481115CCF81E08093C8
:10258000FF0384EA8093BC001092FE0324CF85EC05
:102590008093BC001092FE038091FC03803230F4E3
:1025A000E091FC03F0E0E452FC4F10826091FC03E8
:1025B00070E0E0912904F0912A048CED93E01995E4
:1025C0001092FC0308CF1092FD0334CFCF92DF921C
:1025D000EF92FF920F931F93E82FF92F05C0015040
:1025E00011092109310961F1908196239417B9F3FA
:1025F00005C0015011092109310911F1908196237B
:102600009413F7CFC12CD12CE12CF12C0AC08FEF01
:10261000C81AD80AE80AF80A0C151D052E053F0548
:1026200079F080818623841791F36C2D7D2D8E2D7A
:102630009F2D1F910F91FF90EF90DF90CF90089505
:1026400060E070E080E090E01F910F91FF90EF90CC
:10265000DF90CF900895CF93DF93109248041092AB
:10266000470488EE93E0A0E0B0E0809349049093A3
:102670004A04A0934B04B0934C042DE332E0309312
:102680004604209345044DEC50E05093520440938F
:1026900051044CEC50E0509354044093530448ECE4
:1026A00050E0509356044093550449EC50E0509349
:1026B0005804409357044AEC50E050935A04409316
:1026C00059044EEC50E050935C0440935B0410922C
:1026D0005E0410925F0410926004109261041092E4
:1026E000E5041092E4048093E6049093E704A09339
:1026F000E804B093E9043093E3042093E20425EC6A
:1027000030E03093EF042093EE0424EC30E030937B
:10271000F1042093F00420EC30E03093F304209394
:10272000F20421EC30E03093F5042093F40422EC21
:1027300030E03093F7042093F60426EC30E0309339
:10274000F9042093F8041092FB041092FC041092F8
:10275000FD041092FE041092820510928105809370
:10276000830590938405A0938505B09386058FE437
:1027700092E09093800580937F0510927B061092E3
:102780007A068BE692E0909379068093780687E24A
:1027900080937C0680E18093810682E080938206AC
:1027A00010928306C3E3D0E0D0937106C093700605
:1027B00084E390E0909373068093720685E390E043
:1027C000909375068093740681E090E0909377066D
:1027D0008093760661E083E30E94F30561E08091D7
:1027E00072060E94F30561E0809174060E94F30571
:1027F00061E0809174060E94AF04D0937106C0938B
:102800007006E0E3F6E080E796E011928E179F07EE
:10281000E1F7D0E0C0E08091760690917706C81786
:10282000D90774F540E06FE0CE010E94D10A809193
:10283000760690917706C817D9072CF447E06BE02D
:10284000CE010E94D10A40E069E0CE010E94D10A87
:102850008091760690917706C817D9071CF4CE01AF
:102860000E942F0B8091760690917706C817D907A2
:102870002CF440E06CE0CE010E94D10A2196CBCF2F
:102880008AE196E00E948F0D84E196E00E948F0D10
:1028900010920506109204061092FB051092FA059C
:1028A0001092100610921106109212061092130642
:1028B00084E690E0909301068093000688E090E023
:1028C000909307068093060689E090E090930906AE
:1028D000809308068AE090E090930B0680930A06A6
:1028E0008BE090E090930D0680930C0661E088E009
:1028F0000E94F30561E0809108060E94F30561E003
:1029000080910A060E94F30561E080910C060E9406
:10291000F30510920F0610920E0684E090E090935B
:1029200003068093020610928D0510929105109275
:1029300090051092920581E692E090938C05809329
:102940008B05E7EAF5E083EE95E0108214821382AE
:10295000158236968E179F07C1F78FE092E090930D
:10296000EE058093ED058BE092E09093F005809367
:10297000EF0584E08093F1058093F20583E192E016
:102980009093EC058093EB058AE090E09093F4053A
:102990008093F30584EF91E09093F6058093F5051D
:1029A0001092F9051092F8051092E7051092E805CB
:1029B0001092E9051092EA051092F705DF91CF9188
:1029C0000895CF93DF9300D000D000D01F92CDB7F1
:1029D000DEB7789484B5826084BD84B5816084BD9F
:1029E00085B5826085BD85B5816085BD80916E00AD
:1029F000816080936E0010928100809181008260DE
:102A0000809381008091810081608093810080911A
:102A100080008160809380008091B1008460809309
:102A2000B1008091B00081608093B00080919100EE
:102A300082608093910080919100816080939100E9
:102A4000809190008160809390008091A1008260CD
:102A50008093A1008091A10081608093A10080916A
:102A6000A00081608093A00080912101826080930A
:102A700021018091210181608093210180912001B9
:102A800081608093200180917A00846080937A0035
:102A900080917A00826080937A0080917A008160D0
:102AA00080937A0080917A00806880937A001092F7
:102AB000C10082EE94E00E94180285E494E00E9436
:102AC000180261E088E20E94F3051092300410922F
:102AD0002F0410922E0410922D040E94090882EDFA
:102AE00092E090932C0480932B0483ED92E09093DA
:102AF0002A048093290410927D06809182068230F8
:102B000018F098E090937D068093800662E370E071
:102B100080E090E00E94AF076091830688E796E02E
:102B20000E94CE0868EE73E080E090E00E94AF075C
:102B300060E388E796E00E944F0B0BE416E4C801BF
:102B40000197F1F760E388E796E00E944F0BC80118
:102B50000197F1F760E388E796E00E944F0B83E569
:102B600092E00197F1F760E288E796E00E944F0B50
:102B700060917D06606240E088E796E00E94680B05
:102B800084E080937E0640E06CE088E796E00E9457
:102B9000680B0E94B00B82E080937F0640E066E005
:102BA00088E796E00E94680B40E062E088E796E0E4
:102BB0000E94680B8BE39FE10197F1F78091760605
:102BC000909177061816190634F441E06CE090E015
:102BD00080E00E94D10A80917606909177061816BF
:102BE000190634F44FE06AE090E080E00E94D10AD8
:102BF00080917606909177061816190624F490E0D5
:102C000080E00E942F0B60E089E30E94F30561E001
:102C100084E00E94F30561E085E00E94F30561E035
:102C200086E00E94F30561E087E00E94F30561E021
:102C30008CE00E94F30561E08DE00E94F30561E005
:102C40008EE00E94F30561E08FE00E94F30561E0F1
:102C500080E10E94F30561E08EE10E94F30560E0EF
:102C60008FE10E94F30568E072E090E080E00E944E
:102C7000B00CFC018081918190930902809308023D
:102C800066E072E08AE090E00E94B00CFC01808176
:102C90009181909307028093060264E072E084E1E0
:102CA00090E00E94B00CFC0180819181909305021C
:102CB0008093040262E072E08EE190E00E94B00C2A
:102CC000FC0180819181909303028093020260E075
:102CD00072E088E290E00E94B00CFC01808191815A
:102CE000909301028093000282E390E00E948E1F85
:102CF0008093310483E390E00E948E1F809332041E
:102D000084E390E00E948E1F8093330485E390E07B
:102D10000E948E1F8093340488E0E1E3F2E0DE013C
:102D2000119601900D928A95E1F70E94B00B40E058
:102D300060E488E796E00E94680B8E010F5F1F4FEA
:102D40007E01F9E0EF0EF11CF80161918F0188E737
:102D500096E00E94BB0BE016F106B1F760E082E05E
:102D60000E947F0B60E088E796E00E94BB0B60E06A
:102D700083E00E947F0B61E872E088E796E00E94A2
:102D80006F0C60E08AE00E947F0B60E088E796E0CD
:102D90000E94BB0B61E081E00E947F0B69E872E05A
:102DA00088E796E00E946F0C68E873E180E090E0AD
:102DB0000E94AF0793E0492E512C23E2222E312CA2
:102DC0000E94830F86E30E9483040E94B00B60E0A0
:102DD00080E00E947F0B64E972E088E796E00E9441
:102DE0006F0C61E080E00E947F0B0E943306882315
:102DF00009F44AC28A3209F04AC20E94B00B60E06C
:102E000080E00E947F0B63EA72E088E796E00E9410
:102E10006F0C61E080E00E947F0B6BEA72E088E754
:102E200096E00E946F0C82E992E00E94970C882342
:102E300009F4E2C141E050E0509336044093350478
:102E400081E0809340040E94830F80914004882396
:102E500009F4E4C00E94B00B60E080E00E947F0BA8
:102E600062ED72E088E796E00E946F0C61E080E01E
:102E70000E947F0B65E772E08AE196E00E949C0D5C
:102E800001E010E080914004882309F4C7C00E944B
:102E90003306F82E882309F476C29AE289137AC39E
:102EA0008EED92E00E94970CF82E811119C082EEEF
:102EB00092E00E94970C811113C086EE92E00E946E
:102EC000970C81110DC08AEE92E00E94970C81113F
:102ED00007C08EEE92E00E94970C882309F4FCC193
:102EE00080900802909009028114910411F4F1106D
:102EF0004DC2A0900602B0900702A114B10431F4B3
:102F000082EE92E00E94970C811153C2C09004029D
:102F1000D0900502C114D10431F486EE92E00E94F3
:102F2000970C811159C2E0900202F0900302E11463
:102F3000F10431F48AEE92E00E94970C81115FC295
:102F400060900002709001026114710431F48EEE01
:102F500092E00E94970C811165C2E0913504F091D6
:102F60003604FA87E9878AE196E00E94C40C98014A
:102F700021503109220F331F49855A85041715073F
:102F800009F09CC2F901E75CFB4F718360838EED11
:102F900092E00E94970C882309F457C251E0851AE9
:102FA0009108909209028092080220E030E040EC03
:102FB00050E4609131047091320480913304909117
:102FC00034040E94A51F60933104709332048093EF
:102FD0003304909334040E94360E0E94B00B60E0DC
:102FE00080E00E947F0B66E373E088E796E00E9432
:102FF0006F0C61E080E00E947F0B61E473E088E782
:1030000096E00E946F0C1092400465E772E08AE13E
:1030100096E00E949C0D81E080933F0480913F04E4
:10302000882309F4E4C08091390490913A042091F6
:103030003B0430913C0440913D0450913E042817DC
:1030400039070CF074C3722F632F481759070CF41B
:1030500078C39A01AC01872F962F782F692FCA0168
:10306000472F562F70E060E0281739070CF4BAC2DA
:10307000672B09F0BCC290933C0480933B045093AF
:103080003A044093390430933E0420933D0460E0B9
:103090008EE10E94AF04C2010197F1F761E08EE179
:1030A0000E94AF04C1010197F1F760E08EE10E9438
:1030B000AF048FE10E94710C072E000C880B990B56
:1030C0000E94951E26E933E44BE05DE30E94D01E8A
:1030D00020E030E040EA51E40E9411200E94832069
:1030E000709338046093370409E314E0FF24F394E9
:1030F000F801819191918F018B37910509F089C277
:103100000E94330AF0920A0261E08CE00E94AF0450
:1031100060ED77E080E090E00E94AF0760E08CE037
:103120000E94AF04F4E00F331F0711F70E94330A27
:1031300081E080930A0210923F0461E088E20E94DD
:10314000AF0460ED77E080E090E00E94AF0760E0C0
:1031500088E20E94AF048FE10E94710C072E000CE0
:10316000880B990B0E94951E26E933E44BE05DE342
:103170000E94D01E20E030E040EA51E40E9411207D
:103180000E94832070933804609337040E94B00B30
:1031900060E080E00E947F0B60E080E00E947F0B97
:1031A00062E573E088E796E00E946F0C61E080E0E2
:1031B0000E947F0B63E673E088E796E00E946F0C45
:1031C00061E08CE00E947F0B80913704909138047D
:1031D0004F970CF46FC210923A0410923904109277
:1031E0003C0410923B0410923E0410923D040E9455
:1031F000830F0E94EF03E4CD87E892E00E94970CD2
:10320000882339F082E090E090933604809335046F
:1032100017CE80EE92E00E94970C882329F05092FE
:103220003604409235040CCE1092360410923504C8
:1032300065E772E08AE196E00E949C0D0E94B00B67
:1032400060E080E00E947F0B69EB72E088E796E027
:103250000E946F0C61E080E00E947F0B68EE73E0DB
:1032600080E090E00E94AF070E94B00B60E080E039
:103270000E947F0B64E972E088E796E00E946F0C81
:1032800061E080E00E947F0B0E94830FAECD83320D
:10329000B9F40E94B00B60E080E00E947F0B63EA0B
:1032A00072E088E796E00E946F0C61E080E00E9487
:1032B0007F0B68EC72E088E796E00E946F0CC3CD4C
:1032C000682F8AE196E00E94230D6AE176E088E7A4
:1032D00096E00E94D402D8CF0E94B00B60E080E05C
:1032E0000E947F0B62EF72E088E796E00E946F0C0D
:1032F00061E080E00E947F0B6CE573E088E796E078
:103300000E946F0C65E772E08AE196E00E949C0DD6
:1033100068EE73E080E090E00E94AF070430110592
:1033200094F50E94B00B60E080E00E947F0B60E0AB
:1033300081E00E947F0B68E473E088E796E00E94DA
:103340006F0C60E08AE00E947F0BB801CE0101960D
:103350000E94A60DBE016F5F7F4F88E796E00E9436
:10336000D402CE0101960E94D20D60E08BE00E9453
:103370007F0B6CED72E088E796E00E946F0C61E0D5
:1033800080E00E947F0B0E94830F7CCD0E94B00BD7
:1033900060E080E00E947F0B6CEF72E088E796E0CF
:1033A0000E946F0C61E080E00E947F0B68E073E098
:1033B000A5CF0E94B00B60E080E00E947F0B6CEF15
:1033C00072E088E796E00E946F0C61E080E00E9466
:1033D0007F0B60E173E092CF0E94B00B60E080E071
:1033E0000E947F0B6CEF72E088E796E00E946F0C02
:1033F00061E080E00E947F0B6BE173E07FCF0E9471
:10340000B00B60E080E00E947F0B6CEF72E088E719
:1034100096E00E946F0C61E080E00E947F0B63E207
:1034200073E06CCF0E94B00B60E080E00E947F0BE5
:103430006CEF72E088E796E00E946F0C61E080E03C
:103440000E947F0B69E273E059CF82EE92E00E9406
:10345000970C882341F081E0A81AB108B0920702C6
:10346000A0920602A2CD86EE92E00E94970C8823DD
:1034700041F091E0C91AD108D0920502C09204022D
:1034800094CD8AEE92E00E94970C882341F0E1E00F
:10349000EE1AF108F0920302E092020286CD8EEE5F
:1034A00092E00E94970C882309F47FCDF1E06F1A17
:1034B0007108709201026092000277CDF901E75C19
:1034C000FB4F718360838EED92E00E94970C8823FE
:1034D00041F141E0841A9108909209028092080219
:1034E00020E030E040EC50E460913104709132040F
:1034F00080913304909134040E94A51F609331049D
:103500007093320480933304909334040E94360EF7
:1035100065E772E08AE196E00E949C0D0F5F1F4F05
:10352000FDCE82EE92E00E94970C882341F051E09C
:10353000A51AB108B0920702A0920602D1CF86EE7A
:1035400092E00E94970C882341F081E0C81AD108CC
:10355000D0920502C0920402C3CF8AEE92E00E948C
:10356000970C882341F091E0E91AF108F0920302E8
:10357000E0920202B5CF8EEE92E00E94970C882373
:1035800009F4AECFE1E06E1A710870920102609208
:103590000002A6CFF3E28F1319C00E94B00B60E0C7
:1035A00080E00E947F0B63EA72E088E796E00E9469
:1035B0006F0C61E080E00E947F0B68EC72E088E7AE
:1035C00096E00E946F0C10924004DDCE682F8AE1D5
:1035D00096E00E94230D41E06F2D88E796E00E945F
:1035E000680BD1CE722F632F9C01872F962F8417E3
:1035F00095072CF4782F692FCA01472F562F2817CB
:1036000039070CF038CD782F692FC901272F362FB5
:1036100032CD8C37910589F40E94330AF0920A0268
:1036200061E08DE00E94AF0460ED77E080E090E023
:103630000E94AF0760E08DE073CD8D37910589F46E
:103640000E94330AF0920A0261E08EE00E94AF0409
:1036500060ED77E080E090E00E94AF0760E08EE0F0
:103660005FCD8E37910589F40E94330AF0920A02E9
:1036700061E08FE00E94AF0460ED77E080E090E0D1
:103680000E94AF0760E08FE04BCD8F37910509F0C6
:1036900049CD0E94330AF0920A0261E080E10E9463
:1036A000AF0460ED77E080E090E00E94AF0760E05B
:1036B00080E136CD60E08EE10E94AF04C201019747
:1036C000F1F761E08EE10E94AF04C1010197F1F7CB
:1036D00060E08EE10E94AF048FE10E94710C072E22
:1036E000000C880B990B0E94951E26E933E44BE0F1
:1036F0005DE30E94D01E20E030E040EA51E40E94E9
:1037000011200E9483207093380460933704CE0107
:1037100001960E94A60DBE016F5F7F4F88E796E07D
:103720000E94D402CE0101960E94D20D49CD4217CB
:10373000530754F0782F692FC9019A01472F562F4C
:103740009ACC9C01872F962F61E070E048175907AB
:103750000CF48ACC82CC84E196E00E94D20D8AE1FE
:1037600096E00C94D20DEF920F931F93CF93DF93BB
:10377000E80134E047FD34E1042E000C550B57FFFF
:1037800003C0519541955109E32E022F242FAE011C
:103790000E94321CCE01DF91CF911F910F91EF90CB
:1037A00008951F93FC0199278827BC01E894119183
:1037B0001032E9F3193010F01E30C8F31B3251F00B
:1037C0001D3249F4689406C00E94031C610F711DEC
:1037D000811D911D119110531A30B0F33EF4909554
:1037E0008095709561957F4F8F4F9F4F1F910895E2
:1037F000BB274A3031F4992322F4BDE2909581959C
:103800009F4F0C94191C592F482F372F262F660FC6
:10381000771F881F991F660F771F881F991F620FD8
:10382000731F841F951F660F771F881F991F0895A8
:10383000BB27FB015527AA27880F991FAA1FA4178A
:1038400010F0A41B83955051B9F7A05DAA3308F07E
:10385000A95DA193009779F7B111B1931192CB01B2
:103860000C94831E8F929F92AF92BF92CF92DF9261
:10387000EF92FF920F931F93CF93DF9300D000D06E
:1038800000D0CDB7DEB76A01F22EB02E102FFBE3C9
:10389000AF2EA01608F41BE31F5F012F27E0AE0137
:1038A0004F5F5F4F0E94AB1DBC018981982F9970BB
:1038B000913009F44EC09BE2E1FC04C09E2D917052
:1038C000E0FC49C05E2D5071E82FE87083FF55C0C1
:1038D00084E0911101C083E0EF2DE81B8F1508F003
:1038E000E0E0D6018E2F20E25523C9F1992329F07B
:1038F000D6019C93C60101966C0196012D5F3F4F46
:10390000E2FE33C08EE4D6018C9391E411969C9331
:10391000119712968C93D9018E2F90E281112AC0B3
:10392000E20FF32FF11D10828EEF9FEF29960FB655
:10393000F894DEBF0FBECDBFDF91CF911F910F91E5
:10394000FF90EF90DF90CF90BF90AF909F908F90BF
:1039500008959DE2B7CF90E2B5CF2D9381508111AC
:10396000FCCFCE0ED11CE0E0C1CF8EE6D6018C9309
:1039700091E6CCCF9D938150D1CF482F447082FFE8
:103980003DC084E0911101C083E08F1510F4EF2D4C
:10399000E81BD6018E2F20E2552309F1992329F047
:1039A000D6019C93C60101966C0196012D5F3F4F95
:1039B000E2FE1BC089E4D6018C938EE411968C93B1
:1039C000119786E412968C93D9018E2F90E288236A
:1039D00009F4A6CF9D938150FACF2D938150811188
:1039E000FCCFCE0ED11CE0E0D9CF89E6D6018C9376
:1039F0008EE611968C93119786E6E4CF9B0177FFB4
:103A000002C030E020E0A1E0B0E0911102C0B0E0DF
:103A1000A0E0F9013196AE0FBF1F8B2C912CBB207B
:103A200009F461C05401EFEFAE1ABE0AAA0DBB1D26
:103A3000FA161B0619F014F04F2D4A1B511188C0BD
:103A4000E3FC59C07601A42FB0E2A1114FC0C40E0F
:103A5000D11C992309F45BC040E0D6011196F60110
:103A600090836D01552309F448C0012F060F9A81F8
:103A7000582F507184FF03C0913309F40150101680
:103A80000CF047C0093008F008E0EEE2FE2E5B01C2
:103A9000A01AB10885019194819491082F3F3207B3
:103AA00029F4D601FC92F60131966F016217730773
:103AB00094F1021713077CF5DB01A21BB30BAA24B8
:103AC000A394B12CAC0EBD1EAA0DBB1D11968C91FA
:103AD00021503109D601119628153905F4F0F60167
:103AE00080836D01DBCFB12CA12CA0CFF701B19366
:103AF0007F01A150AACF9111B0CFD601942F50E3EE
:103B000002C05D9391509111FCCFC40ED11C40E0D6
:103B1000ACCF01E0BACF80E3DBCF6217730731F49B
:103B2000963388F4953311F4552369F0F6018083B8
:103B3000FD01842F90E2811108C0A40FB11D1C92D9
:103B400090E080E0F3CE81E3F1CF91938150F3CF09
:103B5000911183CF8ACF283008F027E03327DA018C
:103B6000990F311D87FD916000966105710539F44B
:103B700032602E5F3D9330E32A95E1F708959F3F31
:103B800030F080387105610509F03C5F3C5F3D9382
:103B9000913008F08068911DDF93CF931F930F93AE
:103BA000FF92EF92192F987F9695E92F969596950B
:103BB000E90FFF27EA5FFD4F99273327EE24FF2403
:103BC000A701E70105900894079428F4360FE71E33
:103BD000F81E491F511D660F771F881F991F0694F5
:103BE000A1F70590079428F4E70EF81E491F561F09
:103BF000C11D770F881F991F661F0694A1F70590B6
:103C0000079428F4F80E491F561FC71FD11D880FAF
:103C1000991F661F771F0694A1F70590079420F45B
:103C2000490F561FC71FD81F990F661F771F881F80
:103C30000694A9F784911095177041F0D695C79511
:103C400057954795F794E7941A95C1F7ECEAF1E098
:103C500068941590159135916591959105907FE245
:103C60007395E118F10A430B560BC90BD009C0F745
:103C7000E10CF11E431F561FC91FD01D7EF4703387
:103C800011F48A95E6CFE894015030F0080F0AF459
:103C90000027021708F4202F2395022F7A3328F0EB
:103CA00079E37D932A95E9F710C07D932A9589F6EB
:103CB000069497956795379517951794E118F10A2B
:103CC000430B560BC90BD00998F023957E91739541
:103CD0007A3308F070E37C932013B8F77E9170611B
:103CE0007D9330F0839571E37D9370E32A95E1F73E
:103CF0001124EF90FF900F911F91CF91DF919927A1
:103D000087FD90950895DC01FC01672F7191772361
:103D1000E1F7329704C07C916D9370836291AE1786
:103D2000BF07C8F30895E89409C097FB3EF4909547
:103D30008095709561957F4F8F4F9F4F9923A9F084
:103D4000F92F96E9BB279395F69587957795679513
:103D5000B795F111F8CFFAF4BB0F11F460FF1BC057
:103D60006F5F7F4F8F4F9F4F16C0882311F096E9EA
:103D700011C0772321F09EE8872F762F05C0662398
:103D800071F096E8862F70E060E02AF09A95660F51
:103D9000771F881FDAF7880F9695879597F908950A
:103DA0000E94E31E0C94541F0E94461F38F00E948C
:103DB0004D1F20F0952311F00C943D1F0C94431FD0
:103DC00011240C94881F0E94651F70F3959FC1F306
:103DD000950F50E0551F629FF001729FBB27F00DB9
:103DE000B11D639FAA27F00DB11DAA1F649F66270E
:103DF000B00DA11D661F829F2227B00DA11D621F5D
:103E0000739FB00DA11D621F839FA00D611D221F16
:103E1000749F3327A00D611D231F849F600D211DFA
:103E2000822F762F6A2F11249F5750409AF0F1F07D
:103E300088234AF0EE0FFF1FBB1F661F771F881FE6
:103E400091505040A9F79E3F510580F00C943D1FC2
:103E50000C94881F5F3FE4F3983ED4F386957795E2
:103E60006795B795F795E7959F5FC1F7FE2B880F8C
:103E7000911D9695879597F9089597F99F6780E822
:103E800070E060E008959FEF80EC089500240A94AC
:103E90001616170618060906089500240A94121625
:103EA0001306140605060895092E0394000C11F458
:103EB000882352F0BB0F40F4BF2B11F460FF04C005
:103EC0006F5F7F4F8F4F9F4F089557FD9058440F5E
:103ED000551F59F05F3F71F04795880F97FB991F69
:103EE00061F09F3F79F08795089512161306140626
:103EF000551FF2CF4695F1DF08C0161617061806B3
:103F0000991FF1CF86957105610508940895E8948D
:103F1000BB2766277727CB0197F90895F999FECF3C
:103F200092BD81BDF89A992780B50895262FF999F9
:103F3000FECF1FBA92BD81BD20BD0FB6F894FA9A8C
:103F4000F99A0FBE019608955058BB27AA270E94E0
:103F5000BC1F0C94541F0E94461F38F00E944D1F36
:103F600020F039F49F3F19F426F40C94431F0EF40B
:103F7000E095E7FB0C943D1FE92F0E94651F58F365
:103F8000BA17620773078407950720F079F4A6F53E
:103F90000C94871F0EF4E0950B2EBA2FA02D0B0169
:103FA000B90190010C01CA01A0011124FF27591B7E
:103FB00099F0593F50F4503E68F11A16F040A22F84
:103FC000232F342F4427585FF3CF469537952795F5
:103FD000A795F0405395C9F77EF41F16BA0B620BF4
:103FE000730B840BBAF09150A1F0FF0FBB1F661F3B
:103FF000771F881FC2F70EC0BA0F621F731F841F7E
:1040000048F4879577956795B795F7959E3F08F0A3
:10401000B0CF9395880F08F09927EE0F9795879565
:1040200008950E9425200C94541F0E944D1F58F0A3
:104030000E94461F40F029F45F3F29F00C943D1F79
:1040400051110C94881F0C94431F0E94651F68F344
:104050009923B1F3552391F3951B550BBB27AA2741
:1040600062177307840738F09F5F5F4F220F331F7B
:10407000441FAA1FA9F335D00E2E3AF0E0E832D043
:1040800091505040E695001CCAF72BD0FE2F29D046
:10409000660F771F881FBB1F261737074807AB0718
:1040A000B0E809F0BB0B802DBF01FF2793585F4F8D
:1040B0003AF09E3F510578F00C943D1F0C94881FF8
:1040C0005F3FE4F3983ED4F3869577956795B7956F
:1040D000F7959F5FC9F7880F911D9695879597F97A
:1040E0000895E1E0660F771F881FBB1F62177307F3
:1040F0008407BA0720F0621B730B840BBA0BEE1F08
:1041000088F7E09508950E948A206894B1110C9474
:10411000881F08950E946D1F88F09F5798F0B92F4F
:104120009927B751B0F0E1F0660F771F881F991FEC
:104130001AF0BA95C9F714C0B13091F00E94871FE8
:10414000B1E008950C94871F672F782F8827B85FF8
:1041500039F0B93FCCF3869577956795B395D9F744
:104160003EF490958095709561957F4F8F4F9F4F4E
:10417000089597FB072E16F4009407D077FD09D019
:104180000E94162107FC05D03EF4909581959F4F23
:104190000895709561957F4F0895A1E21A2EAA1B8C
:1041A000BB1BFD010DC0AA1FBB1FEE1FFF1FA217E7
:1041B000B307E407F50720F0A21BB30BE40BF50BE4
:1041C000661F771F881F991F1A9469F7609570956D
:1041D000809590959B01AC01BD01CF010895052EFE
:1041E00097FB1EF400940E94062157FD07D00E9401
:1041F000CD2007FC03D04EF40C9406215095409539
:10420000309521953F4F4F4F5F4F08959095809582
:10421000709561957F4F8F4F9F4F0895EE0FFF1F51
:10422000881F8BBF0790F691E02D1994AA1BBB1B2A
:1042300051E107C0AA1FBB1FA617B70710F0A61BA6
:10424000B70B881F991F5A95A9F780959095BC01C7
:10425000CD0108950F931F93CF93DF938230910583
:1042600010F482E090E0E0918606F091870630E05D
:1042700020E0B0E0A0E0309799F42115310509F471
:104280004AC0281B390B24303105D8F58A819B811F
:104290006115710589F1FB0193838283FE0111C0D1
:1042A000408151810281138148175907E0F0481776
:1042B000590799F4109761F012960C931297139680
:1042C0001C933296CF01DF91CF911F910F910895EA
:1042D0000093860610938706F4CF2115310551F01F
:1042E0004217530738F0A901DB019A01BD01DF0134
:1042F000F801C1CFEF01F9CF90938706809386062E
:10430000CDCFFE01E20FF31F81939193225031092B
:1043100039832883D7CF2091840630918506232BBB
:1043200041F4209125023091260230938506209396
:10433000840620912302309124022115310541F495
:104340002DB73EB74091270250912802241B350B10
:10435000E0918406F0918506E217F307A0F42E1B86
:104360003F0B2817390778F0AC014E5F5F4F2417D9
:10437000350748F04E0F5F1F509385064093840623
:10438000819391939FCFF0E0E0E09CCFCF93DF93B8
:104390000097E9F0FC01329713821282A091860601
:1043A000B0918706ED0130E020E01097A1F4208164
:1043B0003181820F931F2091840630918506281742
:1043C000390709F061C0F0938506E0938406DF9118
:1043D000CF910895EA01CE17DF07E8F54A815B81A6
:1043E0009E0141155105B1F7E901FB83EA8349912B
:1043F0005991C40FD51FEC17FD0761F4808191819D
:104400000296840F951FE9019983888382819381A5
:104410009B838A83F0E0E0E012968D919C91139744
:104420000097B9F52D913C911197CD010296820F1D
:10443000931F20918406309185062817390739F695
:10444000309751F51092870610928606B093850634
:10445000A0938406BCCFD383C28340815181840F53
:10446000951FC817D90761F44E5F5F4F8881998106
:10447000480F591F518340838A819B819383828394
:104480002115310509F0B0CFF0938706E093860639
:104490009ECFFD01DC01C0CF13821282D7CF4F9295
:1044A0005F926F927F928F929F92AF92BF92CF92C4
:1044B000DF92EF92FF920F931F93CF93DF938C01C4
:1044C000009799F4CB01DF91CF911F910F91FF904D
:1044D000EF90DF90CF90BF90AF909F908F907F90A4
:1044E0006F905F904F900C942A21FC01E60FF71F0C
:1044F0009C0122503109E217F30708F4AEC0D9013C
:10450000CD91DC911197C617D70720F1C530D105A1
:1045100078F0CE0104978617970750F0C61BD70B8B
:104520002297C193D1936D937C93CF010E94C621B2
:10453000C801DF91CF911F910F91FF90EF90DF9015
:10454000CF90BF90AF909F908F907F906F905F9033
:104550004F9008955B01AC1ABD0A4C018C0E9D1E54
:10456000A0918606B0918706512C412CF12CE12CAC
:10457000109731F5809184069091850688159905EC
:1045800009F05CC04616570608F058C08091230217
:1045900090912402009741F48DB79EB74091270275
:1045A00050912802841B950BE817F90708F055C0B5
:1045B000F0938506E0938406F90171836083B8CF98
:1045C0008D919C91119712966C90129713967C90F6
:1045D0001397A815B90559F56C0142E0C40ED11C1A
:1045E000CA14DB0420F1AC014A195B09DA01129606
:1045F000159780F06282738251834083D9016D9355
:104600007C93E114F10471F0D7011396FC93EE93BF
:1046100012978ECF22968C0F9D1FF9019183808374
:10462000F301EFCFF0938706E093860681CF48161B
:10463000590608F42C017D01D3019ACFCB010E94C9
:104640002A217C01009749F0AE01B8010E94302375
:10465000C8010E94C62187016BCF10E000E068CF3F
:10466000FB01DC0102C001900D9241505040D8F78F
:104670000895FB01DC018D91019080190110D9F39F
:10468000990B0895FB01DC0101900D920020E1F7E8
:10469000089511E0C4EED1E000E006C0802FFE01D5
:1046A0000E940E212196011DC53ED10780E008071A
:0646B000A9F7F894FFCF0A
:1046B60003000300030003000300011718191A2959
:1046C6002A2B2C3132334134353642373839432A96
:1046D6003023440000880680000000400014005487
:1046E60000000E11111F1B1F1F000000008203E2B5
:1046F600020F03CF0340031E033203000000009F96
:10470600087208B60948086B0858084908000000EE
:10471600002F06EF05AC0400000000BB0BE202B65A
:1047260009B5090D0A006E7565766F002C005252A8
:1047360000475255504F20320050524F594543546E
:104746004F203100456C696A6120756E2076617371
:104756006F3A00496E677265736F00436F727265D8
:104766006374616D656E7465005661736F206E6F5C
:10477600206578697374650043616E63656C616476
:104786006F005361626F72204E6F2E313A003132E4
:1047960033003132340031323500313236003132B5
:1047A60037004E6F206578697374650065786973A4
:1047B60074656E63696173006C696D6F6E2030009D
:1047C6007661696E696C6C61203000667265736132
:1047D6002030007576612030006E61706F6C6974F0
:1047E600616E6F203000507265706172616E646F29
:1047F6000048656C61646F005361626F72204E6F92
:104806002E005265746972652073752068656C6147
:0E481600646F0064697374616E6369613A00D7
:00000001FF
