:100000000C9468010C9499010C9499010C94990139
:100010000C9499010C9499010C9499010C949901F8
:100020000C9499010C9499010C9499010C949901E8
:100030000C9499010C9499010C9499010C949901D8
:100040000C9499010C9499010C9499010C949901C8
:100050000C9499010C9499010C9499010C943E0D07
:100060000C9499010C94080D0C94DE0C0C949901DD
:100070000C9499010C9499010C9499010C94990198
:100080000C9499010C9499010C9499010C94990188
:100090000C9499010C9499010C9499010C94880D7D
:1000A0000C9499010C9499010C9499010C94990168
:1000B0000C9499010C9499010C9499010C94990158
:1000C0000C9499010C9499010C9499010C94990148
:1000D0000C9499010C9499010C9499010C94990138
:1000E0000C9499010C94AA030C94C6030C948005FB
:1000F0000C94A9070C94BC070C94B8030C949702B9
:100100000C94C4040C94A0030C94C2030C943F05FB
:100110000C9427050C9407090C9462180C948B031B
:100120000C94F10E0C9412050C9466020C94380594
:100130000C941C030C9430020C94C3070C9414050B
:100140000C94A6030C9495030C94CC030C94B0036C
:100150000C94BE030C942F020C94B4030C949A07D5
:100160000C94E1040C9499030C942E040C942E022C
:100170000C94FD030C94F0070C94CF020C948902AC
:100180000C949D030C94D0040C9475020C94CB0336
:100190000C9491030C9499070C941B050C94D003B8
:1001A0000C94F7040C940C0B0C940609000021002D
:1001B000240027002A002D00300033000101000038
:1001C000040107010A0100002200250028002B007D
:1001D0002E003100340002010000050108010B016E
:1001E00000000A0B02090C0D0E08070304010000B1
:1001F00000000000000000000000000000000000FF
:1002000000000000000000000000000012111000BB
:1002100000000000000000000000000000000000DE
:10022000000000000000000020002300260029003C
:100230002C002F003200000100000301060109011B
:1002400005050505070508080808020202020A0A52
:100250000808040404040101010101010101030370
:10026000030303030303040707070C0C0C0C0C0C1B
:100270000C0C0202020206060606060606060B0B18
:100280000B0B0B0B0B0B0102102020080810204059
:10029000102040800201020108040201010204084A
:1002A00010204080804020100804020180040201D8
:1002B0008040201008040201080402010102040821
:1002C000102040800102040810204080F10E6218C6
:1002D00011241FBECFEFD1E2DEBFCDBF00E00CBFC7
:1002E00025E0A0E7B3E001C01D92AB3EB207E1F705
:1002F00013E0A0E0B2E0E4EAFBE300E00BBF02C0E1
:1003000007900D92A037B107D9F711E0C7E6D1E009
:1003100000E006C021970109802FFE010E94851B85
:10032000C636D10780E00807A9F70E9497100C9401
:10033000C01D0C94000096E0899FD0011124AC50A0
:10034000BB4F90967C936E935F9791E091969C93B0
:100350009197E0916105F091620590916005992374
:1003600039F0309751F0811108C08091100519942F
:10037000309719F05C968C91FACF0895CF92DF9266
:10038000EF92FF920F931F9396E0899FF001112443
:10039000EC50FB4F11A2278D30A12130310551F1D6
:1003A00078F02230310509F451C02330310509F4C9
:1003B00052C01F910F91FF90EF90DF90CF90089562
:1003C0006623B9F361E070E00E949B012FB7F894B7
:1003D0008091470490914804A0914904B0914A0447
:1003E0002FBF80934C0590934D05A0934E05B0937D
:1003F0004F05DFCF9FB7F894C0904704D0904804D2
:10040000E0904904F0904A049FBF00914C05109180
:100410004D0520914E0530914F05C01AD10AE20AD0
:10042000F30A00915E0510915F0530E020E00C15A5
:100430001D052E053F0550F462E070E01F910F91FD
:10044000FF90EF90DF90CF900C949B016111B1CFA2
:1004500063E070E0F3CF70E060E0F0CF08950895BE
:10046000AF92BF92CF92DF92EF92FF920F931F93C2
:10047000CF93DF936C017B018B01040F151FEB0100
:100480005E01AE18BF08C017D10759F06991D601B7
:10049000ED91FC910190F081E02DC6011995892B19
:1004A00079F7C501DF91CF911F910F91FF90EF90E8
:1004B000DF90CF90BF90AF900895FC0144815581AB
:1004C000608171818BED95E00C943002FC01538DBD
:1004D000448D252F30E0842F90E0821B930B54171E
:1004E00010F0CF96089501970895FC01918D828DAB
:1004F000981761F0A28DAE0FBF2FB11D5D968C9144
:10050000928D9F5F9F73928F90E008958FEF9FEF82
:100510000895FC01918D828D981731F0828DE80F3E
:10052000F11D858D90E008958FEF9FEF0895FC01F8
:10053000918D228D892F90E0805C9F4F821B9109C5
:100540008F73992708958BE494E00E94970221E02D
:10055000892B09F420E0822F0895FC01A48DA80FB7
:10056000B92FB11DA35ABF4F2C91848D90E00196F5
:100570008F739927848FA689B7892C93A089B18915
:100580008C91837080648C93938D848D981306C0B6
:100590000288F389E02D80818F7D80830895EF921A
:1005A000FF920F931F93CF93DF93EC0181E0888F2D
:1005B0009B8D8C8D98131AC0E889F989808185FFFD
:1005C00015C09FB7F894EE89FF896083E889F9899F
:1005D00080818370806480839FBF81E090E0DF91A1
:1005E000CF911F910F91FF90EF900895F62E0B8DF4
:1005F00010E00F5F1F4F0F731127E02E8C8D8E11AF
:100600000CC00FB607FCFACFE889F989808185FF15
:10061000F5CFCE010E94AD02F1CFEB8DEC0FFD2F97
:10062000F11DE35AFF4FF0829FB7F8940B8FEA89D0
:10063000FB8980818062CFCFCF93DF93EC01888DDF
:100640008823B9F0AA89BB89E889F9898C9185FD4D
:1006500003C0808186FD0DC00FB607FCF7CF8C91DB
:1006600085FFF2CF808185FFEDCFCE010E94AD02E4
:10067000E9CFDF91CF91089580E090E0892B29F0B8
:100680000E94A30281110E94000080E090E0892B6B
:1006900049F080E090E0892B29F00E940000811150
:1006A0000E94000080E090E0892B49F080E090E01B
:1006B000892B29F00E94000081110E94000080E037
:1006C00090E0892B49F080E090E0892B29F00E948E
:1006D000000081110C94000008958150823108F0CF
:1006E0005AC0E82FF0E08827E758FC4F8F4F0C9452
:1006F000851B99039D038B0391039503CB03A003F3
:10070000A603AA03B003B403B803BE03C203CB031A
:10071000C603CC03D003809180008F778093800044
:100720000895809180008F7DF9CF80918000877F30
:10073000F5CF84B58F7784BD089584B58F7DFBCFC9
:100740008091B0008F778093B00008958091B000C1
:100750008F7DF9CF809190008F77809390000895DE
:10076000809190008F7DF9CF80919000877FF5CFA9
:100770008091A0008F778093A00008958091A000C1
:100780008F7DF9CF8091A000877FF5CF80912001E8
:100790008F77809320010895809120018F7DF9CF7C
:1007A00080912001877FF5CFCF93DF93282F30E012
:1007B000F901E052FE4F8491F901EA57FD4FD491BF
:1007C000F901E05CFD4FC491CC23A1F081110E949E
:1007D0006D03EC2FF0E0EE0FFF1FEA5DFD4FA591DA
:1007E000B491EC91ED2381E090E009F480E0DF9199
:1007F000CF91089580E090E0FACF862F0C94D40337
:100800001F93CF93DF93282F30E0F901E052FE4F82
:100810008491F901EA57FD4FD491F901E05CFD4F55
:10082000C491CC23A9F0162F81110E946D03EC2FE7
:10083000F0E0EE0FFF1FEA53FE4FA591B4918FB782
:10084000F894EC91111108C0D095DE23DC938FBF92
:10085000DF91CF911F910895DE2BF8CF862F642F63
:100860000C940004CF93DF93EC0180916B05909181
:100870006C05029749F4C130D10509F43DC07CF5FF
:1008800060E0209709F439C080916B0590916C0568
:10089000049749F4C130D10509F45EC00CF039C0A9
:1008A000209709F444C080916B0590916C050597E1
:1008B00009F0E7C0CA30D10508F0E3C0FE0188277F
:1008C000EB59FB4F8F4F0C94851BC404D004E104FB
:1008D000F704120514051B05270538053F05C2302E
:1008E000D105A9F060E0C330D10571F680916F05A4
:1008F0000E94000460E006C061E080916F050E94E4
:10090000000461E0809171050E940004BDCF61E0A8
:10091000EDCFC230D10539F1C330D10509F0C3CFD5
:1009200061E080916F050E94000460E022C061E0F8
:1009300080916F050E94000460E0809171050E9423
:10094000000461E0809173050E94000460E08091E2
:1009500075050E940004A7CF60E080916F050E949A
:10096000000461E0EACF60E080916F050E9400041E
:1009700061E0809171050E94000460E08091730540
:100980000E94000461E0E3CF60E080916F050E9467
:10099000000461E0809171050E94000461E00BC0D9
:1009A00060E080916F050E94000461E08091710514
:1009B0000E94000460E0809173050E94000460E0E2
:1009C00010C060E080916F050E94000461E080919A
:1009D00071050E94000460E0809173050E9400048C
:1009E00061E0809175050E94000461E015C060E03F
:1009F00080916F050E94000461E0809171050E9462
:100A0000000460E0809173050E94000461E0809121
:100A100075050E94000460E080917705DF91CF9119
:100A20000C94000461E0E4CF61E080916F050E94C6
:100A3000000460E0E2CF61E080916F050E94000455
:100A400060E0809171050E94000461E0DBCF61E00D
:100A500080916F050E94000460E0809171050E9402
:100A6000000461E0809173050E94000460E0CFCF34
:100A700061E080916F050E94000460E08BCF60E030
:100A8000F8CFDF91CF910895CF93DF9390E0FC01F1
:100A9000EA57FD4F2491805C9D4FFC01849188238F
:100AA000C9F090E0880F991FFC01E455FE4FA59115
:100AB000B491FC01EA53FE4FC591D49161110DC070
:100AC0009FB7F8948C91209582238C93888128235A
:100AD00028839FBFDF91CF910895623051F49FB773
:100AE000F8943C91822F809583238C93E8812E2B60
:100AF000EFCF8FB7F894EC912E2B2C938FBFEACFCA
:100B0000862F642F0C9444056F927F928F929F9250
:100B1000AF92BF92CF92DF92EF92FF920F931F930B
:100B2000CF93DF9381E0809360058FB7F894409175
:100B30004704509148046091490470914A048FBF62
:100B40008091500590915105A0915205B0915305A7
:100B5000481B590B6A0B7B0B80915C0590915D05DE
:100B6000B0E0A0E084179507A607B70708F01DC1FD
:100B7000C0E080915A05C81760F4E0915605F091E5
:100B80005705EC0FF11D62E080810E944405CF5FA4
:100B9000F0CF712C812C912C5401839480915B05B2
:100BA000781608F05FC0072D10E0E0915805F0912D
:100BB0005905E00FF11F61E080810E944405E0913A
:100BC0005805F0915905E00FF11F60E080810E9407
:100BD0000004D501C401072C04C0880F991FAA1F67
:100BE000BB1F0A94D2F76C017C01E094F094612C55
:100BF00080915A056816F8F4C62DD0E0E0915605AC
:100C0000F0915705EC0FFD1F80810E94D4032496BC
:100C1000CC0FDD1FCC50DB4F892B41F488819981AB
:100C20008C299D29998388836394E2CF8881998157
:100C30008E219F21F7CFE0915805F0915905E00FE3
:100C4000F11F61E080810E9400048091580590911D
:100C50005905080F191F60E0F80180810E944405C2
:100C600073949CCFC4EFD4E0FE018FEF9FEF278DEC
:100C700030A1232B21F4148E968F858F11A23696E6
:100C800025E0E033F20799F7F12C96E0D92E809118
:100C90005A05F81608F050C0E12C0F2D10E0000F97
:100CA000111F04501B4F20915B05E21608F042C053
:100CB000F801608171810E2C02C0769567950A94C7
:100CC000E2F7F29E900111242E0D311DE4EFF4E0C5
:100CD00080E0458D568D2417350709F46AC08F5F73
:100CE00036968A30B1F760FF23C0E4EFF4E090E07D
:100CF00080E0448D411117C0E0915405F0915505F5
:100D0000E20FF31F4081D89EF001D99EF00D11240F
:100D1000EC50FB4F448F368F258F10A2178E61E069
:100D20000E94BE0105C0019636968A30910509F7EA
:100D3000E394B9CFF394ABCF80E099A19111892FBF
:100D40002696F5E0C033DF07C1F79FB7F8944091CE
:100D50004704509148046091490470914A049FBF30
:100D6000409350055093510560935205709353057D
:100D70008823D9F0809115058823B9F08091130557
:100D800090911405019789F480911005DF91CF911E
:100D90001F910F91FF90EF90DF90CF90BF90AF9099
:100DA0009F908F907F906F9008951092600580E0E3
:100DB000EDCF6170B5CF3FB7F89480912304909147
:100DC0002404A0912504B091260426B5A89B05C053
:100DD0002F3F19F00196A11DB11D3FBFBA2FA92FBA
:100DE000982F8827BC01CD01620F711D811D911DB7
:100DF00042E0660F771F881F991F4A95D1F7089523
:100E00008F929F92AF92BF92CF92DF92EF92FF921A
:100E10006B017C010E94DB064B015C01C114D10413
:100E2000E104F104B9F00E94DB06681979098A0926
:100E30009B09683E73408105910580F321E0C21A49
:100E4000D108E108F10888EE880E83E0981EA11C05
:100E5000B11CE4CFFF90EF90DF90CF90BF90AF90A8
:100E60009F908F9008952091D803260F3327331F2A
:100E700021323105ECF42091FC03FC0190E080E08C
:100E8000243069F082E00895A091D8032191AC014B
:100E900048545C4FA40FB52FB11D2C9301968617B3
:100EA00098F38091D803680F6093D80380E0089589
:100EB00081E008951092FC0381E08093FE0310927C
:100EC000FD0361E084E10E94000461E085E10E948D
:100ED0000004E9EBF0E080818E7F808380818D7F4C
:100EE000808388E48093B80085E48093BC000895F3
:100EF000CF93DF9391E09093B7038823B9F0C0912B
:100F0000B800D091BA008091BC008A7B8093BC006D
:100F100060E084E10E94000460E085E10E9400043A
:100F20000E945A07D093BA00C093B800DF91CF91C6
:100F300008950895E0912E0480912D04E81730F46F
:100F4000F0E0EE56FC4F808190E008958FEF9FEF28
:100F5000089590912E0480912D042FEF3FEF981764
:100F600048F4E92FF0E0EE56FC4F208130E09F5F1F
:100F700090932E04C901089580912D0490912E0420
:100F8000891B990B0895CF92DF92EF92FF920F93F6
:100F90001F93CF93DF937C01CB018A0120919103B2
:100FA000222389F0EB016B01C40ED51ECC15DD05A3
:100FB00069F06991D701ED91FC910190F081E02DEC
:100FC000C7011995F3CF642F0E943307C801DF9141
:100FD000CF911F910F91FF90EF90DF90CF900895E8
:100FE000CF93DF931F92CDB7DEB769832091910332
:100FF0002223F9F020912B04203258F021E030E038
:10100000FC013383228390E080E00F90DF91CF9149
:10101000089580912C04E82FF0E0EF58FC4F99815F
:1010200090838F5F80932C0480932B0481E090E069
:10103000ECCF61E0CE0101960E943307F7CFCF924B
:10104000DF92EF92FF920F931F93CF93DF93FC01F8
:10105000C48121E020939103C093700310922C046B
:1010600010922B048385682B88EE94E00E94F00791
:10107000D0912B04D13208F092C00E94DB066B01A4
:101080007C018091FC03811165C082E08093FC03A8
:1010900081E08093FE038FEF8093FB031092200486
:1010A000D0931F04A1E7B3E0EFEFF3E080E0D813A3
:1010B00085C01092210480912104CC0FC82BC093CD
:1010C00021048091FD03813009F07CC01092FD0362
:1010D0000E94DB066B017C01809121048093BB00A0
:1010E0008091B3039091B403A091B503B091B6037E
:1010F000892B8A2B8B2B99F00E94DB060091B3037E
:101100001091B4032091B5033091B6036C197D0999
:101110008E099F090617170728073907E0F1809104
:10112000BC0083FDD9CF85EC8093BC000E94DB0618
:101130006B017C018091FC03823009F445C08091F1
:10114000FB038F3F61F18091FB03803241F180917D
:10115000FB0325C08091B3039091B403A091B50324
:10116000B091B603892B8A2B8B2B09F48ACF0E946E
:10117000DB060091B3031091B4032091B5033091C5
:10118000B6036C197D098E099F09061717072807F2
:10119000390708F076CF8091B2030E947807109249
:1011A0002C0410922B0410929103DF91CF911F9188
:1011B0000F91FF90EF90DF90CF9008959D919193C4
:1011C0008F5F75CF85EEB0CF8091B3039091B4035C
:1011D000A091B503B091B603892B8A2B8B2B09F410
:1011E000A9CF0E94DB060091B3031091B4032091B4
:1011F000B5033091B6036C197D098E099F09061756
:1012000017072807390708F095CFC5CF089590E054
:1012100080E00895CF92DF92EF92FF920F931F9399
:1012200081E090E090936405809363050E94DB0663
:101230000091790510917A0520917B0530917C050C
:101240006B017C01C01AD10AE20AF30A009165051C
:10125000109166052091670530916805C016D1068A
:10126000E206F30618F36093790570937A0580938C
:101270007B0590937C0580916D0590916E05209182
:101280006305309164052130310569F1892B11F135
:1012900080916D0590916E05019790936E058093F6
:1012A0006D0580916D0590916E0520916B053091D3
:1012B0006C0564E070E02530310511F46AE070E0FF
:1012C0000E94301B1F910F91FF90EF90DF90CF9005
:1012D0000C9432048091690590916A0590936E0593
:1012E00080936D05D5CF019690936E0580936D0523
:1012F0002091690530916A058217930791F6109243
:101300006E0510926D05CDCFCF93DF9320916905C7
:1013100030916A05032E000C440B550B60E077E812
:1013200083E993E00E94661BCA01B90123E030E023
:1013300040E050E00E94661B2093650530936605EF
:101340004093670550936805C3E0D0E080910202A6
:10135000882309F460C00E940A0961E084E00E94C9
:10136000000460E085E00E94000461E086E00E94E5
:10137000000460E087E00E94000468E270E080E022
:1013800090E00E9400070E940A0961E084E00E9448
:10139000000460E085E00E94000460E086E00E94B6
:1013A000000461E087E00E94000468E270E080E0F1
:1013B00090E00E9400070E940A0960E084E00E9419
:1013C000000461E085E00E94000460E086E00E9485
:1013D000000461E087E00E94000468E270E080E0C1
:1013E00090E00E9400070E940A0960E084E00E94E9
:1013F000000461E085E00E94000461E086E00E9454
:10140000000460E087E00E94000468E270E080E091
:1014100090E00E940007219709F098CF10920202F5
:1014200060E084E00E94000460E085E00E94000427
:1014300060E086E00E94000460E087E0DF91CF91E9
:101440000C940004CF92DF92EF92FF920F931F93C0
:10145000CF93DF931F921F92CDB7DEB769834A8384
:10146000880F991F0091D9051091DA05000F111FFF
:10147000E3E8F5E09F01235835402017310714F4C5
:101480001192F8CF2981FC01ED57FA4F21838A810F
:10149000808360E08091D7050E9400041016110639
:1014A00004F501501109F801ED57FA4FE080D09092
:1014B000D505C090D30588E0F82E6E2D661F6627EF
:1014C000661F8C2D0E940004EE0C61E08D2D0E94A1
:1014D000000460E08D2D0E940004FA94F110EDCF1D
:1014E000DDCF61E08091D7050F900F90DF91CF9114
:1014F0001F910F91FF90EF90DF90CF900C9400041C
:10150000EF92FF920F931F93CF937C018C0183E0A6
:10151000000F111F8A95E1F70D561A4FC1E0F8012F
:1015200011928F0140E06C2FC7010E94220ACF5F09
:10153000C930A9F7CF911F910F91FF90EF900895B7
:101540000F931F93CF938C01C62F0E941F086C2FFF
:101550006460C8010E941F086C2F6B7FC8010E9445
:101560001F0883EC90E00197F1F7CF911F910F9145
:1015700008950F931F93CF93DF938C01D62FC42F21
:10158000607F642B0E94A00A80E1D89FB0011124E3
:101590006C2BC801DF91CF911F910F910C94A00A81
:1015A000CF93DF9300D000D01F921F92CDB7DEB74C
:1015B00098E0E1E2F2E0DE01119601900D929A9539
:1015C000E1F79091E305961708F46FEF262F30E0CE
:1015D000220F331F41E050E04C0F5D1F240F351FD9
:1015E000F9016081680F606840E08BED95E0289616
:1015F0000FB6F894DEBF0FBECDBFDF91CF910C9434
:10160000B90A40E061E08BED95E00E94B90A8BE3F6
:101610009FE10197F1F7089541E00E94B90A81E046
:1016200090E00895FB0101900020E9F73197AF01A8
:10163000461B570BDC01ED91FC910280F381E02DFC
:1016400019948F929F92AF92BF920F931F93CF9353
:10165000DF93CDB7DEB7A1970FB6F894DEBF0FBE0C
:10166000CDBF19A2423008F44AE08E010F5D1F4F32
:10167000842E912CB12CA12CA50194010E94441B15
:10168000E62FB901CA01EA3004F5E05DD801EE9316
:101690008D01232B242B252B79F790E080E01097E8
:1016A00029F0BD018BE494E00E94120BA1960FB6C5
:1016B000F894DEBF0FBECDBFDF91CF911F910F9188
:1016C000BF90AF909F908F900895E95CDFCFCF924D
:1016D000DF92EF92FF92CF93DF936C01990FEE08A8
:1016E000FF08F7FE21C06DE28BE494E00E94CF0278
:1016F000EC0166277727CB016C197D098E099F09BC
:101700004AE00E94210BC80FD91F6BE672E08BE400
:1017100094E00E94120B8C0F9D1FDF91CF91FF90E0
:10172000EF90DF90CF9008954AE0C701B6010E9484
:10173000210BEC01EACF0C94120BFC01808191810A
:10174000009711F00C943D1C089520918105309173
:101750008205232B39F421E0FC018081882361F08C
:1017600020E00AC0BC0180917D0590917E050E9419
:10177000B01D21E0892BA1F7822F08950F931F93AD
:1017800090E0FC01EA57FD4F6491FC01E05CFD4FE5
:10179000E491F0E0EE0FFF1FEA5DFD4F859194911B
:1017A00000E412E42FE030E0462F0E94AC0E6115F9
:1017B00071058105910529F06F5F7F4F8F4F9F4F16
:1017C0009F701F910F910895FF920F931F93CF93D6
:1017D000DF93EC018B01FB01F0800E94FB19F816EE
:1017E00021F06F2DCE010E94031AF801F18021969D
:1017F000CE010E94FB19F81621F06F2DCE010E9438
:10180000031AC801DF91CF911F910F91FF900895A6
:101810000F931F93CF93DF938C01EB010E94FB1971
:101820008883C80101960E94FB198983CE01DF914C
:10183000CF911F910F9108950F931F93CF93DF9333
:10184000EC0188819981009759F02A813B81261704
:10185000370730F081E0DF91CF911F910F9108950C
:101860008B016F5F7F4F0E94C61C009759F09983D0
:1018700088831B830A832C813D81232B59F7FC012C
:101880001082E8CF80E0E7CFEF92FF920F931F9393
:10189000CF93DF93EC017B01FB0101900020E9F77E
:1018A00031978F01061B170BB8010E941C0C288171
:1018B0003981811113C02115310519F0C9010E9428
:1018C0003D1C198218821D821C821B821A82DF91A4
:1018D000CF911F910F91FF90EF9008951D830C837E
:1018E000B701C901DF91CF911F910F91FF90EF9048
:1018F0000C94B91D0F931F93CF93DF93CDB7DEB731
:1019000062970FB6F894DEBF0FBECDBF8C01CB013E
:10191000F8011182108213821282158214824AE029
:10192000BE016F5F7F4F0E948D18BE016F5F7F4FBA
:10193000C8010E94440C62960FB6F894DEBF0FBE39
:10194000CDBFDF91CF911F910F91089585ED8093C9
:10195000BC008091B3039091B403A091B503B09102
:10196000B6030796A11DB11D23E0B695A7959795DF
:1019700087952A95D1F72091BC0024FD03C01092D1
:10198000FC0308954091B3035091B4036091B503F3
:101990007091B603452B462B472B69F30097A105A1
:1019A000B10541F025E32A95F1F700000197A1095F
:1019B000B109E1CF8091B2030C9478071F920F9286
:1019C0000FB60F9211240BB60F922F933F934F93A4
:1019D0005F936F937F938F939F93AF93BF93EF9397
:1019E000FF938BE494E00E94AD02FF91EF91BF91D1
:1019F000AF919F918F917F916F915F914F913F91A7
:101A00002F910F900BBE0F900FBE0F901F90189547
:101A10001F920F920FB60F9211240BB60F922F93B5
:101A20008F939F93EF93FF93E0915B04F0915C049D
:101A30008081E0916104F091620482FD1DC090817B
:101A4000809164048F5F8F7320916504821741F049
:101A5000E0916404F0E0E55BFB4F958F80936404B4
:101A6000FF91EF919F918F912F910F900BBE0F904F
:101A70000FBE0F901F9018958081F2CF1F920F928A
:101A80000FB60F9211242F933F938F939F93AF9391
:101A9000BF938091470490914804A0914904B0916C
:101AA0004A043091220423E0230F2D3758F5019684
:101AB000A11DB11D209322048093470490934804F4
:101AC000A0934904B0934A04809123049091240484
:101AD000A0912504B09126040196A11DB11D80930B
:101AE000230490932404A0932504B0932604BF916B
:101AF000AF919F918F913F912F910F900FBE0F90BB
:101B00001F90189526E8230F0296A11DB11DD2CF74
:101B10001F920F920FB60F9211240BB60F922F93B4
:101B20003F934F935F936F937F938F939F93AF9365
:101B3000BF93EF93FF938091B900887F803609F4BB
:101B40004DC008F040C0883209F4A9C028F58031A2
:101B500009F49DC0C8F4882309F4FBC0883009F457
:101B600096C0FF91EF91BF91AF919F918F917F911F
:101B70006F915F914F913F912F910F900BBE0F90FE
:101B80000FBE0F901F901895883109F488C08032DD
:101B900041F78093FB0314C0803409F49DC040F4E6
:101BA0008033B9F38833E9F68093FB0385ECB0C04A
:101BB000803509F485C0883509F496C0883489F6E3
:101BC0000E94A60CCECF883909F48CC038F588372E
:101BD00029F050F4883611F0803719F683E08093AD
:101BE000FC031092FA0357C0883809F47BC080398F
:101BF00019F0803809F0B5CF8091FA03803208F0EF
:101C000071C0E091FA0381E08E0F8093FA03809116
:101C1000BB00F0E0E652FC4F80833DC0803B39F0D2
:101C2000E0F4803A09F479C0883A09F09ACF84E068
:101C30008093FC031092D9031092D803E0912904F9
:101C4000F0912A0419958091D80381110FC081E089
:101C50008093D8031092B80309C0803C09F4A6CF42
:101C6000883C09F4A3CF883B09F07BCFE091D903EE
:101C700081E08E0F8093D903F0E0E854FC4F80811F
:101C80008093BB009091D9038091D80329C08091A3
:101C900021048093BB0085EC8093BC0062CF9091BF
:101CA000200480911F04981758F5E091200481E0EA
:101CB0008E0F80932004F0E0E150FC4F8081E9CF4B
:101CC000E091200481E08E0F809320048091BB007E
:101CD000F0E0E150FC4F80839091200480911F043C
:101CE0009817C8F285E8D8CFE091200481E08E0FE4
:101CF000809320048091BB00F0E0E150FC4F808392
:101D00008091FE0381115CCF81E08093FD0384EA22
:101D10008093BC001092FC0324CF85EC8093BC0020
:101D20001092FC038091FA03803230F4E091FA03C0
:101D3000F0E0E652FC4F10826091FA0370E0E0910F
:101D40002704F09128048AED93E019951092FA0384
:101D500008CF1092FB0334CFCF92DF92EF92FF9225
:101D60000F931F93E82FF92F05C001501109210986
:101D7000310961F1908196239417B9F305C00150A0
:101D800011092109310911F1908196239413F7CF9C
:101D9000C12CD12CE12CF12C0AC08FEFC81AD80A23
:101DA000E80AF80A0C151D052E053F0579F080811B
:101DB0008623841791F36C2D7D2D8E2D9F2D1F91E1
:101DC0000F91FF90EF90DF90CF90089560E070E06A
:101DD00080E090E01F910F91FF90EF90DF90CF9007
:101DE0000895CF93DF9310924E0410924D0488EE25
:101DF00093E0A0E0B0E080934F0490935004A09350
:101E00005104B093520425E332E030934C04209304
:101E10004B0425EC30E0309358042093570424EC15
:101E200030E030935A042093590420EC30E0309392
:101E30005C0420935B0421EC30E030935E0420933B
:101E40005D0422EC30E03093600420935F0426ECC4
:101E500030E0309362042093610410926404109285
:101E6000650410926604109267041092EB041092BD
:101E7000EA048093EC049093ED04A093EE04B093F5
:101E8000EF0487E492E09093E9048093E8041092D1
:101E9000DE051092DD0583E692E09093DC058093E9
:101EA000DB0587E28093DF0580E18093E40582E033
:101EB0008093E5051092E605C3E3D0E0D093D40506
:101EC000C093D30584E390E09093D6058093D50525
:101ED00085E390E09093D8058093D70581E090E06A
:101EE0009093DA058093D90561E083E30E9444056D
:101EF00061E08091D5050E94440561E08091D7059D
:101F00000E94440561E08091D7050E940004D093AF
:101F1000D405C093D305E3E9F5E083ED95E0119294
:101F20008E179F07E1F7D0E0C0E08091D90590912E
:101F3000DA05C817D90774F540E06FE0CE010E94BA
:101F4000220A8091D9059091DA05C817D9072CF497
:101F500047E06BE0CE010E94220A40E069E0CE013A
:101F60000E94220A8091D9059091DA05C817D907F5
:101F70001CF4CE010E94800A8091D9059091DA0567
:101F8000C817D9072CF440E06CE0CE010E94220A69
:101F90002196CBCF10927E0510927D051092800580
:101FA00010927F05109282051092810570E060E02A
:101FB0008DE795E00E941C0C20917D0530917E05F7
:101FC0008111ABC02115310519F0C9010E943D1CDA
:101FD00010927E0510927D05109282051092810567
:101FE0001092800510927F0510926E0510926D057B
:101FF00010926405109263051092790510927A058B
:1020000010927B0510927C0584E690E090936A051F
:102010008093690588E090E09093700580936F0548
:1020200089E090E090937205809371058AE090E0DA
:1020300090937405809373058BE090E09093760500
:102040008093750561E088E00E94440561E080911D
:1020500071050E94440561E0809173050E9444056A
:1020600061E0809175050E944405109278051092F8
:10207000770584E090E090936C0580936B05109257
:10208000F6041092FA041092F9041092FB0489E508
:1020900092E09093F5048093F404E0E1F5E08CE4A1
:1020A00095E0108214821382158236968E179F0750
:1020B000C1F787E092E0909357058093560583E03F
:1020C00092E0909359058093580584E080935A05D7
:1020D00080935B058BE092E09093550580935405C7
:1020E0008AE090E090935D0580935C0584EF91E039
:1020F00090935F0580935E051092620510926105D2
:1021000010925005109251051092520510925305ED
:1021100010926005DF91CF91089510928205109280
:1021200081056DE672E0C9010E94B91D5DCFCF93B4
:10213000DF9300D000D01F921F92CDB7DEB7789406
:1021400084B5826084BD84B5816084BD85B58260BC
:1021500085BD85B5816085BD80916E00816080936D
:102160006E001092810080918100826080938100D6
:1021700080918100816080938100809180008160E6
:10218000809380008091B10084608093B100809141
:10219000B00081608093B000809191008260809354
:1021A00091008091910081608093910080919000D6
:1021B0008160809390008091A10082608093A10053
:1021C0008091A10081608093A1008091A000816036
:1021D0008093A000809121018260809321018091F1
:1021E0002101816080932101809120018160809391
:1021F000200180917A00846080937A0080917A0037
:10220000826080937A0080917A00816080937A0066
:1022100080917A00806880937A001092C100E091EA
:102220005B04F0915C0482E08083E0915704F091BC
:1022300058041082E0915904F0915A048FEC808385
:1022400010926304E0915F04F091600486E0808363
:10225000E0915D04F0915E04808180618083E09173
:102260005D04F0915E04808188608083E0915D046C
:10227000F0915E04808180688083E0915D04F0913C
:102280005E0480818F7D808361E088E20E94440546
:1022900010922E0410922D0410922C0410922B04F4
:1022A0000E945A078EE292E090932A0480932904B8
:1022B0008FE292E090932804809327041092E00527
:1022C0008091E505823018F098E09093E0058093C6
:1022D000E30562E370E080E090E00E940007609117
:1022E000E6058BED95E00E941F0868EE73E080E044
:1022F00090E00E94000760E38BED95E00E94A00A49
:102300000BE416E4C8010197F1F760E38BED95E06B
:102310000E94A00AC8010197F1F760E38BED95E0F8
:102320000E94A00A83E592E00197F1F760E28BED4D
:1023300095E00E94A00A6091E005606240E08BEDAC
:1023400095E00E94B90A84E08093E10540E06CE0EA
:102350008BED95E00E94B90A0E94010B82E0809308
:10236000E20540E066E08BED95E00E94B90A40E0AE
:1023700062E08BED95E00E94B90A8BE39FE1019743
:10238000F1F78091D9059091DA051816190634F401
:1023900041E06CE090E080E00E94220A8091D90543
:1023A0009091DA051816190634F44FE06AE090E0CF
:1023B00080E00E94220A8091D9059091DA051816D2
:1023C000190624F490E080E00E94800A61E084E035
:1023D0000E94440561E085E00E94440561E086E0DA
:1023E0000E94440561E087E00E94440561E08CE0C2
:1023F0000E94440561E08DE00E94440561E08EE0AA
:102400000E94440561E08FE00E94440561E080E1A4
:102410000E94440561E08EE10E94440560E08FE186
:102420000E94440560E072E090E080E00E94080CA9
:10243000FC018081918190930102809300026BE303
:1024400074E08AE090E00E94080CFC018081918198
:1024500090933C0480933B0469E374E084E190E052
:102460000E94080CFC018081918190933A04809332
:10247000390467E374E08EE190E00E94080CFC01EF
:1024800080819181909338048093370465E374E0F0
:1024900088E290E00E94080CFC0180819181909379
:1024A00036048093350482E390E00E94FB19809308
:1024B0002F0483E390E00E94FB198093300484E3AF
:1024C00090E00E94FB198093310485E390E00E9424
:1024D000FB198093320480910002909101020E94C6
:1024E000670B80913B0490913C040E94670B8091A4
:1024F000390490913A040E94670B809137049091BF
:1025000038040E94670B80913504909136040E9434
:10251000670BC0902F04D0903004E0903104F0900D
:102520003204A7019601C701B6010E942B1B6EE67B
:1025300072E081111BC046015701E894B7F82FEFF4
:102540003FEF4FE75FE7C501B4010E942B1B8111EC
:102550007BC22FEF3FEF4FE75FE7C501B4010E9459
:10256000D71818160CF070C262E772E08BE494E0A2
:102570000E94120B6BE672E08BE494E00E94120B57
:1025800088E0E9E2F2E0DE01119601900D928A9571
:10259000E1F70E94010B40E060E48BED95E00E94C2
:1025A000B90A8E010F5F1F4F7E01F9E0EF0EF11C9B
:1025B000F80161918F018BED95E00E940C0BE01604
:1025C000F106B1F760E082E00E94D00A60E08BED96
:1025D00095E00E940C0B60E083E00E94D00A6AE75D
:1025E00072E08BED95E00E949B0B60E08AE00E9418
:1025F000D00A60E08BED95E00E940C0B61E081E079
:102600000E94D00A62E872E08BED95E00E949B0B7D
:1026100068E873E180E090E00E94000743E0842EC8
:10262000912C0E94010B60E080E00E94D00A6DE8CE
:1026300072E08BED95E00E949B0B61E080E00E94D0
:10264000D00A0E9484058823E1F38A3209F0ADC2E2
:102650000E94010B60E080E00E94D00A6CE972E009
:102660008BED95E00E949B0B61E080E00E94D00A18
:1026700064EA72E08BED95E00E949B0B8BE892E0A0
:102680000E94A50B882309F456C281E090E0909344
:102690003404809333048093460480914604882355
:1026A00009F4BBC00E94010B60E080E00E94D00AE8
:1026B0006BEC72E08BED95E00E949B0B61E080E09B
:1026C0000E94D00A6DE672E08DE795E00E94440C0E
:1026D00001E010E080914604882309F49EC00E9426
:1026E0008405D82E8823B1F3FAE28F1309C487ED4D
:1026F00092E00E94A50BF82E811119C08BED92E09B
:102700000E94A50B811113C08FED92E00E94A50BD2
:1027100081110DC083EE92E00E94A50B811107C0CC
:1027200087EE92E00E94A50B882309F47EC2A09058
:102730000002B0900102A114B10411F4F110CBC257
:10274000C0903B04D0903C04C114D10431F48BED13
:1027500092E00E94A50B8111D1C260903904709063
:102760003A046114710431F48FED92E00E94A50BDC
:102770008111D7C24090370450903804411451045D
:1027800031F483EE92E00E94A50B8111DDC220900E
:102790003504309036042114310431F487EE92E090
:1027A0000E94A50B8111E3C2E0903304F090340441
:1027B00080917D0590917E05E016F10609F0EEC24C
:1027C000009709F4E7C20E946618F701EE0FFF1F99
:1027D000E35CFB4F718360830E94010B60E080E04B
:1027E0000E94D00A6FE273E08BED95E00E949B0B94
:1027F00061E080E00E94D00A6AE373E08BED95E02F
:102800000E949B0B109246046DE672E08DE795E006
:102810000E94440C81E08093450480914504882304
:1028200009F439C480913F049091400420914104FF
:1028300030914204409143045091440428173907D1
:102840000CF02CC4722F632F481759070CF42DC4B9
:102850009A01472F562F70E060E0281739070CF4D3
:1028600095C3672B09F097C3782F692FCA0170931E
:1028700041046093420430934404209343049093B2
:10288000400480933F0460E08EE10E940004C40194
:102890000197F1F761E08EE10E94000483E290E08D
:1028A0000197F1F760E08EE10E9400048FE10E9441
:1028B000BE0B072E000C880B990B0E94DE1826E930
:1028C00033E44BE05DE30E943D1920E030E040EA54
:1028D00051E40E947E1A0E94F01A70933E046093A5
:1028E0003D040FE314E0FF24F394F80181919191EA
:1028F0008F018B37910509F06BC30E948409F09218
:10290000020261E08CE00E94000460ED77E080E06C
:1029100090E00E94000760E08CE00E94000485E4E3
:1029200094E08017910709F70E94840981E0809361
:1029300002021092450461E088E20E94000460ED0A
:1029400077E080E090E00E94000760E088E20E946B
:1029500000048FE10E94BE0B072E000C880B990B20
:102960000E94DE1826E933E44BE05DE30E943D1946
:1029700020E030E040EA51E40E947E1A0E94F01A02
:1029800070933E0460933D040E94010B60E080E080
:102990000E94D00A60E080E00E94D00A6BE473E0FD
:1029A0008BED95E00E949B0B61E080E00E94D00AD5
:1029B0006CE573E08BED95E00E949B0B80913D04EC
:1029C00090913E044F970CF054C360E08EE10E945A
:1029D0000004C4010197F1F761E08EE10E94000458
:1029E00083E290E00197F1F760E08EE10E9400043D
:1029F0008FE10E94BE0B072E000C880B990B0E94E2
:102A0000DE1826E933E44BE05DE30E943D1920E047
:102A100030E040EA51E40E947E1A0E94F01A70935E
:102A20003E0460933D04CE0101960E947A0CCE01D3
:102A300001960E945D02CE0101960E949D0B61E00D
:102A40008CE00E94D00ABACF2FEF3FEF4FE75FE450
:102A5000C701B6010E94261B18161CF466E772E037
:102A600085CD2FEF3FEF4FE75FECC701B6010E9426
:102A7000D71887FDF3CF20E030E0A901C701B601E8
:102A80000E94D71887FF09C06DE28BE494E00E9492
:102A9000CF02F7FAF094F7F8F0942AE037ED43EA22
:102AA0005BE3C701B6010E94121A4B015C010E9450
:102AB000F71A6B017C010E94DC189B01AC01C50177
:102AC000B4010E94111A4B015C014AE0C701B60132
:102AD0000E94210B6EE28BE494E00E94CF0220E082
:102AE00030E040E251E4C501B4010E943D194B01C0
:102AF0005C010E94F71A6B01F12CE12C4AE0C7013E
:102B0000B6010E94210BC701B6010E94DC189B018F
:102B1000AC01C501B4010E94111A20E030E040E28E
:102B200051E40E943D190E94F71A90E080E04AE0CB
:102B30000E94210B1FCD80E892E00E94A50B882304
:102B400041F0E2E0F0E0F0933404E093330481E0FC
:102B5000A2CD89ED92E00E94A50B882329F09092E6
:102B6000340480923304F3CF10923404109233046F
:102B70006DE672E08DE795E00E94440C0E94010B27
:102B800060E080E00E94D00A62EB72E08BED95E09D
:102B90000E949B0B61E080E00E94D00A68EE73E027
:102BA00080E090E00E9400073CCD8332B9F40E949F
:102BB000010B60E080E00E94D00A6CE972E08BEDCE
:102BC00095E00E949B0B61E080E00E94D00A61ECDE
:102BD00072E08BED95E00E949B0B5FCD89831A829A
:102BE00000918105109182050F5F1F4FB8018DE79D
:102BF00095E00E941C0C882399F020917D0530916E
:102C00007E058091810590918205BE016F5F7F4FA7
:102C1000820F931F0E94B91D1093820500938105B6
:102C20008DE795E00E945D020CCD0E94010B60E0F3
:102C300080E00E94D00A6BEE72E08BED95E00E947E
:102C40009B0B61E080E00E94D00A65E573E08BEDAC
:102C500095E00E949B0B6DE672E08DE795E00E9487
:102C6000440C68EE73E080E090E00E9400070430BE
:102C700011050CF02FCD0E94010B60E080E00E9456
:102C8000D00A60E081E00E94D00A61E473E08BED3D
:102C900095E00E949B0B60E08AE00E94D00AB80198
:102CA000CE0101960E947A0CCE0101960E945D022F
:102CB000CE0101960E949D0B60E08BE00E94D00A3D
:102CC00065ED72E08BED95E00E949B0B61E080E08A
:102CD0000E94D00AFFCC0E94010B60E080E00E94BD
:102CE000D00A65EF72E08BED95E00E949B0B61E0EE
:102CF00080E00E94D00A61E073E0A9CF0E94010B3E
:102D000060E080E00E94D00A65EF72E08BED95E014
:102D10000E949B0B61E080E00E94D00A69E073E0B2
:102D200096CF0E94010B60E080E00E94D00A65EF20
:102D300072E08BED95E00E949B0B61E080E00E94C9
:102D4000D00A64E173E083CF0E94010B60E080E071
:102D50000E94D00A65EF72E08BED95E00E949B0B1C
:102D600061E080E00E94D00A6CE173E070CF0E94C5
:102D7000010B60E080E00E94D00A65EF72E08BED0D
:102D800095E00E949B0B61E080E00E94D00A62E225
:102D900073E05DCF60E070E0CB0117CD009709F4E0
:102DA00072C00E946618F801EE0FFF1FE35CFB4F34
:102DB0007183608387ED92E00E94A50B882309F45C
:102DC00066C081E0A81AB108B0920102A092000288
:102DD00020E030E040EC50E460912F04709130042A
:102DE00080913104909132040E94121A60932F0452
:102DF0007093300480933104909332046DE672E056
:102E00008DE795E00E94440C0F5F1F4F60E072E079
:102E100090E080E00E94E40B6BE374E08AE090E0D5
:102E20000E94E40B69E374E084E190E00E94E40B0B
:102E300067E374E08EE190E00E94E40B65E374E0E8
:102E400088E290E00E94E40B8FE2C82E84E0D82E46
:102E500092E3E92EF12CF601B1906F01C7010E94B7
:102E6000FB19B81621F06B2DC7010E94031AFFEF62
:102E7000EF1AFF0A86E3E816F10469F764E670E0EA
:102E800080E090E0F2CE60E070E0CB018CCF8BED83
:102E900092E00E94A50B882341F091E0C91AD10865
:102EA000D0923C04C0923B0493CF8FED92E00E94FD
:102EB000A50B882341F0E1E06E1A710870923A0484
:102EC0006092390485CF83EE92E00E94A50B88239F
:102ED00041F0F1E04F1A5108509238044092370403
:102EE00077CF87EE92E00E94A50B882309F470CF7C
:102EF00081E0281A3108309236042092350468CFD8
:102F000093E2891319C00E94010B60E080E00E94E7
:102F1000D00A6CE972E08BED95E00E949B0B61E0BA
:102F200080E00E94D00A61EC72E08BED95E00E9497
:102F30009B0B10924604CECB89831A82E0908105C8
:102F4000F0908205EFEFEE1AFE0AB7018DE795E0EB
:102F50000E941C0C882399F020917D0530917E05FC
:102F60008091810590918205BE016F5F7F4F820F36
:102F7000931F0E94B91DF0928205E092810541E005
:102F80006D2D8BED95E00E94B90AA4CB782F692FA7
:102F9000C901272F362F841795072CF4782F692F16
:102FA000CA01472F562F281739072CF4782F692F7D
:102FB000C901272F362F9093420480934104309308
:102FC0004404209343045093400440933F045BCC5B
:102FD0008C37910589F40E948409F092020261E025
:102FE0008DE00E94000460ED77E080E090E00E94B8
:102FF000000760E08DE091CC8D37910589F40E9447
:103000008409F092020261E08EE00E94000460ED0B
:1030100077E080E090E00E94000760E08EE07DCCE9
:103020008E37910589F40E948409F092020261E0D2
:103030008FE00E94000460ED77E080E090E00E9465
:10304000000760E08FE069CC8F37910509F067CC0D
:103050000E948409F092020261E080E10E94000473
:1030600060ED77E080E090E00E94000760E080E1A2
:1030700054CC67E673E08BE494E00E949B0B1092C3
:10308000400410923F0410924204109241041092A6
:103090004404109243040E943C03C3CA42175307DE
:1030A0003CF0722F632F9A01E2CB9C01872F962F61
:1030B00061E070E0481759070CF4CFCB782F692FE7
:1030C000CA01C7CB8DE795E00C949D0B1F93FC01C3
:1030D00099278827BC01E89411911032E9F319303F
:1030E00010F01E30C8F31B3251F01D3249F46894C1
:1030F00006C00E949818610F711D811D911D1191CC
:1031000010531A30B0F33EF4909580957095619508
:103110007F4F8F4F9F4F1F910895BB274A3031F447
:10312000992322F4BDE2909581959F4F0C94AE189F
:10313000592F482F372F262F660F771F881F991F6B
:10314000660F771F881F991F620F731F841F951FBB
:10315000660F771F881F991F0895BB27FB0155270E
:10316000AA27880F991FAA1FA41710F0A41B8395E4
:103170005051B9F7A05DAA3308F0A95DA19300975B
:1031800079F7B111B1931192CB010C94C718DC01FE
:10319000FC01672F71917723E1F7329704C07C918E
:1031A0006D9370836291AE17BF07C8F308950E94B4
:1031B000191908F481E00895E89409C097FB3EF4DA
:1031C00090958095709561957F4F8F4F9F4F992374
:1031D000A9F0F92F96E9BB279395F69587957795F2
:1031E0006795B795F111F8CFFAF4BB0F11F460FFB2
:1031F0001BC06F5F7F4F8F4F9F4F16C0882311F00A
:1032000096E911C0772321F09EE8872F762F05C01D
:10321000662371F096E8862F70E060E02AF09A95B8
:10322000660F771F881FDAF7880F9695879597F9AD
:103230000895990F0008550FAA0BE0E8FEEF161647
:103240001706E807F907C0F012161306E407F5079A
:1032500098F0621B730B840B950B39F40A2661F00E
:10326000232B242B252B21F408950A2609F4A140B1
:10327000A6958FEF811D811D08950E9450190C9411
:10328000C1190E94B31938F00E94BA1920F0952391
:1032900011F00C94AA190C94B01911240C94F5197E
:1032A0000E94D21970F3959FC1F3950F50E0551FFE
:1032B000629FF001729FBB27F00DB11D639FAA278B
:1032C000F00DB11DAA1F649F6627B00DA11D661FDA
:1032D000829F2227B00DA11D621F739FB00DA11DFB
:1032E000621F839FA00D611D221F749F3327A00DB5
:1032F000611D231F849F600D211D822F762F6A2F51
:1033000011249F5750409AF0F1F088234AF0EE0FB5
:10331000FF1FBB1F661F771F881F91505040A9F7E2
:103320009E3F510580F00C94AA190C94F5195F3F4B
:10333000E4F3983ED4F3869577956795B795F7951E
:10334000E7959F5FC1F7FE2B880F911D9695879596
:1033500097F9089597F99F6780E870E060E0089515
:103360009FEF80EC089500240A941616170618069D
:103370000906089500240A94121613061406050679
:103380000895092E0394000C11F4882352F0BB0F0A
:1033900040F4BF2B11F460FF04C06F5F7F4F8F4F6D
:1033A0009F4F089557FD9058440F551F59F05F3FA8
:1033B00071F04795880F97FB991F61F09F3F79F057
:1033C00087950895121613061406551FF2CF4695D9
:1033D000F1DF08C0161617061806991FF1CF86955B
:1033E0007105610508940895E894BB27662777273F
:1033F000CB0197F90895F999FECF92BD81BDF89A56
:10340000992780B50895262FF999FECF1FBA92BD4E
:1034100081BD20BD0FB6F894FA9AF99A0FBE0196B5
:1034200008955058BB27AA270E94291A0C94C11945
:103430000E94B31938F00E94BA1920F039F49F3F66
:1034400019F426F40C94B0190EF4E095E7FB0C94F3
:10345000AA19E92F0E94D21958F3BA176207730705
:103460008407950720F079F4A6F50C94F4190EF46E
:10347000E0950B2EBA2FA02D0B01B90190010C0184
:10348000CA01A0011124FF27591B99F0593F50F49C
:10349000503E68F11A16F040A22F232F342F4427F4
:1034A000585FF3CF469537952795A795F0405395EC
:1034B000C9F77EF41F16BA0B620B730B840BBAF0BC
:1034C0009150A1F0FF0FBB1F661F771F881FC2F727
:1034D0000EC0BA0F621F731F841F48F4879577953B
:1034E0006795B795F7959E3F08F0B0CF9395880FF5
:1034F00008F09927EE0F9795879508950E94921AE4
:103500000C94C1190E94BA1958F00E94B31940F0E6
:1035100029F45F3F29F00C94AA1951110C94F51964
:103520000C94B0190E94D21968F39923B1F3552372
:1035300091F3951B550BBB27AA27621773078407C6
:1035400038F09F5F5F4F220F331F441FAA1FA9F35C
:1035500035D00E2E3AF0E0E832D091505040E6954A
:10356000001CCAF72BD0FE2F29D0660F771F881FAB
:10357000BB1F261737074807AB07B0E809F0BB0B9E
:10358000802DBF01FF2793585F4F3AF09E3F5105B2
:1035900078F00C94AA190C94F5195F3FE4F3983E67
:1035A000D4F3869577956795B795F7959F5FC9F79B
:1035B000880F911D9695879597F90895E1E0660F1C
:1035C000771F881FBB1F621773078407BA0720F095
:1035D000621B730B840BBA0BEE1F88F7E0950895FE
:1035E0000E94F71A6894B1110C94F51908950E947D
:1035F000DA1988F09F5798F0B92F9927B751B0F092
:10360000E1F0660F771F881F991F1AF0BA95C9F766
:1036100014C0B13091F00E94F419B1E008950C94F7
:10362000F419672F782F8827B85F39F0B93FCCF3AA
:10363000869577956795B395D9F73EF490958095E3
:10364000709561957F4F8F4F9F4F08950E94191974
:1036500008F48FEF08950E941919880B990B0895AB
:1036600097FB072E16F4009407D077FD09D00E942F
:103670008D1B07FC05D03EF4909581959F4F0895D2
:10368000709561957F4F0895A1E21A2EAA1BBB1B6E
:10369000FD010DC0AA1FBB1FEE1FFF1FA217B3071E
:1036A000E407F50720F0A21BB30BE40BF50B661F34
:1036B000771F881F991F1A9469F7609570958095F8
:1036C00090959B01AC01BD01CF010895052E97FB9C
:1036D0001EF400940E947D1B57FD07D00E94441BDE
:1036E00007FC03D04EF40C947D1B5095409530950B
:1036F00021953F4F4F4F5F4F08959095809570955E
:1037000061957F4F8F4F9F4F0895EE0FFF1F881FCA
:103710008BBF0790F691E02D1994AA1BBB1B51E1BA
:1037200007C0AA1FBB1FA617B70710F0A61BB70B31
:10373000881F991F5A95A9F780959095BC01CD01D6
:1037400008950F931F93CF93DF938230910510F468
:1037500082E090E0E091E905F091EA0530E020E0B8
:10376000B0E0A0E0309799F42115310509F44AC082
:10377000281B390B24303105D8F58A819B816115CE
:10378000710589F1FB0193838283FE0111C04081A1
:1037900051810281138148175907E0F048175907F2
:1037A00099F4109761F012960C93129713961C934C
:1037B0003296CF01DF91CF911F910F910895009321
:1037C000E9051093EA05F4CF2115310551F04217B0
:1037D000530738F0A901DB019A01BD01DF01F801AF
:1037E000C1CFEF01F9CF9093EA058093E905CDCFE2
:1037F000FE01E20FF31F8193919322503109398327
:103800002883D7CF2091E7053091E805232B41F499
:1038100020911D0230911E023093E8052093E705A8
:1038200020911B0230911C022115310541F42DB766
:103830003EB740911F0250912002241B350BE091AE
:10384000E705F091E805E217F307A0F42E1B3F0B04
:103850002817390778F0AC014E5F5F4F2417350702
:1038600048F04E0F5F1F5093E8054093E7058193A2
:1038700091939FCFF0E0E0E09CCFCF93DF93009750
:10388000E9F0FC01329713821282A091E905B09110
:10389000EA05ED0130E020E01097A1F420813181AC
:1038A000820F931F2091E7053091E805281739070B
:1038B00009F061C0F093E805E093E705DF91CF914F
:1038C0000895EA01CE17DF07E8F54A815B819E0182
:1038D00041155105B1F7E901FB83EA8349915991FB
:1038E000C40FD51FEC17FD0761F48081918102960A
:1038F000840F951FE90199838883828193819B833B
:103900008A83F0E0E0E012968D919C9113970097E6
:10391000B9F52D913C911197CD010296820F931F1D
:103920002091E7053091E8052817390739F63097D7
:1039300051F51092EA051092E905B093E805A093BD
:10394000E705BCCFD383C28340815181840F951F8B
:10395000C817D90761F44E5F5F4F88819981480F7E
:10396000591F518340838A819B81938382832115D0
:10397000310509F0B0CFF093EA05E093E9059ECF59
:10398000FD01DC01C0CF13821282D7CF4F925F922C
:103990006F927F928F929F92AF92BF92CF92DF925F
:1039A000EF92FF920F931F93CF93DF938C010097B9
:1039B00099F4CB01DF91CF911F910F91FF90EF9080
:1039C000DF90CF90BF90AF909F908F907F906F903F
:1039D0005F904F900C94A11BFC01E60FF71F9C0118
:1039E00022503109E217F30708F4AEC0D901CD9196
:1039F000DC911197C617D70720F1C530D10578F0B3
:103A0000CE0104978617970750F0C61BD70B229755
:103A1000C193D1936D937C93CF010E943D1CC8014B
:103A2000DF91CF911F910F91FF90EF90DF90CF909A
:103A3000BF90AF909F908F907F906F905F904F90CE
:103A400008955B01AC1ABD0A4C018C0E9D1EA0911D
:103A5000E905B091EA05512C412CF12CE12C10978D
:103A600031F58091E7059091E8058815990509F0F1
:103A70005CC04616570608F058C080911B02909112
:103A80001C02009741F48DB79EB740911F025091E0
:103A90002002841B950BE817F90708F055C0F09336
:103AA000E805E093E705F90171836083B8CF8D9154
:103AB0009C91119712966C90129713967C90139785
:103AC000A815B90559F56C0142E0C40ED11CCA1401
:103AD000DB0420F1AC014A195B09DA011296159753
:103AE00080F06282738251834083D9016D937C930D
:103AF000E114F10471F0D7011396FC93EE93129741
:103B00008ECF22968C0F9D1FF90191838083F30144
:103B1000EFCFF093EA05E093E90581CF4816590607
:103B200008F42C017D01D3019ACFCB010E94A11B87
:103B30007C01009749F0AE01B8010E94A71DC801A1
:103B40000E943D1C87016BCF10E000E068CFFB01B5
:103B5000DC0102C001900D9241505040D8F7089509
:103B6000FB01DC018D91019080190110D9F3990BB3
:103B70000895FB01DC0101900D920020E1F708950A
:103B800011E0C7E6D1E000E006C0802FFE010E94F0
:103B9000851B2196011DC836D10780E00807A9F7CB
:043BA000F894FFCFC7
:103BA4000200011718191A292A2B2C3132334134F7
:103BB400353642373839432A3023440000EB058038
:103BC400000000400014005400000E11111F1B1FC0
:103BD4001F00000000CF02300266021C039702752A
:103BE40002890200000000F007C30707099907BC17
:103BF40007A9079A070000000080052E04FD0300B2
:103C04000000000C0B3002070906090D0A006E6162
:103C14006E00696E66006F766600475255504F20FD
:103C2400320050524F594543544F203100456C697E
:103C34006A6120756E207661736F3A00496E67720F
:103C440065736F00436F7272656374616D656E7442
:103C540065005661736F206E6F20657869737465B3
:103C64000043616E63656C61646F005361626F72DF
:103C7400204E6F2E313A003132330031323400316C
:103C840032350031323600313237004E6F206578DC
:103C940069737465006578697374656E63696173CB
:103CA400006C696D6F6E2030007661696E696C6CB2
:103CB4006120300066726573612030007576612082
:103CC40030006E61706F6C6974616E6F20300050EB
:103CD4007265706172616E646F0048656C61646FD7
:103CE400005361626F72204E6F2E005265746972C8
:103CF400652073752068656C61646F006469737412
:103D0400616E6369613A00726574697261646F001F
:00000001FF
