:020000040000FA
:100000000C94E5010C9416020C9416020C94160242
:100010000C9416020C9416020C9416020C94160200
:100020000C9416020C9416020C9416020C941602F0
:100030000C9416020C9416020C9416020C941602E0
:100040000C9416020C9416020C9416020C941602D0
:100050000C9416020C9416020C9416020C94431085
:100060000C9416020C940D100C94E30F0C941602D1
:100070000C9416020C9416020C9416020C941602A0
:100080000C9416020C9416020C9416020C94160290
:100090000C94AD0F0C94830F0C9416020C948D10DD
:1000A0000C9416020C9416020C9416020C94160270
:1000B0000C9416020C9416020C9416020C94160260
:1000C0000C9416020C9416020C9416020C94160250
:1000D0000C9416020C9416020C9416020C94160240
:1000E0000C9416020C9444040C947A040C94720838
:1000F0000C940F030C94C3050C947B040C94BB0B61
:100100000C94A6050C9440040C9482030C94881B58
:100110000C9475040C94F6110C94E7050C94D2021F
:100120000C9440030C9448040C94EE050C94670462
:100130000C943A040C9455040C949F080C944908B0
:100140000C94CA050C94DD040C94C1050C94AC0409
:100150000C9459040C94D6050C94D3020C944C04C2
:100160000C94B6090C9473050C94E2020C9471047F
:100170000C945F040C9432030C9463040C947F047D
:100180000C941E030C947F050C946B080C94CF0305
:100190000C94B5090C9490050C944F040C945808D9
:1001A0000C9448080C946D040C942F0600407A10AF
:1001B000F35A00A0724E18090010A5D4E80000E818
:1001C0007648170000E40B54020000CA9A3B000076
:1001D00000E1F505000080969800000040420F0005
:1001E0000000A08601000000102700000000E803C6
:1001F000000000006400000000000A000000000091
:100200000100000000002C76D888DC674F0823DF4F
:10021000C1DFAE59E1B1B796E5E3E453C63AE65122
:10022000997696E8E6C28426EB898C9B62ED407C49
:100230006FFCEFBC9C9F40F2BAA56FA5F490055AE5
:100240002AF75C936B6CF9676DC11BFCE0E40D470A
:10025000FEF520E6B500D0ED902E0300943577052D
:100260000080841E080000204E0A000000C80C33E5
:100270003333330F986E12831141EF8D2114893B74
:10028000E65516CFFEE6DB18D1844B381BF77C1DF4
:10029000901DA4BBE424203284725E228100C9F147
:1002A00024ECA1E53D2700002100240027002A00BE
:1002B0002D003000330001010000040107010A0194
:1002C00000002200250028002B002E003100340001
:1002D00002010000050108010B0100000A0B0209E0
:1002E0000C0D0E08070304010000000000000000D0
:1002F00000000000000000000000000000000000FE
:1003000000000000000012111000000000000000BA
:1003100000000000000000000000000000000000DD
:10032000000020002300260029002C002F003200AE
:100330000001000003010601090105050505070587
:1003400008080808020202020A0A08080404040451
:10035000010101010101010103030303030303037D
:10036000040707070C0C0C0C0C0C0C0C020202020C
:1003700006060606060606060B0B0B0B0B0B0B0BF5
:1003800001021020200808102040102040800201A7
:10039000020108040201010204081020408080408C
:1003A000201008040201800402018040201008048B
:1003B0000201080402010102040810204080010229
:1003C000040810204080F611881B11241FBECFEFB7
:1003D000D1E2DEBFCDBF00E00CBF26E0AEE6B3E069
:1003E00001C01D92A838B207E1F713E0A0E0B2E027
:1003F000E0E7F6E400E00BBF02C007900D92AE36D6
:10040000B107D9F711E0C4EED1E000E006C02197B2
:100410000109802FFE010E94EB20C33ED10780E03E
:100420000807A9F70E94AC130C9426230C94000033
:10043000FC01A089B18982E08C93A485B5851C92CA
:10044000A685B7858FEC8C93108EA489B58986E03C
:100450008C93A289B3898C9180618C93A289B38992
:100460008C9188608C93A289B3898C9180688C93DD
:100470000288F389E02D80818F7D8083089596E046
:10048000899FD0011124A557BA4F90967C936E9303
:100490005F9791E091969C939197E091F805F09188
:1004A000F9059091F705992339F0309751F08111B2
:1004B00008C08091A7051994309719F05C968C912B
:1004C000FACF0895CF92DF92EF92FF920F931F938E
:1004D00096E0899FF0011124E557FA4F11A2278D6C
:1004E00030A12130310551F178F02230310509F485
:1004F00051C02330310509F452C01F910F91FF9074
:10050000EF90DF90CF9008956623B9F361E070E03B
:100510000E943F022FB7F8948091410490914204C9
:10052000A0914304B09144042FBF8093E3059093BE
:10053000E405A093E505B093E605DFCF9FB7F894F7
:10054000C0904104D0904204E0904304F0904404F1
:100550009FBF0091E3051091E4052091E5053091DE
:10056000E605C01AD10AE20AF30A0091F5051091D6
:10057000F60530E020E00C151D052E053F0550F472
:1005800062E070E01F910F91FF90EF90DF90CF90AD
:100590000C943F026111B1CF63E070E0F3CF70E0E3
:1005A00060E0F0CF08950895DB0114964D915C91C1
:1005B00015976D917C91DC01ED91FC910280F381A6
:1005C000E02D1994AF92BF92CF92DF92EF92FF92FB
:1005D0000F931F93CF93DF936C017B018B01040F6B
:1005E000151FEB015E01AE18BF08C017D10759F007
:1005F0006991D601ED91FC910190F081E02DC60149
:100600001995892B79F7C501DF91CF911F910F9132
:10061000FF90EF90DF90CF90BF90AF900895FC01D6
:10062000538D448D252F30E0842F90E0821B930B57
:10063000541710F0CF96089501970895FC01918DFD
:10064000828D981761F0A28DAE0FBF2FB11D5D9600
:100650008C91928D9F5F9F73928F90E008958FEFA2
:100660009FEF0895FC01918D828D981731F0828D56
:10067000E80FF11D858D90E008958FEF9FEF0895AD
:10068000FC01918D228D892F90E0805C9F4F821B11
:1006900091098F739927089585E494E00E9440039F
:1006A00021E0892B09F420E0822F089582EE94E066
:1006B0000E94400321E0892B09F420E0822F089555
:1006C000FC01A48DA80FB92FB11DA35ABF4F2C91C7
:1006D000848D90E001968F739927848FA689B789BE
:1006E0002C93A089B1898C91837080648C93938DB5
:1006F000848D981306C00288F389E02D80818F7D58
:1007000080830895EF92FF920F931F93CF93DF930F
:10071000EC0181E0888F9B8D8C8D98131AC0E8893D
:10072000F989808185FF15C09FB7F894EE89FF890C
:100730006083E889F98980818370806480839FBFAA
:1007400081E090E0DF91CF911F910F91FF90EF90AA
:100750000895F62E0B8D10E00F5F1F4F0F731127BA
:10076000E02E8C8D8E110CC00FB607FCFACFE889F5
:10077000F989808185FFF5CFCE010E946003F1CF1A
:10078000EB8DEC0FFD2FF11DE35AFF4FF0829FB769
:10079000F8940B8FEA89FB8980818062CFCFCF9359
:1007A000DF93EC01888D8823B9F0AA89BB89E88999
:1007B000F9898C9185FD03C0808186FD0DC00FB63F
:1007C00007FCF7CF8C9185FFF2CF808185FFEDCFBD
:1007D000CE010E946003E9CFDF91CF91089580E0C0
:1007E00090E0892B29F00E94560381110E9400009D
:1007F00080E090E0892B29F00E944C0381110E9437
:10080000000080E090E0892B49F080E090E0892BA7
:1008100029F00E94000081110E94000080E090E019
:10082000892B49F080E090E0892B29F00E9400009C
:1008300081110C94000008958150823108F05AC053
:10084000E82FF0E08827E85DFB4F8F4F0C94EB20FA
:1008500048044C043A04400444047A044F04550408
:1008600059045F04630467046D0471047A04750419
:100870007B047F04809180008F77809380000895AF
:10088000809180008F7DF9CF80918000877FF5CFA8
:1008900084B58F7784BD089584B58F7DFBCF80911B
:1008A000B0008F778093B00008958091B0008F7D65
:1008B000F9CF809190008F77809390000895809178
:1008C00090008F7DF9CF80919000877FF5CF809148
:1008D000A0008F778093A00008958091A0008F7D65
:1008E000F9CF8091A000877FF5CF809120018F778D
:1008F000809320010895809120018F7DF9CF809110
:100900002001877FF5CFCF93DF93282F30E0F901C7
:10091000E652FD4F8491F901E058FC4FD491F90162
:10092000E65CFC4FC491CC23A1F081110E941C0411
:10093000EC2FF0E0EE0FFF1FE05EFC4FA591B491AD
:10094000EC91ED2381E090E009F480E0DF91CF911C
:10095000089580E090E0FACF862F0C9483041F93D3
:10096000CF93DF93282F30E0F901E652FD4F8491B9
:10097000F901E058FC4FD491F901E65CFC4FC491B9
:10098000CC23A9F0162F81110E941C04EC2FF0E05B
:10099000EE0FFF1FE054FD4FA591B4918FB7F8946F
:1009A000EC91111108C0D095DE23DC938FBFDF914D
:1009B000CF911F910895DE2BF8CF862F642F0C94D2
:1009C000AF04CF93DF93EC01809102069091030670
:1009D000029749F4C130D10509F43DC07CF560E0CF
:1009E000209709F439C0809102069091030604977C
:1009F00049F4C130D10509F45EC00CF039C020972C
:100A000009F444C08091020690910306059709F00D
:100A1000E7C0CA30D10508F0E3C0FE018827EC5ECC
:100A2000FA4F8F4F0C94EB2073057F059005A605B8
:100A3000C105C305CA05D605E705EE05C230D105D7
:100A4000A9F060E0C330D10571F6809106060E94DE
:100A5000AF0460E006C061E0809106060E94AF042A
:100A600061E0809108060E94AF04BDCF61E0EDCF48
:100A7000C230D10539F1C330D10509F0C3CF61E0EF
:100A8000809106060E94AF0460E022C061E0809180
:100A900006060E94AF0460E0809108060E94AF0441
:100AA00061E080910A060E94AF0460E080910C062C
:100AB0000E94AF04A7CF60E0809106060E94AF04B9
:100AC00061E0EACF60E0809106060E94AF0461E039
:100AD000809108060E94AF0460E080910A060E949F
:100AE000AF0461E0E3CF60E0809106060E94AF04AE
:100AF00061E0809108060E94AF0461E00BC060E0F5
:100B0000809106060E94AF0461E0809108060E9471
:100B1000AF0460E080910A060E94AF0460E010C05C
:100B200060E0809106060E94AF0461E080910806B3
:100B30000E94AF0460E080910A060E94AF0461E069
:100B400080910C060E94AF0461E015C060E08091C6
:100B500006060E94AF0461E0809108060E94AF047F
:100B600060E080910A060E94AF0461E080910C066B
:100B70000E94AF0460E080910E06DF91CF910C944B
:100B8000AF0461E0E4CF61E0809106060E94AF040B
:100B900060E0E2CF61E0809106060E94AF0460E071
:100BA000809108060E94AF0461E0DBCF61E0809194
:100BB00006060E94AF0460E0809108060E94AF0420
:100BC00061E080910A060E94AF0460E0CFCF61E04F
:100BD000809106060E94AF0460E08BCF60E0F8CF02
:100BE000DF91CF910895CF93DF9390E0FC01E0581F
:100BF000FC4F2491865C9C4FFC0184918823C9F0B2
:100C000090E0880F991FFC01EA55FD4FA591B49122
:100C1000FC01E054FD4FC591D49161110DC09FB707
:100C2000F8948C91209582238C93888128232883A3
:100C30009FBFDF91CF910895623051F49FB7F89430
:100C40003C91822F809583238C93E8812E2BEFCFCC
:100C50008FB7F894EC912E2B2C938FBFEACF862F71
:100C6000642F0C94F3056F927F928F929F92AF92B4
:100C7000BF92CF92DF92EF92FF920F931F93CF9389
:100C8000DF9381E08093F7058FB7F894409141049A
:100C90005091420460914304709144048FBF80914D
:100CA000E7059091E805A091E905B091EA05481B98
:100CB000590B6A0B7B0B8091F3059091F405B0E022
:100CC000A0E084179507A607B70708F01DC1C0E08C
:100CD0008091F105C81760F4E091ED05F091EE0503
:100CE000EC0FF11D62E080810E94F305CF5FF0CF31
:100CF000712C812C912C540183948091F2057816EB
:100D000008F05FC0072D10E0E091EF05F091F005CD
:100D1000E00FF11F61E080810E94F305E091EF0593
:100D2000F091F005E00FF11F60E080810E94AF04B8
:100D3000D501C401072C04C0880F991FAA1FBB1F2F
:100D40000A94D2F76C017C01E094F094612C8091BC
:100D5000F1056816F8F4C62DD0E0E091ED05F091AC
:100D6000EE05EC0FFD1F80810E9483042496CC0FBA
:100D7000DD1FC557DA4F892B41F4888199818C2971
:100D80009D29998388836394E2CF888199818E21FC
:100D90009F21F7CFE091EF05F091F005E00FF11FF3
:100DA00061E080810E94AF048091EF059091F00591
:100DB000080F191F60E0F80180810E94F305739409
:100DC0009CCFCBE8D5E0FE018FEF9FEF278D30A1C0
:100DD000232B21F4148E968F858F11A2369625E051
:100DE000E73CF20799F7F12C96E0D92E8091F105B6
:100DF000F81608F050C0E12C0F2D10E0000F111F65
:100E00000D561A4F2091F205E21608F042C0F80183
:100E1000608171810E2C02C0769567950A94E2F785
:100E2000F29E900111242E0D311DEBE8F5E080E0DB
:100E3000458D568D2417350709F46AC08F5F3696A5
:100E40008A30B1F760FF23C0EBE8F5E090E080E086
:100E5000448D411117C0E091EB05F091EC05E20FD4
:100E6000F31F4081D89EF001D99EF00D1124E55763
:100E7000FA4F448F368F258F10A2178E61E00E94A3
:100E8000620205C0019636968A30910509F7E3940F
:100E9000B9CFF394ABCF80E099A19111892F269619
:100EA000F5E0C73CDF07C1F79FB7F89440914104D4
:100EB0005091420460914304709144049FBF409359
:100EC000E7055093E8056093E9057093EA058823E8
:100ED000D9F08091AC058823B9F08091AA05909152
:100EE000AB05019789F48091A705DF91CF911F9100
:100EF0000F91FF90EF90DF90CF90BF90AF909F90B9
:100F00008F907F906F9008951092F70580E0EDCF5D
:100F10006170B5CF3FB7F89480912104909122047D
:100F2000A0912304B091240426B5A89B05C02F3FAF
:100F300019F00196A11DB11D3FBFBA2FA92F982FFF
:100F40008827BC01CD01620F711D811D911D42E0FA
:100F5000660F771F881F991F4A95D1F708958F92C2
:100F60009F92AF92BF92CF92DF92EF92FF926B016E
:100F70007C010E948A074B015C01C114D104E10489
:100F8000F104B9F00E948A07681979098A099B0956
:100F9000683E73408105910580F321E0C21AD108B3
:100FA000E108F10888EE880E83E0981EA11CB11CB0
:100FB000E4CFFF90EF90DF90CF90BF90AF909F90E5
:100FC0008F9008952091D603260F3327331F2132A7
:100FD0003105ECF42091FA03FC0190E080E024302C
:100FE00069F082E00895A091D6032191AC014A54A2
:100FF0005C4FA40FB52FB11D2C930196861798F363
:101000008091D603680F6093D60380E0089581E055
:1010100008951092FA0381E08093FC031092FB0381
:1010200061E084E10E94AF0461E085E10E94AF04C9
:10103000E9EBF0E080818E7F808380818D7F8083EB
:1010400088E48093B80085E48093BC000895CF9332
:10105000DF9391E09093B5038823B9F0C091B80075
:10106000D091BA008091BC008A7B8093BC0060E084
:1010700084E10E94AF0460E085E10E94AF040E9419
:101080000908D093BA00C093B800DF91CF910895BA
:101090000895E0912C0480912B04E81730F4F0E0DF
:1010A000E057FC4F808190E008958FEF9FEF089507
:1010B00090912C0480912B042FEF3FEF981748F468
:1010C000E92FF0E0E057FC4F208130E09F5F9093E4
:1010D0002C04C901089580912B0490912C04891B44
:1010E000990B0895CF92DF92EF92FF920F931F9387
:1010F000CF93DF937C01CB018A0120918F032223C0
:1011000089F0EB016B01C40ED51ECC15DD0569F02D
:101110006991D701ED91FC910190F081E02DC7011B
:101120001995F3CF642F0E94E207C801DF91CF9198
:101130001F910F91FF90EF90DF90CF900895CF9384
:10114000DF931F92CDB7DEB7698320918F032223EF
:10115000F9F020912904203258F021E030E0FC0120
:101160003383228390E080E00F90DF91CF91089548
:1011700080912A04E82FF0E0E159FC4F9981908397
:101180008F5F80932A048093290481E090E0ECCF64
:1011900061E0CE0101960E94E207F7CFCF92DF9285
:1011A000EF92FF920F931F93CF93DF93FC01C481C3
:1011B00021E020938F03C0936E0310922A041092B3
:1011C00029048385682B8FE795E00E949F08D091C2
:1011D0002904D13208F092C00E948A076B017C0179
:1011E0008091FA03811165C082E08093FA0381E067
:1011F0008093FC038FEF8093F90310921E04D09329
:101200001D04AFE6B3E0EDEFF3E080E0D81385C056
:1012100010921F0480911F04CC0FC82BC0931F0491
:101220008091FB03813009F07CC01092FB030E9487
:101230008A076B017C0180911F048093BB00809121
:10124000B1039091B203A091B303B091B403892B81
:101250008A2B8B2B99F00E948A070091B103109181
:10126000B2032091B3033091B4036C197D098E0948
:101270009F090617170728073907E0F18091BC007E
:1012800083FDD9CF85EC8093BC000E948A076B0157
:101290007C018091FA03823009F445C08091F90302
:1012A0008F3F61F18091F903803241F18091F90320
:1012B00025C08091B1039091B203A091B303B09186
:1012C000B403892B8A2B8B2B09F48ACF0E948A07BF
:1012D0000091B1031091B2032091B3033091B40394
:1012E0006C197D098E099F0906171707280739070A
:1012F00008F076CF8091B0030E94270810922A044C
:101300001092290410928F03DF91CF911F910F91BA
:10131000FF90EF90DF90CF9008959D9191938F5F14
:1013200075CF85EEB0CF8091B1039091B203A091BB
:10133000B303B091B403892B8A2B8B2B09F4A9CF6B
:101340000E948A070091B1031091B2032091B30368
:101350003091B4036C197D098E099F090617170790
:101360002807390708F095CFC5CF089590E080E0B1
:101370000895CF92DF92EF92FF920F931F9381E037
:1013800090E09093FB058093FA050E948A070091F4
:1013900010061091110620911206309113066B0170
:1013A0007C01C01AD10AE20AF30A0091FC051091EF
:1013B000FD052091FE053091FF05C016D106E2061D
:1013C000F30618F3609310067093110680931206CB
:1013D0009093130680910406909105062091FA05DA
:1013E0003091FB052130310569F1892B11F1809194
:1013F00004069091050601979093050680930406D4
:101400008091040690910506209102063091030612
:1014100064E070E02530310511F46AE070E00E946C
:1014200096201F910F91FF90EF90DF90CF900C943A
:10143000E104809100069091010690930506809347
:101440000406D5CF0196909305068093040620915B
:101450000006309101068217930791F61092050657
:1014600010920406CDCFCF93DF93209100063091E8
:101470000106032E000C440B550B60E077E883E96E
:1014800093E00E94CC20CA01B90123E030E040E0A3
:1014900050E00E94CC202093FC053093FD05409342
:1014A000FE055093FF05C3E0D0E080910A02882337
:1014B00009F460C00E94B90961E084E00E94AF04B1
:1014C00060E085E00E94AF0461E086E00E94AF0426
:1014D00060E087E00E94AF0468E270E080E090E0A6
:1014E0000E94AF070E94B90961E084E00E94AF0446
:1014F00060E085E00E94AF0460E086E00E94AF04F7
:1015000061E087E00E94AF0468E270E080E090E074
:101510000E94AF070E94B90960E084E00E94AF0416
:1015200061E085E00E94AF0460E086E00E94AF04C5
:1015300061E087E00E94AF0468E270E080E090E044
:101540000E94AF070E94B90960E084E00E94AF04E6
:1015500061E085E00E94AF0461E086E00E94AF0494
:1015600060E087E00E94AF0468E270E080E090E015
:101570000E94AF07219709F098CF10920A0260E00D
:1015800084E00E94AF0460E085E00E94AF0460E068
:1015900086E00E94AF0460E087E0DF91CF910C9479
:1015A000AF04CF92DF92EF92FF920F931F93CF93EE
:1015B000DF931F921F92CDB7DEB769834A83880FEE
:1015C000991F0091760610917706000F111FE0E237
:1015D000F6E09F01205236402017310714F4119293
:1015E000F8CF2981FC01E05EF94F21838A81808355
:1015F00060E0809174060E94AF041016110604F595
:1016000001501109F801E05EF94FE080D0907206B8
:10161000C090700688E0F82E6E2D661F6627661F44
:101620008C2D0E94AF04EE0C61E08D2D0E94AF0462
:1016300060E08D2D0E94AF04FA94F110EDCFDDCF64
:1016400061E0809174060F900F90DF91CF911F9110
:101650000F91FF90EF90DF90CF900C94AF04EF923A
:10166000FF920F931F93CF937C018C0183E0000FB7
:10167000111F8A95E1F7005D194FC1E0F801119241
:101680008F0140E06C2FC7010E94D10ACF5FC930A3
:10169000A9F7CF911F910F91FF90EF9008950F93AD
:1016A0001F93CF938C01C62F0E94CE086C2F6460CD
:1016B000C8010E94CE086C2F6B7FC8010E94CE0823
:1016C00083EC90E00197F1F7CF911F910F9108956E
:1016D0000F931F93CF93DF938C01D62FC42F607F7E
:1016E000642B0E944F0B80E1D89FB00111246C2B1A
:1016F000C801DF91CF911F910F910C944F0BCF93A5
:10170000DF9300D000D01F921F92CDB7DEB798E0D4
:10171000E9E2F2E0DE01119601900D929A95E1F76F
:1017200090918006961708F46FEF262F30E0220F75
:10173000331F41E050E04C0F5D1F240F351FF901AE
:101740006081680F606840E088E796E028960FB6F1
:10175000F894DEBF0FBECDBFDF91CF910C94680B24
:1017600040E061E088E796E00E94680B8BE39FE130
:101770000197F1F7089541E00E94680B81E090E045
:101780000895FB0101900020E9F73197AF01461B56
:10179000570BDC01ED91FC910280F381E02D19944F
:1017A0008F929F92AF92BF92CF92DF92EF92FF9271
:1017B0000F931F93CF93DF93CDB7DEB7A1970FB6EB
:1017C000F894DEBF0FBECDBF6C01990FEE08FF0885
:1017D000F7FE4BC06DE285E494E00E9482038C0129
:1017E00022273327A9012C193D094E095F0919A2A7
:1017F000CE0181967C019AE0892E912CA12CB12CEE
:10180000CA01B901A50194010E94AA20605DF701F7
:1018100062937F01211531054105510589F790E05B
:1018200080E0309729F0BF0185E494E00E94C10B6D
:10183000080F191F63E772E085E494E00E94C10B72
:10184000800F911FA1960FB6F894DEBF0FBECDBFDB
:10185000DF91CF911F910F91FF90EF90DF90CF908C
:10186000BF90AF909F908F900895A701960119A205
:101870008E010F5D1F4F8AE0C82ED12CE12CF12C78
:10188000CA01B901A70196010E94AA20605DF80172
:1018900062938F01211531054105510589F7309774
:1018A00039F0BF0185E494E00E94C10B8C01C2CFE6
:1018B00010E000E0BFCFCF93DF9366E772E085E4EE
:1018C00094E00E94C10BEC0163E772E085E494E0D0
:1018D0000E94C10B8C0F9D1FDF91CF9108950C9436
:1018E000C10B20911E0630911F06232B39F421E0F5
:1018F000FC018081882361F020E00AC0BC01809156
:101900001A0690911B060E94162321E0892BA1F74D
:10191000822F08950F931F9390E0FC01E058FC4F35
:101920006491FC01E65CFC4FE491F0E0EE0FFF1FD8
:10193000E05EFC4F8591949100E412E42FE030E0EA
:10194000462F0E94B111611571058105910529F09D
:101950006F5F7F4F8F4F9F4F9F701F910F91089523
:101960000F931F93CF93DF938C01EB010E946B1FAA
:101970008883C80101960E946B1F8983CE01DF9185
:10198000CF911F910F910895FC0180819181009763
:1019900011F00C94AE1B60E070E0CB0108950F9342
:1019A0001F93CF93DF93EC0188819981009759F0C1
:1019B0002A813B812617370730F081E0DF91CF91F4
:1019C0001F910F9108958B016F5F7F4F0E942C2212
:1019D000009759F0998388831B830A832C813D816A
:1019E000232B59F7FC011082E8CF80E0E7CFEF927C
:1019F000FF920F931F93CF93DF936115710541F40D
:101A000080E0DF91CF911F910F91FF90EF900895AB
:101A100041155105B1F07B01EC010C811D81040FD2
:101A2000151FB8010E94CF0C882351F328813981FA
:101A30008C819D81B701820F931F0E941F231D83FC
:101A40000C8381E0DECFCF93DF931F921F92CDB73F
:101A5000DEB769831A8241E050E0BE016F5F7F4FBD
:101A60000E94F70C0F900F90DF91CF910895CF93C4
:101A7000DF93EC0188819981009711F00E94A321E6
:101A8000198218821D821C821B821A82DF91CF91DB
:101A90000895CF93DF93EC0141E050E06CE772E0F2
:101AA0000E94F70C811103C0CE010E94370DCE01B8
:101AB000DF91CF910895CF93DF93EC01FB01448137
:101AC0005581608171810E94F70C811103C0CE01A4
:101AD0000E94370DCE01DF91CF910895EF92FF92D2
:101AE0000F931F93CF93DF93EC017B018A01BA011F
:101AF0000E94CF0C81110BC0CE010E94370DCE0188
:101B0000DF91CF911F910F91FF90EF9008951D836A
:101B10000C83B701888199810E941F23F0CFFC01BB
:101B200011821082138212821582148250E040E0EA
:101B300065E772E00C946E0DFB0101900020E9F75F
:101B40003197AF01461B570B0C946E0D0F931F93EB
:101B5000CF93DF93CDB7DEB762970FB6F894DEBFB1
:101B60000FBECDBF8C01CB01F80111821082138210
:101B70001282158214824AE0BE016F5F7F4F0E947D
:101B8000D51BBE016F5F7F4FC8010E949C0D6296FE
:101B90000FB6F894DEBF0FBECDBFDF91CF911F917E
:101BA0000F910895FC0180819181009711F00C94B0
:101BB000A321089585ED8093BC008091B10390919D
:101BC000B203A091B303B091B4030796A11DB11D58
:101BD00023E0B695A795979587952A95D1F72091FB
:101BE000BC0024FD03C01092FA0308954091B10394
:101BF0005091B2036091B3037091B403452B462B0F
:101C0000472B69F30097A105B10541F025E32A951B
:101C1000F1F700000197A109B109E1CF8091B0036C
:101C20000C942708FF920F931F93CF93DF93EC013F
:101C30008B01FB01F0800E946B1FF81621F06F2DC5
:101C4000CE010E94731FF801F1802196CE010E94FF
:101C50006B1FF81621F06F2DCE010E94731FC80173
:101C6000DF91CF911F910F91FF900895FF920F93F5
:101C70001F93CF93DF9368E072E090E080E00E94D2
:101C8000120E66E072E08AE090E00E94120E64E0BC
:101C900072E084E190E00E94120E62E072E08EE158
:101CA00090E00E94120E60E072E088E290E00E94F4
:101CB000120E01E314E0C2E3D0E0F801F1908F01CD
:101CC000CE010E946B1FF81621F06F2DCE010E94ED
:101CD000731F2196C633D10581F7DF91CF911F91F4
:101CE0000F91FF9008950F931F93CF93DF93CDB77C
:101CF000DEB7CB54D1090FB6F894DEBF0FBECDBF0F
:101D000064E670E080E090E00E94AF0760912D04EF
:101D100070912E0480912F049091300428961FAE6C
:101D20001EAE28972A961FAE1EAE2A972C961FAE7F
:101D30001EAE2C978E010F5F1F4F22E044E00E94E1
:101D4000901B009709F4CEC0BC01CE018A5B9F4F67
:101D50000E949C0D60913104709132048091330493
:101D60009091340422961FAE1EAE229724961FAE89
:101D70001EAE249726961FAE1EAE26978E010F5FCD
:101D80001F4F22E044E00E94901B009709F4B0C06E
:101D9000BC01CE01805C9F4F0E949C0D60910002AF
:101DA00070910102CE01CA960E94A60D60910202B6
:101DB00070910302CE01C4960E94A60D60910402A8
:101DC00070910502CE018E960E94A60D60910602CA
:101DD00070910702CE0188960E94A60D60910802BC
:101DE00070910902CE0101960E94A60D1BA21AA2B3
:101DF0001DA21CA21FA21EA269817A816115710514
:101E000031F04D815E81CE0182960E946E0DCE0131
:101E100082960E94490DBE01685D7F4F0E945B0D56
:101E20000E94490DBE01625D7F4F0E945B0D0E94C2
:101E3000490DBE016C5C7F4F0E945B0D0E94490DF5
:101E4000BE01665C7F4F0E945B0D0E94490DBE0182
:101E5000605C7F4F0E945B0D0E94490DBE016A5B72
:101E60007F4F0E945B0D26E08431920769F0FC01F0
:101E7000608171816115710509F440C0448155810B
:101E800084E196E00E946E0DCE0182960E94D20DF2
:101E9000CE0101960E94D20DCE0188960E94D20DED
:101EA000CE018E960E94D20DCE01C4960E94D20D14
:101EB000CE01CA960E94D20DCE01805C9F4F0E9437
:101EC000D20DCE018A5B9F4F0E94D20DC55BDF4FC2
:101ED0000FB6F894DEBF0FBECDBFDF91CF911F913B
:101EE0000F910895CE018A5B9F4F0E94370D32CF2C
:101EF000CE01805C9F4F0E94370D50CF84E196E069
:101F00000E94370DC1CF1F920F920FB60F9211246E
:101F10000BB60F922F933F934F935F936F937F93E3
:101F20008F939F93AF93BF93EF93FF9385E494E0D8
:101F30000E946003FF91EF91BF91AF919F918F91AC
:101F40007F916F915F914F913F912F910F900BBEB9
:101F50000F900FBE0F901F9018951F920F920FB603
:101F60000F9211240BB60F922F938F939F93EF93A1
:101F7000FF93E0915504F09156048081E0915B0459
:101F8000F0915C0482FD1DC0908180915E048F5FA2
:101F90008F7320915F04821741F0E0915E04F0E0BE
:101FA000EB5BFB4F958F80935E04FF91EF919F91C8
:101FB0008F912F910F900BBE0F900FBE0F901F901F
:101FC00018958081F2CF1F920F920FB60F921124B5
:101FD0000BB60F922F933F934F935F936F937F9323
:101FE0008F939F93AF93BF93EF93FF9382EE94E011
:101FF0000E946003FF91EF91BF91AF919F918F91EC
:102000007F916F915F914F913F912F910F900BBEF8
:102010000F900FBE0F901F9018951F920F920FB642
:102020000F9211240BB60F922F938F939F93EF93E0
:10203000FF93E091F204F091F3048081E091F804C1
:10204000F091F90482FD1DC090818091FB048F5FA7
:102050008F732091FC04821741F0E091FB04F0E0C3
:10206000EE51FB4F958F8093FB04FF91EF919F9171
:102070008F912F910F900BBE0F900FBE0F901F905E
:1020800018958081F2CF1F920F920FB60F921124F4
:102090002F933F938F939F93AF93BF93809141046E
:1020A00090914204A0914304B091440430912004E3
:1020B00023E0230F2D3758F50196A11DB11D209364
:1020C00020048093410490934204A0934304B0936E
:1020D00044048091210490912204A0912304B091A2
:1020E00024040196A11DB11D809321049093220424
:1020F000A0932304B0932404BF91AF919F918F913B
:102100003F912F910F900FBE0F901F90189526E8CA
:10211000230F0296A11DB11DD2CF1F920F920FB6B1
:102120000F9211240BB60F922F933F934F935F930F
:102130006F937F938F939F93AF93BF93EF93FF938F
:102140008091B900887F803609F44DC008F040C006
:10215000883209F4A9C028F5803109F49DC0C8F47B
:10216000882309F4FBC0883009F496C0FF91EF91F1
:10217000BF91AF919F918F917F916F915F914F919F
:102180003F912F910F900BBE0F900FBE0F901F909D
:102190001895883109F488C0803241F78093F9039B
:1021A00014C0803409F49DC040F48033B9F38833FF
:1021B000E9F68093F90385ECB0C0803509F485C059
:1021C000883509F496C0883489F60E94DA0DCECF9E
:1021D000883909F48CC038F5883729F050F48836EE
:1021E00011F0803719F683E08093FA031092F80318
:1021F00057C0883809F47BC0803919F0803809F05D
:10220000B5CF8091F803803208F071C0E091F803F7
:1022100081E08E0F8093F8038091BB00F0E0E852DC
:10222000FC4F80833DC0803B39F0E0F4803A09F4F4
:1022300079C0883A09F09ACF84E08093FA0310922B
:10224000D7031092D603E0912704F0912804199542
:102250008091D60381110FC081E08093D603109244
:10226000B60309C0803C09F4A6CF883C09F4A3CF8B
:10227000883B09F07BCFE091D70381E08E0F8093FC
:10228000D703F0E0EA54FC4F80818093BB0090912B
:10229000D7038091D60329C080911F048093BB008F
:1022A00085EC8093BC0062CF90911E0480911D0448
:1022B000981758F5E0911E0481E08E0F80931E045C
:1022C000F0E0E350FC4F8081E9CFE0911E0481E013
:1022D0008E0F80931E048091BB00F0E0E350FC4F12
:1022E000808390911E0480911D049817C8F285E8A0
:1022F000D8CFE0911E0481E08E0F80931E04809160
:10230000BB00F0E0E350FC4F80838091FC0381111F
:102310005CCF81E08093FB0384EA8093BC00109241
:10232000FA0324CF85EC8093BC001092FA038091CD
:10233000F803803230F4E091F803F0E0E852FC4F0B
:1023400010826091F80370E0E0912504F09126047A
:1023500088ED93E019951092F80308CF1092F903D5
:1023600034CFCF92DF92EF92FF920F931F93E82F1B
:10237000F92F05C0015011092109310961F190813E
:1023800096239417B9F305C00150110921093109A9
:1023900011F1908196239413F7CFC12CD12CE12C0D
:1023A000F12C0AC08FEFC81AD80AE80AF80A0C15EF
:1023B0001D052E053F0579F080818623841791F352
:1023C0006C2D7D2D8E2D9F2D1F910F91FF90EF90E5
:1023D000DF90CF90089560E070E080E090E01F9182
:1023E0000F91FF90EF90DF90CF900895CF93DF9300
:1023F000109248041092470488EE93E0A0E0B0E009
:102400008093490490934A04A0934B04B0934C04E6
:102410002DE332E030934604209345044DEC50E028
:1024200050935204409351044CEC50E050935404A8
:102430004093530448EC50E05093560440935504A5
:1024400049EC50E050935804409357044AEC50E054
:1024500050935A04409359044EEC50E050935C045E
:1024600040935B0410925E0410925F04109260042B
:10247000109261041092E5041092E4048093E60443
:102480009093E704A093E804B093E9043093E30445
:102490002093E20425EC30E03093EF042093EE0427
:1024A00024EC30E03093F1042093F00420EC30E091
:1024B0003093F3042093F20421EC30E03093F504E0
:1024C0002093F40422EC30E03093F7042093F604D8
:1024D00026EC30E03093F9042093F8041092FB04CA
:1024E0001092FC041092FD041092FE0410928205DA
:1024F000109281058093830590938405A0938505B0
:10250000B09386058FE492E09093800580937F05D9
:1025100010927B0610927A068BE692E090937906F1
:102520008093780687E280937C0680E18093810621
:1025300082E08093820610928306C3E3D0E0D093BA
:102540007106C093700684E390E0909373068093C5
:10255000720685E390E0909375068093740681E09F
:1025600090E0909377068093760661E083E30E9483
:10257000F30561E0809172060E94F30561E08091AD
:1025800074060E94F30561E0809174060E94AF0416
:10259000D0937106C0937006E0E3F6E080E796E022
:1025A00011928E179F07E1F7D0E0C0E08091760688
:1025B00090917706C817D90774F540E06FE0CE0117
:1025C0000E94D10A8091760690917706C817D907A4
:1025D0002CF447E06BE0CE010E94D10A40E069E0B4
:1025E000CE010E94D10A8091760690917706C81795
:1025F000D9071CF4CE010E942F0B80917606909192
:102600007706C817D9072CF440E06CE0CE010E9491
:10261000D10A2196CBCF8AE196E00E948F0D84E10A
:1026200096E00E948F0D10920506109204061092FB
:10263000FB051092FA0510921006109211061092E6
:1026400012061092130684E690E0909301068093A0
:10265000000688E090E0909307068093060689E0E4
:1026600090E090930906809308068AE090E09093AA
:102670000B0680930A068BE090E090930D06809302
:102680000C0661E088E00E94F30561E08091080695
:102690000E94F30561E080910A060E94F30561E063
:1026A00080910C060E94F30510920F0610920E0600
:1026B00084E090E0909303068093020610928D05CB
:1026C00010929105109290051092920581E692E089
:1026D00090938C0580938B05E7EAF5E083EE95E017
:1026E000108214821382158236968E179F07C1F7C7
:1026F0008FE092E09093EE058093ED058BE092E001
:102700009093F0058093EF0584E08093F10580932A
:10271000F20583E192E09093EC058093EB058AE06B
:1027200090E09093F4058093F30584EF91E090930B
:10273000F6058093F5051092F9051092F8051092B0
:10274000E7051092E8051092E9051092EA0510924B
:10275000F705DF91CF910895CF93DF93CDB7DEB723
:1027600060970FB6F894DEBF0FBECDBF789484B5E6
:10277000826084BD84B5816084BD85B5826085BD7D
:1027800085B5816085BD80916E00816080936E000B
:1027900010928100809181008260809381008091FD
:1027A00081008160809381008091800081608093AE
:1027B00080008091B10084608093B1008091B0006E
:1027C00081608093B000809191008260809391003D
:1027D0008091910081608093910080919000816050
:1027E000809390008091A10082608093A1008091ED
:1027F000A10081608093A1008091A00081608093FE
:10280000A0008091210182608093210180912101AB
:10281000816080932101809120018160809320015B
:1028200080917A00846080937A0080917A0082603F
:1028300080937A0080917A00816080937A00809101
:102840007A00806880937A001092C10082EE94E052
:102850000E94180285E494E00E94180261E088E278
:102860000E94F30510922C0410922B0410922A045B
:10287000109229040E94090882ED92E090932804A6
:102880008093270483ED92E090932604809325049F
:1028900010927D0680918206823018F098E0909325
:1028A0007D068093800662E370E080E090E00E9405
:1028B000AF076091830688E796E00E94CE0868EE35
:1028C00073E080E090E00E94AF0760E388E796E065
:1028D0000E944F0B0BE416E4C8010197F1F760E387
:1028E00088E796E00E944F0BC8010197F1F760E37B
:1028F00088E796E00E944F0B83E592E00197F1F79D
:1029000060E288E796E00E944F0B60917D0660626E
:1029100040E088E796E00E94680B84E080937E06A2
:1029200040E06CE088E796E00E94680B0E94B00BE4
:1029300082E080937F0640E066E088E796E00E94B0
:10294000680B40E062E088E796E00E94680B8BE34A
:102950009FE10197F1F7809176069091770618161E
:10296000190634F441E06CE090E080E00E94D10A66
:1029700080917606909177061816190634F44FE088
:102980006AE090E080E00E94D10A80917606909102
:1029900077061816190624F490E080E00E942F0BA9
:1029A00060E089E30E94F30561E084E00E94F305A2
:1029B00061E085E00E94F30561E086E00E94F30596
:1029C00061E087E00E94F30561E08CE00E94F3057E
:1029D00061E08DE00E94F30561E08EE00E94F30566
:1029E00061E08FE00E94F30561E080E10E94F30561
:1029F00061E08EE10E94F30560E08FE10E94F30543
:102A000068E072E090E080E00E94B00CFC01808100
:102A10009181909309028093080266E072E08AE057
:102A200090E00E94B00CFC0180819181909307029C
:102A30008093060264E072E084E190E00E94B00CB2
:102A4000FC0180819181909305028093040262E0F1
:102A500072E08EE190E00E94B00CFC0180819181D7
:102A6000909303028093020260E072E088E290E0BB
:102A70000E94B00CFC0180819181909301028093AF
:102A8000000282E390E00E946B1F8093310483E395
:102A900090E00E946B1F8093320484E390E00E94D8
:102AA0006B1F8093330485E390E00E946B1F80933B
:102AB000340488E0E1E3F2E0DE01119601900D922A
:102AC0008A95E1F70E94B00B40E060E488E796E069
:102AD0000E94680BAE014F5F5F4F7A018E01075F66
:102AE0001F4FF70161917F0188E796E00E94BB0BC1
:102AF0000E151F05B1F760E082E00E947F0B60E0D9
:102B000088E796E00E94BB0B60E083E00E947F0BA9
:102B10006EE772E088E796E00E946F0C60E08AE062
:102B20000E947F0B60E088E796E00E94BB0B61E0AB
:102B300081E00E947F0B66E872E088E796E00E94E1
:102B40006F0C68E873E180E090E00E94AF07C80175
:102B50000E948F0D82EE94E00E9440034C01892B6D
:102B600009F4FAC082EE94E00E941E03823509F057
:102B700050C062E5C8010E94230D61E972E085E45E
:102B800094E00E946F0C0E94730E64E176E085E48D
:102B900094E00E94D40264E176E082EE94E00E9428
:102BA000D40280917B00877F80937B00F1E4F093D7
:102BB0007C0080917A00806480937A0080917A0012
:102BC00086FDFCCF8091780060917900762F682F88
:102BD000072E000C880B990B0E94721E20E030E03B
:102BE00040E85AE30E94AD1E20E030E44CE955E491
:102BF0000E94AD1E20E030E040E251E40E94EE1F52
:102C000060932D0470932E0480932F0490933004CE
:102C1000A1CF813421F562E370E080E090E00E9472
:102C2000AF07C8010E94C40C6B0162E370E080E052
:102C300090E00E94AF07D0920902C092080265E7B7
:102C400072E0C8010E949C0D0E945B0C80910802FA
:102C5000909109020E94D00B0E94730E9CCF823487
:102C600001F562E370E080E090E00E94AF07C801E8
:102C70000E94C40C6B0162E370E080E090E00E946F
:102C8000AF07D0920702C092060265E772E0C80162
:102C90000E949C0D0E945B0C80910602909107029D
:102CA000D9CF8334A9F462E370E080E090E00E9421
:102CB000AF07C8010E94C40C6B0162E370E080E0C2
:102CC00090E00E94AF07D0920502C0920402DDCFCF
:102CD0008434A9F462E370E080E090E00E94AF07E2
:102CE000C8010E94C40C6B0162E370E080E090E0D8
:102CF0000E94AF07D0920302C0920202C6CF853471
:102D0000A9F462E370E080E090E00E94AF07C801A0
:102D10000E94C40C6B0162E370E080E090E00E94CE
:102D2000AF07D0920102C0920002AFCF8C3249F4BB
:102D3000CE0101960E948F0DCE0101960E94D20D08
:102D400030CF682FC8010E94230D64E170E080E05D
:102D500090E00E94AF0725CFC8010E94D20D0E94CB
:102D6000B00B60E080E00E947F0B64E972E088E7CE
:102D700096E00E946F0C61E080E00E947F0B0E9451
:102D800033068823E1F38A3209F03FC20E94B00B78
:102D900060E080E00E947F0B63EA72E088E796E0E3
:102DA0000E946F0C61E080E00E947F0B6BEA72E092
:102DB00088E796E00E946F0C8FE892E00E94710C09
:102DC000882309F4E7C141E050E050933604409372
:102DD000350481E08093400480914004882309F405
:102DE000E4C00E94B00B60E080E00E947F0B62EDC7
:102DF00072E088E796E00E946F0C61E080E00E943C
:102E00007F0B65E772E08AE196E00E949C0DEE245C
:102E1000E394F12C80914004882309F4C6C00E94F9
:102E20003306D82E8823B1F3FAE28F1387C38EEDD1
:102E300092E00E94710CD82E811119C082EE92E0AE
:102E40000E94710C811113C086EE92E00E94710CF9
:102E500081110DC08AEE92E00E94710C811107C0B1
:102E60008EEE92E00E94710C882309F4F3C1A090C9
:102E70000802B0900902A114B10411F4D11044C2A7
:102E8000C0900602D0900702C114D10431F482EE42
:102E900092E00E94710C81115FC2609004027090F8
:102EA00005026114710431F486EE92E00E94710C07
:102EB000811165C2409002025090030241145104F6
:102EC00031F48AEE92E00E94710C81116BC2209065
:102ED0000002309001022114310431F48EEE92E0B0
:102EE0000E94710C811171C2809135049091360459
:102EF000988B8F878AE196E00E94C40C970121503D
:102F00003109220F331FEF85F889EE15FF0509F00F
:102F1000A8C2F901E75CFB4F718360838EED92E0FC
:102F20000E94710C882309F463C2F1E0AF1AB10862
:102F3000B0920902A092080220E030E040EC50E498
:102F40006091310470913204809133049091340483
:102F50000E94821F60933104709332048093330483
:102F6000909334040E94360E0E94B00B60E080E023
:102F70000E947F0B66E373E088E796E00E946F0C87
:102F800061E080E00E947F0B61E473E088E796E0F7
:102F90000E946F0C1092400465E772E08AE196E0AF
:102FA0000E949C0D81E080933F0480913F04882320
:102FB00009F4EDC08091390490913A0420913B04CA
:102FC00030913C0440913D0450913E04281739074C
:102FD0000CF08EC3722F632F481759070CF494C35B
:102FE0009A01AC01872F962F782F692FCA01472F9E
:102FF000562F281739070CF4C9C2892809F0CBC20B
:10300000782F692FCA01A901272F362F30933C044E
:1030100020933B0450933E0440933D0490933A0424
:103020008093390460E08EE10E94AF0483E090E079
:103030000197F1F761E08EE10E94AF0483E290E036
:103040000197F1F760E08EE10E94AF048FE10E94EA
:103050008A0C072E000C880B990B0E94721E26E921
:1030600033E44BE05DE30E94AD1E20E030E040EA37
:1030700051E40E94EE1F0E94602070933804609318
:10308000370489E3E82E84E0F82EDD24D394F70199
:10309000819191917F018B37910509F099C20E942E
:1030A000330AD0920A0261E08CE00E94AF0460ED26
:1030B00077E080E090E00E94AF0760E08CE00E9443
:1030C000AF04FFE3EF16F4E0FF0609F70E94330AAE
:1030D00081E080930A0210923F0461E088E20E943E
:1030E000AF0460ED77E080E090E00E94AF0760E021
:1030F00088E20E94AF048FE10E948A0C072E000C28
:10310000880B990B0E94721E26E933E44BE05DE3C5
:103110000E94AD1E20E030E040EA51E40E94EE1F24
:103120000E94602070933804609337040E94B00BB3
:1031300060E080E00E947F0B60E080E00E947F0BF7
:1031400062E573E088E796E00E946F0C61E080E042
:103150000E947F0B63E673E088E796E00E946F0CA5
:1031600061E08CE00E947F0B8091370490913804DD
:103170004F970CF47EC210923A04109239041092C8
:103180003C0410923B0410923E0410923D040E94B5
:10319000EF03DDCC84E892E00E94710C882339F0C3
:1031A00082E090E0909336048093350412CE80EE56
:1031B00092E00E94710C882339F0E3E0F0E0F09394
:1031C0003604E093350405CE10923604109235048F
:1031D00065E772E08AE196E00E949C0D0E94B00BC8
:1031E00060E080E00E947F0B69EB72E088E796E088
:1031F0000E946F0C61E080E00E947F0B68EE73E03C
:1032000080E090E00E94AF07AACD8332B9F40E941B
:10321000B00B60E080E00E947F0B63EA72E088E719
:1032200096E00E946F0C61E080E00E947F0B68ECEA
:1032300072E088E796E00E946F0CCECD682F8AE19D
:1032400096E00E94230D6AE176E088E796E00E940E
:10325000D40295CD0E94B00B60E080E00E947F0B0D
:1032600062EF72E088E796E00E946F0C61E080E018
:103270000E947F0B6CE573E088E796E00E946F0C7C
:1032800065E772E08AE196E00E949C0D68EE73E0CB
:1032900080E090E00E94AF0744E0E416F1040CF0F7
:1032A000B9CD0E94B00B60E080E00E947F0B60E02F
:1032B00081E00E947F0B68E473E088E796E00E945B
:1032C0006F0C60E08AE00E947F0BB701CE0101968F
:1032D0000E94A60DBE016F5F7F4F88E796E00E94B7
:1032E000D402CE0101960E94D20D60E08BE00E94D4
:1032F0007F0B6CED72E088E796E00E946F0C61E056
:1033000080E00E947F0B86CD0E94B00B60E080E0E1
:103310000E947F0B6CEF72E088E796E00E946F0CD2
:1033200061E080E00E947F0B68E073E088E796E050
:103330000E946F0C65E772E08AE196E00E949C0DA6
:1033400068EE73E080E090E00E94AF07E4E0EE16E4
:10335000F1040CF05FCDA5CF0E94B00B60E080E0DF
:103360000E947F0B6CEF72E088E796E00E946F0C82
:1033700061E080E00E947F0B60E173E0D7CF0E94A4
:10338000B00B60E080E00E947F0B6CEF72E088E79A
:1033900096E00E946F0C61E080E00E947F0B6BE181
:1033A00073E0C4CF0E94B00B60E080E00E947F0B0E
:1033B0006CEF72E088E796E00E946F0C61E080E0BD
:1033C0000E947F0B63E273E0B1CF0E94B00B60E01C
:1033D00080E00E947F0B6CEF72E088E796E00E942D
:1033E0006F0C61E080E00E947F0B69E273E09ECF8A
:1033F00082EE92E00E94710C882341F041E0C41AF1
:10340000D108D0920702C092060296CD86EE92E0D5
:103410000E94710C882341F051E0651A7108709286
:1034200005026092040288CD8AEE92E00E94710C3F
:10343000882341F081E0481A5108509203024092DB
:1034400002027ACD8EEE92E00E94710C882309F47C
:1034500073CD91E0291A31083092010220920002C6
:103460006BCDF901E75CFB4F718360838EED92E0D9
:103470000E94710C882349F1E1E0AE1AB108B092C4
:103480000902A092080220E030E040EC50E4609194
:1034900031047091320480913304909134040E947D
:1034A000821F6093310470933204809333049093AD
:1034B00034040E94360E65E772E08AE196E00E94CD
:1034C0009C0D9FEFE91AF90A41CF82EE92E00E942B
:1034D000710C882341F0F1E0CF1AD108D092070295
:1034E000C0920602D0CF86EE92E00E94710C882333
:1034F00041F041E0641A7108709205026092040282
:10350000C2CF8AEE92E00E94710C882341F051E014
:10351000451A51085092030240920202B4CF8EEE37
:1035200092E00E94710C882309F4ADCF81E0281A43
:1035300031083092010220920002A5CFF3E28F13EE
:1035400019C00E94B00B60E080E00E947F0B63EA2C
:1035500072E088E796E00E946F0C61E080E00E94D4
:103560007F0B68EC72E088E796E00E946F0C109287
:10357000400450CC682F8AE196E00E94230D41E080
:103580006D2D88E796E00E94680B44CC722F632F64
:103590009C01872F962F841795072CF4782F692F7D
:1035A000CA01472F562F281739072CF4782F692F77
:1035B000C901272F362F90933C0480933B0430930E
:1035C0003E0420933D0450933A04409339042ACD9D
:1035D0008C37910589F40E94330AD0920A0261E087
:1035E0008DE00E94AF0460ED77E080E090E00E9403
:1035F000AF0760E08DE063CD8D37910589F40E94BF
:10360000330AD0920A0261E08EE00E94AF0460EDBE
:1036100077E080E090E00E94AF0760E08EE04FCD61
:103620008E37910589F40E94330AD0920A0261E034
:103630008FE00E94AF0460ED77E080E090E00E94B0
:10364000AF0760E08FE03BCD8F37910509F039CDB2
:103650000E94330AD0920A0261E080E10E94AF0426
:1036600060ED77E080E090E00E94AF0760E080E1ED
:1036700026CD60E08EE10E94AF0483E090E00197E8
:10368000F1F761E08EE10E94AF0483E290E00197E0
:10369000F1F760E08EE10E94AF048FE10E948A0C96
:1036A000072E000C880B990B0E94721E26E933E44A
:1036B0004BE05DE30E94AD1E20E030E040EA51E4C3
:1036C0000E94EE1F0E9460207093380460933704BC
:1036D000CE0101960E94A60DBE016F5F7F4F88E765
:1036E00096E00E94D402CE0101960E94D20D38CD00
:1036F000421753070CF08ACC481759070CF074CCCA
:1037000088248394912C75CC9C01872F962FF4CF1D
:1037100084E196E00E94D20D8AE196E00C94D20DED
:10372000EF920F931F93CF93DF93E80134E047FDAF
:1037300034E1042E000C550B57FF03C05195419501
:103740005109E32E022F242FAE010E940F1CCE013F
:10375000DF91CF911F910F91EF9008951F93FC017E
:1037600099278827BC01E89411911032E9F31930A8
:1037700010F01E30C8F31B3251F01D3249F468942A
:1037800006C00E94E01B610F711D811D911D1191EA
:1037900010531A30B0F33EF4909580957095619572
:1037A0007F4F8F4F9F4F1F910895BB274A3031F4B1
:1037B000992322F4BDE2909581959F4F0C94F61BBE
:1037C000592F482F372F262F660F771F881F991FD5
:1037D000660F771F881F991F620F731F841F951F25
:1037E000660F771F881F991F0895BB27FB01552778
:1037F000AA27880F991FAA1FA41710F0A41B83954E
:103800005051B9F7A05DAA3308F0A95DA1930097C4
:1038100079F7B111B1931192CB010C94601E8F9284
:103820009F92AF92BF92CF92DF92EF92FF920F934F
:103830001F93CF93DF9300D000D000D0CDB7DEB779
:103840006A01F22EB02E102FFBE3AF2EA01608F463
:103850001BE31F5F012F27E0AE014F5F5F4F0E9408
:10386000881DBC018981982F9970913009F44EC050
:103870009BE2E1FC04C09E2D9170E0FC49C05E2DEE
:103880005071E82FE87083FF55C084E0911101C0AA
:1038900083E0EF2DE81B8F1508F0E0E0D6018E2FB6
:1038A00020E25523C9F1992329F0D6019C93C60142
:1038B00001966C0196012D5F3F4FE2FE33C08EE40E
:1038C000D6018C9391E411969C93119712968C9348
:1038D000D9018E2F90E281112AC0E20FF32FF11D42
:1038E00010828EEF9FEF29960FB6F894DEBF0FBEC1
:1038F000CDBFDF91CF911F910F91FF90EF90DF909F
:10390000CF90BF90AF909F908F9008959DE2B7CFDA
:1039100090E2B5CF2D9381508111FCCFCE0ED11CFA
:10392000E0E0C1CF8EE6D6018C9391E6CCCF9D939B
:103930008150D1CF482F447082FF3DC084E0911167
:1039400001C083E08F1510F4EF2DE81BD6018E2FF8
:1039500020E2552309F1992329F0D6019C93C60151
:1039600001966C0196012D5F3F4FE2FE1BC089E47A
:10397000D6018C938EE411968C93119786E412965F
:103980008C93D9018E2F90E2882309F4A6CF9D93C2
:103990008150FACF2D9381508111FCCFCE0ED11CD6
:1039A000E0E0D9CF89E6D6018C938EE611968C9310
:1039B000119786E6E4CF9B0177FF02C030E020E05C
:1039C000A1E0B0E0911102C0B0E0A0E0F9013196B1
:1039D000AE0FBF1F8B2C912CBB2009F461C054018A
:1039E000EFEFAE1ABE0AAA0DBB1DFA161B0619F0A0
:1039F00014F04F2D4A1B511188C0E3FC59C07601C9
:103A0000A42FB0E2A1114FC0C40ED11C992309F418
:103A10005BC040E0D6011196F60190836D015523FD
:103A200009F448C0012F060F9A81582F507184FF66
:103A300003C0913309F4015010160CF047C009304F
:103A400008F008E0EEE2FE2E5B01A01AB108850145
:103A50009194819491082F3F320729F4D601FC926A
:103A6000F60131966F016217730794F1021713077D
:103A70007CF5DB01A21BB30BAA24A394B12CAC0EE2
:103A8000BD1EAA0DBB1D11968C9121503109D60186
:103A9000119628153905F4F0F60180836D01DBCF0E
:103AA000B12CA12CA0CFF701B1937F01A150AACFD7
:103AB0009111B0CFD601942F50E302C05D93915085
:103AC0009111FCCFC40ED11C40E0ACCF01E0BACFC5
:103AD00080E3DBCF6217730731F4963388F49533B4
:103AE00011F4552369F0F6018083FD01842F90E2E3
:103AF000811108C0A40FB11D1C9290E080E0F3CEAC
:103B000081E3F1CF91938150F3CF911183CF8ACF8D
:103B1000283008F027E03327DA01990F311D87FD9F
:103B2000916000966105710539F432602E5F3D9316
:103B300030E32A95E1F708959F3F30F08038710512
:103B4000610509F03C5F3C5F3D93913008F080686F
:103B5000911DDF93CF931F930F93FF92EF92192F35
:103B6000987F9695E92F96959695E90FFF27EA5F3E
:103B7000FD4F99273327EE24FF24A701E701059085
:103B80000894079428F4360FE71EF81E491F511DAC
:103B9000660F771F881F991F0694A1F70590079459
:103BA00028F4E70EF81E491F561FC11D770F881F06
:103BB000991F661F0694A1F70590079428F4F80E44
:103BC000491F561FC71FD11D880F991F661F771FDA
:103BD0000694A1F70590079420F4490F561FC71FBC
:103BE000D81F990F661F771F881F0694A9F7849125
:103BF0001095177041F0D695C79557954795F7944E
:103C0000E7941A95C1F7ECEAF1E0689415901591E4
:103C100035916591959105907FE27395E118F10AD0
:103C2000430B560BC90BD009C0F7E10CF11E431F23
:103C3000561FC91FD01D7EF4703311F48A95E6CF4C
:103C4000E894015030F0080F0AF40027021708F436
:103C5000202F2395022F7A3328F079E37D932A953C
:103C6000E9F710C07D932A9589F606949795679594
:103C7000379517951794E118F10A430B560BC90BAA
:103C8000D00998F023957E9173957A3308F070E30C
:103C90007C932013B8F77E9170617D9330F083950B
:103CA00071E37D9370E32A95E1F71124EF90FF9083
:103CB0000F911F91CF91DF91992787FD90950895DE
:103CC000DC01FC01672F71917723E1F7329704C083
:103CD0007C916D9370836291AE17BF07C8F308950E
:103CE000E89409C097FB3EF4909580957095619596
:103CF0007F4F8F4F9F4F9923A9F0F92F96E9BB274C
:103D00009395F695879577956795B795F111F8CFC7
:103D1000FAF4BB0F11F460FF1BC06F5F7F4F8F4F32
:103D20009F4F16C0882311F096E911C0772321F028
:103D30009EE8872F762F05C0662371F096E8862FC0
:103D400070E060E02AF09A95660F771F881FDAF717
:103D5000880F9695879597F908950E94C01E0C9438
:103D6000311F0E94231F38F00E942A1F20F0952344
:103D700011F00C941A1F0C94201F11240C94651F31
:103D80000E94421F70F3959FC1F3950F50E0551F9D
:103D9000629FF001729FBB27F00DB11D639FAA27A0
:103DA000F00DB11DAA1F649F6627B00DA11D661FEF
:103DB000829F2227B00DA11D621F739FB00DA11D10
:103DC000621F839FA00D611D221F749F3327A00DCA
:103DD000611D231F849F600D211D822F762F6A2F66
:103DE00011249F5750409AF0F1F088234AF0EE0FCB
:103DF000FF1FBB1F661F771F881F91505040A9F7F8
:103E00009E3F510580F00C941A1F0C94651F5F3F74
:103E1000E4F3983ED4F3869577956795B795F79533
:103E2000E7959F5FC1F7FE2B880F911D96958795AB
:103E300097F9089597F99F6780E870E060E008952A
:103E40009FEF80EC089500240A94161617061806B2
:103E50000906089500240A9412161306140605068E
:103E60000895092E0394000C11F4882352F0BB0F1F
:103E700040F4BF2B11F460FF04C06F5F7F4F8F4F82
:103E80009F4F089557FD9058440F551F59F05F3FBD
:103E900071F04795880F97FB991F61F09F3F79F06C
:103EA00087950895121613061406551FF2CF4695EE
:103EB000F1DF08C0161617061806991FF1CF869570
:103EC0007105610508940895E894BB276627772754
:103ED000CB0197F90895F999FECF92BD81BDF89A6B
:103EE000992780B50895262FF999FECF1FBA92BD64
:103EF00081BD20BD0FB6F894FA9AF99A0FBE0196CB
:103F000008955058BB27AA270E94991F0C94311F6F
:103F10000E94231F38F00E942A1F20F039F49F3F8F
:103F200019F426F40C94201F0EF4E095E7FB0C9492
:103F30001A1FE92F0E94421F58F3BA17620773072E
:103F40008407950720F079F4A6F50C94641F0EF40D
:103F5000E0950B2EBA2FA02D0B01B90190010C0199
:103F6000CA01A0011124FF27591B99F0593F50F4B1
:103F7000503E68F11A16F040A22F232F342F442709
:103F8000585FF3CF469537952795A795F040539501
:103F9000C9F77EF41F16BA0B620B730B840BBAF0D1
:103FA0009150A1F0FF0FBB1F661F771F881FC2F73C
:103FB0000EC0BA0F621F731F841F48F48795779550
:103FC0006795B795F7959E3F08F0B0CF9395880F0A
:103FD00008F09927EE0F9795879508950E94022083
:103FE0000C94311F0E942A1F58F00E94231F40F09A
:103FF00029F45F3F29F00C941A1F51110C94651F8E
:104000000C94201F0E94421F68F39923B1F355239B
:1040100091F3951B550BBB27AA27621773078407DB
:1040200038F09F5F5F4F220F331F441FAA1FA9F371
:1040300035D00E2E3AF0E0E832D091505040E6955F
:10404000001CCAF72BD0FE2F29D0660F771F881FC0
:10405000BB1F261737074807AB07B0E809F0BB0BB3
:10406000802DBF01FF2793585F4F3AF09E3F5105C7
:1040700078F00C941A1F0C94651F5F3FE4F3983E90
:10408000D4F3869577956795B795F7959F5FC9F7B0
:10409000880F911D9695879597F90895E1E0660F31
:1040A000771F881FBB1F621773078407BA0720F0AA
:1040B000621B730B840BBA0BEE1F88F7E095089513
:1040C0000E9467206894B1110C94651F08950E94A6
:1040D0004A1F88F09F5798F0B92F9927B751B0F031
:1040E000E1F0660F771F881F991F1AF0BA95C9F77C
:1040F00014C0B13091F00E94641FB1E008950C9497
:10410000641F672F782F8827B85F39F0B93FCCF349
:10411000869577956795B395D9F73EF490958095F8
:10412000709561957F4F8F4F9F4F089597FB072E96
:1041300016F4009407D077FD09D00E94F32007FC05
:1041400005D03EF4909581959F4F089570956195A7
:104150007F4F0895A1E21A2EAA1BBB1BFD010DC0C3
:10416000AA1FBB1FEE1FFF1FA217B307E407F50727
:1041700020F0A21BB30BE40BF50B661F771F881F03
:10418000991F1A9469F760957095809590959B0199
:10419000AC01BD01CF010895052E97FB1EF40094DC
:1041A0000E94E32057FD07D00E94AA2007FC03D0FD
:1041B0004EF40C94E32050954095309521953F4F57
:1041C0004F4F5F4F089590958095709561957F4F03
:1041D0008F4F9F4F0895EE0FFF1F881F8BBF0790D3
:1041E000F691E02D1994AA1BBB1B51E107C0AA1F31
:1041F000BB1FA617B70710F0A61BB70B881F991F88
:104200005A95A9F780959095BC01CD0108950F931B
:104210001F93CF93DF938230910510F482E090E0FA
:10422000E0918606F091870630E020E0B0E0A0E063
:10423000309799F42115310509F44AC0281B390B30
:1042400024303105D8F58A819B816115710589F18A
:10425000FB0193838283FE0111C040815181028161
:10426000138148175907E0F04817590799F4109738
:1042700061F012960C93129713961C933296CF010D
:10428000DF91CF911F910F910895009386061093AF
:104290008706F4CF2115310551F04217530738F046
:1042A000A901DB019A01BD01DF01F801C1CFEF01D6
:1042B000F9CF9093870680938606CDCFFE01E20F5B
:1042C000F31F819391932250310939832883D7CFEB
:1042D0002091840630918506232B41F420912502FC
:1042E0003091260230938506209384062091230284
:1042F000309124022115310541F42DB73EB740918C
:10430000270250912802241B350BE0918406F0917E
:104310008506E217F307A0F42E1B3F0B2817390779
:1043200078F0AC014E5F5F4F2417350748F04E0F11
:104330005F1F5093850640938406819391939FCF8E
:10434000F0E0E0E09CCFCF93DF930097E9F0FC0131
:10435000329713821282A0918606B0918706ED01F2
:1043600030E020E01097A1F420813181820F931F6B
:1043700020918406309185062817390709F061C01D
:10438000F0938506E0938406DF91CF910895EA01CA
:10439000CE17DF07E8F54A815B819E014115510583
:1043A000B1F7E901FB83EA8349915991C40FD51F05
:1043B000EC17FD0761F4808191810296840F951FAF
:1043C000E90199838883828193819B838A83F0E0CA
:1043D000E0E012968D919C9113970097B9F52D917D
:1043E0003C911197CD010296820F931F2091840674
:1043F000309185062817390739F6309751F5109214
:10440000870610928606B0938506A0938406BCCFDB
:10441000D383C28340815181840F951FC817D90768
:1044200061F44E5F5F4F88819981480F591F518316
:1044300040838A819B81938382832115310509F012
:10444000B0CFF0938706E09386069ECFFD01DC0196
:10445000C0CF13821282D7CF4F925F926F927F921A
:104460008F929F92AF92BF92CF92DF92EF92FF9284
:104470000F931F93CF93DF938C01009799F4CB0197
:10448000DF91CF911F910F91FF90EF90DF90CF9030
:10449000BF90AF909F908F907F906F905F904F9064
:1044A0000C940721FC01E60FF71F9C0122503109F3
:1044B000E217F30708F4AEC0D901CD91DC91119752
:1044C000C617D70720F1C530D10578F0CE01049783
:1044D0008617970750F0C61BD70B2297C193D1932D
:1044E0006D937C93CF010E94A321C801DF91CF91EE
:1044F0001F910F91FF90EF90DF90CF90BF90AF9002
:104500009F908F907F906F905F904F9008955B0188
:10451000AC1ABD0A4C018C0E9D1EA0918606B0916E
:104520008706512C412CF12CE12C109731F580910C
:104530008406909185068815990509F05CC0461699
:10454000570608F058C080912302909124020097EA
:1045500041F48DB79EB74091270250912802841BE9
:10456000950BE817F90708F055C0F0938506E0931E
:104570008406F90171836083B8CF8D919C91119766
:1045800012966C90129713967C901397A815B90504
:1045900059F56C0142E0C40ED11CCA14DB0420F1B1
:1045A000AC014A195B09DA011296159780F0628214
:1045B000738251834083D9016D937C93E114F1049C
:1045C00071F0D7011396FC93EE9312978ECF22963B
:1045D0008C0F9D1FF90191838083F301EFCFF0933E
:1045E0008706E093860681CF4816590608F42C0109
:1045F0007D01D3019ACFCB010E9407217C01009756
:1046000049F0AE01B8010E940D23C8010E94A32108
:1046100087016BCF10E000E068CFFB01DC0102C036
:1046200001900D9241505040D8F70895FB01DC01F4
:104630008D91019080190110D9F3990B0895FB0118
:10464000DC0101900D920020E1F7089511E0C4EE25
:10465000D1E000E006C0802FFE010E94EB202196F1
:10466000011DC53ED10780E00807A9F7F894FFCFE8
:1046700003000300030003000300011718191A299F
:104680002A2B2C3132334134353642373839432ADC
:1046900030234400008806800000004000140054CD
:1046A00000000E11111F1B1F1F000000008203E2FB
:1046B000020F03CF0340031E033203000000009FDC
:1046C000087208B60948086B085808490800000035
:1046D000002F06DD04AC0400000000BB0BE202B6B4
:1046E00009B5090D0A006E7565766F002C004752FA
:1046F00055504F20320050524F594543544F2031AE
:1047000000525200456C696A6120756E20766173B3
:104710006F3A00496E677265736F00436F7272651E
:104720006374616D656E7465005661736F206E6FA2
:10473000206578697374650043616E63656C6164BC
:104740006F005361626F72204E6F2E313A0031322A
:1047500033003132340031323500313236003132FB
:1047600037004E6F206578697374650065786973EA
:1047700074656E63696173006C696D6F6E203000E3
:104780007661696E696C6C61203000667265736178
:104790002030007576612030006E61706F6C697436
:1047A000616E6F203000507265706172616E646F6F
:1047B0000048656C61646F005361626F72204E6FD8
:1047C0002E005265746972652073752068656C618E
:0E47D000646F0064697374616E6369613A001E
:020000040003F7
:10E000000D9489F10D94B2F10D94B2F10D94B2F129
:10E010000D94B2F10D94B2F10D94B2F10D94B2F1F0
:10E020000D94B2F10D94B2F10D94B2F10D94B2F1E0
:10E030000D94B2F10D94B2F10D94B2F10D94B2F1D0
:10E040000D94B2F10D94B2F10D94B2F10D94B2F1C0
:10E050000D94B2F10D94B2F10D94B2F10D94B2F1B0
:10E060000D94B2F10D94B2F10D94B2F10D94B2F1A0
:10E070000D94B2F10D94B2F10D94B2F10D94B2F190
:10E080000D94B2F10D94B2F10D94B2F10D94B2F180
:10E090000D94B2F10D94B2F10D94B2F10D94B2F170
:10E0A0000D94B2F10D94B2F10D94B2F10D94B2F160
:10E0B0000D94B2F10D94B2F10D94B2F10D94B2F150
:10E0C0000D94B2F10D94B2F10D94B2F10D94B2F140
:10E0D0000D94B2F10D94B2F10D94B2F10D94B2F130
:10E0E0000D94B2F141546D656761323536300041AF
:10E0F000726475696E6F206578706C6F72657220DE
:10E1000073746B3530305632206279204D4C530099
:10E11000426F6F746C6F616465723E004875683F52
:10E1200000436F6D70696C6564206F6E203D200048
:10E130004350552054797065202020203D20005FF9
:10E140005F4156525F415243485F5F3D2000415658
:10E1500052204C696243205665723D20004743437C
:10E160002056657273696F6E203D20004350552024
:10E1700049442020202020203D20004C6F7720663D
:10E18000757365202020203D20004869676820665F
:10E190007573652020203D200045787420667573D6
:10E1A00065202020203D20004C6F636B2066757336
:10E1B000652020203D20004D617220203720323024
:10E1C000313300312E362E3800342E332E350056A2
:10E1D00023202020414444522020206F7020636F70
:10E1E00064652020202020696E73747275637469E1
:10E1F0006F6E2061646472202020496E74657272B3
:10E20000757074006E6F20766563746F7200726A49
:10E210006D702020006A6D70200057686174207056
:10E220006F72743A00506F7274206E6F7420737541
:10E2300070706F72746564004D7573742062652030
:10E2400061206C6574746572002000577269747483
:10E25000696E672045450052656164696E672045B7
:10E26000450045452065727220636E743D00504F35
:10E27000525400303D5A65726F2061646472003FF1
:10E280003D43505520737461747300403D454550C3
:10E29000524F4D207465737400423D426C696E6B41
:10E2A000204C454400453D44756D70204545505215
:10E2B0004F4D00463D44756D7020464C415348001B
:10E2C000483D48656C70004C3D4C69737420492F83
:10E2D0004F20506F72747300513D51756974005234
:10E2E0003D44756D702052414D00563D73686F7707
:10E2F00020696E7465727275707420566563746FF0
:10E30000727300593D506F727420626C696E6B00BD
:10E310002A0011241FBECFEFD1E2DEBFCDBF01E046
:10E320000CBF12E0A0E0B2E0EEE1FDEF03E00BBFB6
:10E3300002C007900D92A030B107D9F712E0A0E01B
:10E34000B2E001C01D92AE30B107E1F70F9460F367
:10E350000D948DFE01E20EBF0FEF0DBF11241FBE05
:10E360000D9460F30D9400F020E030E040ED57E0B4
:10E3700005C0FA013197F1F72F5F3F4F2817390792
:10E38000C0F308959C01260F311DC901A0E0B0E043
:10E390002F5F3F4FABBFFC018791882361F08093D3
:10E3A000C6008091C00086FFFCCF8091C0008064D1
:10E3B0008093C000EACF08958DE08093C6008091DD
:10E3C000C00086FFFCCF8091C00080648093C000B5
:10E3D0008AE08093C6008091C00086FFFCCF8091C8
:10E3E000C00080648093C00008950F94C2F10F9420
:10E3F000DCF10895FC019081992359F09093C600B7
:10E400008091C00086FFFCCF8091C0008064809323
:10E41000C0003196992379F70895282F982F929567
:10E420009F70892F805D8A3308F0895F8093C600D2
:10E430008091C00086FFFCCF8091C00080648093F3
:10E44000C000822F8F70982F905D9A3308F0995FEB
:10E450009093C6008091C00086FFFCCF8091C000E1
:10E4600080648093C00008959C01FB01853691056E
:10E470001CF46330710594F0C90164E670E00F94F8
:10E480002EFE605D7F4F6093C6008091C00086FFC6
:10E49000FCCF8091C00080648093C0002B30310598
:10E4A00014F43297B4F0C90164E670E00F942EFEC4
:10E4B0006AE070E00F942EFE605D7F4F6093C600AF
:10E4C0008091C00086FFFCCF8091C0008064809363
:10E4D000C000C9016AE070E00F942EFEC0968093E0
:10E4E000C6008091C00086FFFCCF8091C000806490
:10E4F0008093C00008951F93182F8EE692EE60E07F
:10E500000F94C2F11093C6008091C00086FFFCCF2B
:10E510008091C00080648093C0000F94DCF11F9153
:10E5200008952F923F924F925F926F927F928F92B7
:10E530009F92AF92BF92CF92DF92EF92FF920F9392
:10E540001F93DF93CF93CDB7DEB762970FB6F894E2
:10E55000DEBF0FBECDBF382E622ECA01DB015C01CB
:10E560006D01772420E2222E2E010894411C511CBB
:10E570008BC081E0A81680E0B80681E0C80680E084
:10E58000D80628F0C601AA27BB270F940DF2BB2797
:10E59000AD2D9C2D8B2D0F940DF28A2D0F940DF225
:10E5A0002092C6008091C00086FFFCCF8091C00001
:10E5B00080648093C0009DE29093C6008091C0006B
:10E5C00086FFFCCF8091C00080648093C0002092C1
:10E5D000C6008091C00086FFFCCF8091C00080649F
:10E5E0008093C00019828601750188249924A1E0D6
:10E5F0003A1651F03A1620F0B2E03B1661F409C029
:10E600000BBFF701779007C0C7010F9477FE782EF4
:10E6100002C0F7017080872D0F940DF22092C60082
:10E620008091C00086FFFCCF8091C0008064809301
:10E63000C000872D8052F401EF70F0708F3520F408
:10E64000E40DF51D708204C0E40DF51D8EE280839B
:10E650000894E11CF11C011D111D0894811C911CE2
:10E6600090E18916910409F0C2CF80E190E0A0E02A
:10E67000B0E0A80EB91ECA1EDB1E198AC2010F9493
:10E68000FAF10F94DCF16A94662009F072CF629679
:10E690000FB6F894DEBF0FBECDBFCF91DF911F91B3
:10E6A0000F91FF90EF90DF90CF90BF90AF909F9031
:10E6B0008F907F906F905F904F903F902F90089534
:10E6C0002F923F924F925F926F927F928F929F9282
:10E6D000AF92BF92CF92DF92EF92FF920F931F9370
:10E6E000DF93CF93CDB7DEB7CD53D1400FB6F894BB
:10E6F000DEBF0FBECDBF01E20EBF0FEF0DBF94B75F
:10E70000F894A89514BE80916000886180936000A1
:10E7100010926000789493FF05C0E0910002F091A0
:10E7200001021995279A2F9A8091C00082608093E8
:10E73000C00080E18093C40088E18093C1000000A4
:10E74000EE24FF24870144E0A42EB12CCC24DD2448
:10E7500024C0C5010197F1F70894E11CF11C011DCB
:10E76000111D21E2E2162EE4F20620E0020720E06D
:10E77000120718F031E0C32ED12CC801B70127ECE5
:10E780003BE140E050E00F9441FE611571058105C9
:10E79000910519F485B1805885B98091C00087FD35
:10E7A00003C0C114D104A9F2A6014F5F5F4FC25E3E
:10E7B000DE4F59834883CE51D140C25EDE4F8881FF
:10E7C0009981CE51D140019711F00D9410FEC05D9A
:10E7D000DE4F19821882C053D14060E0C15DDE4F28
:10E7E0001882CF52D14088249924C35DDE4F19820C
:10E7F0001882CD52D140C05EDE4F188219821A8233
:10E800001B82C052D140CE5CDE4F188219821A8220
:10E810001B82C253D140EE24FF2487010BBFF701B6
:10E8200007911691C45CDE4F19830883CC53D14005
:10E830000D940BFEC25EDE4F28813981CE51D1404E
:10E840002130310509F52091C600C25EDE4F1982E4
:10E850001882CE51D14022C02F5F3F4F4F4F5F4FA4
:10E86000213082E138078AE7480780E0580780F0C6
:10E87000C45CDE4FE881F981CC53D140EF5FFF4F9C
:10E8800019F0EE27FF27099420E030E040E050E047
:10E890008091C00087FFE0CF2091C600C35DDE4FAE
:10E8A00048815981CD52D1404F5F5F4FC35DDE4FEC
:10E8B00059834883CD52D140213209F063C64A3092
:10E8C000510508F05FC60894811C911C53E0851621
:10E8D000910409F059C600E010E018C081E280936D
:10E8E000C6008091C00086FFFCCF8091C00080648C
:10E8F0008093C0002F5F3F4F2931310579F70F9486
:10E90000DCF10F5F1F4F0530110519F020E030E0FA
:10E91000E5CF10920A0210920B0210920C02109294
:10E920000D02109206021092070210920802109235
:10E930000902109202021092030210920402109235
:10E9400005028FEE90EE60E00F94F5F180E191EE1C
:10E9500060E00F94C2F18091C00087FFFCCF9091DE
:10E96000C600903608F09F759032B8F09093C600BC
:10E970008091C00086FFFCCF8091C00080648093AE
:10E98000C000A0E2A093C6008091C00086FFFCCF2B
:10E990008091C00080648093C000983409F4D7C18E
:10E9A0009934B8F4923409F459C1933458F490333B
:10E9B00019F1903308F4E3C59F33A1F1903409F0C5
:10E9C000DEC5BDC0953409F470C1963409F0D7C5D1
:10E9D00098C1923509F42BC2933538F49C3409F46C
:10E9E000F5C1913509F0CBC518C2963509F445C279
:10E9F000993509F0C4C567C483E792EE62E00F94CD
:10EA0000F5F110920602109207021092080210927D
:10EA1000090210920A0210920B0210920C0210923C
:10EA20000D0213C18FE792EE62E00F94F5F18FEEC5
:10EA300090EE60E00F94F5F181E291EE60E00F94CA
:10EA4000C2F187EB91EE60E00F94F5F180E391EE77
:10EA500060E00F94C2F184EE90EE60E00F94F5F167
:10EA60008FE391EE60E00F94C2F186E090E061E008
:10EA700070E00F9434F20F94DCF18DE591EE60E0DC
:10EA80000F94C2F189EC91EE60E00F94F5F18EE401
:10EA900091EE60E00F94C2F183EC91EE60E00F9490
:10EAA000F5F18CE691EE60E00F94C2F18EE10F94E7
:10EAB0000DF288E90F940DF281E00F940DF20F949E
:10EAC000DCF18BE791EE60E00F94C2F119E0E0E039
:10EAD000F0E010935700E4918E2F0F940DF20F94F5
:10EAE000DCF18AE891EE60E00F94C2F1E3E0F0E03F
:10EAF00010935700E4918E2F0F940DF20F94DCF1D8
:10EB000089E991EE60E00F94C2F1E2E0F0E0109349
:10EB10005700E4918E2F0F940DF20F94DCF188EAE8
:10EB200091EE60E00F94C2F1E1E0F0E01093570045
:10EB30001491812F0F940DF20F94DCF107CF8BE825
:10EB400092EE62E00F94F5F18BE492EE60E00F94A8
:10EB5000F5F10F94DCF100E010E019C0C8016F2D51
:10EB60000F947FFEFF2031F489E492EE60E00F9471
:10EB7000C2F10BC0F092C6008091C00086FFFCCFAE
:10EB80008091C00080648093C0000F5F1F4FC80158
:10EB900081519F41A0E0B0E0ABBFFC01F790BAE229
:10EBA000FB1621F0E2E000301E07C1F60F94DCF105
:10EBB0000F94DCF187E592EE60E00F94F5F10F948D
:10EBC000DCF1CC24DD2400E010E01EC0C8010F946D
:10EBD00077FEF82E882331F489E492EE60E00F94FA
:10EBE000C2F10BC08093C6008091C00086FFFCCFAD
:10EBF0008091C00080648093C000FE1419F00894D6
:10EC0000C11CD11C0F5F1F4FC80181519F41A0E063
:10EC1000B0E0ABBFFC01E790FAE2EF1621F022E092
:10EC20000030120799F60F94DCF10F94DCF182E6C4
:10EC300092EE60E00F94C2F1C60161E070E00F94C3
:10EC400034F20F94DCF10F94DCF110920202109276
:10EC50000302109204021092050278CE89E992EE26
:10EC600062E00F94F5F1279A2F9A16C02F9880E052
:10EC700090E0E0EDF7E03197F1F7019684369105E9
:10EC8000C1F72F9A80E090E0E0EDF7E03197F1F7DF
:10EC9000019684369105C1F78091C00087FFE6CFC9
:10ECA0008091C00087FFFCCF64C485EA92EE62E0E9
:10ECB0000F94F5F140910202509103026091040219
:10ECC0007091050281E020E10F9491F2809102029F
:10ECD00090910302A0910402B091050280509F4FD1
:10ECE000AF4FBF4F8093020290930302A0930402A0
:10ECF000B093050280509041A040B04008F426CE69
:10ED0000A4CF83EB92EE62E00F94F5F140910602FE
:10ED100050910702609108027091090280E020E1A1
:10ED20000F9491F28091060290910702A09108023F
:10ED3000B091090280509F4FAF4FBF4F80930602A2
:10ED400090930702A0930802B0930902FFCD80ECD4
:10ED500092EE62E00F94F5F183E792EE60E00F949B
:10ED6000F5F18FE792EE60E00F94F5F18BE892EE0B
:10ED700060E00F94F5F189E992EE60E00F94F5F10F
:10ED800085EA92EE60E00F94F5F183EB92EE60E09D
:10ED90000F94F5F180EC92EE60E00F94F5F187ECC2
:10EDA00092EE60E00F94F5F188ED92EE60E00F9442
:10EDB000F5F18FED92EE60E00F94F5F18AEE92EEB0
:10EDC00060E00F94F5F183E093EEBDCD87EC92EE19
:10EDD00062E00F94F5F181E40F947BF282E40F94EA
:10EDE0007BF283E40F947BF284E40F947BF285E45E
:10EDF0000F947BF286E40F947BF287E40F947BF20E
:10EE000088E40F947BF28AE40F947BF28BE40F94F6
:10EE10007BF28CE40F947BF299CD88ED92EE62E068
:10EE20000F94F5F1772473948824992409C48FED05
:10EE300092EE62E00F94F5F140910A0250910B02BC
:10EE400060910C0270910D0282E020E10F9491F22A
:10EE500080910A0290910B02A0910C02B0910D02D8
:10EE600080509F4FAF4FBF4F80930A0290930B0289
:10EE7000A0930C02B0930D0269CD8AEE92EE62E08F
:10EE80000F94F5F184EE90EE60E00F94F5F18FECC5
:10EE900091EE60E00F94F5F1662477244301CC5D98
:10EEA000DE4F19821882C452D140D401C301B695F5
:10EEB000A79597958795CA5DDE4F88839983AA8326
:10EEC000BB83C652D140CC5DDE4FA881B981C4520C
:10EED000D1401196CC5DDE4FB983A883C452D14096
:10EEE000CD0162E070E00F9434F2B0E2B093C6005E
:10EEF0008091C00086FFFCCF8091C0008064809329
:10EF0000C000EDE2E093C6008091C00086FFFCCF18
:10EF10008091C00080648093C000F0E2F093C6004E
:10EF20008091C00086FFFCCF8091C00080648093F8
:10EF3000C000CA5DDE4FE880F9800A811B81C6529D
:10EF4000D140BB27A12F902F8F2D0F940DF2CA5DBA
:10EF5000DE4F8881C652D1400F940DF2B0E2FB2EF5
:10EF6000F092C6008091C00086FFFCCF8091C00067
:10EF700080648093C0000DE30093C6008091C000C0
:10EF800086FFFCCF8091C00080648093C00010E2B7
:10EF90001093C6008091C00086FFFCCF8091C00016
:10EFA00080648093C0008BBEF3012791C65DDE4F65
:10EFB0002883CA52D140A22EBB24CC24DD2408943D
:10EFC000611C711C811C911C8BBEF3018791282E42
:10EFD0003324442455240894611C711C811C911C09
:10EFE0008BBEF3013791C55DDE4F3883CB52D140E4
:10EFF0000894611C711C811C911C8BBEF30147910C
:10F00000C45DDE4F4883CC52D140ADEFEA2EAFEF66
:10F01000FA2EAFEF0A2FAFEF1A2F6E0C7F1C801E57
:10F02000911E142D032DF22CEE24EA0CFB1C0C1D5A
:10F030001D1D0F940DF220E22093C6008091C000A8
:10F0400086FFFCCF8091C00080648093C000C65DC5
:10F05000DE4F8881CA52D1400F940DF230E23093D6
:10F06000C6008091C00086FFFCCF8091C000806404
:10F070008093C000C45DDE4F8881CC52D1400F9494
:10F080000DF240E24093C6008091C00086FFFCCFA5
:10F090008091C00080648093C000C55DDE4F888190
:10F0A000CB52D1400F940DF250E25093C6008091A4
:10F0B000C00086FFFCCF8091C00080648093C000B8
:10F0C0008FEFE8168FEFF80680E0080780E018075A
:10F0D00031F484E092EE60E00F94C2F1DFC0D80119
:10F0E000C7018070907CA070B0708050904CA040A0
:10F0F000B040D1F52FEF3FE340E050E0E222F322B1
:10F1000004231523CA5DDE4FA880B980CA80DB8046
:10F11000C652D140AE0CBF1CC01ED11EAA0CBB1CD7
:10F12000CC1CDD1C8EE092EE60E00F94C2F1BB2798
:10F13000A12F902F8F2D0F940DF28E2D0F940DF285
:10F1400030E23093C6008091C00086FFFCCF8091F2
:10F15000C00080648093C0004EE34093C60080915D
:10F16000C00086FFFCCF87C08EE09EEFA0E0B0E03D
:10F17000E822F9220A231B239CE0E91694E9F90608
:10F1800090E0090790E0190709F088C0C45DDE4FE0
:10F19000A881CC52D140EA2EFF2400E010E0102FCD
:10F1A0000F2DFE2CEE24C55DDE4FB881CB52D14031
:10F1B000EB0EF11C011D111DD601C501817090706F
:10F1C000A070B070DC0199278827E80EF91E0A1F8D
:10F1D0001B1F20EF30E040E050E0A222B322C42207
:10F1E000D52241E1AA0CBB1CCC1CDD1C4A95D1F7F1
:10F1F000EA0CFB1C0C1D1D1D81E090E0A0E0B0E0BE
:10F20000282239224A225B2235E1220C331C441C7D
:10F21000551C3A95D1F7E20CF31C041D151D57013E
:10F220006801AA0CBB1CCC1CDD1C85E192EE60E0E1
:10F230000F94C2F1C801AA27BB270F940DF2BB2778
:10F24000A12F902F8F2D0F940DF28E2D0F940DF274
:10F2500090E29093C6008091C00086FFFCCF809121
:10F26000C00080648093C000AEE3A093C60080918C
:10F27000C00086FFFCCF8091C00080648093C000F6
:10F28000C601AA27BB270F940DF2BB27AD2D9C2DDD
:10F290008B2D0F940DF28A2D0F940DF20F94DCF14B
:10F2A000CC5DDE4FE881F981C452D140F99709F471
:10F2B0004DCBF4E0EF2EF12C012D112D6E0C7F1CA7
:10F2C000801E911EF2CD83E093EE62E00F94F5F183
:10F2D0008AE192EE60E00F94C2F18091C00087FF56
:10F2E000FCCF1091C6001F751093C6008091C0001E
