:100000000C94E5010C9416020C9416020C94160242
:100010000C9416020C9416020C9416020C94160200
:100020000C9416020C9416020C9416020C941602F0
:100030000C9416020C9416020C9416020C941602E0
:100040000C9416020C9416020C9416020C941602D0
:100050000C9416020C9416020C9416020C9478114F
:100060000C9416020C9442110C9418110C94160264
:100070000C9416020C9416020C9416020C941602A0
:100080000C9416020C9416020C9416020C94160290
:100090000C94E2100C94B8100C9416020C94C2113B
:1000A0000C9416020C9416020C9416020C94160270
:1000B0000C9416020C9416020C9416020C94160260
:1000C0000C9416020C9416020C9416020C94160250
:1000D0000C9416020C9416020C9416020C94160240
:1000E0000C9416020C9463040C949F080C94CF0398
:1000F0000C94EF050C9458080C946F050C948C0527
:100100000C9440040C94E3050C9448040C941E03D6
:100110000C9471040C9482030C9432030C942B13F2
:100120000C9449080C9459040C94D2050C94BB0B04
:100130000C94E2020C947B050C94AC040C94B5096D
:100140000C944F040C940F030C94BF050C94BD0544
:100150000C94D3020C9440030C94B81B0C94A2058D
:100160000C9475040C9472080C94B6090C946B08EA
:100170000C947F040C947A040C94C6050C944404EB
:100180000C94D2020C943A040C945F040C944C042A
:100190000C94EA050C9467040C942F060C946D04DF
:1001A0000C9455040C947B040C94480800407A107D
:1001B000F35A00A0724E18090010A5D4E80000E818
:1001C0007648170000E40B54020000CA9A3B000076
:1001D00000E1F505000080969800000040420F0005
:1001E0000000A08601000000102700000000E803C6
:1001F000000000006400000000000A000000000091
:100200000100000000002C76D888DC674F0823DF4F
:10021000C1DFAE59E1B1B796E5E3E453C63AE65122
:10022000997696E8E6C28426EB898C9B62ED407C49
:100230006FFCEFBC9C9F40F2BAA56FA5F490055AE5
:100240002AF75C936B6CF9676DC11BFCE0E40D470A
:10025000FEF520E6B500D0ED902E0300943577052D
:100260000080841E080000204E0A000000C80C33E5
:100270003333330F986E12831141EF8D2114893B74
:10028000E65516CFFEE6DB18D1844B381BF77C1DF4
:10029000901DA4BBE424203284725E228100C9F147
:1002A00024ECA1E53D2700002100240027002A00BE
:1002B0002D003000330001010000040107010A0194
:1002C00000002200250028002B002E003100340001
:1002D00002010000050108010B0100000A0B0209E0
:1002E0000C0D0E08070304010000000000000000D0
:1002F00000000000000000000000000000000000FE
:1003000000000000000012111000000000000000BA
:1003100000000000000000000000000000000000DD
:10032000000020002300260029002C002F003200AE
:100330000001000003010601090105050505070587
:1003400008080808020202020A0A08080404040451
:10035000010101010101010103030303030303037D
:10036000040707070C0C0C0C0C0C0C0C020202020C
:1003700006060606060606060B0B0B0B0B0B0B0BF5
:1003800001021020200808102040102040800201A7
:10039000020108040201010204081020408080408C
:1003A000201008040201800402018040201008048B
:1003B0000201080402010102040810204080010229
:1003C0000408102040802B13B81B11241FBECFEF50
:1003D000D1E2DEBFCDBF00E00CBF26E0AEE6B3E069
:1003E00001C01D92A938B207E1F713E0A0E0B2E026
:1003F000E0EDF6E400E00BBF02C007900D92AE36D0
:10040000B107D9F711E0C4EED1E000E006C02197B2
:100410000109802FFE010E941B21C33ED10780E00D
:100420000807A9F70E94E1140C9456230C940000CD
:10043000FC01A089B18982E08C93A485B5851C92CA
:10044000A685B7858FEC8C93108EA489B58986E03C
:100450008C93A289B3898C9180618C93A289B38992
:100460008C9188608C93A289B3898C9180688C93DD
:100470000288F389E02D80818F7D8083089596E046
:10048000899FD0011124A457BA4F90967C936E9304
:100490005F9791E091969C939197E091F905F09187
:1004A000FA059091F805992339F0309751F08111B0
:1004B00008C08091A8051994309719F05C968C912A
:1004C000FACF0895CF92DF92EF92FF920F931F938E
:1004D00096E0899FF0011124E457FA4F11A2278D6D
:1004E00030A12130310551F178F02230310509F485
:1004F00051C02330310509F452C01F910F91FF9074
:10050000EF90DF90CF9008956623B9F361E070E03B
:100510000E943F022FB7F8948091420490914304C7
:10052000A0914404B09145042FBF8093E4059093BB
:10053000E505A093E605B093E705DFCF9FB7F894F4
:10054000C0904204D0904304E0904404F0904504ED
:100550009FBF0091E4051091E5052091E6053091DB
:10056000E705C01AD10AE20AF30A0091F6051091D4
:10057000F70530E020E00C151D052E053F0550F471
:1005800062E070E01F910F91FF90EF90DF90CF90AD
:100590000C943F026111B1CF63E070E0F3CF70E0E3
:1005A00060E0F0CF08950895DB0114964D915C91C1
:1005B00015976D917C91DC01ED91FC910280F381A6
:1005C000E02D1994AF92BF92CF92DF92EF92FF92FB
:1005D0000F931F93CF93DF936C017B018B01040F6B
:1005E000151FEB015E01AE18BF08C017D10759F007
:1005F0006991D601ED91FC910190F081E02DC60149
:100600001995892B79F7C501DF91CF911F910F9132
:10061000FF90EF90DF90CF90BF90AF900895FC01D6
:10062000538D448D252F30E0842F90E0821B930B57
:10063000541710F0CF96089501970895FC01918DFD
:10064000828D981761F0A28DAE0FBF2FB11D5D9600
:100650008C91928D9F5F9F73928F90E008958FEFA2
:100660009FEF0895FC01918D828D981731F0828D56
:10067000E80FF11D858D90E008958FEF9FEF0895AD
:10068000FC01918D228D892F90E0805C9F4F821B11
:1006900091098F739927089586E494E00E9440039E
:1006A00021E0892B09F420E0822F089583EE94E065
:1006B0000E94400321E0892B09F420E0822F089555
:1006C000FC01A48DA80FB92FB11DA35ABF4F2C91C7
:1006D000848D90E001968F739927848FA689B789BE
:1006E0002C93A089B1898C91837080648C93938DB5
:1006F000848D981306C00288F389E02D80818F7D58
:1007000080830895EF92FF920F931F93CF93DF930F
:10071000EC0181E0888F9B8D8C8D98131AC0E8893D
:10072000F989808185FF15C09FB7F894EE89FF890C
:100730006083E889F98980818370806480839FBFAA
:1007400081E090E0DF91CF911F910F91FF90EF90AA
:100750000895F62E0B8D10E00F5F1F4F0F731127BA
:10076000E02E8C8D8E110CC00FB607FCFACFE889F5
:10077000F989808185FFF5CFCE010E946003F1CF1A
:10078000EB8DEC0FFD2FF11DE35AFF4FF0829FB769
:10079000F8940B8FEA89FB8980818062CFCFCF9359
:1007A000DF93EC01888D8823B9F0AA89BB89E88999
:1007B000F9898C9185FD03C0808186FD0DC00FB63F
:1007C00007FCF7CF8C9185FFF2CF808185FFEDCFBD
:1007D000CE010E946003E9CFDF91CF91089580E0C0
:1007E00090E0892B29F00E94560381110E9400009D
:1007F00080E090E0892B29F00E944C0381110E9437
:10080000000080E090E0892B49F080E090E0892BA7
:1008100029F00E94000081110E94000080E090E019
:10082000892B49F080E090E0892B29F00E9400009C
:1008300081110C94000008958150823108F05AC053
:10084000E82FF0E08827E85DFB4F8F4F0C941B21C9
:1008500048044C043A04400444047A044F04550408
:1008600059045F04630467046D0471047A04750419
:100870007B047F04809180008F77809380000895AF
:10088000809180008F7DF9CF80918000877FF5CFA8
:1008900084B58F7784BD089584B58F7DFBCF80911B
:1008A000B0008F778093B00008958091B0008F7D65
:1008B000F9CF809190008F77809390000895809178
:1008C00090008F7DF9CF80919000877FF5CF809148
:1008D000A0008F778093A00008958091A0008F7D65
:1008E000F9CF8091A000877FF5CF809120018F778D
:1008F000809320010895809120018F7DF9CF809110
:100900002001877FF5CFCF93DF93282F30E0F901C7
:10091000E652FD4F8491F901E058FC4FD491F90162
:10092000E65CFC4FC491CC23A1F081110E941C0411
:10093000EC2FF0E0EE0FFF1FE05EFC4FA591B491AD
:10094000EC91ED2381E090E009F480E0DF91CF911C
:10095000089580E090E0FACF862F0C9483041F93D3
:10096000CF93DF93282F30E0F901E652FD4F8491B9
:10097000F901E058FC4FD491F901E65CFC4FC491B9
:10098000CC23A9F0162F81110E941C04EC2FF0E05B
:10099000EE0FFF1FE054FD4FA591B4918FB7F8946F
:1009A000EC91111108C0D095DE23DC938FBFDF914D
:1009B000CF911F910895DE2BF8CFCF93DF93EC01F9
:1009C0008091030690910406029749F4C130D10545
:1009D00009F43DC07CF560E0209709F439C08091AE
:1009E000030690910406049749F4C130D10509F437
:1009F0005EC00CF039C0209709F444C08091030612
:100A000090910406059709F0E7C0CA30D10508F0B7
:100A1000E3C0FE018827E05FFA4F8F4F0C941B2143
:100A20006F057B058C05A205BD05BF05C605D20572
:100A3000E305EA05C230D105A9F060E0C330D10575
:100A400071F6809107060E94AF0460E006C061E085
:100A5000809107060E94AF0461E0809109060E9420
:100A6000AF04BDCF61E0EDCFC230D10539F1C33065
:100A7000D10509F0C3CF61E0809107060E94AF0461
:100A800060E022C061E0809107060E94AF0460E050
:100A9000809109060E94AF0461E080910B060E94DC
:100AA000AF0460E080910D060E94AF04A7CF60E024
:100AB000809107060E94AF0461E0EACF60E0809178
:100AC00007060E94AF0461E0809109060E94AF040E
:100AD00060E080910B060E94AF0461E0E3CF60E02C
:100AE000809107060E94AF0461E0809109060E9490
:100AF000AF0461E00BC060E0809107060E94AF0484
:100B000061E0809109060E94AF0460E080910B06CD
:100B10000E94AF0460E010C060E0809107060E9470
:100B2000AF0461E0809109060E94AF0460E080910B
:100B30000B060E94AF0461E080910D060E94AF0495
:100B400061E015C060E0809107060E94AF0461E09B
:100B5000809109060E94AF0460E080910B060E941C
:100B6000AF0461E080910D060E94AF0460E08091C7
:100B70000F06DF91CF910C94AF0461E0E4CF61E008
:100B8000809107060E94AF0460E0E2CF61E08091AF
:100B900007060E94AF0460E0809109060E94AF043E
:100BA00061E0DBCF61E0809107060E94AF0460E066
:100BB000809109060E94AF0461E080910B060E94BB
:100BC000AF0460E0CFCF61E0809107060E94AF04E0
:100BD00060E08BCF60E0F8CFDF91CF910895862F52
:100BE000642F0C94AF04CF93DF9390E0FC01E058A6
:100BF000FC4F2491865C9C4FFC0184918823C9F0B2
:100C000090E0880F991FFC01EA55FD4FA591B49122
:100C1000FC01E054FD4FC591D49161110DC09FB707
:100C2000F8948C91209582238C93888128232883A3
:100C30009FBFDF91CF910895623051F49FB7F89430
:100C40003C91822F809583238C93E8812E2BEFCFCC
:100C50008FB7F894EC912E2B2C938FBFEACF862F71
:100C6000642F0C94F3056F927F928F929F92AF92B4
:100C7000BF92CF92DF92EF92FF920F931F93CF9389
:100C8000DF9381E08093F8058FB7F8944091420498
:100C90005091430460914404709145048FBF80914A
:100CA000E8059091E905A091EA05B091EB05481B94
:100CB000590B6A0B7B0B8091F4059091F505B0E020
:100CC000A0E084179507A607B70708F01DC1C0E08C
:100CD0008091F205C81760F4E091EE05F091EF0500
:100CE000EC0FF11D62E080810E94F305CF5FF0CF31
:100CF000712C812C912C540183948091F3057816EA
:100D000008F05FC0072D10E0E091F005F091F105CB
:100D1000E00FF11F61E080810E94F305E091F00592
:100D2000F091F105E00FF11F60E080810E94AF04B7
:100D3000D501C401072C04C0880F991FAA1FBB1F2F
:100D40000A94D2F76C017C01E094F094612C8091BC
:100D5000F2056816F8F4C62DD0E0E091EE05F091AA
:100D6000EF05EC0FFD1F80810E9483042496CC0FB9
:100D7000DD1FC457DA4F892B41F4888199818C2972
:100D80009D29998388836394E2CF888199818E21FC
:100D90009F21F7CFE091F005F091F105E00FF11FF1
:100DA00061E080810E94AF048091F0059091F1058F
:100DB000080F191F60E0F80180810E94F305739409
:100DC0009CCFCCE8D5E0FE018FEF9FEF278D30A1BF
:100DD000232B21F4148E968F858F11A2369625E051
:100DE000E83CF20799F7F12C96E0D92E8091F205B4
:100DF000F81608F050C0E12C0F2D10E0000F111F65
:100E00000C561A4F2091F305E21608F042C0F80183
:100E1000608171810E2C02C0769567950A94E2F785
:100E2000F29E900111242E0D311DECE8F5E080E0DA
:100E3000458D568D2417350709F46AC08F5F3696A5
:100E40008A30B1F760FF23C0ECE8F5E090E080E085
:100E5000448D411117C0E091EC05F091ED05E20FD2
:100E6000F31F4081D89EF001D99EF00D1124E45764
:100E7000FA4F448F368F258F10A2178E61E00E94A3
:100E8000620205C0019636968A30910509F7E3940F
:100E9000B9CFF394ABCF80E099A19111892F269619
:100EA000F5E0C83CDF07C1F79FB7F89440914204D2
:100EB0005091430460914404709145049FBF409356
:100EC000E8055093E9056093EA057093EB058823E4
:100ED000D9F08091AD058823B9F08091AB05909150
:100EE000AC05019789F48091A805DF91CF911F91FE
:100EF0000F91FF90EF90DF90CF90BF90AF909F90B9
:100F00008F907F906F9008951092F80580E0EDCF5C
:100F10006170B5CF3FB7F894809125049091260475
:100F2000A0912704B091280426B5A89B05C02F3FA7
:100F300019F00196A11DB11D3FBFBA2FA92F982FFF
:100F40008827BC01CD01620F711D811D911D42E0FA
:100F5000660F771F881F991F4A95D1F708958F92C2
:100F60009F92AF92BF92CF92DF92EF92FF926B016E
:100F70007C010E948A074B015C01C114D104E10489
:100F8000F104B9F00E948A07681979098A099B0956
:100F9000683E73408105910580F321E0C21AD108B3
:100FA000E108F10888EE880E83E0981EA11CB11CB0
:100FB000E4CFFF90EF90DF90CF90BF90AF909F90E5
:100FC0008F9008952091DA03260F3327331F2132A3
:100FD0003105ECF42091FE03FC0190E080E0243028
:100FE00069F082E00895A091DA032191AC014654A2
:100FF0005C4FA40FB52FB11D2C930196861798F363
:101000008091DA03680F6093DA0380E0089581E04D
:1010100008951092FE0381E0809300041092FF0374
:1010200061E084E10E94AF0461E085E10E94AF04C9
:10103000E9EBF0E080818E7F808380818D7F8083EB
:1010400088E48093B80085E48093BC000895CF9332
:10105000DF9391E09093B9038823B9F0C091B80071
:10106000D091BA008091BC008A7B8093BC0060E084
:1010700084E10E94AF0460E085E10E94AF040E9419
:101080000908D093BA00C093B800DF91CF910895BA
:101090000895E091300480912F04E81730F4F0E0D7
:1010A000EC56FC4F808190E008958FEF9FEF0895FC
:1010B0009091300480912F042FEF3FEF981748F460
:1010C000E92FF0E0EC56FC4F208130E09F5F9093D9
:1010D0003004C901089580912F0490913004891B38
:1010E000990B0895CF92DF92EF92FF920F931F9387
:1010F000CF93DF937C01CB018A01209193032223BC
:1011000089F0EB016B01C40ED51ECC15DD0569F02D
:101110006991D701ED91FC910190F081E02DC7011B
:101120001995F3CF642F0E94E207C801DF91CF9198
:101130001F910F91FF90EF90DF90CF900895CF9384
:10114000DF931F92CDB7DEB76983209193032223EB
:10115000F9F020912D04203258F021E030E0FC011C
:101160003383228390E080E00F90DF91CF91089548
:1011700080912E04E82FF0E0ED58FC4F9981908388
:101180008F5F80932E0480932D0481E090E0ECCF5C
:1011900061E0CE0101960E94E207F7CFCF92DF9285
:1011A000EF92FF920F931F93CF93DF93FC01C481C3
:1011B00021E020939303C093720310922E041092A7
:1011C0002D048385682B80E895E00E949F08D091CC
:1011D0002D04D13208F092C00E948A076B017C0175
:1011E0008091FE03811165C082E08093FE0381E05F
:1011F000809300048FEF8093FD0310922204D0931C
:101200002104A3E7B3E0E1E0F4E080E0D81385C077
:101210001092230480912304CC0FC82BC093230485
:101220008091FF03813009F07CC01092FF030E947F
:101230008A076B017C01809123048093BB0080911D
:10124000B5039091B603A091B703B091B803892B71
:101250008A2B8B2B99F00E948A070091B50310917D
:10126000B6032091B7033091B8036C197D098E093C
:101270009F090617170728073907E0F18091BC007E
:1012800083FDD9CF85EC8093BC000E948A076B0157
:101290007C018091FE03823009F445C08091FD03FA
:1012A0008F3F61F18091FD03803241F18091FD0318
:1012B00025C08091B5039091B603A091B703B0917A
:1012C000B803892B8A2B8B2B09F48ACF0E948A07BB
:1012D0000091B5031091B6032091B7033091B80384
:1012E0006C197D098E099F0906171707280739070A
:1012F00008F076CF8091B4030E94270810922E0444
:1013000010922D0410929303DF91CF911F910F91B2
:10131000FF90EF90DF90CF9008959D9191938F5F14
:1013200075CF85EEB0CF8091B5039091B603A091B3
:10133000B703B091B803892B8A2B8B2B09F4A9CF63
:101340000E948A070091B5031091B6032091B7035C
:101350003091B8036C197D098E099F09061717078C
:101360002807390708F095CFC5CF089590E080E0B1
:101370000895CF92DF92EF92FF920F931F9381E037
:1013800090E09093FC058093FB050E948A070091F2
:1013900011061091120620911306309114066B016C
:1013A0007C01C01AD10AE20AF30A0091FD051091EE
:1013B000FE052091FF0530910006C016D106E20619
:1013C000F30618F3609311067093120680931306C8
:1013D0009093140680910506909106062091FB05D6
:1013E0003091FC052130310569F1892B11F1809193
:1013F00005069091060601979093060680930506D0
:10140000809105069091060620910306309104060E
:1014100064E070E02530310511F46AE070E00E946C
:10142000C6201F910F91FF90EF90DF90CF900C940A
:10143000DD04809101069091020690930606809348
:101440000506D5CF01969093060680930506209158
:101450000106309102068217930791F61092060654
:1014600010920506CDCFCF93DF93209101063091E6
:101470000206032E000C440B550B60E077E883E96D
:1014800093E00E94FC20CA01B90123E030E040E073
:1014900050E00E94FC202093FD053093FE05409310
:1014A000FF0550930006C3E0D0E08091000288233E
:1014B00009F460C00E94B90961E084E00E94AF04B1
:1014C00060E085E00E94AF0461E086E00E94AF0426
:1014D00060E087E00E94AF0468E270E080E090E0A6
:1014E0000E94AF070E94B90961E084E00E94AF0446
:1014F00060E085E00E94AF0460E086E00E94AF04F7
:1015000061E087E00E94AF0468E270E080E090E074
:101510000E94AF070E94B90960E084E00E94AF0416
:1015200061E085E00E94AF0460E086E00E94AF04C5
:1015300061E087E00E94AF0468E270E080E090E044
:101540000E94AF070E94B90960E084E00E94AF04E6
:1015500061E085E00E94AF0461E086E00E94AF0494
:1015600060E087E00E94AF0468E270E080E090E015
:101570000E94AF07219709F098CF1092000260E017
:1015800084E00E94AF0460E085E00E94AF0460E068
:1015900086E00E94AF0460E087E0DF91CF910C9479
:1015A000AF04CF92DF92EF92FF920F931F93CF93EE
:1015B000DF931F921F92CDB7DEB769834A83880FEE
:1015C000991F0091770610917806000F111FE1E234
:1015D000F6E09F01215236402017310714F4119292
:1015E000F8CF2981FC01EF5DF94F21838A81808347
:1015F00060E0809175060E94AF041016110604F594
:1016000001501109F801EF5DF94FE080D0907306A9
:10161000C090710688E0F82E6E2D661F6627661F43
:101620008C2D0E94AF04EE0C61E08D2D0E94AF0462
:1016300060E08D2D0E94AF04FA94F110EDCFDDCF64
:1016400061E0809175060F900F90DF91CF911F910F
:101650000F91FF90EF90DF90CF900C94AF04EF923A
:10166000FF920F931F93CF937C018C0183E0000FB7
:10167000111F8A95E1F70F5C194FC1E0F801119233
:101680008F0140E06C2FC7010E94D10ACF5FC930A3
:10169000A9F7CF911F910F91FF90EF9008950F93AD
:1016A0001F93CF938C01C62F0E94CE086C2F6460CD
:1016B000C8010E94CE086C2F6B7FC8010E94CE0823
:1016C00083EC90E00197F1F7CF911F910F9108956E
:1016D0000F931F93CF93DF938C01D62FC42F607F7E
:1016E000642B0E944F0B80E1D89FB00111246C2B1A
:1016F000C801DF91CF911F910F910C944F0BCF93A5
:10170000DF9300D000D01F921F92CDB7DEB798E0D4
:10171000E9E2F2E0DE01119601900D929A95E1F76F
:1017200090918106961708F46FEF262F30E0220F74
:10173000331F41E050E04C0F5D1F240F351FF901AE
:101740006081680F606840E089E796E028960FB6F0
:10175000F894DEBF0FBECDBFDF91CF910C94680B24
:1017600040E061E089E796E00E94680B8BE39FE12F
:101770000197F1F7089541E00E94680B81E090E045
:101780000895FB0101900020E9F73197AF01461B56
:10179000570BDC01ED91FC910280F381E02D19944F
:1017A0008F929F92AF92BF92CF92DF92EF92FF9271
:1017B0000F931F93CF93DF93CDB7DEB7A1970FB6EB
:1017C000F894DEBF0FBECDBF6C01990FEE08FF0885
:1017D000F7FE4BC06DE286E494E00E9482038C0128
:1017E00022273327A9012C193D094E095F0919A2A7
:1017F000CE0181967C019AE0892E912CA12CB12CEE
:10180000CA01B901A50194010E94DA20605DF701C7
:1018100062937F01211531054105510589F790E05B
:1018200080E0309729F0BF0186E494E00E94C10B6C
:10183000080F191F63E772E086E494E00E94C10B71
:10184000800F911FA1960FB6F894DEBF0FBECDBFDB
:10185000DF91CF911F910F91FF90EF90DF90CF908C
:10186000BF90AF909F908F900895A701960119A205
:101870008E010F5D1F4F8AE0C82ED12CE12CF12C78
:10188000CA01B901A70196010E94DA20605DF80142
:1018900062938F01211531054105510589F7309774
:1018A00039F0BF0186E494E00E94C10B8C01C2CFE5
:1018B00010E000E0BFCFCF93DF9366E772E086E4ED
:1018C00094E00E94C10BEC0163E772E086E494E0CF
:1018D0000E94C10B8C0F9D1FDF91CF9108950C9436
:1018E000C10B0F931F9390E0FC01E058FC4F6491F3
:1018F000FC01E65CFC4FE491F0E0EE0FFF1FE05EC0
:10190000FC4F8591949100E412E42FE030E0462FE3
:101910000E94E612611571058105910529F06F5F3E
:101920007F4F8F4F9F4F9F701F910F910895209170
:101930001F0630912006232B39F421E0FC01808121
:10194000882361F020E00AC0BC0180911B069091C1
:101950001C060E94462321E0892BA1F7822F0895BF
:101960000F931F93CF93DF938C01EB010E949B1F7A
:101970008883C80101960E949B1F8983CE01DF9155
:10198000CF911F910F910895FC0180819181009763
:1019900011F00C94DE1B60E070E0CB0108950F9312
:1019A0001F93CF93DF93EC0188819981009759F0C1
:1019B0002A813B812617370730F081E0DF91CF91F4
:1019C0001F910F9108958B016F5F7F4F0E945C22E2
:1019D000009759F0998388831B830A832C813D816A
:1019E000232B59F7FC011082E8CF80E0E7CFEF927C
:1019F000FF920F931F93CF93DF936115710541F40D
:101A000080E0DF91CF911F910F91FF90EF900895AB
:101A100041155105B1F07B01EC010C811D81040FD2
:101A2000151FB8010E94CF0C882351F328813981FA
:101A30008C819D81B701820F931F0E944F231D83CC
:101A40000C8381E0DECFCF93DF931F921F92CDB73F
:101A5000DEB769831A8241E050E0BE016F5F7F4FBD
:101A60000E94F70C0F900F90DF91CF910895CF93C4
:101A7000DF93EC0188819981009711F00E94D321B6
:101A8000198218821D821C821B821A82DF91CF91DB
:101A90000895CF93DF93EC0141E050E06CE772E0F2
:101AA0000E94F70C811103C0CE010E94370DCE01B8
:101AB000DF91CF910895CF93DF93EC01FB01448137
:101AC0005581608171810E94F70C811103C0CE01A4
:101AD0000E94370DCE01DF91CF910895EF92FF92D2
:101AE0000F931F93CF93DF93EC017B018A01BA011F
:101AF0000E94CF0C81110BC0CE010E94370DCE0188
:101B0000DF91CF911F910F91FF90EF9008951D836A
:101B10000C83B701888199810E944F23F0CFFC018B
:101B200011821082138212821582148250E040E0EA
:101B300065E772E00C946E0DFB0101900020E9F75F
:101B40003197AF01461B570B0C946E0D0F931F93EB
:101B5000CF93DF93CDB7DEB762970FB6F894DEBFB1
:101B60000FBECDBF8C01CB01F80111821082138210
:101B70001282158214824AE0BE016F5F7F4F0E947D
:101B8000051CBE016F5F7F4FC8010E949C0D6296CD
:101B90000FB6F894DEBF0FBECDBFDF91CF911F917E
:101BA0000F910895FC0180819181009711F00C94B0
:101BB000D321089585ED8093BC008091B503909169
:101BC000B603A091B703B091B8030796A11DB11D4C
:101BD00023E0B695A795979587952A95D1F72091FB
:101BE000BC0024FD03C01092FE0308954091B5038C
:101BF0005091B6036091B7037091B803452B462B03
:101C0000472B69F30097A105B10541F025E32A951B
:101C1000F1F700000197A109B109E1CF8091B40368
:101C20000C942708FF920F931F93CF93DF93EC013F
:101C30008B01FB01F0800E949B1FF81621F06F2D95
:101C4000CE010E94A31FF801F1802196CE010E94CF
:101C50009B1FF81621F06F2DCE010E94A31FC80113
:101C6000DF91CF911F910F91FF900895FF920F93F5
:101C70001F93CF93DF9369E072E090E080E00E94D1
:101C8000120E67E072E08AE090E00E94120E65E0BA
:101C900072E084E190E00E94120E63E072E08EE157
:101CA00090E00E94120E61E072E088E290E00E94F3
:101CB000120E03E314E0C2E3D0E0F801F1908F01CB
:101CC000CE010E949B1FF81621F06F2DCE010E94BD
:101CD000A31F2196C633D10581F7DF91CF911F91C4
:101CE0000F91FF9008950F931F93CF93DF93CDB77C
:101CF000DEB7CB54D1090FB6F894DEBF0FBECDBF0F
:101D000064E670E080E090E00E94AF0760916E03AF
:101D100070916F03809170039091710328961FAEAC
:101D20001EAE28972A961FAE1EAE2A972C961FAE7F
:101D30001EAE2C978E010F5F1F4F22E044E00E94E1
:101D4000C01B009709F4CEC0BC01CE018A5B9F4F37
:101D50000E949C0D6091330470913404809135048D
:101D60009091360422961FAE1EAE229724961FAE87
:101D70001EAE249726961FAE1EAE26978E010F5FCD
:101D80001F4F22E044E00E94C01B009709F4B0C03E
:101D9000BC01CE01805C9F4F0E949C0D60910102AE
:101DA00070910202CE01CA960E94A60D60910302B4
:101DB00070910402CE01C4960E94A60D60910502A6
:101DC00070910602CE018E960E94A60D60910702C8
:101DD00070910802CE0188960E94A60D60910902BA
:101DE00070910A02CE0101960E94A60D1BA21AA2B2
:101DF0001DA21CA21FA21EA269817A816115710514
:101E000031F04D815E81CE0182960E946E0DCE0131
:101E100082960E94490DBE01685D7F4F0E945B0D56
:101E20000E94490DBE01625D7F4F0E945B0D0E94C2
:101E3000490DBE016C5C7F4F0E945B0D0E94490DF5
:101E4000BE01665C7F4F0E945B0D0E94490DBE0182
:101E5000605C7F4F0E945B0D0E94490DBE016A5B72
:101E60007F4F0E945B0D26E08531920769F0FC01EF
:101E7000608171816115710509F440C0448155810B
:101E800085E196E00E946E0DCE0182960E94D20DF1
:101E9000CE0101960E94D20DCE0188960E94D20DED
:101EA000CE018E960E94D20DCE01C4960E94D20D14
:101EB000CE01CA960E94D20DCE01805C9F4F0E9437
:101EC000D20DCE018A5B9F4F0E94D20DC55BDF4FC2
:101ED0000FB6F894DEBF0FBECDBFDF91CF911F913B
:101EE0000F910895CE018A5B9F4F0E94370D32CF2C
:101EF000CE01805C9F4F0E94370D50CF85E196E068
:101F00000E94370DC1CFCF92DF92EF92FF921F93C5
:101F1000CF93DF93CDB7DEB72C970FB6F894DEBF23
:101F20000FBECDBFCE0107960E948F0D11E483EE48
:101F300094E00E944003892B09F408C183EE94E0E9
:101F40000E941E03823509F056C062E5CE01079655
:101F50000E94230D6EE772E086E494E00E946F0C0D
:101F60000E94730E65E176E086E494E00E94D4025C
:101F700065E176E083EE94E00E94D40280917B00DC
:101F8000877F80937B0010937C0080917A0080642F
:101F900080937A0080917A0086FDFCCF8091780052
:101FA00060917900762F682F072E000C880B990B13
:101FB0000E94A21E20E030E040E85AE30E94DD1EAD
:101FC00020E030E44CE955E40E94DD1E20E030E0E2
:101FD00040E251E40E941E2060936E0370936F03F1
:101FE000809370039093710365E176E086E494E05A
:101FF0000E94D4029CCF813431F562E370E080E02E
:1020000090E00E94AF07CE0107960E94C40C6B01BE
:1020100062E370E080E090E00E94AF07D0920A0295
:10202000C092090265E772E0CE0107960E949C0DFE
:102030000E945B0C8091090290910A020E94D00BD1
:102040000E94730E95CF823411F562E370E080E058
:1020500090E00E94AF07CE0107960E94C40C6B016E
:1020600062E370E080E090E00E94AF07D092080247
:10207000C092070265E772E0CE0107960E949C0DB0
:102080000E945B0C8091070290910802D7CF8334A5
:10209000B1F462E370E080E090E00E94AF07CE010F
:1020A00007960E94C40C6B0162E370E080E090E050
:1020B0000E94AF07D0920602C0920502DBCF8434A3
:1020C000B1F462E370E080E090E00E94AF07CE01DF
:1020D00007960E94C40C6B0162E370E080E090E020
:1020E0000E94AF07D0920402C0920302C3CF85348E
:1020F000B1F462E370E080E090E00E94AF07CE01AF
:1021000007960E94C40C6B0162E370E080E090E0EF
:102110000E94AF07D0920202C0920102ABCF8C3274
:1021200049F4CE0101960E948F0DCE0101960E94C6
:10213000D20D24CF682FCE0107960E94230D64E1B3
:1021400070E080E090E00E94AF0718CFCE010796C4
:102150000E94D20D2C960FB6F894DEBF0FBECDBFF5
:10216000DF91CF911F91FF90EF90DF90CF90089576
:102170001F920F920FB60F9211240BB60F922F934E
:102180003F934F935F936F937F938F939F93AF93FF
:10219000BF93EF93FF9386E494E00E946003FF9166
:1021A000EF91BF91AF919F918F917F916F915F91CF
:1021B0004F913F912F910F900BBE0F900FBE0F903C
:1021C0001F9018951F920F920FB60F9211240BB605
:1021D0000F922F938F939F93EF93FF93E091560469
:1021E000F09157048081E0915C04F0915D0482FDE0
:1021F0001DC0908180915F048F5F8F732091600478
:10220000821741F0E0915F04F0E0EA5BFB4F958FAD
:1022100080935F04FF91EF919F918F912F910F9089
:102220000BBE0F900FBE0F901F9018958081F2CFBC
:102230001F920F920FB60F9211240BB60F922F938D
:102240003F934F935F936F937F938F939F93AF933E
:10225000BF93EF93FF9383EE94E00E946003FF919E
:10226000EF91BF91AF919F918F917F916F915F910E
:102270004F913F912F910F900BBE0F900FBE0F907B
:102280001F9018951F920F920FB60F9211240BB644
:102290000F922F938F939F93EF93FF93E091F3040B
:1022A000F091F4048081E091F904F091FA0482FD48
:1022B0001DC090818091FC048F5F8F732091FD047D
:1022C000821741F0E091FC04F0E0ED51FB4F958F57
:1022D0008093FC04FF91EF919F918F912F910F902C
:1022E0000BBE0F900FBE0F901F9018958081F2CFFC
:1022F0001F920F920FB60F9211242F933F938F933B
:102300009F93AF93BF938091420490914304A09117
:102310004404B09145043091240423E0230F2D3769
:1023200058F50196A11DB11D209324048093420409
:1023300090934304A0934404B093450480912504F2
:1023400090912604A0912704B09128040196A11D24
:10235000B11D8093250490932604A0932704B09385
:102360002804BF91AF919F918F913F912F910F9032
:102370000FBE0F901F90189526E8230F0296A11DFF
:10238000B11DD2CF1F920F920FB60F9211240BB630
:102390000F922F933F934F935F936F937F938F93FE
:1023A0009F93AF93BF93EF93FF938091B900887F82
:1023B000803609F44DC008F040C0883209F4A9C045
:1023C00028F5803109F49DC0C8F4882309F4FBC0C6
:1023D000883009F496C0FF91EF91BF91AF919F9122
:1023E0008F917F916F915F914F913F912F910F90BE
:1023F0000BBE0F900FBE0F901F901895883109F4F7
:1024000088C0803241F78093FD0314C0803409F402
:102410009DC040F48033B9F38833E9F68093FD031F
:1024200085ECB0C0803509F485C0883509F496C0C4
:10243000883489F60E94DA0DCECF883909F48CC031
:1024400038F5883729F050F4883611F0803719F6BE
:1024500083E08093FE031092FC0357C0883809F490
:102460007BC0803919F0803809F0B5CF8091FC032A
:10247000803208F071C0E091FC0381E08E0F809300
:10248000FC038091BB00F0E0E452FC4F80833DC030
:10249000803B39F0E0F4803A09F479C0883A09F0D9
:1024A0009ACF84E08093FE031092DB031092DA034C
:1024B000E0912B04F0912C0419958091DA0381119D
:1024C0000FC081E08093DA031092BA0309C0803C08
:1024D00009F4A6CF883C09F4A3CF883B09F07BCF51
:1024E000E091DB0381E08E0F8093DB03F0E0E654A4
:1024F000FC4F80818093BB009091DB038091DA03D5
:1025000029C0809123048093BB0085EC8093BC009C
:1025100062CF9091220480912104981758F5E091A0
:10252000220481E08E0F80932204F0E0EF5FFB4FE6
:102530008081E9CFE091220481E08E0F8093220414
:102540008091BB00F0E0EF5FFB4F8083909122040D
:10255000809121049817C8F285E8D8CFE091220431
:1025600081E08E0F809322048091BB00F0E0EF5F4A
:10257000FB4F80838091000481115CCF81E08093C8
:10258000FF0384EA8093BC001092FE0324CF85EC05
:102590008093BC001092FE038091FC03803230F4E3
:1025A000E091FC03F0E0E452FC4F10826091FC03E8
:1025B00070E0E0912904F0912A048CED93E01995E4
:1025C0001092FC0308CF1092FD0334CFCF92DF921C
:1025D000EF92FF920F931F93E82FF92F05C0015040
:1025E00011092109310961F1908196239417B9F3FA
:1025F00005C0015011092109310911F1908196237B
:102600009413F7CFC12CD12CE12CF12C0AC08FEF01
:10261000C81AD80AE80AF80A0C151D052E053F0548
:1026200079F080818623841791F36C2D7D2D8E2D7A
:102630009F2D1F910F91FF90EF90DF90CF90089505
:1026400060E070E080E090E01F910F91FF90EF90CC
:10265000DF90CF900895CF93DF93109249041092AA
:10266000480488EE93E0A0E0B0E080934A049093A1
:102670004B04A0934C04B0934D042DE332E030930F
:102680004704209346044DEC50E05093530440938C
:1026900052044CEC50E0509355044093540448ECE1
:1026A00050E0509357044093560449EC50E0509347
:1026B0005904409358044AEC50E050935B04409313
:1026C0005A044EEC50E050935D0440935C04109229
:1026D0005F041092600410926104109262041092E0
:1026E000E6041092E5048093E7049093E804A09335
:1026F000E904B093EA043093E4042093E30425EC66
:1027000030E03093F0042093EF0424EC30E0309379
:10271000F2042093F10420EC30E03093F404209391
:10272000F30421EC30E03093F6042093F50422EC1E
:1027300030E03093F8042093F70426EC30E0309337
:10274000FA042093F9041092FC041092FD041092F4
:10275000FE041092FF04109283051092820580936C
:10276000840590938505A0938605B09387058FE433
:1027700092E0909381058093800510927C061092E0
:102780007B068BE692E090937A068093790687E247
:1027900080937D0680E18093820682E080938306A9
:1027A00010928406C3E3D0E0D0937206C093710602
:1027B00084E390E0909374068093730685E390E041
:1027C000909376068093750681E090E0909378066A
:1027D0008093770661E083E30E94F30561E08091D6
:1027E00073060E94F30561E0809175060E94F3056F
:1027F00061E0809175060E94AF04D0937206C09389
:102800007106E1E3F6E081E796E011928E179F07EB
:10281000E1F7D0E0C0E08091770690917806C81784
:10282000D90774F540E06FE0CE010E94D10A809193
:10283000770690917806C817D9072CF447E06BE02B
:10284000CE010E94D10A40E069E0CE010E94D10A87
:102850008091770690917806C817D9071CF4CE01AD
:102860000E942F0B8091770690917806C817D907A0
:102870002CF440E06CE0CE010E94D10A2196CBCF2F
:102880008BE196E00E948F0D85E196E00E948F0D0E
:1028900010920606109205061092FC051092FB0598
:1028A000109211061092120610921306109214063E
:1028B00084E690E0909302068093010688E090E021
:1028C000909308068093070689E090E090930A06AB
:1028D000809309068AE090E090930C0680930B06A3
:1028E0008BE090E090930E0680930D0661E088E007
:1028F0000E94F30561E0809109060E94F30561E002
:1029000080910B060E94F30561E080910D060E9404
:10291000F3051092100610920F0684E090E0909359
:1029200004068093030610928E0510929205109271
:1029300091051092930581E692E090938D05809326
:102940008C05E8EAF5E084EE95E0108214821382AB
:10295000158236968E179F07C1F78FE092E090930D
:10296000EF058093EE058BE092E09093F105809364
:10297000F00584E08093F2058093F30583E192E013
:102980009093ED058093EC058AE090E09093F50537
:102990008093F40584EF91E09093F7058093F6051A
:1029A0001092FA051092F9051092E8051092E905C7
:1029B0001092EA051092EB051092F805DF91CF9185
:1029C0000895CF93DF9300D000D000D01F92CDB7F1
:1029D000DEB7789484B5826084BD84B5816084BD9F
:1029E00085B5826085BD85B5816085BD80916E00AD
:1029F000816080936E0010928100809181008260DE
:102A0000809381008091810081608093810080911A
:102A100080008160809380008091B1008460809309
:102A2000B1008091B00081608093B00080919100EE
:102A300082608093910080919100816080939100E9
:102A4000809190008160809390008091A1008260CD
:102A50008093A1008091A10081608093A10080916A
:102A6000A00081608093A00080912101826080930A
:102A700021018091210181608093210180912001B9
:102A800081608093200180917A00846080937A0035
:102A900080917A00826080937A0080917A008160D0
:102AA00080937A0080917A00806880937A001092F7
:102AB000C10083EE94E00E94180286E494E00E9434
:102AC000180261E088E20E94F3051092300410922F
:102AD0002F0410922E0410922D040E94090882EDFA
:102AE00092E090932C0480932B0483ED92E09093DA
:102AF0002A048093290410927E06809183068230F6
:102B000018F098E090937E068093810662E370E06F
:102B100080E090E00E94AF076091840689E796E02C
:102B20000E94CE0868EE73E080E090E00E94AF075C
:102B300060E389E796E00E944F0B0BE416E4C801BE
:102B40000197F1F760E389E796E00E944F0BC80117
:102B50000197F1F760E389E796E00E944F0B83E568
:102B600092E00197F1F760E289E796E00E944F0B4F
:102B700060917E06606240E089E796E00E94680B03
:102B800084E080937F0640E06CE089E796E00E9455
:102B9000680B0E94B00B82E08093800640E066E004
:102BA00089E796E00E94680B40E062E089E796E0E2
:102BB0000E94680B8BE39FE10197F1F78091770604
:102BC000909178061816190634F441E06CE090E014
:102BD00080E00E94D10A80917706909178061816BD
:102BE000190634F44FE06AE090E080E00E94D10AD8
:102BF00080917706909178061816190624F490E0D3
:102C000080E00E942F0B60E089E30E94F30561E001
:102C100084E00E94F30561E085E00E94F30561E035
:102C200086E00E94F30561E087E00E94F30561E021
:102C30008CE00E94F30561E08DE00E94F30561E005
:102C40008EE00E94F30561E08FE00E94F30561E0F1
:102C500080E10E94F30561E08EE10E94F30560E0EF
:102C60008FE10E94F30569E072E090E080E00E944D
:102C7000B00CFC018081918190930A02809309023B
:102C800067E072E08AE090E00E94B00CFC01808175
:102C90009181909308028093070265E072E084E1DD
:102CA00090E00E94B00CFC0180819181909306021B
:102CB0008093050263E072E08EE190E00E94B00C28
:102CC000FC0180819181909304028093030261E072
:102CD00072E088E290E00E94B00CFC01808191815A
:102CE000909302028093010282E390E00E949B1F76
:102CF0008093330483E390E00E949B1F809334040D
:102D000084E390E00E949B1F8093350485E390E06C
:102D10000E949B1F8093360488E0E1E3F2E0DE012D
:102D2000119601900D928A95E1F70E94B00B40E058
:102D300060E489E796E00E94680B8E010F5F1F4FE9
:102D40007E01F9E0EF0EF11CF80161918F0189E736
:102D500096E00E94BB0B0E151F05B1F760E082E004
:102D60000E947F0B60E089E796E00E94BB0B60E069
:102D700083E00E947F0B61E872E089E796E00E94A1
:102D80006F0C60E08AE00E947F0B60E089E796E0CC
:102D90000E94BB0B61E081E00E947F0B69E872E05A
:102DA00089E796E00E946F0C68E873E180E090E0AC
:102DB0000E94AF073324339493E0492E512C0E9494
:102DC000830F86E30E948304019711F4309241043B
:102DD00080914104882309F4ACC40E94B00B60E0E8
:102DE00080E00E947F0B64E972E089E796E00E9430
:102DF0006F0C61E080E00E947F0B0E943306882305
:102E000009F443C28A3209F043C20E94B00B60E069
:102E100080E00E947F0B63EA72E089E796E00E94FF
:102E20006F0C61E080E00E947F0B6BEA72E089E743
:102E300096E00E946F0C82E992E00E94970C882332
:102E400009F4D9C141E050E050933804409337046D
:102E5000309240040E94830F80914004882309F43B
:102E6000E3C00E94B00B60E080E00E947F0B62ED47
:102E700072E089E796E00E946F0C61E080E00E94BA
:102E80007F0B65E772E08BE196E00E949C0D01E00C
:102E900010E080914004882309F4C6C00E943306E4
:102EA000F82E882309F470C2FAE28F1374C38EEDF2
:102EB00092E00E94970CF82E811119C082EE92E0E8
:102EC0000E94970C811113C086EE92E00E94970C2D
:102ED00081110DC08AEE92E00E94970C811107C00B
:102EE0008EEE92E00E94970C882309F4F6C1809040
:102EF000090290900A028114910411F4F11047C262
:102F0000A0900702B0900802A114B10431F482EE3F
:102F100092E00E94970C81114DC2C0900502D090A2
:102F20000602C114D10431F486EE92E00E94970C9F
:102F3000811153C2E0900302F0900402E114F10405
:102F400031F48AEE92E00E94970C811159C2609090
:102F50000102709002026114710431F48EEE92E06D
:102F60000E94970C81115FC2409137045091380440
:102F70005A8749878BE196E00E94C40C9801215042
:102F80003109220F331FE985FA850E171F0709F053
:102F900096C2F901E75CFB4F718360838EED92E08E
:102FA0000E94970C882309F451C2F1E08F1A91080E
:102FB00090920A028092090220E030E040EC50E456
:102FC00060913304709134048091350490913604FB
:102FD0000E94B21F609333047093340480933504CD
:102FE000909336040E94360E0E94B00B60E080E0A1
:102FF0000E947F0B66E373E089E796E00E946F0C06
:1030000061E080E00E947F0B61E473E089E796E075
:103010000E946F0C1092400465E772E08BE196E02D
:103020000E949C0D30923F0480913F04882309F454
:10303000DDC02091390430913A0480913B04909195
:103040003C0440913D0450913E04821793070CF0DC
:1030500073C3421753070CF479C3742F652FAC0167
:10306000872F962F70E060E0821793070CF4BBC2A5
:10307000672B09F0BDC230933C0420933B0450936E
:103080003A044093390490933E0480933D0460E0F9
:103090008EE10E94AF04C2010197F1F761E08EE179
:1030A0000E94AF0483E290E00197F1F760E08EE1C7
:1030B0000E94AF048FE10E94710C072E000C880B58
:1030C000990B0E94A21E26E933E44BE05DE30E94C7
:1030D000DD1E20E030E040EA51E40E941E200E9404
:1030E0009020709332046093310409E314E0F801F6
:1030F000819191918F018B37910509F08BC20E94CC
:10310000330A3092000261E08CE00E94AF0460ED6F
:1031100077E080E090E00E94AF0760E08CE00E94E2
:10312000AF044FE354E04017510709F70E94330AF8
:103130003092000210923F0461E088E20E94AF04E6
:1031400060ED77E080E090E00E94AF0760E088E209
:103150000E94AF048FE10E94710C072E000C880BB7
:10316000990B0E94A21E26E933E44BE05DE30E9426
:10317000DD1E20E030E040EA51E40E941E200E9463
:10318000902070933204609331040E94B00B60E091
:1031900080E00E947F0B60E080E00E947F0B62E590
:1031A00073E089E796E00E946F0C61E080E00E9486
:1031B0007F0B63E673E089E796E00E946F0C61E0A5
:1031C0008CE00E947F0B80913104909132044F97E4
:1031D0000CF471C210923A041092390410923C041B
:1031E00010923B0410923E0410923D041092410450
:1031F0000E94EF03E4CD87E892E00E94970C8823B9
:1032000039F082E090E0909338048093370420CE28
:1032100080EE92E00E94970C882339F0E3E0F0E022
:10322000F0933804E093370413CE109238041092D0
:10323000370465E772E08BE196E00E949C0D0E94E6
:10324000B00B60E080E00E947F0B69EB72E089E7E1
:1032500096E00E946F0C61E080E00E947F0B68EEB8
:1032600073E080E090E00E94AF070E94B00B60E046
:1032700080E00E947F0B64E972E089E796E00E949B
:103280006F0C61E080E00E947F0B0E94830FB5CD40
:103290008332B9F40E94B00B60E080E00E947F0BA3
:1032A00063EA72E089E796E00E946F0C61E080E0DB
:1032B0000E947F0B68EC72E089E796E00E946F0C39
:1032C000C9CD682F8BE196E00E94230D6BE176E07B
:1032D00089E796E00E94D402D8CF0E94B00B60E04C
:1032E00080E00E947F0B62EF72E089E796E00E9427
:1032F0006F0C61E080E00E947F0B6CE573E089E772
:1033000096E00E946F0C65E772E08BE196E00E9408
:103310009C0D68EE73E080E090E00E94AF070430FF
:10332000110594F50E94B00B60E080E00E947F0BD5
:1033300060E081E00E947F0B68E473E089E796E03B
:103340000E946F0C60E08AE00E947F0BB801CE0102
:1033500001960E94A60DBE016F5F7F4F89E796E040
:103360000E94D402CE0101960E94D20D60E08BE053
:103370000E947F0B6CED72E089E796E00E946F0C73
:1033800061E080E00E947F0B0E94830F82CD0E944B
:10339000B00B60E080E00E947F0B6CEF72E089E789
:1033A00096E00E946F0C61E080E00E947F0B68E075
:1033B00073E0A5CF0E94B00B60E080E00E947F0B1D
:1033C0006CEF72E089E796E00E946F0C61E080E0AC
:1033D0000E947F0B60E173E092CF0E94B00B60E02F
:1033E00080E00E947F0B6CEF72E089E796E00E941C
:1033F0006F0C61E080E00E947F0B6BE173E07FCF98
:103400000E94B00B60E080E00E947F0B6CEF72E0E6
:1034100089E796E00E946F0C61E080E00E947F0BDC
:1034200063E273E06CCF0E94B00B60E080E00E942A
:103430007F0B6CEF72E089E796E00E946F0C61E011
:1034400080E00E947F0B69E273E059CF82EE92E048
:103450000E94970C882341F041E0A41AB108B09271
:103460000802A0920702A8CD86EE92E00E94970C77
:10347000882341F051E0C51AD108D0920602C092CB
:1034800005029ACD8AEE92E00E94970C882341F0C3
:1034900081E0E81AF108F0920402E09203028CCD78
:1034A0008EEE92E00E94970C882309F485CD91E07E
:1034B000691A710870920202609201027DCDF901D1
:1034C000E75CFB4F718360838EED92E00E94970C66
:1034D000882341F1E1E08E1A910890920A028092CD
:1034E000090220E030E040EC50E460913304709138
:1034F000340480913504909136040E94B21F609389
:1035000033047093340480933504909336040E94FE
:10351000360E65E772E08BE196E00E949C0D0F5F2E
:103520001F4FFDCE82EE92E00E94970C882341F05F
:10353000F1E0AF1AB108B0920802A0920702D1CF11
:1035400086EE92E00E94970C882341F041E0C41A75
:10355000D108D0920602C0920502C3CF8AEE92E053
:103560000E94970C882341F051E0E51AF108F0928F
:103570000402E0920302B5CF8EEE92E00E94970C17
:10358000882309F4AECF81E0681A710870920202B4
:1035900060920102A6CF93E2891319C00E94B00B7A
:1035A00060E080E00E947F0B63EA72E089E796E0CA
:1035B0000E946F0C61E080E00E947F0B68EC72E07B
:1035C00089E796E00E946F0C10924004DDCE682FD0
:1035D0008BE196E00E94230D41E06F2D89E796E094
:1035E0000E94680BD1CE722F632F9C01872F962FDC
:1035F000241735072CF4722F632F9A01472F562F6B
:10360000821793070CF037CD722F632F9C01872F01
:10361000962F31CD8C37910589F40E94330A309270
:10362000000261E08DE00E94AF0460ED77E080E091
:1036300090E00E94AF0760E08DE071CD8D3791057D
:1036400089F40E94330A3092000261E08EE00E9409
:10365000AF0460ED77E080E090E00E94AF0760E0AB
:103660008EE05DCD8E37910589F40E94330A309249
:10367000000261E08FE00E94AF0460ED77E080E03F
:1036800090E00E94AF0760E08FE049CD8F37910551
:1036900009F047CD0E94330A3092000261E080E1D8
:1036A0000E94AF0460ED77E080E090E00E94AF07F9
:1036B00060E080E134CD60E08EE10E94AF04C201A1
:1036C0000197F1F761E08EE10E94AF0483E290E0A0
:1036D0000197F1F760E08EE10E94AF048FE10E9454
:1036E000710C072E000C880B990B0E94A21E26E974
:1036F00033E44BE05DE30E94DD1E20E030E040EA71
:1037000051E40E941E200E94902070933204609326
:103710003104CE0101960E94A60DBE016F5F7F4F5E
:1037200089E796E00E94D402CE0101960E94D20D54
:1037300046CD0E94830F5CCD4817590764F0722F65
:10374000632F9C01CA01472F562F95CC782F692FE4
:10375000C901272F362F61E070E0421753070CF4A0
:1037600083CC722F632F9A01AC01872F962F75CCD3
:1037700085E196E00E94D20D8BE196E00C94D20D8B
:10378000EF920F931F93CF93DF93E80134E047FD4F
:1037900034E1042E000C550B57FF03C051954195A1
:1037A0005109E32E022F242FAE010E943F1CCE01AF
:1037B000DF91CF911F910F91EF9008951F93FC011E
:1037C00099278827BC01E89411911032E9F3193048
:1037D00010F01E30C8F31B3251F01D3249F46894CA
:1037E00006C00E94101C610F711D811D911D119159
:1037F00010531A30B0F33EF4909580957095619512
:103800007F4F8F4F9F4F1F910895BB274A3031F450
:10381000992322F4BDE2909581959F4F0C94261C2C
:10382000592F482F372F262F660F771F881F991F74
:10383000660F771F881F991F620F731F841F951FC4
:10384000660F771F881F991F0895BB27FB01552717
:10385000AA27880F991FAA1FA41710F0A41B8395ED
:103860005051B9F7A05DAA3308F0A95DA193009764
:1038700079F7B111B1931192CB010C94901E8F92F4
:103880009F92AF92BF92CF92DF92EF92FF920F93EF
:103890001F93CF93DF9300D000D000D0CDB7DEB719
:1038A0006A01F22EB02E102FFBE3AF2EA01608F403
:1038B0001BE31F5F012F27E0AE014F5F5F4F0E94A8
:1038C000B81DBC018981982F9970913009F44EC0C0
:1038D0009BE2E1FC04C09E2D9170E0FC49C05E2D8E
:1038E0005071E82FE87083FF55C084E0911101C04A
:1038F00083E0EF2DE81B8F1508F0E0E0D6018E2F56
:1039000020E25523C9F1992329F0D6019C93C601E1
:1039100001966C0196012D5F3F4FE2FE33C08EE4AD
:10392000D6018C9391E411969C93119712968C93E7
:10393000D9018E2F90E281112AC0E20FF32FF11DE1
:1039400010828EEF9FEF29960FB6F894DEBF0FBE60
:10395000CDBFDF91CF911F910F91FF90EF90DF903E
:10396000CF90BF90AF909F908F9008959DE2B7CF7A
:1039700090E2B5CF2D9381508111FCCFCE0ED11C9A
:10398000E0E0C1CF8EE6D6018C9391E6CCCF9D933B
:103990008150D1CF482F447082FF3DC084E0911107
:1039A00001C083E08F1510F4EF2DE81BD6018E2F98
:1039B00020E2552309F1992329F0D6019C93C601F1
:1039C00001966C0196012D5F3F4FE2FE1BC089E41A
:1039D000D6018C938EE411968C93119786E41296FF
:1039E0008C93D9018E2F90E2882309F4A6CF9D9362
:1039F0008150FACF2D9381508111FCCFCE0ED11C76
:103A0000E0E0D9CF89E6D6018C938EE611968C93AF
:103A1000119786E6E4CF9B0177FF02C030E020E0FB
:103A2000A1E0B0E0911102C0B0E0A0E0F901319650
:103A3000AE0FBF1F8B2C912CBB2009F461C0540129
:103A4000EFEFAE1ABE0AAA0DBB1DFA161B0619F03F
:103A500014F04F2D4A1B511188C0E3FC59C0760168
:103A6000A42FB0E2A1114FC0C40ED11C992309F4B8
:103A70005BC040E0D6011196F60190836D0155239D
:103A800009F448C0012F060F9A81582F507184FF06
:103A900003C0913309F4015010160CF047C00930EF
:103AA00008F008E0EEE2FE2E5B01A01AB1088501E5
:103AB0009194819491082F3F320729F4D601FC920A
:103AC000F60131966F016217730794F1021713071D
:103AD0007CF5DB01A21BB30BAA24A394B12CAC0E82
:103AE000BD1EAA0DBB1D11968C9121503109D60126
:103AF000119628153905F4F0F60180836D01DBCFAE
:103B0000B12CA12CA0CFF701B1937F01A150AACF76
:103B10009111B0CFD601942F50E302C05D93915024
:103B20009111FCCFC40ED11C40E0ACCF01E0BACF64
:103B300080E3DBCF6217730731F4963388F4953353
:103B400011F4552369F0F6018083FD01842F90E282
:103B5000811108C0A40FB11D1C9290E080E0F3CE4B
:103B600081E3F1CF91938150F3CF911183CF8ACF2D
:103B7000283008F027E03327DA01990F311D87FD3F
:103B8000916000966105710539F432602E5F3D93B6
:103B900030E32A95E1F708959F3F30F080387105B2
:103BA000610509F03C5F3C5F3D93913008F080680F
:103BB000911DDF93CF931F930F93FF92EF92192FD5
:103BC000987F9695E92F96959695E90FFF27EA5FDE
:103BD000FD4F99273327EE24FF24A701E701059025
:103BE0000894079428F4360FE71EF81E491F511D4C
:103BF000660F771F881F991F0694A1F705900794F9
:103C000028F4E70EF81E491F561FC11D770F881FA5
:103C1000991F661F0694A1F70590079428F4F80EE3
:103C2000491F561FC71FD11D880F991F661F771F79
:103C30000694A1F70590079420F4490F561FC71F5B
:103C4000D81F990F661F771F881F0694A9F78491C4
:103C50001095177041F0D695C79557954795F794ED
:103C6000E7941A95C1F7ECEAF1E068941590159184
:103C700035916591959105907FE27395E118F10A70
:103C8000430B560BC90BD009C0F7E10CF11E431FC3
:103C9000561FC91FD01D7EF4703311F48A95E6CFEC
:103CA000E894015030F0080F0AF40027021708F4D6
:103CB000202F2395022F7A3328F079E37D932A95DC
:103CC000E9F710C07D932A9589F606949795679534
:103CD000379517951794E118F10A430B560BC90B4A
:103CE000D00998F023957E9173957A3308F070E3AC
:103CF0007C932013B8F77E9170617D9330F08395AB
:103D000071E37D9370E32A95E1F71124EF90FF9022
:103D10000F911F91CF91DF91992787FD909508957D
:103D2000DC01FC01672F71917723E1F7329704C022
:103D30007C916D9370836291AE17BF07C8F30895AD
:103D4000E89409C097FB3EF4909580957095619535
:103D50007F4F8F4F9F4F9923A9F0F92F96E9BB27EB
:103D60009395F695879577956795B795F111F8CF67
:103D7000FAF4BB0F11F460FF1BC06F5F7F4F8F4FD2
:103D80009F4F16C0882311F096E911C0772321F0C8
:103D90009EE8872F762F05C0662371F096E8862F60
:103DA00070E060E02AF09A95660F771F881FDAF7B7
:103DB000880F9695879597F908950E94F01E0C94A8
:103DC000611F0E94531F38F00E945A1F20F0952354
:103DD00011F00C944A1F0C94501F11240C94951F41
:103DE0000E94721F70F3959FC1F3950F50E0551F0D
:103DF000629FF001729FBB27F00DB11D639FAA2740
:103E0000F00DB11DAA1F649F6627B00DA11D661F8E
:103E1000829F2227B00DA11D621F739FB00DA11DAF
:103E2000621F839FA00D611D221F749F3327A00D69
:103E3000611D231F849F600D211D822F762F6A2F05
:103E400011249F5750409AF0F1F088234AF0EE0F6A
:103E5000FF1FBB1F661F771F881F91505040A9F797
:103E60009E3F510580F00C944A1F0C94951F5F3FB4
:103E7000E4F3983ED4F3869577956795B795F795D3
:103E8000E7959F5FC1F7FE2B880F911D969587954B
:103E900097F9089597F99F6780E870E060E00895CA
:103EA0009FEF80EC089500240A9416161706180652
:103EB0000906089500240A9412161306140605062E
:103EC0000895092E0394000C11F4882352F0BB0FBF
:103ED00040F4BF2B11F460FF04C06F5F7F4F8F4F22
:103EE0009F4F089557FD9058440F551F59F05F3F5D
:103EF00071F04795880F97FB991F61F09F3F79F00C
:103F000087950895121613061406551FF2CF46958D
:103F1000F1DF08C0161617061806991FF1CF86950F
:103F20007105610508940895E894BB2766277727F3
:103F3000CB0197F90895F999FECF92BD81BDF89A0A
:103F4000992780B50895262FF999FECF1FBA92BD03
:103F500081BD20BD0FB6F894FA9AF99A0FBE01966A
:103F600008955058BB27AA270E94C91F0C94611FAF
:103F70000E94531F38F00E945A1F20F039F49F3FCF
:103F800019F426F40C94501F0EF4E095E7FB0C9402
:103F90004A1FE92F0E94721F58F3BA17620773076E
:103FA0008407950720F079F4A6F50C94941F0EF47D
:103FB000E0950B2EBA2FA02D0B01B90190010C0139
:103FC000CA01A0011124FF27591B99F0593F50F451
:103FD000503E68F11A16F040A22F232F342F4427A9
:103FE000585FF3CF469537952795A795F0405395A1
:103FF000C9F77EF41F16BA0B620B730B840BBAF071
:104000009150A1F0FF0FBB1F661F771F881FC2F7DB
:104010000EC0BA0F621F731F841F48F487957795EF
:104020006795B795F7959E3F08F0B0CF9395880FA9
:1040300008F09927EE0F9795879508950E943220F2
:104040000C94611F0E945A1F58F00E94531F40F0A9
:1040500029F45F3F29F00C944A1F51110C94951FCD
:104060000C94501F0E94721F68F39923B1F35523DB
:1040700091F3951B550BBB27AA276217730784077B
:1040800038F09F5F5F4F220F331F441FAA1FA9F311
:1040900035D00E2E3AF0E0E832D091505040E695FF
:1040A000001CCAF72BD0FE2F29D0660F771F881F60
:1040B000BB1F261737074807AB07B0E809F0BB0B53
:1040C000802DBF01FF2793585F4F3AF09E3F510567
:1040D00078F00C944A1F0C94951F5F3FE4F3983ED0
:1040E000D4F3869577956795B795F7959F5FC9F750
:1040F000880F911D9695879597F90895E1E0660FD1
:10410000771F881FBB1F621773078407BA0720F049
:10411000621B730B840BBA0BEE1F88F7E0950895B2
:104120000E9497206894B1110C94951F08950E94E5
:104130007A1F88F09F5798F0B92F9927B751B0F0A0
:10414000E1F0660F771F881F991F1AF0BA95C9F71B
:1041500014C0B13091F00E94941FB1E008950C9406
:10416000941F672F782F8827B85F39F0B93FCCF3B9
:10417000869577956795B395D9F73EF49095809598
:10418000709561957F4F8F4F9F4F089597FB072E36
:1041900016F4009407D077FD09D00E94232107FC74
:1041A00005D03EF4909581959F4F08957095619547
:1041B0007F4F0895A1E21A2EAA1BBB1BFD010DC063
:1041C000AA1FBB1FEE1FFF1FA217B307E407F507C7
:1041D00020F0A21BB30BE40BF50B661F771F881FA3
:1041E000991F1A9469F760957095809590959B0139
:1041F000AC01BD01CF010895052E97FB1EF400947C
:104200000E94132157FD07D00E94DA2007FC03D03B
:104210004EF40C94132150954095309521953F4FC5
:104220004F4F5F4F089590958095709561957F4FA2
:104230008F4F9F4F0895EE0FFF1F881F8BBF079072
:10424000F691E02D1994AA1BBB1B51E107C0AA1FD0
:10425000BB1FA617B70710F0A61BB70B881F991F27
:104260005A95A9F780959095BC01CD0108950F93BB
:104270001F93CF93DF938230910510F482E090E09A
:10428000E0918706F091880630E020E0B0E0A0E001
:10429000309799F42115310509F44AC0281B390BD0
:1042A00024303105D8F58A819B816115710589F12A
:1042B000FB0193838283FE0111C040815181028101
:1042C000138148175907E0F04817590799F41097D8
:1042D00061F012960C93129713961C933296CF01AD
:1042E000DF91CF911F910F9108950093870610934E
:1042F0008806F4CF2115310551F04217530738F0E5
:10430000A901DB019A01BD01DF01F801C1CFEF0175
:10431000F9CF9093880680938706CDCFFE01E20FF8
:10432000F31F819391932250310939832883D7CF8A
:104330002091850630918606232B41F42091250299
:104340003091260230938606209385062091230221
:10435000309124022115310541F42DB73EB740912B
:10436000270250912802241B350BE0918506F0911D
:104370008606E217F307A0F42E1B3F0B2817390718
:1043800078F0AC014E5F5F4F2417350748F04E0FB1
:104390005F1F5093860640938506819391939FCF2C
:1043A000F0E0E0E09CCFCF93DF930097E9F0FC01D1
:1043B000329713821282A0918706B0918806ED0190
:1043C00030E020E01097A1F420813181820F931F0B
:1043D00020918506309186062817390709F061C0BB
:1043E000F0938606E0938506DF91CF910895EA0168
:1043F000CE17DF07E8F54A815B819E014115510523
:10440000B1F7E901FB83EA8349915991C40FD51FA4
:10441000EC17FD0761F4808191810296840F951F4E
:10442000E90199838883828193819B838A83F0E069
:10443000E0E012968D919C9113970097B9F52D911C
:104440003C911197CD010296820F931F2091850612
:10445000309186062817390739F6309751F51092B2
:10446000880610928706B0938606A0938506BCCF77
:10447000D383C28340815181840F951FC817D90708
:1044800061F44E5F5F4F88819981480F591F5183B6
:1044900040838A819B81938382832115310509F0B2
:1044A000B0CFF0938806E09387069ECFFD01DC0134
:1044B000C0CF13821282D7CF4F925F926F927F92BA
:1044C0008F929F92AF92BF92CF92DF92EF92FF9224
:1044D0000F931F93CF93DF938C01009799F4CB0137
:1044E000DF91CF911F910F91FF90EF90DF90CF90D0
:1044F000BF90AF909F908F907F906F905F904F9004
:104500000C943721FC01E60FF71F9C012250310962
:10451000E217F30708F4AEC0D901CD91DC911197F1
:10452000C617D70720F1C530D10578F0CE01049722
:104530008617970750F0C61BD70B2297C193D193CC
:104540006D937C93CF010E94D321C801DF91CF915D
:104550001F910F91FF90EF90DF90CF90BF90AF90A1
:104560009F908F907F906F905F904F9008955B0128
:10457000AC1ABD0A4C018C0E9D1EA0918706B0910D
:104580008806512C412CF12CE12C109731F58091AB
:104590008506909186068815990509F05CC0461637
:1045A000570608F058C0809123029091240200978A
:1045B00041F48DB79EB74091270250912802841B89
:1045C000950BE817F90708F055C0F0938606E093BD
:1045D0008506F90171836083B8CF8D919C91119705
:1045E00012966C90129713967C901397A815B905A4
:1045F00059F56C0142E0C40ED11CCA14DB0420F151
:10460000AC014A195B09DA011296159780F06282B3
:10461000738251834083D9016D937C93E114F1043B
:1046200071F0D7011396FC93EE9312978ECF2296DA
:104630008C0F9D1FF90191838083F301EFCFF093DD
:104640008806E093870681CF4816590608F42C01A6
:104650007D01D3019ACFCB010E9437217C010097C5
:1046600049F0AE01B8010E943D23C8010E94D32148
:1046700087016BCF10E000E068CFFB01DC0102C0D6
:1046800001900D9241505040D8F70895FB01DC0194
:104690008D91019080190110D9F3990B0895FB01B8
:1046A000DC0101900D920020E1F7089511E0C4EEC5
:1046B000D1E000E006C0802FFE010E941B21219660
:1046C000011DC53ED10780E00807A9F7F894FFCF88
:1046D00001030003000300030003001718191A293F
:1046E0002A2B2C3132334134353642373839432A7C
:1046F000302344000089068000000040001400546C
:1047000000000E11111F1B1F1F000000008203E29A
:10471000020F03CF0340031E033203000000009F7B
:10472000087208B60948086B0858084908000000D4
:10473000002F06EF05AC0400000000BB0BE202B640
:1047400009B5090D0A006E7565766F002C0052528E
:1047500000475255504F20320050524F5945435454
:104760004F203100456C696A6120756E2076617357
:104770006F3A00496E677265736F00436F727265BE
:104780006374616D656E7465005661736F206E6F42
:10479000206578697374650043616E63656C61645C
:1047A0006F005361626F72204E6F2E313A003132CA
:1047B000330031323400313235003132360031329B
:1047C00037004E6F2065786973746500657869738A
:1047D00074656E63696173006C696D6F6E20300083
:1047E0007661696E696C6C61203000667265736118
:1047F0002030007576612030006E61706F6C6974D6
:10480000616E6F203000507265706172616E646F0E
:104810000048656C61646F005361626F72204E6F77
:104820002E005265746972652073752068656C612D
:0E483000646F0064697374616E6369613A00BD
:00000001FF
