:020000040000FA
:100000000C94D1010C9402020C9402020C94020292
:100010000C9402020C9402020C9402020C94020250
:100020000C9402020C9402020C9402020C94020240
:100030000C9402020C9402020C9402020C94020230
:100040000C9402020C9402020C9402020C94020220
:100050000C9402020C9402020C9402020C94B30A57
:100060000C9402020C947D0A0C94530A0C94020224
:100070000C9402020C9402020C9402020C940202F0
:100080000C9402020C9402020C9402020C940202E0
:100090000C941D0A0C94F3090C9402020C94FD0AB2
:1000A0000C9402020C9402020C9402020C940202C0
:1000B0000C9402020C9402020C9402020C940202B0
:1000C0000C9402020C9402020C9402020C940202A0
:1000D0000C9402020C9402020C9402020C94020290
:1000E0000C9402020C9492030C948C030C947C07E5
:1000F0000C94B1030C94D1030C943C050C94BE04F5
:100100000C94A7030C94210C0C9483050C945605B5
:100110000C94D4020C9496030C942C020C94990623
:100120000C9461020C94C3030C949A030C949E03E8
:100130000C94A1030C942D020C94B9030C9492021C
:100140000C94C7030C94AB030C942C050C94700214
:100150000C94C2040C94CC030C94BF030C944F0574
:100160000C94B5030C942D050C949A060C94521122
:100170000C9496040C9421030C9484020C942B028E
:100180000C94CD0300407A10F35A00A0724E180967
:100190000010A5D4E80000E87648170000E40B54EE
:1001A000020000CA9A3B000000E1F50500008096BD
:1001B0009800000040420F000000A08601000000EF
:1001C000102700000000E8030000000064000000A9
:1001D00000000A00000000000100000000002C7672
:1001E000D888DC674F0823DFC1DFAE59E1B1B7968D
:1001F000E5E3E453C63AE651997696E8E6C28426EA
:10020000EB898C9B62ED407C6FFCEFBC9C9F40F2C5
:10021000BAA56FA5F490055A2AF75C936B6CF96741
:100220006DC11BFCE0E40D47FEF520E6B500D0ED06
:10023000902E0300943577050080841E080000206E
:100240004E0A000000C80C333333330F986E12830C
:100250001141EF8D2114893BE65516CFFEE6DB18E0
:10026000D1844B381BF77C1D901DA4BBE4242032A5
:1002700084725E228100C9F124ECA1E53D270000D3
:1002800020002300260029002C002F00320000014E
:1002900000000301060109010000210024002700DD
:1002A0002A002D0030003300010100000401070185
:1002B0000A0100002200250028002B002E0031003A
:1002C000340002010000050108010B0105050505C8
:1002D000070508080808020202020A0A08080404BE
:1002E00004040101010101010101030303030303EC
:1002F0000303040707070C0C0C0C0C0C0C0C02027B
:10030000020206060606060606060B0B0B0B0B0B77
:100310000B0B010210202008081020401020408004
:1003200002010201080402010102040810204080B9
:100330008040201008040201800402018040201047
:100340000804020108040201010204081020408090
:10035000010204081020408000000A0B02090C0D65
:100360000E08070304010000000000000000000068
:10037000000000000000000000000000000000007D
:10038000000000001211100000000000000000003A
:100390000000000000000000000000000000210C30
:1003A000521111241FBECFEFD1E2DEBFCDBF00E05E
:1003B0000CBF25E0AAEAB2E001C01D92A83BB2073B
:1003C000E1F712E0A0E0B2E0E2E0F0E300E00BBF12
:1003D00002C007900D92AA3AB107D9F711E0C0ED1B
:1003E000D1E000E006C021970109802FFE010E94A4
:1003F000D115CF3CD10780E00807A9F70E94D70D9F
:100400000C94EF170C940000FC01A089B18982E0E4
:100410008C93A485B5851C92A685B7858FEC8C93AB
:10042000108EA489B58986E08C93A289B3898C91BA
:1004300080618C93A289B3898C9188608C93A28906
:10044000B3898C9180688C930288F389E02D808138
:100450008F7D8083089508950895AF92BF92CF92C3
:10046000DF92EF92FF920F931F93CF93DF936C0174
:100470007B018B01040F151FEB015E01AE18BF0855
:10048000C017D10759F06991D601ED91FC91019007
:10049000F081E02DC6011995892B79F7C501DF910F
:1004A000CF911F910F91FF90EF90DF90CF90BF9071
:1004B000AF900895FB0144815581608171810C9456
:1004C0002D02FC01538D448D252F30E0842F90E0C8
:1004D000821B930B541710F0CF960895019708953F
:1004E000FC01918D828D981761F0A28DAE0FBF2F08
:1004F000B11D5D968C91928D9F5F9F73928F90E05E
:1005000008958FEF9FEF0895FC01918D828D9817CC
:1005100031F0828DE80FF11D858D90E008958FEF09
:100520009FEF0895FC01918D228D892F90E0805CD2
:100530009F4F821B91098F739927089585E793E058
:100540000E94920221E0892B09F420E0822F089575
:1005500082E194E00E94920221E0892B09F420E0DC
:10056000822F0895FC01A48DA80FB92FB11DA35AA5
:10057000BF4F2C91848D90E001968F739927848FC3
:10058000A689B7892C93A089B1898C9183708064E6
:100590008C93938D848D981306C00288F389E02D87
:1005A00080818F7D80830895EF92FF920F931F9338
:1005B000CF93DF93EC0181E0888F9B8D8C8D981316
:1005C0001AC0E889F989808185FF15C09FB7F89422
:1005D000EE89FF896083E889F9898081837080646E
:1005E00080839FBF81E090E0DF91CF911F910F91B9
:1005F000FF90EF900895F62E0B8D10E00F5F1F4FC8
:100600000F731127E02E8C8D8E110CC00FB607FCD6
:10061000FACFE889F989808185FFF5CFCE010E9464
:10062000B202F1CFEB8DEC0FFD2FF11DE35AFF4F1E
:10063000F0829FB7F8940B8FEA89FB8980818062F2
:10064000CFCFCF93DF93EC01888D8823B9F0AA89AF
:10065000BB89E889F9898C9185FD03C0808186FD7D
:100660000DC00FB607FCF7CF8C9185FFF2CF8081CC
:1006700085FFEDCFCE010E94B202E9CFDF91CF918D
:10068000089580E090E0892B29F00E94A802811152
:100690000E94000080E090E0892B29F00E949E02D9
:1006A00081110E94000080E090E0892B49F080E0F9
:1006B00090E0892B29F00E94000081110E94000027
:1006C00080E090E0892B49F080E090E0892B29F0D0
:1006D0000E94000081110C94000008958150823125
:1006E00008F05AC0E82FF0E08827E658FC4F8F4FFB
:1006F0000C94D1159A039E038C0392039603CC03AA
:10070000A103A703AB03B103B503B903BF03C3033D
:10071000CC03C703CD03D103809180008F778093F2
:1007200080000895809180008F7DF9CF80918000B6
:10073000877FF5CF84B58F7784BD089584B58F7D8D
:10074000FBCF8091B0008F778093B00008958091A7
:10075000B0008F7DF9CF809190008F7780939000CB
:100760000895809190008F7DF9CF80919000877FD0
:10077000F5CF8091A0008F778093A000089580919D
:10078000A0008F7DF9CF8091A000877FF5CF809169
:1007900020018F77809320010895809120018F7D23
:1007A000F9CF80912001877FF5CF1F93CF93DF93FF
:1007B000282F30E0F901E85AFC4F8491F901EE5EF0
:1007C000FC4FD491F901E453FD4FC491CC23A9F01F
:1007D000162F81110E946E03EC2FF0E0EE0FFF1F29
:1007E000EE54FD4FA591B4918FB7F894EC9111118F
:1007F00008C0D095DE23DC938FBFDF91CF911F918E
:100800000895DE2BF8CFCF93DF9390E0FC01EE5EEE
:10081000FC4F249184539D4FFC0184918823C9F09F
:1008200090E0880F991FFC01E856FD4FA591B49107
:10083000FC01EE54FD4FC591D49161110DC09FB7DD
:10084000F8948C91209582238C9388812823288387
:100850009FBFDF91CF910895623051F49FB7F89414
:100860003C91822F809583238C93E8812E2BEFCFB0
:100870008FB7F894EC912E2B2C938FBFEACF3FB714
:10088000F8948091610390916203A0916303B09109
:10089000640326B5A89B05C02F3F19F00196A11D42
:1008A000B11D3FBFBA2FA92F982F8827BC01CD01BA
:1008B000620F711D811D911D42E0660F771F881F19
:1008C000991F4A95D1F708958F929F92AF92BF9248
:1008D000CF92DF92EF92FF924B015C010E943F04A6
:1008E0006B017C010E943F046C197D098E099F09F0
:1008F000683E734081059105A8F321E0821A9108B2
:10090000A108B10888EEC80E83E0D81EE11CF11CD6
:1009100081149104A104B10429F7FF90EF90DF90B6
:10092000CF90BF90AF909F908F900895CF93DF931B
:1009300070E0FB01E85AFC4F8491FB01EE5EFC4F36
:10094000D49164537D4FFB01C491CC23A1F081115C
:100950000E946E03EC2FF0E0EE0FFF1FE258FD4FF8
:10096000A591B491EC91ED2381E090E009F480E051
:10097000DF91CF91089580E090E0FACF862F642F29
:100980000C94D503862F642F0C940304209112033A
:10099000260F3327331F21323105ECF42091360323
:1009A000FC0190E080E0243069F082E00895A0919D
:1009B00012032191AC014E505D4FA40FB52FB11D14
:1009C0002C930196861798F380911203680F609319
:1009D000120380E0089581E008951092360381E0CB
:1009E000809338031092370361E084E10E94D503BD
:1009F00061E085E10E94D503E9EBF0E080818E7F24
:100A0000808380818D7F808388E48093B80085E433
:100A10008093BC000895CF93DF9391E09093F1020F
:100A20008823B9F0C091B800D091BA008091BC0081
:100A30008A7B8093BC0060E084E10E94D50360E083
:100A400085E10E94D5030E94ED04D093BA00C093C3
:100A5000B800DF91CF9108950895E0916C038091E3
:100A60006B03E81730F4F0E0E453FD4F808190E031
:100A700008958FEF9FEF089590916C0380916B0321
:100A80002FEF3FEF981748F4E92FF0E0E453FD4FC4
:100A9000208130E09F5F90936C03C901089580919D
:100AA0006B0390916C03891B990B0895CF92DF9291
:100AB000EF92FF920F931F93CF93DF937C01CB01B3
:100AC0008A012091CB02222389F0EB016B01C40E35
:100AD000D51ECC15DD0569F06991D701ED91FC912A
:100AE0000190F081E02DC7011995F3CF642F0E948A
:100AF000C604C801DF91CF911F910F91FF90EF9035
:100B0000DF90CF900895CF93DF931F92CDB7DEB7DC
:100B100069832091CB022223F9F0209169032032CE
:100B200058F021E030E0FC013383228390E080E044
:100B30000F90DF91CF91089580916A03E82FF0E044
:100B4000E555FD4F998190838F5F80936A03809371
:100B5000690381E090E0ECCF61E0CE0101960E9454
:100B6000C604F7CFCF92DF92EF92FF920F931F93BD
:100B7000CF93DF93FC01C48121E02093CB02C0938B
:100B8000AA0210926A03109269038385682B8FEA88
:100B900094E00E948305D0916903D13208F092C09D
:100BA0000E943F046B017C0180913603811165C076
:100BB00082E08093360381E0809338038FEF809347
:100BC000350310925A03D0935903ABEAB2E0E9E33C
:100BD000F3E080E0D81385C010925B0380915B0343
:100BE000CC0FC82BC0935B0380913703813009F091
:100BF0007CC0109237030E943F046B017C018091FE
:100C00005B038093BB008091ED029091EE02A09176
:100C1000EF02B091F002892B8A2B8B2B99F00E9466
:100C20003F040091ED021091EE022091EF0230910D
:100C3000F0026C197D098E099F090617170728070E
:100C40003907E0F18091BC0083FDD9CF85EC80931A
:100C5000BC000E943F046B017C018091360382300E
:100C600009F445C0809135038F3F61F180913503D0
:100C7000803241F18091350325C08091ED02909141
:100C8000EE02A091EF02B091F002892B8A2B8B2B00
:100C900009F48ACF0E943F040091ED021091EE0208
:100CA0002091EF023091F0026C197D098E099F09A5
:100CB000061717072807390708F076CF8091EC024E
:100CC0000E940B0510926A03109269031092CB02E6
:100CD000DF91CF911F910F91FF90EF90DF90CF9018
:100CE00008959D9191938F5F75CF85EEB0CF8091E0
:100CF000ED029091EE02A091EF02B091F002892BEB
:100D00008A2B8B2B09F4A9CF0E943F040091ED029E
:100D10001091EE022091EF023091F0026C197D09E2
:100D20008E099F09061717072807390708F095CF7E
:100D3000C5CF089590E080E00895CF92DF92EF92C2
:100D4000FF920F931F93CF93DF931F921F92CDB704
:100D5000DEB769834A83880F991F0091A605109119
:100D6000A705000F111FE0E5F5E09F012055354074
:100D70002017310714F41192F8CF2981FC01E05BB0
:100D8000FA4F21838A81808360E08091A4050E94CC
:100D9000D5031016110604F501501109F801E05BA6
:100DA000FA4FE080D090A205C090A00588E0F82E10
:100DB0006E2D661F6627661F8C2D0E94D503EE0CD4
:100DC00061E08D2D0E94D50360E08D2D0E94D5033A
:100DD000FA94F110EDCFDDCF61E08091A4050F9082
:100DE0000F90DF91CF911F910F91FF90EF90DF90C7
:100DF000CF900C94D503EF92FF920F931F93CF9354
:100E00007C018C0183E0000F111F8A95E1F7005AE5
:100E10001A4FC1E0F80111928F0140E06C2FC70119
:100E20000E949D06CF5FC930A9F7CF911F910F9106
:100E3000FF90EF9008950F931F93CF938C01C62FCF
:100E40000E94B2056C2F6460C8010E94B2056C2F2D
:100E50006B7FC8010E94B20583EC90E00197F1F727
:100E6000CF911F910F9108950F931F93CF93DF930D
:100E70008C01D62FC42F607F642B0E941B0780E15A
:100E8000D89FB00111246C2BC801DF91CF911F9125
:100E90000F910C941B07CF93DF9300D000D01F92CB
:100EA0001F92CDB7DEB798E0E8E2F2E0DE011196DE
:100EB00001900D929A95E1F79091B005961708F47C
:100EC0006FEF262F30E0220F331F41E050E04C0F30
:100ED0005D1F240F351FF9016081680F606840E0D5
:100EE00088EA95E028960FB6F894DEBF0FBECDBF16
:100EF000DF91CF910C94340741E00E94340781E0E8
:100F000090E00895FB0101900020E9F73197AF01CF
:100F1000461B570BDC01ED91FC910280F381E02D23
:100F20001994CF93DF93BC0185E793E00E94820779
:100F3000EC0162E772E085E793E00E9482078C0F84
:100F40009D1FDF91CF9108950F931F93CF93DF9350
:100F50008C01EB010E9435158883C80101960E941F
:100F600035158983CE01DF91CF911F910F9108959F
:100F7000FC0180819181009711F00C94781160E060
:100F800070E0CB0108950F931F93CF93DF93EC0193
:100F900088819981009759F02A813B81261737076C
:100FA00030F081E0DF91CF911F910F9108958B0177
:100FB0006F5F7F4F0E94FE16009759F099838883D8
:100FC0001B830A832C813D81232B59F7FC0110825E
:100FD000E8CF80E0E7CFEF92FF920F931F93CF937C
:100FE000DF936115710541F480E0DF91CF911F918E
:100FF0000F91FF90EF90089541155105B1F07B01DD
:10100000EC010C811D81040F151FB8010E94C3075C
:10101000882351F3288139818C819D81B701820F0A
:10102000931F0E94E8171D830C8381E0DECFCF93CE
:10103000DF93EC0188819981009711F00E94751669
:10104000198218821D821C821B821A82DF91CF9125
:101050000895CF93DF93EC0141E050E065E772E043
:101060000E94EB07811103C0CE010E941708CE0138
:10107000DF91CF910895CF93DF93EC01FB01448181
:101080005581608171810E94EB07811103C0CE01FF
:101090000E941708CE01DF91CF910895EF92FF9241
:1010A0000F931F93CF93DF93EC017B018A01BA0169
:1010B0000E94C30781110BC0CE010E941708CE0108
:1010C000DF91CF911F910F91FF90EF9008951D83B5
:1010D0000C83B701888199810E94E817F0CFFC0149
:1010E00011821082138212821582148250E040E035
:1010F00064E772E00C944E08FB0101900020E9F7D0
:101100003197AF01461B570B0C944E080F931F935A
:10111000CF93DF93CDB7DEB762970FB6F894DEBFFB
:101120000FBECDBF8C01CB01F8011182108213825A
:101130001282158214824AE0BE016F5F7F4F0E94C7
:101140009F11BE016F5F7F4FC8010E947C086296AD
:101150000FB6F894DEBF0FBECDBFDF91CF911F91C8
:101160000F910895EF92FF920F931F93CF93DF9308
:10117000CDB7DEB7A1970FB6F894DEBF0FBECDBFD7
:101180007C01CB01BA01F701118210821382128215
:10119000158214828E010F5F1F4F22E044E00E94EF
:1011A0005A11009789F0BC01C7010E947C08A196E2
:1011B0000FB6F894DEBF0FBECDBFDF91CF911F9168
:1011C0000F91FF90EF900895C7010E941708EFCF8D
:1011D000CF93DF93EC01FB018617970749F06081FD
:1011E00071816115710541F0448155810E944E085D
:1011F000CE01DF91CF9108950E941708F9CFFC012D
:101200001182108213821282158214820C94E808D3
:10121000FC0180819181009711F00C94751608955E
:10122000CF93DF93CDB7DEB7E0970FB6F894DEBF6C
:101230000FBECDBF40917103509172036091730353
:1012400070917403CE018B960E94B20840916D0399
:1012500050916E0360916F0370917003CE0185967B
:101260000E94B2086091020270910302CE014F9673
:101270000E9486086091040270910502CE01499691
:101280000E9486086091060270910702CE01439683
:101290000E9486086091080270910902CE010D96A5
:1012A0000E9486086091000270910102CE010196B1
:1012B0000E948608BE016F5F7F4FCE0107960E9495
:1012C000FF08CE0107960E942908BE01635F7F4F89
:1012D0000E943B080E942908BE016D5E7F4F0E945C
:1012E0003B080E942908BE01675E7F4F0E943B08B1
:1012F0000E942908BE01615E7F4F0E943B080E9448
:101300002908BE016B5D7F4F0E943B080E9429089F
:10131000BE01655D7F4F0E943B08BC0184E495E0FF
:101320000E94E808CE0107960E940809CE010196A6
:101330000E940809CE010D960E940809CE0143962D
:101340000E940809CE0149960E940809CE014F96D5
:101350000E940809CE0185960E940809CE018B964D
:101360000E940809E0960FB6F894DEBF0FBECDBF0D
:10137000DF91CF91089585ED8093BC008091ED02BF
:101380009091EE02A091EF02B091F0020796A11D9C
:10139000B11D23E0B695A795979587952A95D1F726
:1013A0002091BC0024FD03C01092360308954091A3
:1013B000ED025091EE026091EF027091F002452B28
:1013C000462B472B69F30097A105B10541F025E3B2
:1013D0002A95F1F700000197A109B109E1CF8091A9
:1013E000EC020C940B051F920F920FB60F92112472
:1013F0000BB60F922F933F934F935F936F937F930F
:101400008F939F93AF93BF93EF93FF9385E793E001
:101410000E94B202FF91EF91BF91AF919F918F9186
:101420007F916F915F914F913F912F910F900BBEE4
:101430000F900FBE0F901F9018951F920F920FB62E
:101440000F9211240BB60F922F938F939F93EF93CC
:10145000FF93E0918503F09186038081E0918B03F7
:10146000F0918C0382FD1DC0908180918E038F5F6F
:101470008F7320918F03821741F0E0918E03F0E08B
:10148000EB58FC4F958F80938E03FF91EF919F91C6
:101490008F912F910F900BBE0F900FBE0F901F904A
:1014A00018958081F2CF1F920F920FB60F921124E0
:1014B0000BB60F922F933F934F935F936F937F934E
:1014C0008F939F93AF93BF93EF93FF9382E194E049
:1014D0000E94B202FF91EF91BF91AF919F918F91C6
:1014E0007F916F915F914F913F912F910F900BBE24
:1014F0000F900FBE0F901F9018951F920F920FB66E
:101500000F9211240BB60F922F938F939F93EF930B
:10151000FF93E0912204F09123048081E09128045C
:10152000F091290482FD1DC0908180912B048F5F72
:101530008F7320912C04821741F0E0912B04F0E08E
:10154000EE5EFB4F958F80932B04FF91EF919F915F
:101550008F912F910F900BBE0F900FBE0F901F9089
:1015600018958081F2CF1F920F920FB60F9211241F
:101570002F933F938F939F93AF93BF9380915D037E
:1015800090915E03A0915F03B091600330915C0382
:1015900023E0230F2D3758F50196A11DB11D20938F
:1015A0005C0380935D0390935E03A0935F03B0930D
:1015B00060038091610390916203A0916303B091F5
:1015C00064030196A11DB11D809361039093620392
:1015D000A0936303B0936403BF91AF919F918F91E8
:1015E0003F912F910F900FBE0F901F90189526E8F6
:1015F000230F0296A11DB11DD2CF1F920F920FB6DD
:101600000F9211240BB60F922F933F934F935F933A
:101610006F937F938F939F93AF93BF93EF93FF93BA
:101620008091B900887F803609F44DC008F040C031
:10163000883209F4A9C028F5803109F49DC0C8F4A6
:10164000882309F4FBC0883009F496C0FF91EF911C
:10165000BF91AF919F918F917F916F915F914F91CA
:101660003F912F910F900BBE0F900FBE0F901F90C8
:101670001895883109F488C0803241F7809335038A
:1016800014C0803409F49DC040F48033B9F388332A
:10169000E9F68093350385ECB0C0803509F485C048
:1016A000883509F496C0883489F60E94BB09CECFEC
:1016B000883909F48CC038F5883729F050F4883619
:1016C00011F0803719F683E08093360310923403CB
:1016D00057C0883809F47BC0803919F0803809F088
:1016E000B5CF80913403803208F071C0E0913403AB
:1016F00081E08E0F809334038091BB00F0E0EC5EBC
:10170000FC4F80833DC0803B39F0E0F4803A09F41F
:1017100079C0883A09F09ACF84E08093360310921A
:10172000130310921203E0916703F0916803199577
:101730008091120381110FC081E0809312031092F7
:10174000F20209C0803C09F4A6CF883C09F4A3CF7B
:10175000883B09F07BCFE091130381E08E0F8093EB
:101760001303F0E0EE50FD4F80818093BB00909119
:1017700013038091120329C080915B038093BB0007
:1017800085EC8093BC0062CF90915A0380915903FD
:10179000981758F5E0915A0381E08E0F80935A0311
:1017A000F0E0E75CFC4F8081E9CFE0915A0381E0F3
:1017B0008E0F80935A038091BB00F0E0E75CFC4FF2
:1017C000808390915A03809159039817C8F285E855
:1017D000D8CFE0915A0381E08E0F80935A03809115
:1017E000BB00F0E0E75CFC4F8083809138038111FF
:1017F0005CCF81E08093370384EA8093BC00109231
:10180000360324CF85EC8093BC0010923603809180
:101810003403803230F4E0913403F0E0EC5EFC4FAE
:1018200010826091340370E0E0916503F0916603EB
:1018300084E193E019951092340308CF1092350398
:1018400034CFCF93DF93109278031092770388EE12
:1018500093E0A0E0B0E08093790390937A03A093A3
:101860007B03B0937C032CE332E030937603209328
:1018700075034DEC50E050938203409381034CEC90
:1018800050E0509384034093830348EC50E050931E
:1018900086034093850349EC50E0509388034093BE
:1018A00087034AEC50E050938A03409389034EEC3F
:1018B00050E050938C0340938B0310928E03109250
:1018C0008F031092900310929103109215041092BE
:1018D00014048093160490931704A0931804B093F3
:1018E0001904309313042093120425EC30E0309354
:1018F0001F0420931E0424EC30E030932104209335
:10190000200420EC30E0309323042093220421ECC7
:1019100030E0309325042093240422EC30E030930F
:1019200027042093260426EC30E0309329042093EA
:10193000280410922B0410922C0410922D04109263
:101940002E041092B2041092B1048093B3049093C9
:10195000B404A093B504B093B6048EE492E09093DF
:10196000B0048093AF041092AB051092AA058AE6EA
:1019700092E09093A9058093A80587E28093AC0537
:1019800080E18093B10582E08093B2051092B305A7
:10199000C3E3D0E0D093A105C093A00584E390E019
:1019A0009093A3058093A20585E390E09093A5050D
:1019B0008093A40581E090E09093A7058093A6050D
:1019C00061E083E30E94030461E08091A2050E942C
:1019D000030461E08091A4050E94030461E080910A
:1019E000A4050E94D503D093A105C093A005E0E60D
:1019F000F5E080EA95E011928E179F07E1F7D0E0BD
:101A0000C0E08091A6059091A705C817D90774F585
:101A100040E06FE0CE010E949D068091A605909166
:101A2000A705C817D9072CF447E06BE0CE010E9448
:101A30009D0640E069E0CE010E949D068091A605CA
:101A40009091A705C817D9071CF4CE010E94FB0688
:101A50008091A6059091A705C817D9072CF440E0FE
:101A60006CE0CE010E949D062196CBCF8AE495E0E2
:101A70000E946F0884E495E00E946F08109235057B
:101A80001092340510922B0510922A0510924005F1
:101A900010924105109242051092430584E690E0B1
:101AA000909331058093300588E090E0909337055E
:101AB0008093360589E090E090933905809338054E
:101AC0008AE090E090933B0580933A058BE090E0AC
:101AD00090933D0580933C0561E088E00E940304FB
:101AE00061E0809138050E94030461E080913A052D
:101AF0000E94030461E080913C050E94030410925F
:101B00003F0510923E0584E090E09093330580936A
:101B100032051092BD041092C1041092C0041092BC
:101B2000C20480E692E09093BC048093BB04E7ED8E
:101B3000F4E083E195E010821482138215823696D8
:101B40008E179F07C1F78EE092E090931E05809359
:101B50001D058AE092E09093200580931F0584E0A4
:101B6000809321058093220582E192E090931C05E9
:101B700080931B058AE090E09093240580932305D1
:101B800084EF91E090932605809325051092290516
:101B90001092280510921705109218051092190539
:101BA00010921A0510922705DF91CF910895CF93D7
:101BB000DF93CDB7DEB7AD970FB6F894DEBF0FBE9B
:101BC000CDBF789484B5826084BD84B5816084BDC6
:101BD00085B5826085BD85B5816085BD80916E00CB
:101BE000816080936E0010928100809181008260FC
:101BF0008093810080918100816080938100809139
:101C000080008160809380008091B1008460809327
:101C1000B1008091B00081608093B000809191000C
:101C20008260809391008091910081608093910007
:101C3000809190008160809390008091A1008260EB
:101C40008093A1008091A10081608093A100809188
:101C5000A00081608093A000809121018260809328
:101C600021018091210181608093210180912001D7
:101C700081608093200180917A00846080937A0053
:101C800080917A00826080937A0080917A008160EE
:101C900080937A0080917A00806880937A00109215
:101CA000C10082E194E00E94040285E793E00E9473
:101CB000040261E088E20E94030410926C03109217
:101CC0006B0310926A03109269030E94ED048BE289
:101CD00092E090936803809367038CE292E0909384
:101CE0006603809365031092AD058091B205823042
:101CF00018F098E09093AD058093B00562E370E032
:101D000080E090E00E9464046091B30588EA95E069
:101D10000E94B20568EE73E080E090E00E946404E7
:101D200060E388EA95E00E941B070BE416E4C80113
:101D30000197F1F760E388EA95E00E941B07C8016C
:101D40000197F1F760E388EA95E00E941B0783E5BD
:101D500092E00197F1F760E288EA95E00E941B07A4
:101D60006091AD05606240E088EA95E00E9434072A
:101D700084E08093AE0540E06CE088EA95E00E9444
:101D8000340740E061E088EA95E00E9434070BE305
:101D90001FE1C8010197F1F782E08093AF0540E0B1
:101DA00066E088EA95E00E94340740E062E088EA55
:101DB00095E00E943407C8010197F1F78091A605CC
:101DC0009091A7051816190634F441E06CE090E0F4
:101DD00080E00E949D068091A6059091A7051816A7
:101DE000190634F44FE06AE090E080E00E949D061E
:101DF0008091A6059091A7051816190624F490E085
:101E000080E00E94FB0660E089E30E94030461E039
:101E100084E00E94030461E085E00E94030461E025
:101E200086E00E94030461E087E00E94030461E011
:101E30008CE00E94030461E08DE00E94030461E0F5
:101E40008EE00E94030461E08FE00E94030461E0E1
:101E500080E10E94030461E08EE10E94030460E0DF
:101E60008FE10E94030460E072E090E080E00E9455
:101E7000A407FC018081918190930102809300026C
:101E800068E072E08AE090E00E94A407FC01808193
:101E90009181909309028093080266E072E084E1E8
:101EA00090E00E94A407FC01808191819093070239
:101EB0008093060264E072E08EE190E00E94A40745
:101EC000FC0180819181909305028093040262E07D
:101ED00072E088E290E00E94A407FC018081918179
:101EE000909303028093020282E390E00E943515F2
:101EF00080936D0383E390E00E94351580936E0319
:101F000084E390E00E94351580936F0385E390E0B1
:101F10000E9435158093700388E0E0E3F2E0DE0173
:101F2000119601900D928A95E1F740E061E088EA10
:101F300095E00E9434078BE39FE10197F1F740E0C1
:101F400060E488EA95E00E9434078E010F5F1F4F1E
:101F50007E01F9E0EF0EF11CF80161918F0188EA32
:101F600095E00E947C070E151F05B1F760E082E046
:101F70000E944B0760E088EA95E00E947C0760E0E1
:101F800083E00E944B0767E772E088EA95E00E94D1
:101F9000820760E08AE00E944B0760E088EA95E0F3
:101FA0000E947C0761E081E00E944B076FE772E0CE
:101FB00088EA95E00E94820768E873E180E090E09B
:101FC0000E94640411E4CE0188960E946F0882E1A9
:101FD00094E00E949202892B09F45DC182E194E0B1
:101FE0000E947002823509F056C089831A8241E04E
:101FF00050E0BE016F5F7F4FCE0188960E94EB07D5
:102000006AE872E085E793E00E9482070E94100967
:1020100064E475E085E793E00E945A0264E475E0A9
:1020200082E194E00E945A0280917B00877F809336
:102030007B0010937C0080917A00806480937A000A
:1020400080917A0086FDFCCF8091780060917900C4
:10205000762F682F072E000C880B990B0E943C14DA
:1020600020E030E040E85AE30E94771420E030E4BA
:102070004CE955E40E94771420E030E040E251E45E
:102080000E943D15609371037093720380937303F4
:10209000909374039CCF813409F094C06AE070E09F
:1020A00080E090E00E946404BE01685D7F4FCE0135
:1020B00082960E94FF086AE070E080E090E00E9453
:1020C00064048DE892E00E949107BE016E5D7F4F2F
:1020D00085E793E00E945A0262E772E085E793E0A9
:1020E0000E9482078BE992E00E949107CE018296BE
:1020F0000E94B8076B017C01F7FE49C06DE285E7DD
:1021000093E00E94D40222273327A9012C193D090C
:102110004E095F0919A2CE0181967C019AE0892EB1
:10212000912CA12CB12CCA01B901A50194010E94E6
:10213000AF15605DF70162937F01211531054105FF
:10214000510589F7E114F10429F0B70185E793E01F
:102150000E94820762E772E085E793E00E948207AF
:1021600087EA92E00E94910764E772E0CE018896C8
:102170000E947C080E94100964E475E082E194E00A
:102180000E945A02CE0182960E9408094DCFAC01EE
:102190009B0119A2CE0181967C018AE0882E912CA8
:1021A000A12CB12CCA01B901A50194010E94AF155F
:1021B000605DF70162937F012115310541055105ED
:1021C00089F7C0CF8234E1F4BE01685D7F4FCE0154
:1021D00001960E94FF08CE0101960E94B8077093F5
:1021E000090260930802CE0101960E94080964E783
:1021F00072E0CE0188960E947C080E9410090ECFE2
:10220000833481F4BE01685D7F4FCE0101960E9448
:10221000FF08CE0101960E94B807709307026093F1
:102220000602E1CF843481F4BE01685D7F4FCE01A8
:1022300001960E94FF08CE0101960E94B807709394
:10224000050260930402CFCF853481F4BE01685D3E
:102250007F4FCE0101960E94FF08CE0101960E9499
:10226000B8077093030260930202BDCF8C3239F439
:10227000CE0101960E946F08CE01019685CF898319
:102280001A8241E050E0BE016F5F7F4FCE01889619
:102290000E94EB07C9CECE0188960E9408090E94D1
:1022A000410391CE84E495E00E9408098AE495E018
:1022B0000C940809EF920F931F93CF93DF93E801DB
:1022C00034E047FD34E1042E000C550B57FF03C0EA
:1022D000519541955109E32E022F242FAE010E9402
:1022E000D911CE01DF91CF911F910F91EF900895F9
:1022F0001F93FC0199278827BC01E89411911032A3
:10230000E9F3193010F01E30C8F31B3251F01D32C2
:1023100049F4689406C00E94AA11610F711D811DC5
:10232000911D119110531A30B0F33EF490958095A1
:10233000709561957F4F8F4F9F4F1F910895BB27D9
:102340004A3031F4992322F4BDE2909581959F4F54
:102350000C94C011592F482F372F262F660F771F47
:10236000881F991F660F771F881F991F620F731FA1
:10237000841F951F660F771F881F991F0895BB271D
:10238000FB015527AA27880F991FAA1FA41710F031
:10239000A41B83955051B9F7A05DAA3308F0A95D3D
:1023A000A193009779F7B111B1931192CB010C94DD
:1023B0002A148F929F92AF92BF92CF92DF92EF92A8
:1023C000FF920F931F93CF93DF9300D000D000D0E4
:1023D000CDB7DEB76A01F22EB02E102FFBE3AF2E81
:1023E000A01608F41BE31F5F012F27E0AE014F5F2B
:1023F0005F4F0E945213BC018981982F99709130D0
:1024000009F44EC09BE2E1FC04C09E2D9170E0FCFB
:1024100049C05E2D5071E82FE87083FF55C084E0FD
:10242000911101C083E0EF2DE81B8F1508F0E0E06B
:10243000D6018E2F20E25523C9F1992329F0D60128
:102440009C93C60101966C0196012D5F3F4FE2FE01
:1024500033C08EE4D6018C9391E411969C9311972E
:1024600012968C93D9018E2F90E281112AC0E20F2F
:10247000F32FF11D10828EEF9FEF29960FB6F8947F
:10248000DEBF0FBECDBFDF91CF911F910F91FF90A7
:10249000EF90DF90CF90BF90AF909F908F90089576
:1024A0009DE2B7CF90E2B5CF2D9381508111FCCF43
:1024B000CE0ED11CE0E0C1CF8EE6D6018C9391E622
:1024C000CCCF9D938150D1CF482F447082FF3DC027
:1024D00084E0911101C083E08F1510F4EF2DE81B0B
:1024E000D6018E2F20E2552309F1992329F0D60138
:1024F0009C93C60101966C0196012D5F3F4FE2FE51
:102500001BC089E4D6018C938EE411968C931197AD
:1025100086E412968C93D9018E2F90E2882309F4D9
:10252000A6CF9D938150FACF2D9381508111FCCF7E
:10253000CE0ED11CE0E0D9CF89E6D6018C938EE691
:1025400011968C93119786E6E4CF9B0177FF02C02A
:1025500030E020E0A1E0B0E0911102C0B0E0A0E0E6
:10256000F9013196AE0FBF1F8B2C912CBB2009F4C3
:1025700061C05401EFEFAE1ABE0AAA0DBB1DFA16D8
:102580001B0619F014F04F2D4A1B511188C0E3FCB3
:1025900059C07601A42FB0E2A1114FC0C40ED11CC6
:1025A000992309F45BC040E0D6011196F6019083AF
:1025B0006D01552309F448C0012F060F9A81582F49
:1025C000507184FF03C0913309F4015010160CF0D0
:1025D00047C0093008F008E0EEE2FE2E5B01A01AC9
:1025E000B10885019194819491082F3F320729F415
:1025F000D601FC92F60131966F016217730794F1D0
:10260000021713077CF5DB01A21BB30BAA24A394CA
:10261000B12CAC0EBD1EAA0DBB1D11968C91215084
:102620003109D601119628153905F4F0F601808399
:102630006D01DBCFB12CA12CA0CFF701B1937F01AD
:10264000A150AACF9111B0CFD601942F50E302C070
:102650005D9391509111FCCFC40ED11C40E0ACCFE2
:1026600001E0BACF80E3DBCF6217730731F4963312
:1026700088F4953311F4552369F0F6018083FD0148
:10268000842F90E2811108C0A40FB11D1C9290E02C
:1026900080E0F3CE81E3F1CF91938150F3CF91119C
:1026A00083CF8ACF283008F027E03327DA01990F4B
:1026B000311D87FD916000966105710539F4326026
:1026C0002E5F3D9330E32A95E1F708959F3F30F068
:1026D00080387105610509F03C5F3C5F3D939130A6
:1026E00008F08068911DDF93CF931F930F93FF92A3
:1026F000EF92192F987F9695E92F96959695E90F69
:10270000FF27E252FE4F99273327EE24FF24A7012B
:10271000E70105900894079428F4360FE71EF81E89
:10272000491F511D660F771F881F991F0694A1F737
:102730000590079428F4E70EF81E491F561FC11D87
:10274000770F881F991F661F0694A1F705900794BD
:1027500028F4F80E491F561FC71FD11D880F991F57
:10276000661F771F0694A1F70590079420F4490F80
:10277000561FC71FD81F990F661F771F881F069403
:10278000A9F784911095177041F0D695C795579584
:102790004795F794E7941A95C1F7E4E8F1E0689457
:1027A0001590159135916591959105907FE27395FE
:1027B000E118F10A430B560BC90BD009C0F7E10C25
:1027C000F11E431F561FC91FD01D7EF4703311F434
:1027D0008A95E6CFE894015030F0080F0AF40027FC
:1027E000021708F4202F2395022F7A3328F079E37B
:1027F0007D932A95E9F710C07D932A9589F6069472
:1028000097956795379517951794E118F10A430B3B
:10281000560BC90BD00998F023957E9173957A33A6
:1028200008F070E37C932013B8F77E9170617D937C
:1028300030F0839571E37D9370E32A95E1F71124DD
:10284000EF90FF900F911F91CF91DF91992787FD16
:1028500090950895DC01FC01672F71917723E1F7D2
:10286000329704C07C916D9370836291AE17BF075D
:10287000C8F30895E89409C097FB3EF490958095BD
:10288000709561957F4F8F4F9F4F9923A9F0F92F36
:1028900096E9BB279395F695879577956795B795B4
:1028A000F111F8CFFAF4BB0F11F460FF1BC06F5F9A
:1028B0007F4F8F4F9F4F16C0882311F096E911C0AC
:1028C000772321F09EE8872F762F05C0662371F0CD
:1028D00096E8862F70E060E02AF09A95660F771FE1
:1028E000881FDAF7880F9695879597F908950E94C3
:1028F0008A140C94FB140E94ED1438F00E94F41416
:1029000020F0952311F00C94E4140C94EA14112493
:102910000C942F150E940C1570F3959FC1F3950F21
:1029200050E0551F629FF001729FBB27F00DB11D53
:10293000639FAA27F00DB11DAA1F649F6627B00DE3
:10294000A11D661F829F2227B00DA11D621F739FCC
:10295000B00DA11D621F839FA00D611D221F749FDA
:102960003327A00D611D231F849F600D211D822F21
:10297000762F6A2F11249F5750409AF0F1F0882348
:102980004AF0EE0FFF1FBB1F661F771F881F915075
:102990005040A9F79E3F510580F00C94E4140C942C
:1029A0002F155F3FE4F3983ED4F3869577956795AE
:1029B000B795F795E7959F5FC1F7FE2B880F911D9F
:1029C0009695879597F9089597F99F6780E870E045
:1029D00060E008959FEF80EC089500240A94161695
:1029E000170618060906089500240A9412161306FD
:1029F000140605060895092E0394000C11F488238B
:102A000052F0BB0F40F4BF2B11F460FF04C06F5FA6
:102A10007F4F8F4F9F4F089557FD9058440F551F7C
:102A200059F05F3F71F04795880F97FB991F61F050
:102A30009F3F79F087950895121613061406551FC7
:102A4000F2CF4695F1DF08C0161617061806991F33
:102A5000F1CF86957105610508940895E894BB2728
:102A600066277727CB0197F90895F999FECF92BD94
:102A700081BDF89A992780B508950E9451150C944C
:102A8000FB140E94F41458F00E94ED1440F029F455
:102A90005F3F29F00C94E41451110C942F150C9401
:102AA000EA140E940C1568F39923B1F3552391F3AE
:102AB000951B550BBB27AA2762177307840738F0AD
:102AC0009F5F5F4F220F331F441FAA1FA9F335D00A
:102AD0000E2E3AF0E0E832D091505040E695001CBE
:102AE000CAF72BD0FE2F29D0660F771F881FBB1F78
:102AF000261737074807AB07B0E809F0BB0B802D56
:102B0000BF01FF2793585F4F3AF09E3F510578F081
:102B10000C94E4140C942F155F3FE4F3983ED4F327
:102B2000869577956795B795F7959F5FC9F7880F55
:102B3000911D9695879597F90895E1E0660F771FA7
:102B4000881FBB1F621773078407BA0720F0621B38
:102B5000730B840BBA0BEE1F88F7E0950895A1E282
:102B60001A2EAA1BBB1BFD010DC0AA1FBB1FEE1F07
:102B7000FF1FA217B307E407F50720F0A21BB30B52
:102B8000E40BF50B661F771F881F991F1A9469F7CE
:102B900060957095809590959B01AC01BD01CF012A
:102BA0000895EE0FFF1F881F8BBF0790F691E02D51
:102BB00019940F931F93CF93DF938230910510F4F4
:102BC00082E090E0E091B605F091B70530E020E0BA
:102BD000B0E0A0E0309799F42115310509F44AC01E
:102BE000281B390B24303105D8F58A819B8161156A
:102BF000710589F1FB0193838283FE0111C040813D
:102C000051810281138148175907E0F0481759078D
:102C100099F4109761F012960C93129713961C93E7
:102C20003296CF01DF91CF911F910F9108950093BC
:102C3000B6051093B705F4CF2115310551F04217B1
:102C4000530738F0A901DB019A01BD01DF01F8014A
:102C5000C1CFEF01F9CF9093B7058093B605CDCFE3
:102C6000FE01E20FF31F81939193225031093983C2
:102C70002883D7CF2091B4053091B505232B41F49B
:102C800020912402309125023093B5052093B4059C
:102C900020912202309123022115310541F42DB7F4
:102CA0003EB74091260250912702241B350BE0913C
:102CB000B405F091B505E217F307A0F42E1B3F0B06
:102CC0002817390778F0AC014E5F5F4F241735079E
:102CD00048F04E0F5F1F5093B5054093B4058193A4
:102CE00091939FCFF0E0E0E09CCFCF93DF930097EC
:102CF000E9F0FC01329713821282A091B605B091DF
:102D0000B705ED0130E020E01097A1F4208131817A
:102D1000820F931F2091B4053091B505281739070C
:102D200009F061C0F093B505E093B405DF91CF9150
:102D30000895EA01CE17DF07E8F54A815B819E011D
:102D400041155105B1F7E901FB83EA834991599196
:102D5000C40FD51FEC17FD0761F4808191810296A5
:102D6000840F951FE90199838883828193819B83D6
:102D70008A83F0E0E0E012968D919C911397009782
:102D8000B9F52D913C911197CD010296820F931FB9
:102D90002091B4053091B5052817390739F63097D9
:102DA00051F51092B7051092B605B093B505A093F2
:102DB000B405BCCFD383C28340815181840F951F5A
:102DC000C817D90761F44E5F5F4F88819981480F1A
:102DD000591F518340838A819B819383828321156C
:102DE000310509F0B0CFF093B705E093B6059ECF5B
:102DF000FD01DC01C0CF13821282D7CF4F925F92C8
:102E00006F927F928F929F92AF92BF92CF92DF92FA
:102E1000EF92FF920F931F93CF93DF938C01009754
:102E200099F4CB01DF91CF911F910F91FF90EF901B
:102E3000DF90CF90BF90AF909F908F907F906F90DA
:102E40005F904F900C94D915FC01E60FF71F9C0181
:102E500022503109E217F30708F4AEC0D901CD9131
:102E6000DC911197C617D70720F1C530D10578F04E
:102E7000CE0104978617970750F0C61BD70B2297F1
:102E8000C193D1936D937C93CF010E947516C801B5
:102E9000DF91CF911F910F91FF90EF90DF90CF9036
:102EA000BF90AF909F908F907F906F905F904F906A
:102EB00008955B01AC1ABD0A4C018C0E9D1EA091B9
:102EC000B605B091B705512C412CF12CE12C10978F
:102ED00031F58091B4059091B5058815990509F0F3
:102EE0005CC04616570608F058C0809122029091A7
:102EF0002302009741F48DB79EB74091260250916E
:102F00002702841B950BE817F90708F055C0F093CA
:102F1000B505E093B405F90171836083B8CF8D9155
:102F20009C91119712966C90129713967C90139720
:102F3000A815B90559F56C0142E0C40ED11CCA149C
:102F4000DB0420F1AC014A195B09DA0112961597EE
:102F500080F06282738251834083D9016D937C93A8
:102F6000E114F10471F0D7011396FC93EE931297DC
:102F70008ECF22968C0F9D1FF90191838083F301E0
:102F8000EFCFF093B705E093B60581CF4816590609
:102F900008F42C017D01D3019ACFCB010E94D915F1
:102FA0007C01009749F0AE01B8010E94DF17C8010B
:102FB0000E94751687016BCF10E000E068CFFB011F
:102FC000DC0102C001900D9241505040D8F70895A5
:102FD000FB01DC0101900D920020E1F7089511E062
:102FE000C0EDD1E000E006C0802FFE010E94D115A7
:102FF0002196011DC13DD10780E00807A9F7F8948B
:10300000FFCF030003000300030003001718191A81
:10301000292A2B2C31323341343536423738394363
:103020002A3023440000B80580000000400014004E
:103030005400000E11111F1B1F1F00000000D402BE
:103040002D0261022103920270028402000000003E
:10305000830556059A062C054F053C052D050000F5
:103060000000C204BE049604000000007C072D028C
:103070009A0699060D0A002C00475255504F2032EF
:103080000050524F594543544F2031005252007660
:10309000616C6F72206C6C6567616461004E756570
:0C30A000766F2056616C6F7200200000FB
:020000040003F7
:10E000000D9489F10D94B2F10D94B2F10D94B2F129
:10E010000D94B2F10D94B2F10D94B2F10D94B2F1F0
:10E020000D94B2F10D94B2F10D94B2F10D94B2F1E0
:10E030000D94B2F10D94B2F10D94B2F10D94B2F1D0
:10E040000D94B2F10D94B2F10D94B2F10D94B2F1C0
:10E050000D94B2F10D94B2F10D94B2F10D94B2F1B0
:10E060000D94B2F10D94B2F10D94B2F10D94B2F1A0
:10E070000D94B2F10D94B2F10D94B2F10D94B2F190
:10E080000D94B2F10D94B2F10D94B2F10D94B2F180
:10E090000D94B2F10D94B2F10D94B2F10D94B2F170
:10E0A0000D94B2F10D94B2F10D94B2F10D94B2F160
:10E0B0000D94B2F10D94B2F10D94B2F10D94B2F150
:10E0C0000D94B2F10D94B2F10D94B2F10D94B2F140
:10E0D0000D94B2F10D94B2F10D94B2F10D94B2F130
:10E0E0000D94B2F141546D656761323536300041AF
:10E0F000726475696E6F206578706C6F72657220DE
:10E1000073746B3530305632206279204D4C530099
:10E11000426F6F746C6F616465723E004875683F52
:10E1200000436F6D70696C6564206F6E203D200048
:10E130004350552054797065202020203D20005FF9
:10E140005F4156525F415243485F5F3D2000415658
:10E1500052204C696243205665723D20004743437C
:10E160002056657273696F6E203D20004350552024
:10E1700049442020202020203D20004C6F7720663D
:10E18000757365202020203D20004869676820665F
:10E190007573652020203D200045787420667573D6
:10E1A00065202020203D20004C6F636B2066757336
:10E1B000652020203D20004D617220203720323024
:10E1C000313300312E362E3800342E332E350056A2
:10E1D00023202020414444522020206F7020636F70
:10E1E00064652020202020696E73747275637469E1
:10E1F0006F6E2061646472202020496E74657272B3
:10E20000757074006E6F20766563746F7200726A49
:10E210006D702020006A6D70200057686174207056
:10E220006F72743A00506F7274206E6F7420737541
:10E2300070706F72746564004D7573742062652030
:10E2400061206C6574746572002000577269747483
:10E25000696E672045450052656164696E672045B7
:10E26000450045452065727220636E743D00504F35
:10E27000525400303D5A65726F2061646472003FF1
:10E280003D43505520737461747300403D454550C3
:10E29000524F4D207465737400423D426C696E6B41
:10E2A000204C454400453D44756D70204545505215
:10E2B0004F4D00463D44756D7020464C415348001B
:10E2C000483D48656C70004C3D4C69737420492F83
:10E2D0004F20506F72747300513D51756974005234
:10E2E0003D44756D702052414D00563D73686F7707
:10E2F00020696E7465727275707420566563746FF0
:10E30000727300593D506F727420626C696E6B00BD
:10E310002A0011241FBECFEFD1E2DEBFCDBF01E046
:10E320000CBF12E0A0E0B2E0EEE1FDEF03E00BBFB6
:10E3300002C007900D92A030B107D9F712E0A0E01B
:10E34000B2E001C01D92AE30B107E1F70F9460F367
:10E350000D948DFE01E20EBF0FEF0DBF11241FBE05
:10E360000D9460F30D9400F020E030E040ED57E0B4
:10E3700005C0FA013197F1F72F5F3F4F2817390792
:10E38000C0F308959C01260F311DC901A0E0B0E043
:10E390002F5F3F4FABBFFC018791882361F08093D3
:10E3A000C6008091C00086FFFCCF8091C0008064D1
:10E3B0008093C000EACF08958DE08093C6008091DD
:10E3C000C00086FFFCCF8091C00080648093C000B5
:10E3D0008AE08093C6008091C00086FFFCCF8091C8
:10E3E000C00080648093C00008950F94C2F10F9420
:10E3F000DCF10895FC019081992359F09093C600B7
:10E400008091C00086FFFCCF8091C0008064809323
:10E41000C0003196992379F70895282F982F929567
:10E420009F70892F805D8A3308F0895F8093C600D2
:10E430008091C00086FFFCCF8091C00080648093F3
:10E44000C000822F8F70982F905D9A3308F0995FEB
:10E450009093C6008091C00086FFFCCF8091C000E1
:10E4600080648093C00008959C01FB01853691056E
:10E470001CF46330710594F0C90164E670E00F94F8
:10E480002EFE605D7F4F6093C6008091C00086FFC6
:10E49000FCCF8091C00080648093C0002B30310598
:10E4A00014F43297B4F0C90164E670E00F942EFEC4
:10E4B0006AE070E00F942EFE605D7F4F6093C600AF
:10E4C0008091C00086FFFCCF8091C0008064809363
:10E4D000C000C9016AE070E00F942EFEC0968093E0
:10E4E000C6008091C00086FFFCCF8091C000806490
:10E4F0008093C00008951F93182F8EE692EE60E07F
:10E500000F94C2F11093C6008091C00086FFFCCF2B
:10E510008091C00080648093C0000F94DCF11F9153
:10E5200008952F923F924F925F926F927F928F92B7
:10E530009F92AF92BF92CF92DF92EF92FF920F9392
:10E540001F93DF93CF93CDB7DEB762970FB6F894E2
:10E55000DEBF0FBECDBF382E622ECA01DB015C01CB
:10E560006D01772420E2222E2E010894411C511CBB
:10E570008BC081E0A81680E0B80681E0C80680E084
:10E58000D80628F0C601AA27BB270F940DF2BB2797
:10E59000AD2D9C2D8B2D0F940DF28A2D0F940DF225
:10E5A0002092C6008091C00086FFFCCF8091C00001
:10E5B00080648093C0009DE29093C6008091C0006B
:10E5C00086FFFCCF8091C00080648093C0002092C1
:10E5D000C6008091C00086FFFCCF8091C00080649F
:10E5E0008093C00019828601750188249924A1E0D6
:10E5F0003A1651F03A1620F0B2E03B1661F409C029
:10E600000BBFF701779007C0C7010F9477FE782EF4
:10E6100002C0F7017080872D0F940DF22092C60082
:10E620008091C00086FFFCCF8091C0008064809301
:10E63000C000872D8052F401EF70F0708F3520F408
:10E64000E40DF51D708204C0E40DF51D8EE280839B
:10E650000894E11CF11C011D111D0894811C911CE2
:10E6600090E18916910409F0C2CF80E190E0A0E02A
:10E67000B0E0A80EB91ECA1EDB1E198AC2010F9493
:10E68000FAF10F94DCF16A94662009F072CF629679
:10E690000FB6F894DEBF0FBECDBFCF91DF911F91B3
:10E6A0000F91FF90EF90DF90CF90BF90AF909F9031
:10E6B0008F907F906F905F904F903F902F90089534
:10E6C0002F923F924F925F926F927F928F929F9282
:10E6D000AF92BF92CF92DF92EF92FF920F931F9370
:10E6E000DF93CF93CDB7DEB7CD53D1400FB6F894BB
:10E6F000DEBF0FBECDBF01E20EBF0FEF0DBF94B75F
:10E70000F894A89514BE80916000886180936000A1
:10E7100010926000789493FF05C0E0910002F091A0
:10E7200001021995279A2F9A8091C00082608093E8
:10E73000C00080E18093C40088E18093C1000000A4
:10E74000EE24FF24870144E0A42EB12CCC24DD2448
:10E7500024C0C5010197F1F70894E11CF11C011DCB
:10E76000111D21E2E2162EE4F20620E0020720E06D
:10E77000120718F031E0C32ED12CC801B70127ECE5
:10E780003BE140E050E00F9441FE611571058105C9
:10E79000910519F485B1805885B98091C00087FD35
:10E7A00003C0C114D104A9F2A6014F5F5F4FC25E3E
:10E7B000DE4F59834883CE51D140C25EDE4F8881FF
:10E7C0009981CE51D140019711F00D9410FEC05D9A
:10E7D000DE4F19821882C053D14060E0C15DDE4F28
:10E7E0001882CF52D14088249924C35DDE4F19820C
:10E7F0001882CD52D140C05EDE4F188219821A8233
:10E800001B82C052D140CE5CDE4F188219821A8220
:10E810001B82C253D140EE24FF2487010BBFF701B6
:10E8200007911691C45CDE4F19830883CC53D14005
:10E830000D940BFEC25EDE4F28813981CE51D1404E
:10E840002130310509F52091C600C25EDE4F1982E4
:10E850001882CE51D14022C02F5F3F4F4F4F5F4FA4
:10E86000213082E138078AE7480780E0580780F0C6
:10E87000C45CDE4FE881F981CC53D140EF5FFF4F9C
:10E8800019F0EE27FF27099420E030E040E050E047
:10E890008091C00087FFE0CF2091C600C35DDE4FAE
:10E8A00048815981CD52D1404F5F5F4FC35DDE4FEC
:10E8B00059834883CD52D140213209F063C64A3092
:10E8C000510508F05FC60894811C911C53E0851621
:10E8D000910409F059C600E010E018C081E280936D
:10E8E000C6008091C00086FFFCCF8091C00080648C
:10E8F0008093C0002F5F3F4F2931310579F70F9486
:10E90000DCF10F5F1F4F0530110519F020E030E0FA
:10E91000E5CF10920A0210920B0210920C02109294
:10E920000D02109206021092070210920802109235
:10E930000902109202021092030210920402109235
:10E9400005028FEE90EE60E00F94F5F180E191EE1C
:10E9500060E00F94C2F18091C00087FFFCCF9091DE
:10E96000C600903608F09F759032B8F09093C600BC
:10E970008091C00086FFFCCF8091C00080648093AE
:10E98000C000A0E2A093C6008091C00086FFFCCF2B
:10E990008091C00080648093C000983409F4D7C18E
:10E9A0009934B8F4923409F459C1933458F490333B
:10E9B00019F1903308F4E3C59F33A1F1903409F0C5
:10E9C000DEC5BDC0953409F470C1963409F0D7C5D1
:10E9D00098C1923509F42BC2933538F49C3409F46C
:10E9E000F5C1913509F0CBC518C2963509F445C279
:10E9F000993509F0C4C567C483E792EE62E00F94CD
:10EA0000F5F110920602109207021092080210927D
:10EA1000090210920A0210920B0210920C0210923C
:10EA20000D0213C18FE792EE62E00F94F5F18FEEC5
:10EA300090EE60E00F94F5F181E291EE60E00F94CA
:10EA4000C2F187EB91EE60E00F94F5F180E391EE77
:10EA500060E00F94C2F184EE90EE60E00F94F5F167
:10EA60008FE391EE60E00F94C2F186E090E061E008
:10EA700070E00F9434F20F94DCF18DE591EE60E0DC
:10EA80000F94C2F189EC91EE60E00F94F5F18EE401
:10EA900091EE60E00F94C2F183EC91EE60E00F9490
:10EAA000F5F18CE691EE60E00F94C2F18EE10F94E7
:10EAB0000DF288E90F940DF281E00F940DF20F949E
:10EAC000DCF18BE791EE60E00F94C2F119E0E0E039
:10EAD000F0E010935700E4918E2F0F940DF20F94F5
:10EAE000DCF18AE891EE60E00F94C2F1E3E0F0E03F
:10EAF00010935700E4918E2F0F940DF20F94DCF1D8
:10EB000089E991EE60E00F94C2F1E2E0F0E0109349
:10EB10005700E4918E2F0F940DF20F94DCF188EAE8
:10EB200091EE60E00F94C2F1E1E0F0E01093570045
:10EB30001491812F0F940DF20F94DCF107CF8BE825
:10EB400092EE62E00F94F5F18BE492EE60E00F94A8
:10EB5000F5F10F94DCF100E010E019C0C8016F2D51
:10EB60000F947FFEFF2031F489E492EE60E00F9471
:10EB7000C2F10BC0F092C6008091C00086FFFCCFAE
:10EB80008091C00080648093C0000F5F1F4FC80158
:10EB900081519F41A0E0B0E0ABBFFC01F790BAE229
:10EBA000FB1621F0E2E000301E07C1F60F94DCF105
:10EBB0000F94DCF187E592EE60E00F94F5F10F948D
:10EBC000DCF1CC24DD2400E010E01EC0C8010F946D
:10EBD00077FEF82E882331F489E492EE60E00F94FA
:10EBE000C2F10BC08093C6008091C00086FFFCCFAD
:10EBF0008091C00080648093C000FE1419F00894D6
:10EC0000C11CD11C0F5F1F4FC80181519F41A0E063
:10EC1000B0E0ABBFFC01E790FAE2EF1621F022E092
:10EC20000030120799F60F94DCF10F94DCF182E6C4
:10EC300092EE60E00F94C2F1C60161E070E00F94C3
:10EC400034F20F94DCF10F94DCF110920202109276
:10EC50000302109204021092050278CE89E992EE26
:10EC600062E00F94F5F1279A2F9A16C02F9880E052
:10EC700090E0E0EDF7E03197F1F7019684369105E9
:10EC8000C1F72F9A80E090E0E0EDF7E03197F1F7DF
:10EC9000019684369105C1F78091C00087FFE6CFC9
:10ECA0008091C00087FFFCCF64C485EA92EE62E0E9
:10ECB0000F94F5F140910202509103026091040219
:10ECC0007091050281E020E10F9491F2809102029F
:10ECD00090910302A0910402B091050280509F4FD1
:10ECE000AF4FBF4F8093020290930302A0930402A0
:10ECF000B093050280509041A040B04008F426CE69
:10ED0000A4CF83EB92EE62E00F94F5F140910602FE
:10ED100050910702609108027091090280E020E1A1
:10ED20000F9491F28091060290910702A09108023F
:10ED3000B091090280509F4FAF4FBF4F80930602A2
:10ED400090930702A0930802B0930902FFCD80ECD4
:10ED500092EE62E00F94F5F183E792EE60E00F949B
:10ED6000F5F18FE792EE60E00F94F5F18BE892EE0B
:10ED700060E00F94F5F189E992EE60E00F94F5F10F
:10ED800085EA92EE60E00F94F5F183EB92EE60E09D
:10ED90000F94F5F180EC92EE60E00F94F5F187ECC2
:10EDA00092EE60E00F94F5F188ED92EE60E00F9442
:10EDB000F5F18FED92EE60E00F94F5F18AEE92EEB0
:10EDC00060E00F94F5F183E093EEBDCD87EC92EE19
:10EDD00062E00F94F5F181E40F947BF282E40F94EA
:10EDE0007BF283E40F947BF284E40F947BF285E45E
:10EDF0000F947BF286E40F947BF287E40F947BF20E
:10EE000088E40F947BF28AE40F947BF28BE40F94F6
:10EE10007BF28CE40F947BF299CD88ED92EE62E068
:10EE20000F94F5F1772473948824992409C48FED05
:10EE300092EE62E00F94F5F140910A0250910B02BC
:10EE400060910C0270910D0282E020E10F9491F22A
:10EE500080910A0290910B02A0910C02B0910D02D8
:10EE600080509F4FAF4FBF4F80930A0290930B0289
:10EE7000A0930C02B0930D0269CD8AEE92EE62E08F
:10EE80000F94F5F184EE90EE60E00F94F5F18FECC5
:10EE900091EE60E00F94F5F1662477244301CC5D98
:10EEA000DE4F19821882C452D140D401C301B695F5
:10EEB000A79597958795CA5DDE4F88839983AA8326
:10EEC000BB83C652D140CC5DDE4FA881B981C4520C
:10EED000D1401196CC5DDE4FB983A883C452D14096
:10EEE000CD0162E070E00F9434F2B0E2B093C6005E
:10EEF0008091C00086FFFCCF8091C0008064809329
:10EF0000C000EDE2E093C6008091C00086FFFCCF18
:10EF10008091C00080648093C000F0E2F093C6004E
:10EF20008091C00086FFFCCF8091C00080648093F8
:10EF3000C000CA5DDE4FE880F9800A811B81C6529D
:10EF4000D140BB27A12F902F8F2D0F940DF2CA5DBA
:10EF5000DE4F8881C652D1400F940DF2B0E2FB2EF5
:10EF6000F092C6008091C00086FFFCCF8091C00067
:10EF700080648093C0000DE30093C6008091C000C0
:10EF800086FFFCCF8091C00080648093C00010E2B7
:10EF90001093C6008091C00086FFFCCF8091C00016
:10EFA00080648093C0008BBEF3012791C65DDE4F65
:10EFB0002883CA52D140A22EBB24CC24DD2408943D
:10EFC000611C711C811C911C8BBEF3018791282E42
:10EFD0003324442455240894611C711C811C911C09
:10EFE0008BBEF3013791C55DDE4F3883CB52D140E4
:10EFF0000894611C711C811C911C8BBEF30147910C
:10F00000C45DDE4F4883CC52D140ADEFEA2EAFEF66
:10F01000FA2EAFEF0A2FAFEF1A2F6E0C7F1C801E57
:10F02000911E142D032DF22CEE24EA0CFB1C0C1D5A
:10F030001D1D0F940DF220E22093C6008091C000A8
:10F0400086FFFCCF8091C00080648093C000C65DC5
:10F05000DE4F8881CA52D1400F940DF230E23093D6
:10F06000C6008091C00086FFFCCF8091C000806404
:10F070008093C000C45DDE4F8881CC52D1400F9494
:10F080000DF240E24093C6008091C00086FFFCCFA5
:10F090008091C00080648093C000C55DDE4F888190
:10F0A000CB52D1400F940DF250E25093C6008091A4
:10F0B000C00086FFFCCF8091C00080648093C000B8
:10F0C0008FEFE8168FEFF80680E0080780E018075A
:10F0D00031F484E092EE60E00F94C2F1DFC0D80119
:10F0E000C7018070907CA070B0708050904CA040A0
:10F0F000B040D1F52FEF3FE340E050E0E222F322B1
:10F1000004231523CA5DDE4FA880B980CA80DB8046
:10F11000C652D140AE0CBF1CC01ED11EAA0CBB1CD7
:10F12000CC1CDD1C8EE092EE60E00F94C2F1BB2798
:10F13000A12F902F8F2D0F940DF28E2D0F940DF285
:10F1400030E23093C6008091C00086FFFCCF8091F2
:10F15000C00080648093C0004EE34093C60080915D
:10F16000C00086FFFCCF87C08EE09EEFA0E0B0E03D
:10F17000E822F9220A231B239CE0E91694E9F90608
:10F1800090E0090790E0190709F088C0C45DDE4FE0
:10F19000A881CC52D140EA2EFF2400E010E0102FCD
:10F1A0000F2DFE2CEE24C55DDE4FB881CB52D14031
:10F1B000EB0EF11C011D111DD601C501817090706F
:10F1C000A070B070DC0199278827E80EF91E0A1F8D
:10F1D0001B1F20EF30E040E050E0A222B322C42207
:10F1E000D52241E1AA0CBB1CCC1CDD1C4A95D1F7F1
:10F1F000EA0CFB1C0C1D1D1D81E090E0A0E0B0E0BE
:10F20000282239224A225B2235E1220C331C441C7D
:10F21000551C3A95D1F7E20CF31C041D151D57013E
:10F220006801AA0CBB1CCC1CDD1C85E192EE60E0E1
:10F230000F94C2F1C801AA27BB270F940DF2BB2778
:10F24000A12F902F8F2D0F940DF28E2D0F940DF274
:10F2500090E29093C6008091C00086FFFCCF809121
:10F26000C00080648093C000AEE3A093C60080918C
:10F27000C00086FFFCCF8091C00080648093C000F6
:10F28000C601AA27BB270F940DF2BB27AD2D9C2DDD
:10F290008B2D0F940DF28A2D0F940DF20F94DCF14B
:10F2A000CC5DDE4FE881F981C452D140F99709F471
:10F2B0004DCBF4E0EF2EF12C012D112D6E0C7F1CA7
:10F2C000801E911EF2CD83E093EE62E00F94F5F183
:10F2D0008AE192EE60E00F94C2F18091C00087FF56
:10F2E000FCCF1091C6001F751093C6008091C0001E
:10F2F00086FFFCCF8091C00080648093C0000F9493
:10F30000DCF1812F81548A3108F036C1163409F4BA
:10F3100095C0173490F4133409F44EC0143430F40B
:10F320001134F1F0123409F01DC130C0143409F465
:10F3300059C0153409F016C16BC01A3409F4C4C0A1
:10F340001B3438F4173409F48FC0183409F00AC19B
:10F35000A1C01B3409F4D2C01C3409F003C1E8C0B9
:10F360008FEF81B90DC082B1809582B980E090E0C5
:10F37000E0EDF7E03197F1F70196883C9105C1F790
:10F380008091C00087FFEFCF12B8EFC08FEF84B934
:10F390000DC085B1809585B980E090E0E0EDF7E0A3
:10F3A0003197F1F70196883C9105C1F78091C00033
:10F3B00087FFEFCF15B8D9C08FEF87B90DC088B1DF
:10F3C000809588B980E090E0E0EDF7E03197F1F7C3
:10F3D0000196883C9105C1F78091C00087FFEFCF6F
:10F3E00018B8C3C08FEF8AB90DC08BB180958BB9A7
:10F3F00080E090E0E0EDF7E03197F1F70196883C8E
:10F400009105C1F78091C00087FFEFCF1BB8ADC059
:10F410008FEF8DB90DC08EB180958EB980E090E0F0
:10F42000E0EDF7E03197F1F70196883C9105C1F7DF
:10F430008091C00087FFEFCF1EB897C08FEF80BBD1
:10F440000DC081B3809581BB80E090E0E0EDF7E0F6
:10F450003197F1F70196883C9105C1F78091C00082
:10F4600087FFEFCF11BA81C08FEF83BB0DC084B38C
:10F47000809584BB80E090E0E0EDF7E03197F1F714
:10F480000196883C9105C1F78091C00087FFEFCFBE
:10F4900014BA6BC08FEF809301010FC080910201FD
:10F4A00080958093020180E090E0E0EDF7E03197F5
:10F4B000F1F70196883C9105C1F78091C00087FF64
:10F4C000EDCF1092020151C08FEF809304010FC065
:10F4D0008091050180958093050180E090E0E0ED4A
:10F4E000F7E03197F1F70196883C9105C1F78091DB
:10F4F000C00087FFEDCF1092050137C08FEF8093DA
:10F5000007010FC08091080180958093080180E079
:10F5100090E0E0EDF7E03197F1F70196883C910536
:10F52000C1F78091C00087FFEDCF109208011DC088
:10F530008FEF80930A010FC080910B01809580931B
:10F540000B0180E090E0E0EDF7E03197F1F70196F4
:10F55000883C9105C1F78091C00087FFEDCF1092E4
:10F560000B0103C085E292EEEEC98091C00087FFD7
:10F57000FCCF8091C600EAC988E392EEE4C98CE131
:10F5800091EEE1C988249924933011F1943028F444
:10F59000913089F09230B8F408C0953061F195301F
:10F5A000F0F0963009F048C043C02B3109F042C951
:10F5B00091E06BE13FC96227C15DDE4F2883CF52E6
:10F5C000D14092E037C9B22FA0E0622793E032C960
:10F5D000822F90E0A82BB92B622794E02BC92E3004
:10F5E00009F039C3622795E0C05DDE4F19821882A9
:10F5F000C053D1401FC9E1E0F0E0EC0FFD1FC05D3A
:10F60000DE4F08811981C053D140E00FF11F2083E4
:10F610000F5F1F4FC05DDE4F19830883C053D14079
:10F6200062270A171B0709F005C9D80196E002C92D
:10F63000261709F010C303C0973009F0FBC87724E0
:10F640009981933109F412C19431C8F4963009F4C8
:10F65000D8C0973050F4923009F406C1933009F4C1
:10F660006DC0913009F059C253C0913109F477C08F
:10F67000923108F0BBC0903109F04FC2F5C098310B
:10F6800009F487C0993150F4953109F4EFC09531F0
:10F6900008F4C6C1963109F040C2C2C19A3109F4DA
:10F6A0006CC09A3108F491C09B3109F45BC09D3164
:10F6B00009F033C29D81903359F48F81882311F46E
:10F6C0009EE11CC0813011F091E018C098E916C08D
:10F6D000892F807591F0903539F4E0E0F0E089E011
:10F6E0008093570094910AC0983539F4E3E0F0E034
:10F6F00089E080935700949101C090E01A821B82A8
:10F700008D818C831D829E831F8227E030E009C299
:10F710001A8288E08B8381E48C8386E58D8382E581
:10F720008E8389E48F8383E5888780E589878FE5E9
:10F730008A8782E38B872BE030E0F3C18A818139AD
:10F7400041F0823941F0803911F48FE005C080E04A
:10F7500003C082E001C08AE01A828B8344C0772410
:10F76000739482C08D81882311F48EE12CC0813086
:10F7700011F081E028C088E926C01A82E1E0F0E0BB
:10F7800089E08093570084918B831C8224E030E0D1
:10F79000C8C18B81803589F48C81883039F4E2E0EE
:10F7A000F0E089E08093570084910DC0E0E0F0E044
:10F7B00089E080935700849106C0E3E0F0E089E09F
:10F7C0008093570084911A82DFCF8D81836C99E0FA
:10F7D000E1E0F0E0082E90935700E89507B600FCB2
:10F7E000FDCF1A821B8223E030E09BC180EC8A832C
:10F7F000CE5CDE4F188219821A821B82C253D1401E
:10F800008EC18A8190E0A0E0B0E0582F44273327D2
:10F8100022278B8190E0A0E0B0E0DC0199278827C7
:10F82000282B392B4A2B5B2B8D8190E0A0E0B0E098
:10F83000282B392B4A2B5B2B8C8190E0A0E0B0E089
:10F84000BA2FA92F982F8827282B392B4A2B5B2BCF
:10F85000220F331F441F551FC05EDE4F288339839C
:10F860004A835B83C052D1401A8259C13A81C95C34
:10F87000DE4F3883C753D140CA5CDE4F1882C6536F
:10F88000D1408B81C82EDD24CA5CDE4F488159816E
:10F89000C653D140C42AD52A933109F082C0CE5C28
:10F8A000DE4F88819981AA81BB81C253D1408050AB
:10F8B000904CA340B04030F583E0CE5CDE4FE88052
:10F8C000F9800A811B81C253D140F70100935B008C
:10F8D00080935700E89507B600FCFDCFCE5CDE4F65
:10F8E000088119812A813B81C253D14000501F4FAA
:10F8F0002F4F3F4FCE5CDE4F088319832A833B8313
:10F90000C253D140C05EDE4F488159816A817B81FC
:10F91000C052D140DE011B9631E08C9111962C91A2
:10F9200011971296C75CDE4F2883C953D140C85C3B
:10F93000DE4F1882C853D14090E0C85CDE4FE881AA
:10F94000F981C853D1408E2B9F2B0C01FA01609393
:10F950005B0030935700E89511244E5F5F4F6F4F67
:10F960007F4F0EEFE02E0FEFF02ECE0CDF1CC114F8
:10F97000D10499F685E0C05EDE4F088119812A81A5
:10F980003B81C052D140F80120935B008093570027
:10F99000E89507B600FCFDCF81E180935700E8951C
:10F9A00035C0C05EDE4F88819981AA81BB81C0527B
:10F9B000D140B695A795979587957C018601ABE0D8
:10F9C000AA2EB12CAC0EBD1E0BC0D5016D915D01F0
:10F9D000C7010F947FFE0894E11CF11C01501040F8
:10F9E0000115110591F7A60160E070E0440F551F65
:10F9F000661F771FC05EDE4FE880F9800A811B8199
:10FA0000C052D1404E0D5F1D601F711F1A82C05E33
:10FA1000DE4F488359836A837B83C052D1407FC0C5
:10FA2000FA80C55CDE4FF882CB53D140C65CDE4F16
:10FA30001882CA53D1408B81C82EDD24C65CDE4FAC
:10FA400008811981CA53D140C02AD12A1A828981DA
:10FA5000BE016D5F7F4F843121F59601C05EDE4FA0
:10FA6000E880F9800A811B81C052D1400BBFF701A9
:10FA700087919691DB018C9311969C936E5F7F4FDB
:10FA8000D801C7010296A11DB11DC05EDE4F88835B
:10FA90009983AA83BB83C052D14022503040F1F6F3
:10FAA00036C0C05EDE4F288139814A815B81C052F9
:10FAB000D1400894C108D108760100E010E0089414
:10FAC000C11CD11C0894E11CF11C011D111DE20E8A
:10FAD000F31E041F151F21BDBB27A52F942F832FB5
:10FAE00082BD2F5F3F4F4F4F5F4FF89A80B5DB01CC
:10FAF0008D93BD012E153F054007510761F7C05E8C
:10FB0000DE4F288339834A835B83C052D1409601FC
:10FB10002D5F3F4FFB01108204C080EC8A8322E0FE
:10FB200030E08BE18093C6008091C00086FFFCCF5F
:10FB30008091C00080648093C000C15DDE4FF88179
:10FB4000CF52D140F093C6008091C00086FFFCCF19
:10FB50008091C00080648093C000432F3093C60022
:10FB60008091C00086FFFCCF8091C00080648093AC
:10FB7000C000922F2093C6008091C00086FFFCCF6A
:10FB80008091C00080648093C0008EE08093C600A6
:10FB90008091C00086FFFCCF8091C000806480937C
:10FBA000C00065E1C15DDE4FE880CF52D1406E25D7
:10FBB00069276427FE01319610C090819093C6009A
:10FBC0008091C00086FFFCCF31968091C000806498
:10FBD0008093C0006927215030402115310569F715
:10FBE0006093C6008091C00086FFFCCF8091C0006A
:10FBF00080648093C00085B1805885B9772081F4F6
:10FC0000C15DDE4F0881CF52D1400F5FC15DDE4F35
:10FC10000883CF52D14090E0A0E0B0E00D941AF4F8
:10FC200027982F9880E090E020ED37E0F901319798
:10FC3000F1F7019684369105C9F700008091C00064
:10FC40008D7F8093C00081E180935700E895EE2777
:10FC5000FF270994FFCF90E00D941AF497FB092E2B
:10FC600007260AD077FD04D02ED006D000201AF443
:10FC7000709561957F4F0895F6F7909581959F4F08
:10FC80000895A1E21A2EAA1BBB1BFD010DC0AA1FDD
:10FC9000BB1FEE1FFF1FA217B307E407F50720F0F5
:10FCA000A21BB30BE40BF50B661F771F881F991F70
:10FCB0001A9469F760957095809590959B01AC01B9
:10FCC000BD01CF010895AA1BBB1B51E107C0AA1FAC
:10FCD000BB1FA617B70710F0A61BB70B881F991FED
:10FCE0005A95A9F780959095BC01CD010895F99991
:10FCF000FECF92BD81BDF89A992780B50895262F31
:10FD0000F999FECF1FBA92BD81BD20BD0FB6F89400
:0EFD1000FA9AF99A0FBE01960895F894FFCF63
:00000001FF
