:100000000C9449010C947A010C947A010C947A01B5
:100010000C947A010C947A010C947A010C947A0174
:100020000C947A010C947A010C947A010C947A0164
:100030000C947A010C947A010C947A010C947A0154
:100040000C947A010C947A010C947A010C947A0144
:100050000C947A010C947A010C947A010C946A073E
:100060000C947A010C9434070C940A070C947A01CE
:100070000C947A010C947A010C947A010C947A0114
:100080000C947A010C947A010C947A010C947A0104
:100090000C947A010C947A010C947A010C947A01F4
:1000A0000C947A010C947A010C947A010C947A01E4
:1000B0000C947A010C947A010C947A010C947A01D4
:1000C0000C947A010C947A010C947A010C947A01C4
:1000D0000C947A010C947A010C947A010C947A01B4
:1000E0000C947A010C940C030C9449040C94EB03CB
:1000F0000C94E0020C9403030C94FB020C94360362
:100100000C94DA030C9428030C94DA010C94CE03BB
:100110000C945F020C941A030C9410030C94320399
:100120000C9425040C941C040C94CC010C944204F3
:100130000C94F9070C94F7020C942C030C94010412
:100140000C9416030C941E040C9431040C94E502D8
:100150000C94A9010C941E030C947C010C942403B0
:100160000C94B8010C94FF020C9412020C94060338
:1001700000002100240027002A002D003000330059
:1001800001010000040107010A010000220025000E
:1001900028002B002E003100340002010000050170
:1001A00008010B0100000A0B02090C0D0E080703E1
:1001B000040100000000000000000000000000003A
:1001C000000000000000000000000000000000002F
:1001D00012111000000000000000000000000000EC
:1001E00000000000000000000000000020002300CC
:1001F000260029002C002F0032000001000003011E
:100200000601090105050505070508080808020299
:1002100002020A0A080804040404010101010101A0
:1002200001010303030303030303040707070C0C83
:100230000C0C0C0C0C0C020202020606060606064A
:1002400006060B0B0B0B0B0B0B0B010210202008EF
:100250000810204010204080020102010804020121
:100260000102040810204080804020100804020190
:1002700080040201804020100804020108040201E9
:100280000102040810204080010204081020408070
:10029000F90711241FBECFEFD1E2DEBFCDBF00E0D2
:1002A0000CBF12E0A0E0B2E0E6E8FEE100E00BBF28
:1002B00002C007900D92AC32B107D9F723E0ACE24F
:1002C000B2E001C01D92AA35B207E1F711E0C9E41E
:1002D000D1E000E006C021970109802FFE010E94B5
:1002E000250FC834D10780E00807A9F70E9412093A
:1002F0000C94410F0C940000AF92BF92CF92DF920A
:10030000EF92FF920F931F93CF93DF936C017B01CA
:100310008B01040F151FEB015E01AE18BF08C0175B
:10032000D10759F06991D601ED91FC910190F081CE
:10033000E02DC6011995892B79F7C501DF91CF9181
:100340001F910F91FF90EF90DF90CF90BF90AF90F3
:100350000895FC01538D448D252F30E0842F90E0CB
:10036000821B930B541710F0CF96089501970895B0
:10037000FC01918D828D981761F0A28DAE0FBF2F79
:10038000B11D5D968C91928D9F5F9F73928F90E0CF
:1003900008958FEF9FEF0895FC01918D828D98173E
:1003A00031F0828DE80FF11D858D90E008958FEF7B
:1003B0009FEF0895FC01918D228D892F90E0805C44
:1003C0009F4F821B91098F73992708958BE492E0C8
:1003D0000E94DA0121E0892B09F420E0822F0895A0
:1003E000FC01A48DA80FB92FB11DA35ABF4F2C91AA
:1003F000848D90E001968F739927848FA689B789A1
:100400002C93A089B1898C91837080648C93938D97
:10041000848D981306C00288F389E02D80818F7D3A
:1004200080830895EF92FF920F931F93CF93DF93F2
:10043000EC0181E0888F9B8D8C8D98131AC0E88920
:10044000F989808185FF15C09FB7F894EE89FF89EF
:100450006083E889F98980818370806480839FBF8D
:1004600081E090E0DF91CF911F910F91FF90EF908D
:100470000895F62E0B8D10E00F5F1F4F0F7311279D
:10048000E02E8C8D8E110CC00FB607FCFACFE889D8
:10049000F989808185FFF5CFCE010E94F001F1CF6F
:1004A000EB8DEC0FFD2FF11DE35AFF4FF0829FB74C
:1004B000F8940B8FEA89FB8980818062CFCFCF933C
:1004C000DF93EC01888D8823B9F0AA89BB89E8897C
:1004D000F9898C9185FD03C0808186FD0DC00FB622
:1004E00007FCF7CF8C9185FFF2CF808185FFEDCFA0
:1004F000CE010E94F001E9CFDF91CF91089580E015
:1005000090E0892B29F00E94E60181110E940000F1
:1005100080E090E0892B49F080E090E0892B29F081
:100520000E94000081110E94000080E090E0892B71
:1005300049F080E090E0892B29F00E9400008111B1
:100540000E94000080E090E0892B49F080E090E07C
:10055000892B29F00E94000081110C94000008955D
:10056000282F30E0F901EC55FE4F9491F901E65B3C
:10057000FD4F44912C5F3D4FF9012491222309F452
:1005800035C0992311F191509231F8F4E92FF0E040
:100590008827E253FD4F8F4F0C94250FFF02030372
:1005A000E002F702FB02E50206030C031003160348
:1005B0001A031E0324032803E5022C033203360327
:1005C000809180008F7780938000E22FF0E0EE0F23
:1005D000FF1FE657FE4FA591B4918FB7F894EC91A9
:1005E000611148C040954E234C938FBF0895809170
:1005F00080008F7DE8CF80918000877FE4CF84B535
:100600008F7784BDE2CF84B58F7DFBCF8091B00022
:100610008F778093B000D9CF8091B0008F7DF9CFD4
:10062000809190008F7780939000CFCF8091900041
:100630008F7DF9CF80919000877FF5CF8091A000CA
:100640008F778093A000C1CF8091A0008F7DF9CFDC
:100650008091A000877FF5CF809120018F778093D4
:100660002001B3CF809120018F7DF9CF80912001AF
:10067000877FF5CF4E2BB8CFCF93DF93EC018091DE
:10068000F0029091F102029749F4C130D10509F4CA
:100690003DC07CF560E0209709F439C08091F002FC
:1006A0009091F102049749F4C130D10509F45EC07C
:1006B0000CF039C0209709F444C08091F002909169
:1006C000F102059709F0E7C0CA30D10508F0E3C090
:1006D000FE018827E159FC4F8F4F0C94250FCE0364
:1006E000DA03EB0301041C041E0425043104420454
:1006F0004904C230D105A9F060E0C330D10571F6DC
:100700008091F4020E94B00260E006C061E0809136
:10071000F4020E94B00261E08091F6020E94B002F1
:10072000BDCF61E0EDCFC230D10539F1C330D10585
:1007300009F0C3CF61E08091F4020E94B00260E052
:1007400022C061E08091F4020E94B00260E08091DA
:10075000F6020E94B00261E08091F8020E94B002AD
:1007600060E08091FA020E94B002A7CF60E0809121
:10077000F4020E94B00261E0EACF60E08091F402EE
:100780000E94B00261E08091F6020E94B00260E037
:100790008091F8020E94B00261E0E3CF60E08091B6
:1007A000F4020E94B00261E08091F6020E94B00261
:1007B00061E00BC060E08091F4020E94B00261E051
:1007C0008091F6020E94B00260E08091F8020E94DF
:1007D000B00260E010C060E08091F4020E94B002BC
:1007E00061E08091F6020E94B00260E08091F80220
:1007F0000E94B00261E08091FA020E94B00261E0C2
:1008000015C060E08091F4020E94B00261E0809126
:10081000F6020E94B00260E08091F8020E94B002ED
:1008200061E08091FA020E94B00260E08091FC02D7
:10083000DF91CF910C94B00261E0E4CF61E0809150
:10084000F4020E94B00260E0E2CF61E08091F40225
:100850000E94B00260E08091F6020E94B00261E066
:10086000DBCF61E08091F4020E94B00260E08091F1
:10087000F6020E94B00261E08091F8020E94B0028C
:1008800060E0CFCF61E08091F4020E94B00260E0AE
:100890008BCF60E0F8CFDF91CF910895CF93DF93B6
:1008A00090E0FC01E65BFD4F24918C5F9D4FFC01C5
:1008B00084918823D1F090E0880F991FFC01E059C2
:1008C000FE4FA591B491FC01E657FE4FC591D4911E
:1008D00061110EC09FB7F8948C91E22FE0958E23A2
:1008E0008C932881E223E8839FBFDF91CF91089505
:1008F0008FB7F894EC91E22BEC938FBFF6CF3FB714
:10090000F8948091310290913202A0913302B0911B
:10091000340226B5A89B05C02F3F19F00196A11DF2
:10092000B11D3FBFBA2FA92F982F8827BC01CD0139
:10093000620F711D811D911D42E0660F771F881F98
:10094000991F4A95D1F708958F929F92AF92BF92C7
:10095000CF92DF92EF92FF926B017C010E947F04A5
:100960004B015C01C114D104E104F104B9F00E940F
:100970007F04681979098A099B09683E73408105DB
:10098000910580F321E0C21AD108E108F10888EE50
:10099000880E83E0981EA11CB11CE4CFFF90EF905D
:1009A000DF90CF90BF90AF909F908F900895CF929F
:1009B000DF92EF92FF920F931F9381E090E090936C
:1009C000E9028093E8020E947F040091FE021091E8
:1009D000FF0220910003309101036B017C01C01ADA
:1009E000D10AE20AF30A0091EA021091EB02209187
:1009F000EC023091ED02C016D106E206F30618F3C0
:100A00006093FE027093FF028093000390930103B2
:100A10008091F2029091F3022091E8023091E90274
:100A20002130310569F1892B11F18091F202909109
:100A3000F30201979093F3028093F2028091F20205
:100A40009091F3022091F0023091F10264E070E0A5
:100A50002530310511F46AE070E00E94D00E1F913C
:100A60000F91FF90EF90DF90CF900C943C0380911A
:100A7000EE029091EF029093F3028093F202D5CFB1
:100A800001969093F3028093F2022091EE0230914E
:100A9000EF028217930791F61092F3021092F2027E
:100AA000CDCFCF93DF932091EE023091EF02032E52
:100AB000000C440B550B60E077E883E993E00E945B
:100AC000060FCA01B90123E030E040E050E00E9487
:100AD000060F2093EA023093EB024093EC0250930E
:100AE000ED02C3E0D0E080910002882309F460C0E9
:100AF0000E94D70461E084E00E94B00260E085E0DB
:100B00000E94B00261E086E00E94B00260E087E0EF
:100B10000E94B00268E270E080E090E00E94A404CD
:100B20000E94D70461E084E00E94B00260E085E0AA
:100B30000E94B00260E086E00E94B00261E087E0BF
:100B40000E94B00268E270E080E090E00E94A4049D
:100B50000E94D70460E084E00E94B00261E085E07A
:100B60000E94B00260E086E00E94B00261E087E08F
:100B70000E94B00268E270E080E090E00E94A4046D
:100B80000E94D70460E084E00E94B00261E085E04A
:100B90000E94B00261E086E00E94B00260E087E05F
:100BA0000E94B00268E270E080E090E00E94A4043D
:100BB000219709F098CF1092000260E084E00E9433
:100BC000B00260E085E00E94B00260E086E00E9432
:100BD000B00260E087E0DF91CF910C94B002CF9239
:100BE000DF92EF92FF920F931F93CF93DF931F92A9
:100BF0001F92CDB7DEB769834A83880F991F009192
:100C0000580310915903000F111FE2E0F3E09F0118
:100C1000225033402017310714F41192F8CF298164
:100C2000FC01EE5FFC4F21838A81808360E080912C
:100C300056030E94B0021016110604F50150110966
:100C4000F801EE5FFC4FE080D0905403C090520357
:100C500088E0F82E6E2D661F6627661F8C2D0E9479
:100C6000B002EE0C61E08D2D0E94B00260E08D2D8F
:100C70000E94B002FA94F110EDCFDDCF61E08091D7
:100C800056030F900F90DF91CF911F910F91FF901E
:100C9000EF90DF90CF900C94B002FC010190002007
:100CA000E9F73197AF01481B590BBC018BE492E087
:100CB0000C947C018F929F92AF92BF920F931F93DF
:100CC000CF93DF93CDB7DEB7A1970FB6F894DEBF11
:100CD0000FBECDBF19A2423008F44AE08E010F5D6D
:100CE0001F4F842E912CB12CA12CA50194010E94A0
:100CF000E40EE62FB901CA01EA30F4F4E05DD80150
:100D0000EE938D01232B242B252B79F790E080E0A7
:100D1000109719F0CD010E944D06A1960FB6F894D8
:100D2000DEBF0FBECDBFDF91CF911F910F91BF905E
:100D3000AF909F908F900895E95CE1CFCF92DF92C2
:100D4000EF92FF92CF93DF936C01990FEE08FF08AB
:100D5000F7FE1FC06DE28BE492E00E941202EC01EC
:100D600066277727CB016C197D098E099F094AE018
:100D70000E945A06C80FD91F84E192E00E944D06D6
:100D80008C0F9D1FDF91CF91FF90EF90DF90CF9060
:100D900008954AE0C701B6010E945A06EC01ECCF63
:100DA0000F931F9390E0FC01E65BFD4F6491FC0103
:100DB000EC5FFD4FE491F0E0EE0FFF1FE651FE4FB8
:100DC0008591949100E412E42FE030E0462F0E94D8
:100DD000B407611571058105910529F06F5F7F4F9B
:100DE0008F4F9F4F9F701F910F9108950F931F93E7
:100DF000CF93DF938C01EB010E94850C8883C8019F
:100E000001960E94850C8983CE01DF91CF911F91BD
:100E10000F9108951F920F920FB60F9211240BB6E7
:100E20000F922F933F934F935F936F937F938F9383
:100E30009F93AF93BF93EF93FF938BE492E00E9455
:100E4000F001FF91EF91BF91AF919F918F917F91B1
:100E50006F915F914F913F912F910F900BBE0F902B
:100E60000FBE0F901F9018951F920F920FB60F9202
:100E700011240BB60F922F938F939F93EF93FF93B1
:100E8000E0915B02F0915C028081E0916102F0915F
:100E9000620282FD1DC09081809164028F5F8F731A
:100EA00020916502821741F0E0916402F0E0E55B79
:100EB000FD4F958F80936402FF91EF919F918F91E9
:100EC0002F910F900BBE0F900FBE0F901F90189593
:100ED0008081F2CF1F920F920FB60F9211242F93A1
:100EE0003F938F939F93AF93BF9380912D029091E7
:100EF0002E02A0912F02B091300230912C0223E0FB
:100F0000230F2D3758F50196A11DB11D20932C02FA
:100F100080932D0290932E02A0932F02B093300263
:100F20008091310290913202A0913302B09134024B
:100F30000196A11DB11D8093310290933202A093BE
:100F40003302B0933402BF91AF919F918F913F9143
:100F50002F910F900FBE0F901F90189526E8230F2A
:100F60000296A11DB11DD2CFCF92DF92EF92FF92D8
:100F70000F931F93E82FF92F05C001501109210984
:100F8000310961F1908196239417B9F305C001509E
:100F900011092109310911F1908196239413F7CF9A
:100FA000C12CD12CE12CF12C0AC08FEFC81AD80A21
:100FB000E80AF80A0C151D052E053F0579F0808119
:100FC0008623841791F36C2D7D2D8E2D9F2D1F91DF
:100FD0000F91FF90EF90DF90CF90089560E070E068
:100FE00080E090E01F910F91FF90EF90DF90CF9005
:100FF0000895EF92FF921F93CF93DF9310924E02CA
:1010000010924D0288EE93E0A0E0B0E080934F0292
:1010100090935002A0935102B093520286E092E066
:1010200090934C0280934B0285EC90E09093580291
:101030008093570284EC90E090935A028093590277
:1010400080EC90E090935C0280935B0281EC90E0F6
:1010500090935E0280935D0282EC90E09093600238
:1010600080935F0286EC90E090936202809361022D
:10107000109264021092650210926602109267024A
:10108000C3E3D0E0D0935303C093520384E390E0D2
:10109000909355038093540385E390E09093570316
:1010A0008093560381E090E0909359038093580316
:1010B00061E083E30E944E0461E0809154030E944A
:1010C0004E0461E0809156030E944E0461E08091DD
:1010D00056030E94B002D0935303C0935203E2E13F
:1010E000F3E0119223E0E235F207D9F7D0E0C0E057
:1010F0008091580390915903C817D9070CF041C04B
:1011000040E06FE0CE010E94EF058091580390917E
:101110005903C817D9072CF447E06BE0CE010E94B1
:10112000EF0540E069E0CE010E94EF058091580391
:1011300090915903C817D907B4F4CE0123E0880F62
:10114000991F2A95E1F7FC01EE5EFC4F7F0111E04B
:10115000F70111927F0140E0612FCE010E94EF055F
:101160001F5F1930A9F78091580390915903C81750
:10117000D9072CF440E06CE0CE010E94EF052196E7
:10118000B7CF1092F3021092F2021092E90210927D
:10119000E8021092FE021092FF02109200031092D9
:1011A000010384E690E09093EF028093EE0288E0E2
:1011B00090E09093F5028093F40289E090E09093A0
:1011C000F7028093F6028AE090E09093F902809310
:1011D000F8028BE090E09093FB028093FA0261E0CA
:1011E00088E00E944E0461E08091F6020E944E0465
:1011F00061E08091F8020E944E0461E08091FA0261
:101200000E944E041092FD021092FC0284E090E0D5
:101210009093F1028093F002DF91CF911F91FF90A4
:10122000EF900895789484B5826084BD84B5816020
:1012300084BD85B5826085BD85B5816085BD8091A1
:101240006E00816080936E00109281008091810019
:101250008260809381008091810081608093810011
:10126000809180008160809380008091B1008460D3
:101270008093B1008091B00081608093B000809134
:1012800091008260809391008091910081608093B1
:101290009100809190008160809390008091A100E6
:1012A00082608093A1008091A10081608093A10061
:1012B0008091A00081608093A000809121018260D4
:1012C000809321018091210181608093210180918F
:1012D000200181608093200180917A008460809356
:1012E0007A0080917A00826080937A0080917A00FF
:1012F000816080937A0080917A00806880937A0080
:101300001092C100E0915B02F0915C0282E0808368
:10131000E0915702F09158021082E0915902F09149
:101320005A028FEC808310926302E0915F02F09189
:10133000600286E08083E0915D02F0915E02808130
:1013400080618083E0915D02F0915E02808188601F
:101350008083E0915D02F0915E02808180688083ED
:10136000E0915D02F0915E0280818F7D808361E07B
:1013700088E20E944E0461E084E00E944E0461E035
:1013800085E00E944E0461E086E00E944E0461E028
:1013900087E00E944E0461E08CE00E944E0461E010
:1013A0008DE00E944E0461E08EE00E944E0461E0F8
:1013B0008FE00E944E0461E080E10E944E048FE7BE
:1013C00090E090934602809345028CE790E09093E2
:1013D0004802809347028EE790E090934A02809300
:1013E000490261E08EE10E944E0460E08FE10E94BC
:1013F0004E0461E472E090E080E00E94F606FC0199
:101400008081918190934202809341026FE372E068
:101410008AE090E00E94F606FC0180819181909321
:10142000400280933F026DE372E084E190E00E940D
:10143000F606FC018081918190933E0280933D02EB
:101440006BE372E08EE190E00E94F606FC01808181
:10145000918190933C0280933B0269E372E088E2C1
:1014600090E00E94F606FC018081918190933A02FF
:101470008093390282E390E00E94850C80933502CC
:1014800083E390E00E94850C8093360284E390E031
:101490000E94850C8093370285E390E00E94850CC2
:1014A0008093380280914102909142020E949E06F0
:1014B00080913F02909140020E949E0680913D02E1
:1014C00090913E020E949E0680913B0290913C02C8
:1014D0000E949E068091390290913A020E949E06D7
:1014E000C0903502D0903602E0903702F09038027A
:1014F000A7019601C701B6010E94CB0E882309F40B
:101500004DC087E192E00E944D0684E192E00E9486
:101510004D0603E010E093E2E92EF12C80910102E8
:10152000882309F438C180914502909146022091A8
:101530004702309148024091490250914A022817CF
:1015400039070CF02BC1722F632F9C0148175907E4
:101550000CF4CFC1872F962F421753070CF022C1EE
:10156000782F692FCA01472F562F841795072CF023
:10157000742F652FAC01872F962F241735072CF475
:10158000742F652FA901272F362F509348024093BF
:10159000470230934A02209349020CC14601570189
:1015A000E894B7F82FEF3FEF4FE75FE7C501B401CD
:1015B0000E94CB0E81110DC02FEF3FEF4FE75FE789
:1015C000C501B4010E94FA0C18161CF48BE192E0DC
:1015D0009ACF2FEF3FEF4FE75FE4C701B6010E94BC
:1015E000590E18161CF48FE192E08DCF2FEF3FEFCC
:1015F0004FE75FECC701B6010E94FA0C87FDF3CFFD
:1016000020E030E0A901C701B6010E94FA0C87FF73
:1016100009C06DE28BE492E00E941202F7FAF094A6
:10162000F7F8F0942AE037ED43EA5BE3C701B6012F
:101630000E948E0C4B015C010E94780D6B017C01B5
:101640000E94A70D9B01AC01C501B4010E948D0C45
:101650004B015C014AE0C701B6010E945A066EE2E6
:101660008BE492E00E94120220E030E040E251E47C
:10167000C501B4010E945E0E4B015C010E94780D11
:101680006B01F12CE12C4AE0C701B6010E945A0619
:10169000C701B6010E94A70D9B01AC01C501B401B1
:1016A0000E948D0C20E030E040E251E40E945E0E8A
:1016B0000E94780D90E080E04AE00E945A0625CF13
:1016C000281739070CF054CF782F692FC901272F1D
:1016D000362F4BCF8C37910589F40E945105C0936A
:1016E000000261E08DE00E94B00268EB7BE080E0E8
:1016F00090E00E94A40460E08DE0AAC08D379105BF
:1017000089F40E945105C093000261E08EE00E94BE
:10171000B00268EB7BE080E090E00E94A40460E00F
:101720008EE096C08E37910589F40E945105C093D2
:10173000000261E08FE00E94B00268EB7BE080E095
:1017400090E00E94A40460E08FE082C08F37910592
:1017500009F080C00E945105C093000261E080E161
:101760000E94B00268EB7BE080E090E00E94A4045D
:1017700060E080E16DC083E292E00E944D0610922D
:1017800046021092450210924802109247021092AF
:101790004A02109249020E947F02C0CE42175307AC
:1017A0000CF4A9C0309348022093470250934A0298
:1017B00040934902909346028093450260E08EE197
:1017C0000E94B002C8010197F1F761E08EE10E942A
:1017D000B002C7010197F1F760E08EE10E94B0020C
:1017E0008FE10E94D006072E000C880B990B0E94F7
:1017F000A90D26E933E44BE05DE30E945E0E20E094
:1018000030E040EA51E40E94FF0C0E94710D709399
:1018100044026093430285E4C82E82E0D82EC1E0E2
:10182000F601819191916F018B37910509F052CFAB
:101830000E945105C093000261E08CE00E94B0025A
:1018400068EB7BE080E090E00E94A40460E08CE024
:101850000E94B002FBE4CF16F2E0DF0609F70E9417
:10186000510581E0809300021092010261E088E25C
:101870000E94B00260ED77E080E090E00E94A40456
:1018800060E088E20E94B00280914302909144029D
:101890004A970CF070CF60E08EE10E94B002C80160
:1018A0000197F1F761E08EE10E94B002C701019754
:1018B000F1F760E08EE10E94B0028FE10E94D00655
:1018C000072E000C880B990B0E94A90D26E933E422
:1018D0004BE05DE30E945E0E20E030E040EA51E420
:1018E0000E94FF0C0E94710D7093440260934302AA
:1018F000CBCF872F962F481759070CF4E1CE722FC4
:10190000632F9A01472F562F27CEF999FECF92BD0C
:1019100081BDF89A992780B508955058BB27AA270A
:101920000E94A50C0C941F0E0E94110E38F00E940C
:10193000180E20F039F49F3F19F426F40C940E0E83
:101940000EF4E095E7FB0C94080EE92F0E94300E90
:1019500058F3BA17620773078407950720F079F4E4
:10196000A6F50C94520E0EF4E0950B2EBA2FA02D76
:101970000B01B90190010C01CA01A0011124FF273C
:10198000591B99F0593F50F4503E68F11A16F04037
:10199000A22F232F342F4427585FF3CF4695379536
:1019A0002795A795F0405395C9F77EF41F16BA0BFB
:1019B000620B730B840BBAF09150A1F0FF0FBB1FA9
:1019C000661F771F881FC2F70EC0BA0F621F731FF2
:1019D000841F48F4879577956795B795F7959E3F4F
:1019E00008F0B0CF9395880F08F09927EE0F9795E0
:1019F000879508950E94E40D08F481E008950E94FF
:101A0000130D0C941F0E0E94180E58F00E94110E18
:101A100040F029F45F3F29F00C94080E51110C940A
:101A2000530E0C940E0E0E94300E68F39923B1F3FE
:101A3000552391F3951B550BBB27AA2762177307F4
:101A4000840738F09F5F5F4F220F331F441FAA1F88
:101A5000A9F335D00E2E3AF0E0E832D09150504044
:101A6000E695001CCAF72BD0FE2F29D0660F771FF2
:101A7000881FBB1F261737074807AB07B0E809F0D8
:101A8000BB0B802DBF01FF2793585F4F3AF09E3F5D
:101A9000510578F00C94080E0C94530E5F3FE4F35C
:101AA000983ED4F3869577956795B795F7959F5FA0
:101AB000C9F7880F911D9695879597F90895E1E0EC
:101AC000660F771F881FBB1F621773078407BA074B
:101AD00020F0621B730B840BBA0BEE1F88F7E095A6
:101AE00008950E94780D6894B1110C94530E0895D6
:101AF0000E94380E88F09F5798F0B92F9927B75158
:101B0000B0F0E1F0660F771F881F991F1AF0BA95A1
:101B1000C9F714C0B13091F00E94520EB1E008959F
:101B20000C94520E672F782F8827B85F39F0B93F91
:101B3000CCF3869577956795B395D9F73EF4909554
:101B40008095709561957F4F8F4F9F4F0895E894D2
:101B500009C097FB3EF490958095709561957F4FF5
:101B60008F4F9F4F9923A9F0F92F96E9BB279395A3
:101B7000F695879577956795B795F111F8CFFAF4B3
:101B8000BB0F11F460FF1BC06F5F7F4F8F4F9F4FE4
:101B900016C0882311F096E911C0772321F09EE842
:101BA000872F762F05C0662371F096E8862F70E0A8
:101BB00060E02AF09A95660F771F881FDAF7880F82
:101BC0009695879597F90895990F0008550FAA0BD8
:101BD000E0E8FEEF16161706E807F907C0F0121640
:101BE0001306E407F50798F0621B730B840B950B43
:101BF00039F40A2661F0232B242B252B21F4089598
:101C00000A2609F4A140A6958FEF811D811D089534
:101C100097F99F6780E870E060E008959FEF80EC9F
:101C2000089500240A941616170618060906089542
:101C300000240A9412161306140605060895092EA8
:101C40000394000C11F4882352F0BB0F40F4BF2B17
:101C500011F460FF04C06F5F7F4F8F4F9F4F089557
:101C600057FD9058440F551F59F05F3F71F047954D
:101C7000880F97FB991F61F09F3F79F08795089532
:101C8000121613061406551FF2CF4695F1DF08C051
:101C9000161617061806991FF1CF8695710561056E
:101CA00008940895E894BB2766277727CB0197F916
:101CB00008950E94E40D08F48FEF08950E94710EBC
:101CC0000C941F0E0E94110E38F00E94180E20F086
:101CD000952311F00C94080E0C940E0E11240C9404
:101CE000530E0E94300E70F3959FC1F3950F50E094
:101CF000551F629FF001729FBB27F00DB11D639FBE
:101D0000AA27F00DB11DAA1F649F6627B00DA11D63
:101D1000661F829F2227B00DA11D621F739FB00D09
:101D2000A11D621F839FA00D611D221F749F332779
:101D3000A00D611D231F849F600D211D822F762F12
:101D40006A2F11249F5750409AF0F1F088234AF0EF
:101D5000EE0FFF1FBB1F661F771F881F915050405B
:101D6000A9F79E3F510580F00C94080E0C94530E79
:101D70005F3FE4F3983ED4F3869577956795B795E2
:101D8000F795E7959F5FC1F7FE2B880F911D9695FC
:101D9000879597F908950E94E40D880B990B089593
:101DA00097FB072E16F4009407D077FD09D00E9408
:101DB0002D0F07FC05D03EF4909581959F4F089517
:101DC000709561957F4F0895A1E21A2EAA1BBB1B47
:101DD000FD010DC0AA1FBB1FEE1FFF1FA217B307F7
:101DE000E407F50720F0A21BB30BE40BF50B661F0D
:101DF000771F881F991F1A9469F7609570958095D1
:101E000090959B01AC01BD01CF010895052E97FB74
:101E10001EF400940E941D0F57FD07D00E94E40E8F
:101E200007FC03D04EF40C941D0F5095409530954F
:101E300021953F4F4F4F5F4F089590958095709536
:101E400061957F4F8F4F9F4F0895EE0FFF1F881FA3
:101E50008BBF0790F691E02D1994AA1BBB1B51E193
:101E600007C0AA1FBB1FA617B70710F0A61BB70B0A
:101E7000881F991F5A95A9F780959095BC01CD01AF
:061E80000895F894FFCF65
:101E860001010000000012027C01A9015F02DA01D3
:101E9600B801CC010D0A006E616E00696E66006FB6
:0C1EA600766600726574697261646F00FA
:00000001FF
