:020000040000FA
:100000000C94E5010C9416020C9416020C94160242
:100010000C9416020C9416020C9416020C94160200
:100020000C9416020C9416020C9416020C941602F0
:100030000C9416020C9416020C9416020C941602E0
:100040000C9416020C9416020C9416020C941602D0
:100050000C9416020C9416020C9416020C9478114F
:100060000C9416020C9442110C9418110C94160264
:100070000C9416020C9416020C9416020C941602A0
:100080000C9416020C9416020C9416020C94160290
:100090000C94E2100C94B8100C9416020C94C2113B
:1000A0000C9416020C9416020C9416020C94160270
:1000B0000C9416020C9416020C9416020C94160260
:1000C0000C9416020C9416020C9416020C94160250
:1000D0000C9416020C9416020C9416020C94160240
:1000E0000C9416020C9475040C94CF030C943A04EF
:1000F0000C9444040C94AC040C94B5090C94BF0506
:100100000C947B050C9440030C94C6050C94D3020C
:100110000C947F040C940F030C9467040C9440041B
:100120000C9458080C945F040C9471040C948C0586
:100130000C941E030C9482030C94D2050C94B60903
:100140000C94BD050C94A2050C944F040C9463040C
:100150000C9459040C94E3050C946D040C9448041D
:100160000C9448080C946F050C94D2020C947A04F9
:100170000C9472080C9455040C947B040C949F0806
:100180000C942F060C94E2020C9432030C944C0451
:100190000C94BB0B0C942B130C94EF050C94F01BDC
:1001A0000C9449080C94EA050C946B0800407A10F2
:1001B000F35A00A0724E18090010A5D4E80000E818
:1001C0007648170000E40B54020000CA9A3B000076
:1001D00000E1F505000080969800000040420F0005
:1001E0000000A08601000000102700000000E803C6
:1001F000000000006400000000000A000000000091
:100200000100000000002C76D888DC674F0823DF4F
:10021000C1DFAE59E1B1B796E5E3E453C63AE65122
:10022000997696E8E6C28426EB898C9B62ED407C49
:100230006FFCEFBC9C9F40F2BAA56FA5F490055AE5
:100240002AF75C936B6CF9676DC11BFCE0E40D470A
:10025000FEF520E6B500D0ED902E0300943577052D
:100260000080841E080000204E0A000000C80C33E5
:100270003333330F986E12831141EF8D2114893B74
:10028000E65516CFFEE6DB18D1844B381BF77C1DF4
:10029000901DA4BBE424203284725E228100C9F147
:1002A00024ECA1E53D2700002100240027002A00BE
:1002B0002D003000330001010000040107010A0194
:1002C00000002200250028002B002E003100340001
:1002D00002010000050108010B0100000A0B0209E0
:1002E0000C0D0E08070304010000000000000000D0
:1002F00000000000000000000000000000000000FE
:1003000000000000000012111000000000000000BA
:1003100000000000000000000000000000000000DD
:10032000000020002300260029002C002F003200AE
:100330000001000003010601090105050505070587
:1003400008080808020202020A0A08080404040451
:10035000010101010101010103030303030303037D
:10036000040707070C0C0C0C0C0C0C0C020202020C
:1003700006060606060606060B0B0B0B0B0B0B0BF5
:1003800001021020200808102040102040800201A7
:10039000020108040201010204081020408080408C
:1003A000201008040201800402018040201008048B
:1003B0000201080402010102040810204080010229
:1003C0000408102040802B13F01B11241FBECFEF18
:1003D000D1E2DEBFCDBF00E00CBF26E0A6E7B3E070
:1003E00001C01D92A039B207E1F713E0A0E0B2E02E
:1003F000E0E4F7E400E00BBF02C007900D92A637DF
:10040000B107D9F711E0C4EED1E000E006C02197B2
:100410000109802FFE010E945321C33ED10780E0D5
:100420000807A9F70E94E1140C948E230C94000095
:10043000FC01A089B18982E08C93A485B5851C92CA
:10044000A685B7858FEC8C93108EA489B58986E03C
:100450008C93A289B3898C9180618C93A289B38992
:100460008C9188608C93A289B3898C9180688C93DD
:100470000288F389E02D80818F7D8083089596E046
:10048000899FD0011124AD56BA4F90967C936E93FC
:100490005F9791E091969C939197E0910006F0917F
:1004A00001069091FF05992339F0309751F08111A1
:1004B00008C08091AF051994309719F05C968C9123
:1004C000FACF0895CF92DF92EF92FF920F931F938E
:1004D00096E0899FF0011124ED56FA4F11A2278D65
:1004E00030A12130310551F178F02230310509F485
:1004F00051C02330310509F452C01F910F91FF9074
:10050000EF90DF90CF9008956623B9F361E070E03B
:100510000E943F022FB7F8948091490490914A04B9
:10052000A0914B04B0914C042FBF8093EB059093A6
:10053000EC05A093ED05B093EE05DFCF9FB7F894DF
:10054000C0904904D0904A04E0904B04F0904C04D1
:100550009FBF0091EB051091EC052091ED053091C6
:10056000EE05C01AD10AE20AF30A0091FD051091C6
:10057000FE0530E020E00C151D052E053F0550F46A
:1005800062E070E01F910F91FF90EF90DF90CF90AD
:100590000C943F026111B1CF63E070E0F3CF70E0E3
:1005A00060E0F0CF08950895DB0114964D915C91C1
:1005B00015976D917C91DC01ED91FC910280F381A6
:1005C000E02D1994AF92BF92CF92DF92EF92FF92FB
:1005D0000F931F93CF93DF936C017B018B01040F6B
:1005E000151FEB015E01AE18BF08C017D10759F007
:1005F0006991D601ED91FC910190F081E02DC60149
:100600001995892B79F7C501DF91CF911F910F9132
:10061000FF90EF90DF90CF90BF90AF900895FC01D6
:10062000538D448D252F30E0842F90E0821B930B57
:10063000541710F0CF96089501970895FC01918DFD
:10064000828D981761F0A28DAE0FBF2FB11D5D9600
:100650008C91928D9F5F9F73928F90E008958FEFA2
:100660009FEF0895FC01918D828D981731F0828D56
:10067000E80FF11D858D90E008958FEF9FEF0895AD
:10068000FC01918D228D892F90E0805C9F4F821B11
:1006900091098F73992708958DE494E00E94400397
:1006A00021E0892B09F420E0822F08958AEE94E05E
:1006B0000E94400321E0892B09F420E0822F089555
:1006C000FC01A48DA80FB92FB11DA35ABF4F2C91C7
:1006D000848D90E001968F739927848FA689B789BE
:1006E0002C93A089B1898C91837080648C93938DB5
:1006F000848D981306C00288F389E02D80818F7D58
:1007000080830895EF92FF920F931F93CF93DF930F
:10071000EC0181E0888F9B8D8C8D98131AC0E8893D
:10072000F989808185FF15C09FB7F894EE89FF890C
:100730006083E889F98980818370806480839FBFAA
:1007400081E090E0DF91CF911F910F91FF90EF90AA
:100750000895F62E0B8D10E00F5F1F4F0F731127BA
:10076000E02E8C8D8E110CC00FB607FCFACFE889F5
:10077000F989808185FFF5CFCE010E946003F1CF1A
:10078000EB8DEC0FFD2FF11DE35AFF4FF0829FB769
:10079000F8940B8FEA89FB8980818062CFCFCF9359
:1007A000DF93EC01888D8823B9F0AA89BB89E88999
:1007B000F9898C9185FD03C0808186FD0DC00FB63F
:1007C00007FCF7CF8C9185FFF2CF808185FFEDCFBD
:1007D000CE010E946003E9CFDF91CF91089580E0C0
:1007E00090E0892B29F00E94560381110E9400009D
:1007F00080E090E0892B29F00E944C0381110E9437
:10080000000080E090E0892B49F080E090E0892BA7
:1008100029F00E94000081110E94000080E090E019
:10082000892B49F080E090E0892B29F00E9400009C
:1008300081110C94000008958150823108F05AC053
:10084000E82FF0E08827E85DFB4F8F4F0C94532191
:1008500048044C043A04400444047A044F04550408
:1008600059045F04630467046D0471047A04750419
:100870007B047F04809180008F77809380000895AF
:10088000809180008F7DF9CF80918000877FF5CFA8
:1008900084B58F7784BD089584B58F7DFBCF80911B
:1008A000B0008F778093B00008958091B0008F7D65
:1008B000F9CF809190008F77809390000895809178
:1008C00090008F7DF9CF80919000877FF5CF809148
:1008D000A0008F778093A00008958091A0008F7D65
:1008E000F9CF8091A000877FF5CF809120018F778D
:1008F000809320010895809120018F7DF9CF809110
:100900002001877FF5CFCF93DF93282F30E0F901C7
:10091000E652FD4F8491F901E058FC4FD491F90162
:10092000E65CFC4FC491CC23A1F081110E941C0411
:10093000EC2FF0E0EE0FFF1FE05EFC4FA591B491AD
:10094000EC91ED2381E090E009F480E0DF91CF911C
:10095000089580E090E0FACF862F0C9483041F93D3
:10096000CF93DF93282F30E0F901E652FD4F8491B9
:10097000F901E058FC4FD491F901E65CFC4FC491B9
:10098000CC23A9F0162F81110E941C04EC2FF0E05B
:10099000EE0FFF1FE054FD4FA591B4918FB7F8946F
:1009A000EC91111108C0D095DE23DC938FBFDF914D
:1009B000CF911F910895DE2BF8CFCF93DF93EC01F9
:1009C00080910A0690910B06029749F4C130D10537
:1009D00009F43DC07CF560E0209709F439C08091AE
:1009E0000A0690910B06049749F4C130D10509F429
:1009F0005EC00CF039C0209709F444C080910A060B
:100A000090910B06059709F0E7C0CA30D10508F0B0
:100A1000E3C0FE018827E05FFA4F8F4F0C9453210B
:100A20006F057B058C05A205BD05BF05C605D20572
:100A3000E305EA05C230D105A9F060E0C330D10575
:100A400071F680910E060E94AF0460E006C061E07E
:100A500080910E060E94AF0461E0809110060E9412
:100A6000AF04BDCF61E0EDCFC230D10539F1C33065
:100A7000D10509F0C3CF61E080910E060E94AF045A
:100A800060E022C061E080910E060E94AF0460E049
:100A9000809110060E94AF0461E0809112060E94CE
:100AA000AF0460E0809114060E94AF04A7CF60E01D
:100AB00080910E060E94AF0461E0EACF60E0809171
:100AC0000E060E94AF0461E0809110060E94AF0400
:100AD00060E0809112060E94AF0461E0E3CF60E025
:100AE00080910E060E94AF0461E0809110060E9482
:100AF000AF0461E00BC060E080910E060E94AF047D
:100B000061E0809110060E94AF0460E080911206BF
:100B10000E94AF0460E010C060E080910E060E9469
:100B2000AF0461E0809110060E94AF0460E0809104
:100B300012060E94AF0461E0809114060E94AF0487
:100B400061E015C060E080910E060E94AF0461E094
:100B5000809110060E94AF0460E0809112060E940E
:100B6000AF0461E0809114060E94AF0460E08091C0
:100B70001606DF91CF910C94AF0461E0E4CF61E001
:100B800080910E060E94AF0460E0E2CF61E08091A8
:100B90000E060E94AF0460E0809110060E94AF0430
:100BA00061E0DBCF61E080910E060E94AF0460E05F
:100BB000809110060E94AF0461E0809112060E94AD
:100BC000AF0460E0CFCF61E080910E060E94AF04D9
:100BD00060E08BCF60E0F8CFDF91CF910895862F52
:100BE000642F0C94AF04CF93DF9390E0FC01E058A6
:100BF000FC4F2491865C9C4FFC0184918823C9F0B2
:100C000090E0880F991FFC01EA55FD4FA591B49122
:100C1000FC01E054FD4FC591D49161110DC09FB707
:100C2000F8948C91209582238C93888128232883A3
:100C30009FBFDF91CF910895623051F49FB7F89430
:100C40003C91822F809583238C93E8812E2BEFCFCC
:100C50008FB7F894EC912E2B2C938FBFEACF862F71
:100C6000642F0C94F3056F927F928F929F92AF92B4
:100C7000BF92CF92DF92EF92FF920F931F93CF9389
:100C8000DF9381E08093FF058FB7F894409149048A
:100C900050914A0460914B0470914C048FBF809135
:100CA000EF059091F005A091F105B091F205481B78
:100CB000590B6A0B7B0B8091FB059091FC05B0E012
:100CC000A0E084179507A607B70708F01DC1C0E08C
:100CD0008091F905C81760F4E091F505F091F605EB
:100CE000EC0FF11D62E080810E94F305CF5FF0CF31
:100CF000712C812C912C540183948091FA057816E3
:100D000008F05FC0072D10E0E091F705F091F805BD
:100D1000E00FF11F61E080810E94F305E091F7058B
:100D2000F091F805E00FF11F60E080810E94AF04B0
:100D3000D501C401072C04C0880F991FAA1FBB1F2F
:100D40000A94D2F76C017C01E094F094612C8091BC
:100D5000F9056816F8F4C62DD0E0E091F505F0919C
:100D6000F605EC0FFD1F80810E9483042496CC0FB2
:100D7000DD1FCD56DA4F892B41F4888199818C296A
:100D80009D29998388836394E2CF888199818E21FC
:100D90009F21F7CFE091F705F091F805E00FF11FE3
:100DA00061E080810E94AF048091F7059091F80581
:100DB000080F191F60E0F80180810E94F305739409
:100DC0009CCFC3E9D5E0FE018FEF9FEF278D30A1C7
:100DD000232B21F4148E968F858F11A2369625E051
:100DE000EF3CF20799F7F12C96E0D92E8091F905A6
:100DF000F81608F050C0E12C0F2D10E0000F111F65
:100E000005561A4F2091FA05E21608F042C0F80183
:100E1000608171810E2C02C0769567950A94E2F785
:100E2000F29E900111242E0D311DE3E9F5E080E0E2
:100E3000458D568D2417350709F46AC08F5F3696A5
:100E40008A30B1F760FF23C0E3E9F5E090E080E08D
:100E5000448D411117C0E091F305F091F405E20FC4
:100E6000F31F4081D89EF001D99EF00D1124ED565C
:100E7000FA4F448F368F258F10A2178E61E00E94A3
:100E8000620205C0019636968A30910509F7E3940F
:100E9000B9CFF394ABCF80E099A19111892F269619
:100EA000F5E0CF3CDF07C1F79FB7F89440914904C4
:100EB00050914A0460914B0470914C049FBF409341
:100EC000EF055093F0056093F1057093F2058823C8
:100ED000D9F08091B4058823B9F08091B205909142
:100EE000B305019789F48091AF05DF91CF911F91F0
:100EF0000F91FF90EF90DF90CF90BF90AF909F90B9
:100F00008F907F906F9008951092FF0580E0EDCF55
:100F10006170B5CF3FB7F89480912D0490912E0465
:100F2000A0912F04B091300426B5A89B05C02F3F97
:100F300019F00196A11DB11D3FBFBA2FA92F982FFF
:100F40008827BC01CD01620F711D811D911D42E0FA
:100F5000660F771F881F991F4A95D1F708958F92C2
:100F60009F92AF92BF92CF92DF92EF92FF926B016E
:100F70007C010E948A074B015C01C114D104E10489
:100F8000F104B9F00E948A07681979098A099B0956
:100F9000683E73408105910580F321E0C21AD108B3
:100FA000E108F10888EE880E83E0981EA11CB11CB0
:100FB000E4CFFF90EF90DF90CF90BF90AF909F90E5
:100FC0008F9008952091E203260F3327331F21329B
:100FD0003105ECF420910604FC0190E080E024301F
:100FE00069F082E00895A091E2032191AC014E5393
:100FF0005C4FA40FB52FB11D2C930196861798F363
:101000008091E203680F6093E20380E0089581E03D
:1010100008951092060481E080930804109207045A
:1010200061E084E10E94AF0461E085E10E94AF04C9
:10103000E9EBF0E080818E7F808380818D7F8083EB
:1010400088E48093B80085E48093BC000895CF9332
:10105000DF9391E09093C1038823B9F0C091B80069
:10106000D091BA008091BC008A7B8093BC0060E084
:1010700084E10E94AF0460E085E10E94AF040E9419
:101080000908D093BA00C093B800DF91CF910895BA
:101090000895E091380480913704E81730F4F0E0C7
:1010A000E456FC4F808190E008958FEF9FEF089504
:1010B00090913804809137042FEF3FEF981748F450
:1010C000E92FF0E0E456FC4F208130E09F5F9093E1
:1010D0003804C90108958091370490913804891B20
:1010E000990B0895CF92DF92EF92FF920F931F9387
:1010F000CF93DF937C01CB018A0120919B032223B4
:1011000089F0EB016B01C40ED51ECC15DD0569F02D
:101110006991D701ED91FC910190F081E02DC7011B
:101120001995F3CF642F0E94E207C801DF91CF9198
:101130001F910F91FF90EF90DF90CF900895CF9384
:10114000DF931F92CDB7DEB7698320919B032223E3
:10115000F9F020913504203258F021E030E0FC0114
:101160003383228390E080E00F90DF91CF91089548
:1011700080913604E82FF0E0E558FC4F9981908388
:101180008F5F809336048093350481E090E0ECCF4C
:1011900061E0CE0101960E94E207F7CFCF92DF9285
:1011A000EF92FF920F931F93CF93DF93FC01C481C3
:1011B00021E020939B03C0937A031092360410928F
:1011C00035048385682B87E895E00E949F08D091BD
:1011D0003504D13208F092C00E948A076B017C016D
:1011E00080910604811165C082E08093060481E04D
:1011F000809308048FEF8093050410922A04D09303
:101200002904ABE7B3E0E9E0F4E080E0D81385C05F
:1012100010922B0480912B04CC0FC82BC0932B046D
:1012200080910704813009F07CC0109207040E946D
:101230008A076B017C0180912B048093BB00809115
:10124000BD039091BE03A091BF03B091C003892B51
:101250008A2B8B2B99F00E948A070091BD03109175
:10126000BE032091BF033091C0036C197D098E0924
:101270009F090617170728073907E0F18091BC007E
:1012800083FDD9CF85EC8093BC000E948A076B0157
:101290007C0180910604823009F445C080910504E8
:1012A0008F3F61F180910504803241F18091050406
:1012B00025C08091BD039091BE03A091BF03B09162
:1012C000C003892B8A2B8B2B09F48ACF0E948A07B3
:1012D0000091BD031091BE032091BF033091C00364
:1012E0006C197D098E099F0906171707280739070A
:1012F00008F076CF8091BC030E9427081092360434
:101300001092350410929B03DF91CF911F910F91A2
:10131000FF90EF90DF90CF9008959D9191938F5F14
:1013200075CF85EEB0CF8091BD039091BE03A091A3
:10133000BF03B091C003892B8A2B8B2B09F4A9CF53
:101340000E948A070091BD031091BE032091BF0344
:101350003091C0036C197D098E099F090617170784
:101360002807390708F095CFC5CF089590E080E0B1
:101370000895CF92DF92EF92FF920F931F9381E037
:1013800090E090930306809302060E948A070091E2
:1013900018061091190620911A0630911B066B0150
:1013A0007C01C01AD10AE20AF30A009104061091E6
:1013B00005062091060630910706C016D106E20602
:1013C000F30618F3609318067093190680931A06B3
:1013D00090931B0680910C0690910D0620910206B9
:1013E000309103062130310569F1892B11F180918B
:1013F0000C0690910D06019790930D0680930C06B4
:1014000080910C0690910D0620910A0630910B06F2
:1014100064E070E02530310511F46AE070E00E946C
:10142000FE201F910F91FF90EF90DF90CF900C94D2
:10143000DD04809108069091090690930D06809333
:101440000C06D5CF019690930D0680930C06209143
:101450000806309109068217930791F610920D063F
:1014600010920C06CDCFCF93DF93209108063091D8
:101470000906032E000C440B550B60E077E883E966
:1014800093E00E943421CA01B90123E030E040E03A
:1014900050E00E94342120930406309305064093C7
:1014A000060650930706C3E0D0E080910A02882325
:1014B00009F460C00E94B90961E084E00E94AF04B1
:1014C00060E085E00E94AF0461E086E00E94AF0426
:1014D00060E087E00E94AF046AEF70E080E090E097
:1014E0000E94AF070E94B90961E084E00E94AF0446
:1014F00060E085E00E94AF0460E086E00E94AF04F7
:1015000061E087E00E94AF046AEF70E080E090E065
:101510000E94AF070E94B90960E084E00E94AF0416
:1015200061E085E00E94AF0460E086E00E94AF04C5
:1015300061E087E00E94AF046AEF70E080E090E035
:101540000E94AF070E94B90960E084E00E94AF04E6
:1015500061E085E00E94AF0461E086E00E94AF0494
:1015600060E087E00E94AF046AEF70E080E090E006
:101570000E94AF07219709F098CF10920A0260E00D
:1015800084E00E94AF0460E085E00E94AF0460E068
:1015900086E00E94AF0460E087E0DF91CF910C9479
:1015A000AF04CF92DF92EF92FF920F931F93CF93EE
:1015B000DF931F921F92CDB7DEB769834A83880FEE
:1015C000991F00917E0610917F06000F111FE8E21F
:1015D000F6E09F01285236402017310714F411928B
:1015E000F8CF2981FC01E85DF94F21838A8180834E
:1015F00060E080917C060E94AF041016110604F58D
:1016000001501109F801E85DF94FE080D0907A06A9
:10161000C090780688E0F82E6E2D661F6627661F3C
:101620008C2D0E94AF04EE0C61E08D2D0E94AF0462
:1016300060E08D2D0E94AF04FA94F110EDCFDDCF64
:1016400061E080917C060F900F90DF91CF911F9108
:101650000F91FF90EF90DF90CF900C94AF04EF923A
:10166000FF920F931F93CF937C018C0183E0000FB7
:10167000111F8A95E1F7085C194FC1E0F80111923A
:101680008F0140E06C2FC7010E94D10ACF5FC930A3
:10169000A9F7CF911F910F91FF90EF9008950F93AD
:1016A0001F93CF938C01C62F0E94CE086C2F6460CD
:1016B000C8010E94CE086C2F6B7FC8010E94CE0823
:1016C00083EC90E00197F1F7CF911F910F9108956E
:1016D0000F931F93CF93DF938C01D62FC42F607F7E
:1016E000642B0E944F0B80E1D89FB00111246C2B1A
:1016F000C801DF91CF911F910F910C944F0BCF93A5
:10170000DF9300D000D01F921F92CDB7DEB798E0D4
:10171000E9E2F2E0DE01119601900D929A95E1F76F
:1017200090918806961708F46FEF262F30E0220F6D
:10173000331F41E050E04C0F5D1F240F351FF901AE
:101740006081680F606840E080E896E028960FB6F8
:10175000F894DEBF0FBECDBFDF91CF910C94680B24
:1017600040E061E080E896E00E94680B8BE39FE137
:101770000197F1F7089541E00E94680B81E090E045
:101780000895FB0101900020E9F73197AF01461B56
:10179000570BDC01ED91FC910280F381E02D19944F
:1017A0008F929F92AF92BF92CF92DF92EF92FF9271
:1017B0000F931F93CF93DF93CDB7DEB7A1970FB6EB
:1017C000F894DEBF0FBECDBF6C01990FEE08FF0885
:1017D000F7FE4BC06DE28DE494E00E9482038C0121
:1017E00022273327A9012C193D094E095F0919A2A7
:1017F000CE0181967C019AE0892E912CA12CB12CEE
:10180000CA01B901A50194010E941221605DF7018E
:1018100062937F01211531054105510589F790E05B
:1018200080E0309729F0BF018DE494E00E94C10B65
:10183000080F191F63E772E08DE494E00E94C10B6A
:10184000800F911FA1960FB6F894DEBF0FBECDBFDB
:10185000DF91CF911F910F91FF90EF90DF90CF908C
:10186000BF90AF909F908F900895A701960119A205
:101870008E010F5D1F4F8AE0C82ED12CE12CF12C78
:10188000CA01B901A70196010E941221605DF80109
:1018900062938F01211531054105510589F7309774
:1018A00039F0BF018DE494E00E94C10B8C01C2CFDE
:1018B00010E000E0BFCFCF93DF9366E772E08DE4E6
:1018C00094E00E94C10BEC0163E772E08DE494E0C8
:1018D0000E94C10B8C0F9D1FDF91CF9108950C9436
:1018E000C10B0F931F9390E0FC01E058FC4F6491F3
:1018F000FC01E65CFC4FE491F0E0EE0FFF1FE05EC0
:10190000FC4F8591949100E412E42FE030E0462FE3
:101910000E94E612611571058105910529F06F5F3E
:101920007F4F8F4F9F4F9F701F910F910895209170
:10193000260630912706232B39F421E0FC01808113
:10194000882361F020E00AC0BC01809122069091BA
:1019500023060E947E2321E0892BA1F7822F089580
:101960000F931F93CF93DF938C01EB010E94D31F42
:101970008883C80101960E94D31F8983CE01DF911D
:10198000CF911F910F910895FC0180819181009763
:1019900011F00C94161C60E070E0CB0108950F93D9
:1019A0001F93CF93DF93EC0188819981009759F0C1
:1019B0002A813B812617370730F081E0DF91CF91F4
:1019C0001F910F9108958B016F5F7F4F0E949422AA
:1019D000009759F0998388831B830A832C813D816A
:1019E000232B59F7FC011082E8CF80E0E7CFEF927C
:1019F000FF920F931F93CF93DF936115710541F40D
:101A000080E0DF91CF911F910F91FF90EF900895AB
:101A100041155105B1F07B01EC010C811D81040FD2
:101A2000151FB8010E94CF0C882351F328813981FA
:101A30008C819D81B701820F931F0E9487231D8394
:101A40000C8381E0DECFCF93DF931F921F92CDB73F
:101A5000DEB769831A8241E050E0BE016F5F7F4FBD
:101A60000E94F70C0F900F90DF91CF910895CF93C4
:101A7000DF93EC0188819981009711F00E940B227D
:101A8000198218821D821C821B821A82DF91CF91DB
:101A90000895CF93DF93EC0141E050E06CE772E0F2
:101AA0000E94F70C811103C0CE010E94370DCE01B8
:101AB000DF91CF910895CF93DF93EC01FB01448137
:101AC0005581608171810E94F70C811103C0CE01A4
:101AD0000E94370DCE01DF91CF910895EF92FF92D2
:101AE0000F931F93CF93DF93EC017B018A01BA011F
:101AF0000E94CF0C81110BC0CE010E94370DCE0188
:101B0000DF91CF911F910F91FF90EF9008951D836A
:101B10000C83B701888199810E948723F0CFFC0153
:101B200011821082138212821582148250E040E0EA
:101B300065E772E00C946E0DFB0101900020E9F75F
:101B40003197AF01461B570B0C946E0D0F931F93EB
:101B5000CF93DF93CDB7DEB762970FB6F894DEBFB1
:101B60000FBECDBF8C01CB01F80111821082138210
:101B70001282158214824AE0BE016F5F7F4F0E947D
:101B80003D1CBE016F5F7F4FC8010E949C0D629695
:101B90000FB6F894DEBF0FBECDBFDF91CF911F917E
:101BA0000F910895FC0180819181009711F00C94B0
:101BB0000B22089585ED8093BC008091BD03909128
:101BC000BE03A091BF03B091C0030796A11DB11D34
:101BD00023E0B695A795979587952A95D1F72091FB
:101BE000BC0024FD03C01092060408954091BD037B
:101BF0005091BE036091BF037091C003452B462BEB
:101C0000472B69F30097A105B10541F025E32A951B
:101C1000F1F700000197A109B109E1CF8091BC0360
:101C20000C942708FF920F931F93CF93DF93EC013F
:101C30008B01FB01F0800E94D31FF81621F06F2D5D
:101C4000CE010E94DB1FF801F1802196CE010E9497
:101C5000D31FF81621F06F2DCE010E94DB1FC801A3
:101C6000DF91CF911F910F91FF900895FF920F93F5
:101C70001F93CF93DF9368E072E090E080E00E94D2
:101C8000120E66E072E08AE090E00E94120E64E0BC
:101C900072E084E190E00E94120E62E072E08EE158
:101CA00090E00E94120E60E072E088E290E00E94F4
:101CB000120E09E314E0C2E3D0E0F801F1908F01C5
:101CC000CE010E94D31FF81621F06F2DCE010E9485
:101CD000DB1F2196C633D10581F7DF91CF911F918C
:101CE0000F91FF9008950F931F93CF93DF93CDB77C
:101CF000DEB7CB54D1090FB6F894DEBF0FBECDBF0F
:101D000064E670E080E090E00E94AF0760917603A7
:101D100070917703809178039091790328961FAE94
:101D20001EAE28972A961FAE1EAE2A972C961FAE7F
:101D30001EAE2C978E010F5F1F4F22E044E00E94E1
:101D4000F81B009709F4CEC0BC01CE018A5B9F4FFF
:101D50000E949C0D6091390470913A0480913B047B
:101D600090913C0422961FAE1EAE229724961FAE81
:101D70001EAE249726961FAE1EAE26978E010F5FCD
:101D80001F4F22E044E00E94F81B009709F4B0C006
:101D9000BC01CE01805C9F4F0E949C0D60910002AF
:101DA00070910102CE01CA960E94A60D60910202B6
:101DB00070910302CE01C4960E94A60D60910402A8
:101DC00070910502CE018E960E94A60D60910602CA
:101DD00070910702CE0188960E94A60D60910802BC
:101DE00070910902CE0101960E94A60D1BA21AA2B3
:101DF0001DA21CA21FA21EA269817A816115710514
:101E000031F04D815E81CE0182960E946E0DCE0131
:101E100082960E94490DBE01685D7F4F0E945B0D56
:101E20000E94490DBE01625D7F4F0E945B0D0E94C2
:101E3000490DBE016C5C7F4F0E945B0D0E94490DF5
:101E4000BE01665C7F4F0E945B0D0E94490DBE0182
:101E5000605C7F4F0E945B0D0E94490DBE016A5B72
:101E60007F4F0E945B0D26E08C31920769F0FC01E8
:101E7000608171816115710509F440C0448155810B
:101E80008CE196E00E946E0DCE0182960E94D20DEA
:101E9000CE0101960E94D20DCE0188960E94D20DED
:101EA000CE018E960E94D20DCE01C4960E94D20D14
:101EB000CE01CA960E94D20DCE01805C9F4F0E9437
:101EC000D20DCE018A5B9F4F0E94D20DC55BDF4FC2
:101ED0000FB6F894DEBF0FBECDBFDF91CF911F913B
:101EE0000F910895CE018A5B9F4F0E94370D32CF2C
:101EF000CE01805C9F4F0E94370D50CF8CE196E061
:101F00000E94370DC1CFCF92DF92EF92FF921F93C5
:101F1000CF93DF93CDB7DEB72C970FB6F894DEBF23
:101F20000FBECDBFCE0107960E948F0D11E48AEE41
:101F300094E00E944003892B09F408C18AEE94E0E2
:101F40000E941E03823509F056C062E5CE01079655
:101F50000E94230D6EE772E08DE494E00E946F0C06
:101F60000E94730E6CE176E08DE494E00E94D4024E
:101F70006CE176E08AEE94E00E94D40280917B00CE
:101F8000877F80937B0010937C0080917A0080642F
:101F900080937A0080917A0086FDFCCF8091780052
:101FA00060917900762F682F072E000C880B990B13
:101FB0000E94DA1E20E030E040E85AE30E94151F3C
:101FC00020E030E44CE955E40E94151F20E030E0A9
:101FD00040E251E40E9456206093760370937703A9
:101FE00080937803909379036CE176E08DE494E03C
:101FF0000E94D4029CCF813431F562E370E080E02E
:1020000090E00E94AF07CE0107960E94C40C6B01BE
:1020100062E370E080E090E00E94AF07D092090296
:10202000C092080265E772E0CE0107960E949C0DFF
:102030000E945B0C80910802909109020E94D00BD3
:102040000E94730E95CF823411F562E370E080E058
:1020500090E00E94AF07CE0107960E94C40C6B016E
:1020600062E370E080E090E00E94AF07D092070248
:10207000C092060265E772E0CE0107960E949C0DB1
:102080000E945B0C8091060290910702D7CF8334A7
:10209000B1F462E370E080E090E00E94AF07CE010F
:1020A00007960E94C40C6B0162E370E080E090E050
:1020B0000E94AF07D0920502C0920402DBCF8434A5
:1020C000B1F462E370E080E090E00E94AF07CE01DF
:1020D00007960E94C40C6B0162E370E080E090E020
:1020E0000E94AF07D0920302C0920202C3CF853490
:1020F000B1F462E370E080E090E00E94AF07CE01AF
:1021000007960E94C40C6B0162E370E080E090E0EF
:102110000E94AF07D0920102C0920002ABCF8C3276
:1021200049F4CE0101960E948F0DCE0101960E94C6
:10213000D20D24CF682FCE0107960E94230D64E1B3
:1021400070E080E090E00E94AF0718CFCE010796C4
:102150000E94D20D2C960FB6F894DEBF0FBECDBFF5
:10216000DF91CF911F91FF90EF90DF90CF90089576
:102170001F920F920FB60F9211240BB60F922F934E
:102180003F934F935F936F937F938F939F93AF93FF
:10219000BF93EF93FF938DE494E00E946003FF915F
:1021A000EF91BF91AF919F918F917F916F915F91CF
:1021B0004F913F912F910F900BBE0F900FBE0F903C
:1021C0001F9018951F920F920FB60F9211240BB605
:1021D0000F922F938F939F93EF93FF93E0915D0462
:1021E000F0915E048081E0916304F091640482FDCB
:1021F0001DC09081809166048F5F8F73209167046A
:10220000821741F0E0916604F0E0E35BFB4F958FAD
:1022100080936604FF91EF919F918F912F910F9082
:102220000BBE0F900FBE0F901F9018958081F2CFBC
:102230001F920F920FB60F9211240BB60F922F938D
:102240003F934F935F936F937F938F939F93AF933E
:10225000BF93EF93FF938AEE94E00E946003FF9197
:10226000EF91BF91AF919F918F917F916F915F910E
:102270004F913F912F910F900BBE0F900FBE0F907B
:102280001F9018951F920F920FB60F9211240BB644
:102290000F922F938F939F93EF93FF93E091FA0404
:1022A000F091FB048081E0910005F091010582FD31
:1022B0001DC09081809103058F5F8F73209104056D
:1022C000821741F0E0910305F0E0E651FB4F958F56
:1022D00080930305FF91EF919F918F912F910F9024
:1022E0000BBE0F900FBE0F901F9018958081F2CFFC
:1022F0001F920F920FB60F9211242F933F938F933B
:102300009F93AF93BF938091490490914A04A09109
:102310004B04B0914C0430912C0423E0230F2D3753
:1023200058F50196A11DB11D20932C0480934904FA
:1023300090934A04A0934B04B0934C0480912D04D5
:1023400090912E04A0912F04B09130040196A11D0C
:10235000B11D80932D0490932E04A0932F04B0936D
:102360003004BF91AF919F918F913F912F910F902A
:102370000FBE0F901F90189526E8230F0296A11DFF
:10238000B11DD2CF1F920F920FB60F9211240BB630
:102390000F922F933F934F935F936F937F938F93FE
:1023A0009F93AF93BF93EF93FF938091B900887F82
:1023B000803609F44DC008F040C0883209F4A9C045
:1023C00028F5803109F49DC0C8F4882309F4FBC0C6
:1023D000883009F496C0FF91EF91BF91AF919F9122
:1023E0008F917F916F915F914F913F912F910F90BE
:1023F0000BBE0F900FBE0F901F901895883109F4F7
:1024000088C0803241F78093050414C0803409F4F9
:102410009DC040F48033B9F38833E9F68093050416
:1024200085ECB0C0803509F485C0883509F496C0C4
:10243000883489F60E94DA0DCECF883909F48CC031
:1024400038F5883729F050F4883611F0803719F6BE
:1024500083E0809306041092040457C0883809F47E
:102460007BC0803919F0803809F0B5CF8091040421
:10247000803208F071C0E091040481E08E0F8093F7
:1024800004048091BB00F0E0EC51FC4F80833DC020
:10249000803B39F0E0F4803A09F479C0883A09F0D9
:1024A0009ACF84E0809306041092E3031092E20333
:1024B000E0913304F091340419958091E203811185
:1024C0000FC081E08093E2031092C20309C0803CF8
:1024D00009F4A6CF883C09F4A3CF883B09F07BCF51
:1024E000E091E30381E08E0F8093E303F0E0EE538D
:1024F000FC4F80818093BB009091E3038091E203C5
:1025000029C080912B048093BB0085EC8093BC0094
:1025100062CF90912A0480912904981758F5E09190
:102520002A0481E08E0F80932A04F0E0E75FFB4FDE
:102530008081E9CFE0912A0481E08E0F80932A0404
:102540008091BB00F0E0E75FFB4F808390912A040D
:10255000809129049817C8F285E8D8CFE0912A0421
:1025600081E08E0F80932A048091BB00F0E0E75F4A
:10257000FB4F80838091080481115CCF81E08093C0
:10258000070484EA8093BC001092060424CF85ECF3
:102590008093BC001092060480910404803230F4D1
:1025A000E0910404F0E0EC51FC4F108260910404CF
:1025B00070E0E0913104F091320484EE93E01995DB
:1025C0001092040408CF1092050434CFCF92DF920A
:1025D000EF92FF920F931F93E82FF92F05C0015040
:1025E00011092109310961F1908196239417B9F3FA
:1025F00005C0015011092109310911F1908196237B
:102600009413F7CFC12CD12CE12CF12C0AC08FEF01
:10261000C81AD80AE80AF80A0C151D052E053F0548
:1026200079F080818623841791F36C2D7D2D8E2D7A
:102630009F2D1F910F91FF90EF90DF90CF90089505
:1026400060E070E080E090E01F910F91FF90EF90CC
:10265000DF90CF900895CF93DF93109250041092A3
:102660004F0488EE93E0A0E0B0E080935104909393
:102670005204A0935304B09354042DE332E03093FA
:102680004E0420934D044DEC50E050935A04409377
:1026900059044CEC50E050935C0440935B0448ECCC
:1026A00050E050935E0440935D0449EC50E0509339
:1026B000600440935F044AEC50E0509362044093FE
:1026C00061044EEC50E05093640440936304109214
:1026D00066041092670410926804109269041092C4
:1026E000ED041092EC048093EE049093EF04A09319
:1026F000F004B093F1043093EB042093EA0425EC4A
:1027000030E03093F7042093F60424EC30E030936B
:10271000F9042093F80420EC30E03093FB0420937C
:10272000FA0421EC30E03093FD042093FC0422EC09
:1027300030E03093FF042093FE0426EC30E0309329
:1027400001052093000510920305109204051092D4
:1027500005051092060510928A051092890580934E
:102760008B0590938C05A0938D05B0938E058FE417
:1027700092E09093880580938705109283061092CB
:1027800082068BE692E0909381068093800687E232
:102790008093840680E18093890682E080938A0694
:1027A00010928B06C3E3D0E0D0937906C0937806ED
:1027B00084E390E090937B0680937A0685E390E033
:1027C00090937D0680937C0681E090E090937F0655
:1027D00080937E0661E083E30E94F30561E08091CF
:1027E0007A060E94F30561E080917C060E94F30561
:1027F00061E080917C060E94AF04D0937906C0937B
:102800007806E8E3F6E088E796E011928E179F07D6
:10281000E1F7D0E0C0E080917E0690917F06C81776
:10282000D90774F540E06FE0CE010E94D10A809193
:102830007E0690917F06C817D9072CF447E06BE01D
:10284000CE010E94D10A40E069E0CE010E94D10A87
:1028500080917E0690917F06C817D9071CF4CE019F
:102860000E942F0B80917E0690917F06C817D90792
:102870002CF440E06CE0CE010E94D10A2196CBCF2F
:1028800082E296E00E948F0D8CE196E00E948F0D0F
:1028900010920D0610920C0610920306109202067A
:1028A000109218061092190610921A0610921B0622
:1028B00084E690E0909309068093080688E090E013
:1028C00090930F0680930E0689E090E09093110696
:1028D000809310068AE090E090931306809312068E
:1028E0008BE090E0909315068093140661E088E0F9
:1028F0000E94F30561E0809110060E94F30561E0FB
:10290000809112060E94F30561E0809114060E94F6
:10291000F305109217061092160684E090E090934B
:102920000B0680930A061092950510929905109255
:10293000980510929A0581E692E090939405809311
:102940009305EFEAF5E08BEE95E010821482138296
:10295000158236968E179F07C1F78FE092E090930D
:10296000F6058093F5058BE092E09093F80580934F
:10297000F70584E08093F9058093FA0583E192E0FE
:102980009093F4058093F3058AE090E09093FC0522
:102990008093FB0584EF91E09093FE058093FD0505
:1029A00010920106109200061092EF051092F005A9
:1029B0001092F1051092F2051092FF05DF91CF9170
:1029C0000895CF93DF9300D000D000D01F92CDB7F1
:1029D000DEB7789484B5826084BD84B5816084BD9F
:1029E00085B5826085BD85B5816085BD80916E00AD
:1029F000816080936E0010928100809181008260DE
:102A0000809381008091810081608093810080911A
:102A100080008160809380008091B1008460809309
:102A2000B1008091B00081608093B00080919100EE
:102A300082608093910080919100816080939100E9
:102A4000809190008160809390008091A1008260CD
:102A50008093A1008091A10081608093A10080916A
:102A6000A00081608093A00080912101826080930A
:102A700021018091210181608093210180912001B9
:102A800081608093200180917A00846080937A0035
:102A900080917A00826080937A0080917A008160D0
:102AA00080937A0080917A00806880937A001092F7
:102AB000C1008AEE94E00E9418028DE494E00E9426
:102AC000180261E088E20E94F30510923804109227
:102AD000370410923604109235040E94090882EDE2
:102AE00092E0909334048093330483ED92E09093CA
:102AF0003204809331041092850680918A068230D8
:102B000018F098E0909385068093880662E370E061
:102B100080E090E00E94AF0760918B0680E896E02D
:102B20000E94CE0868EE73E080E090E00E94AF075C
:102B300060E380E896E00E944F0B0BE416E4C801C6
:102B40000197F1F760E380E896E00E944F0BC8011F
:102B50000197F1F760E380E896E00E944F0B83E570
:102B600092E00197F1F760E280E896E00E944F0B57
:102B700060918506606240E080E896E00E94680B04
:102B800084E08093860640E06CE080E896E00E9456
:102B9000680B0E94B00B82E08093870640E066E0FD
:102BA00080E896E00E94680B40E062E080E896E0F2
:102BB0000E94680B8BE39FE10197F1F780917E06FD
:102BC00090917F061816190634F441E06CE090E00D
:102BD00080E00E94D10A80917E0690917F061816AF
:102BE000190634F44FE06AE090E080E00E94D10AD8
:102BF00080917E0690917F061816190624F490E0C5
:102C000080E00E942F0B60E089E30E94F30561E001
:102C100084E00E94F30561E085E00E94F30561E035
:102C200086E00E94F30561E087E00E94F30561E021
:102C30008CE00E94F30561E08DE00E94F30561E005
:102C40008EE00E94F30561E08FE00E94F30561E0F1
:102C500080E10E94F30561E08EE10E94F30560E0EF
:102C60008FE10E94F30568E072E090E080E00E944E
:102C7000B00CFC018081918190930902809308023D
:102C800066E072E08AE090E00E94B00CFC01808176
:102C90009181909307028093060264E072E084E1E0
:102CA00090E00E94B00CFC0180819181909305021C
:102CB0008093040262E072E08EE190E00E94B00C2A
:102CC000FC0180819181909303028093020260E075
:102CD00072E088E290E00E94B00CFC01808191815A
:102CE000909301028093000282E390E00E94D31F40
:102CF0008093390483E390E00E94D31F80933A04C9
:102D000084E390E00E94D31F80933B0485E390E02E
:102D10000E94D31F80933C0488E0E1E3F2E0DE01EF
:102D2000119601900D928A95E1F70E94B00B40E058
:102D300060E480E896E00E94680B8E010F5F1F4FF1
:102D40007E01F9E0EF0EF11CF80161918F0180E83E
:102D500096E00E94BB0BE016F106B1F760E082E05E
:102D60000E947F0B60E080E896E00E94BB0B60E071
:102D700083E00E947F0B61E872E080E896E00E94A9
:102D80006F0C60E08AE00E947F0B60E080E896E0D4
:102D90000E94BB0B61E081E00E947F0B69E872E05A
:102DA00080E896E00E946F0C68E873E180E090E0B4
:102DB0000E94AF0793E0A92EB12C23E2822E912C22
:102DC0000E94830F86E30E9483040E94B00B60E0A0
:102DD00080E00E947F0B64E972E080E896E00E9448
:102DE0006F0C61E080E00E947F0B0E943306882315
:102DF00009F449C28A3209F049C20E94B00B60E06E
:102E000080E00E947F0B63EA72E080E896E00E9417
:102E10006F0C61E080E00E947F0B6BEA72E080E85B
:102E200096E00E946F0C82E992E00E94970C882342
:102E300009F4E1C141E050E050933E0440933D0469
:102E400081E0809348040E94830F80914804882386
:102E500009F4E4C00E94B00B60E080E00E947F0BA8
:102E600062ED72E080E896E00E946F0C61E080E025
:102E70000E947F0B65E772E082E296E00E949C0D63
:102E800001E010E080914804882309F4C7C00E9443
:102E90003306F82E882309F475C29AE2891379C3A0
:102EA0008EED92E00E94970CF82E811119C082EEEF
:102EB00092E00E94970C811113C086EE92E00E946E
:102EC000970C81110DC08AEE92E00E94970C81113F
:102ED00007C08EEE92E00E94970C882309F4FBC194
:102EE000C0900802D0900902C114D10411F4F1106D
:102EF0004CC2E0900602F0900702E114F10431F4B4
:102F000082EE92E00E94970C811152C260900402FE
:102F1000709005026114710431F486EE92E00E9413
:102F2000970C811158C24090020250900302411444
:102F3000510431F48AEE92E00E94970C81115EC236
:102F400020900002309001022114310431F48EEE01
:102F500092E00E94970C811164C2E0913D04F091CF
:102F60003E04FA87E98782E296E00E94C40C980149
:102F700021503109220F331F49855A85041715073F
:102F800009F09BC2F901EF5BFB4F718360838EED0B
:102F900092E00E94970C882309F456C251E0C51AAA
:102FA000D108D0920902C092080220E030E040EC43
:102FB00050E46091390470913A0480913B049091FF
:102FC0003C040E94EA1F6093390470933A04809392
:102FD0003B0490933C040E94360E0E94B00B60E0CC
:102FE00080E00E947F0B6DE373E080E896E00E9432
:102FF0006F0C61E080E00E947F0B68E473E080E882
:1030000096E00E946F0C1092480465E772E082E23D
:1030100096E00E949C0D81E08093470480914704D4
:10302000882309F484C3209143043091440480919F
:103030004104909142044091450450914604281760
:1030400039070CF0B6C3722F632F481759070CF4D9
:10305000BAC39A01472F562F70E060E0281739074E
:103060000CF4BFC2672B09F0C1C230934604209311
:103070004504909344048093430450934204409346
:10308000410460E08EE10E94AF04C5010197F1F7B1
:1030900061E08EE10E94AF04C4010197F1F760E0A6
:1030A0008EE10E94AF048FE10E94710C072E000C8C
:1030B000880B990B0E94DA1E26E933E44BE05DE3AE
:1030C0000E94151F20E030E040EA51E40E945620A3
:1030D0000E94C8207093400460933F0401E414E010
:1030E000FF24F394F801819191918F018B37910521
:1030F00009F08CC20E94330AF0920A0261E08CE06F
:103100000E94AF046CEA7DE080E090E00E94AF078F
:1031100060E08CE00E94AF0447E454E040175107A0
:1031200009F760E08EE10E94AF04C5010197F1F755
:1031300061E08EE10E94AF04C4010197F1F760E005
:103140008EE10E94AF048FE10E94710C072E000CEB
:10315000880B990B0E94DA1E26E933E44BE05DE30D
:103160000E94151F20E030E040EA51E40E94562002
:103170000E94C8207093400460933F0480913F04F4
:1031800090914004892B09F492C260E08EE10E9484
:10319000AF04C5010197F1F761E08EE10E94AF0431
:1031A000C4010197F1F760E08EE10E94AF048FE166
:1031B0000E94710C072E000C880B990B0E94DA1EDE
:1031C00026E933E44BE05DE30E94151F20E030E088
:1031D00040EA51E40E9456200E94C82070934004A7
:1031E00060933F04672B09F462C281E080930A0276
:1031F0000E94330AC3CF87E892E00E94970C88238D
:1032000039F082E090E090933E0480933D0418CE24
:1032100080EE92E00E94970C882329F0B0923E0441
:10322000A0923D040DCE10923E0410923D0465E73D
:1032300072E082E296E00E949C0D0E94B00B60E07A
:1032400080E00E947F0B69EB72E080E896E00E94CC
:103250006F0C61E080E00E947F0B68EE73E080E01D
:1032600090E00E94AF070E94B00B60E080E00E94F7
:103270007F0B64E972E080E896E00E946F0C61E0E9
:1032800080E00E947F0B0E94830FAFCD8332B9F4A0
:103290000E94B00B60E080E00E947F0B63EA72E066
:1032A00080E896E00E946F0C61E080E00E947F0B56
:1032B00068EC72E080E896E00E946F0CC4CD682F45
:1032C00082E296E00E94230D62E276E080E896E0DA
:1032D0000E94D402D8CF0E94B00B60E080E00E9430
:1032E0007F0B62EF72E080E896E00E946F0C61E075
:1032F00080E00E947F0B6CEF72E080E896E00E9415
:103300006F0C65E772E082E296E00E949C0D68EE29
:1033100073E080E090E00E94AF070430110594F55F
:103320000E94B00B60E080E00E947F0B60E081E0D3
:103330000E947F0B6FE473E080E896E00E946F0CC0
:1033400060E08AE00E947F0BB801CE0101960E94E6
:10335000A60DBE016F5F7F4F80E896E00E94D40209
:10336000CE0101960E94D20D60E08BE00E947F0B9F
:103370006CED72E080E896E00E946F0C61E080E006
:103380000E947F0B0E94830F7DCD0E94B00B60E0F6
:1033900080E00E947F0B63E073E080E896E00E948B
:1033A0006F0C61E080E00E947F0B6FE073E0A5CFBF
:1033B0000E94B00B60E080E00E947F0B63E073E04E
:1033C00080E896E00E946F0C61E080E00E947F0B35
:1033D00067E173E092CF0E94B00B60E080E00E9452
:1033E0007F0B63E073E080E896E00E946F0C61E081
:1033F00080E00E947F0B62E273E07FCF0E94B00BFF
:1034000060E080E00E947F0B63E073E080E896E07C
:103410000E946F0C61E080E00E947F0B6AE273E023
:103420006CCF0E94B00B60E080E00E947F0B63E0F5
:1034300073E080E896E00E946F0C61E080E00E94FB
:103440007F0B60E373E059CF82EE92E00E94970C0D
:10345000882341F081E0E81AF108F0920702E09237
:103460000602A3CD86EE92E00E94970C882341F0DD
:1034700091E0691A7108709205026092040295CD7C
:103480008AEE92E00E94970C882341F0E1E04E1A08
:103490005108509203024092020287CD8EEE92E0D4
:1034A0000E94970C882309F480CDF1E02F1A31088F
:1034B000309201022092000278CDF901EF5BFB4FC0
:1034C000718360838EED92E00E94970C882341F116
:1034D00041E0C41AD108D0920902C092080220E04B
:1034E00030E040EC50E46091390470913A048091EE
:1034F0003B0490913C040E94EA1F6093390470934E
:103500003A0480933B0490933C040E94360E65E796
:1035100072E082E296E00E949C0D0F5F1F4FFDCE8D
:1035200082EE92E00E94970C882341F051E0E51A68
:10353000F108F0920702E0920602D1CF86EE92E007
:103540000E94970C882341F081E0681A71087092FC
:10355000050260920402C3CF8AEE92E00E94970CAB
:10356000882341F091E0491A510850920302409299
:103570000202B5CF8EEE92E00E94970C882309F4E8
:10358000AECFE1E02E1A3108309201022092000203
:10359000A6CFF3E28F1319C00E94B00B60E080E069
:1035A0000E947F0B63EA72E080E896E00E946F0C55
:1035B00061E080E00E947F0B68EC72E080E896E0BA
:1035C0000E946F0C10924804DDCE682F82E296E0D4
:1035D0000E94230D41E06F2D80E896E00E94680B69
:1035E000D1CE782F692FC901272F362F8417950741
:1035F0002CF4782F692FCA01472F562F2817390727
:103600000CF033CD722F632F9C01DAC08C379105FB
:1036100089F40E94330AF0920A0261E08DE00E9470
:10362000AF046CEA7DE080E090E00E94AF0760E0CC
:103630008DE070CD8D37910589F40E94330AF092A8
:103640000A0261E08EE00E94AF046CEA7DE080E057
:1036500090E00E94AF0760E08EE05CCD8E37910570
:1036600089F40E94330AF0920A0261E08FE00E941E
:10367000AF046CEA7DE080E090E00E94AF0760E07C
:103680008FE048CD8F37910509F046CD0E94330A6F
:10369000F0920A0261E080E10E94AF046CEA7DE0F2
:1036A00080E090E00E94AF0760E080E133CD1092AF
:1036B000470461E088E20E94AF0460ED77E080E0BB
:1036C00090E00E94AF0760E088E20E94AF040E9491
:1036D000B00B60E080E00E947F0B60E080E00E9421
:1036E0007F0B69E573E080E896E00E946F0C61E073
:1036F00080E00E947F0B6AE673E080E896E00E941B
:103700006F0C61E08CE00E947F0B80913F049091F0
:1037100040040B978CF010924204109241041092D6
:1037200044041092430410924604109245040E94EF
:10373000830F0E94EF0344CB60E08EE10E94AF0450
:10374000C5010197F1F761E08EE10E94AF04C40169
:103750000197F1F760E08EE10E94AF048FE10E94D3
:10376000710C072E000C880B990B0E94DA1E26E9BB
:1037700033E44BE05DE30E94151F20E030E040EAB7
:1037800051E40E9456200E94C82070934004609328
:103790003F04CE0101960E94A60DBE016F5F7F4FD0
:1037A00080E896E00E94D402CE0101960E94D20DDC
:1037B000A8CF4217530754F0722F632F9A01AC0120
:1037C000872F962F52CC9C01872F962F61E070E0B7
:1037D000481759070CF442CC782F692FCA013ACC0C
:1037E0008CE196E00E94D20D82E296E00C94D20D1C
:1037F000EF920F931F93CF93DF93E80134E047FDDF
:1038000034E1042E000C550B57FF03C05195419530
:103810005109E32E022F242FAE010E94771CCE0106
:10382000DF91CF911F910F91EF9008951F93FC01AD
:1038300099278827BC01E89411911032E9F31930D7
:1038400010F01E30C8F31B3251F01D3249F4689459
:1038500006C00E94481C610F711D811D911D1191B0
:1038600010531A30B0F33EF49095809570956195A1
:103870007F4F8F4F9F4F1F910895BB274A3031F4E0
:10388000992322F4BDE2909581959F4F0C945E1C84
:10389000592F482F372F262F660F771F881F991F04
:1038A000660F771F881F991F620F731F841F951F54
:1038B000660F771F881F991F0895BB27FB015527A7
:1038C000AA27880F991FAA1FA41710F0A41B83957D
:1038D0005051B9F7A05DAA3308F0A95DA1930097F4
:1038E00079F7B111B1931192CB010C94C81E8F924C
:1038F0009F92AF92BF92CF92DF92EF92FF920F937F
:103900001F93CF93DF9300D000D000D0CDB7DEB7A8
:103910006A01F22EB02E102FFBE3AF2EA01608F492
:103920001BE31F5F012F27E0AE014F5F5F4F0E9437
:10393000F01DBC018981982F9970913009F44EC017
:103940009BE2E1FC04C09E2D9170E0FC49C05E2D1D
:103950005071E82FE87083FF55C084E0911101C0D9
:1039600083E0EF2DE81B8F1508F0E0E0D6018E2FE5
:1039700020E25523C9F1992329F0D6019C93C60171
:1039800001966C0196012D5F3F4FE2FE33C08EE43D
:10399000D6018C9391E411969C93119712968C9377
:1039A000D9018E2F90E281112AC0E20FF32FF11D71
:1039B00010828EEF9FEF29960FB6F894DEBF0FBEF0
:1039C000CDBFDF91CF911F910F91FF90EF90DF90CE
:1039D000CF90BF90AF909F908F9008959DE2B7CF0A
:1039E00090E2B5CF2D9381508111FCCFCE0ED11C2A
:1039F000E0E0C1CF8EE6D6018C9391E6CCCF9D93CB
:103A00008150D1CF482F447082FF3DC084E0911196
:103A100001C083E08F1510F4EF2DE81BD6018E2F27
:103A200020E2552309F1992329F0D6019C93C60180
:103A300001966C0196012D5F3F4FE2FE1BC089E4A9
:103A4000D6018C938EE411968C93119786E412968E
:103A50008C93D9018E2F90E2882309F4A6CF9D93F1
:103A60008150FACF2D9381508111FCCFCE0ED11C05
:103A7000E0E0D9CF89E6D6018C938EE611968C933F
:103A8000119786E6E4CF9B0177FF02C030E020E08B
:103A9000A1E0B0E0911102C0B0E0A0E0F9013196E0
:103AA000AE0FBF1F8B2C912CBB2009F461C05401B9
:103AB000EFEFAE1ABE0AAA0DBB1DFA161B0619F0CF
:103AC00014F04F2D4A1B511188C0E3FC59C07601F8
:103AD000A42FB0E2A1114FC0C40ED11C992309F448
:103AE0005BC040E0D6011196F60190836D0155232D
:103AF00009F448C0012F060F9A81582F507184FF96
:103B000003C0913309F4015010160CF047C009307E
:103B100008F008E0EEE2FE2E5B01A01AB108850174
:103B20009194819491082F3F320729F4D601FC9299
:103B3000F60131966F016217730794F102171307AC
:103B40007CF5DB01A21BB30BAA24A394B12CAC0E11
:103B5000BD1EAA0DBB1D11968C9121503109D601B5
:103B6000119628153905F4F0F60180836D01DBCF3D
:103B7000B12CA12CA0CFF701B1937F01A150AACF06
:103B80009111B0CFD601942F50E302C05D939150B4
:103B90009111FCCFC40ED11C40E0ACCF01E0BACFF4
:103BA00080E3DBCF6217730731F4963388F49533E3
:103BB00011F4552369F0F6018083FD01842F90E212
:103BC000811108C0A40FB11D1C9290E080E0F3CEDB
:103BD00081E3F1CF91938150F3CF911183CF8ACFBD
:103BE000283008F027E03327DA01990F311D87FDCF
:103BF000916000966105710539F432602E5F3D9346
:103C000030E32A95E1F708959F3F30F08038710541
:103C1000610509F03C5F3C5F3D93913008F080689E
:103C2000911DDF93CF931F930F93FF92EF92192F64
:103C3000987F9695E92F96959695E90FFF27EA5F6D
:103C4000FD4F99273327EE24FF24A701E7010590B4
:103C50000894079428F4360FE71EF81E491F511DDB
:103C6000660F771F881F991F0694A1F70590079488
:103C700028F4E70EF81E491F561FC11D770F881F35
:103C8000991F661F0694A1F70590079428F4F80E73
:103C9000491F561FC71FD11D880F991F661F771F09
:103CA0000694A1F70590079420F4490F561FC71FEB
:103CB000D81F990F661F771F881F0694A9F7849154
:103CC0001095177041F0D695C79557954795F7947D
:103CD000E7941A95C1F7ECEAF1E068941590159114
:103CE00035916591959105907FE27395E118F10A00
:103CF000430B560BC90BD009C0F7E10CF11E431F53
:103D0000561FC91FD01D7EF4703311F48A95E6CF7B
:103D1000E894015030F0080F0AF40027021708F465
:103D2000202F2395022F7A3328F079E37D932A956B
:103D3000E9F710C07D932A9589F6069497956795C3
:103D4000379517951794E118F10A430B560BC90BD9
:103D5000D00998F023957E9173957A3308F070E33B
:103D60007C932013B8F77E9170617D9330F083953A
:103D700071E37D9370E32A95E1F71124EF90FF90B2
:103D80000F911F91CF91DF91992787FD909508950D
:103D9000DC01FC01672F71917723E1F7329704C0B2
:103DA0007C916D9370836291AE17BF07C8F308953D
:103DB000E89409C097FB3EF49095809570956195C5
:103DC0007F4F8F4F9F4F9923A9F0F92F96E9BB277B
:103DD0009395F695879577956795B795F111F8CFF7
:103DE000FAF4BB0F11F460FF1BC06F5F7F4F8F4F62
:103DF0009F4F16C0882311F096E911C0772321F058
:103E00009EE8872F762F05C0662371F096E8862FEF
:103E100070E060E02AF09A95660F771F881FDAF746
:103E2000880F9695879597F908950E94281F0C94FE
:103E3000991F0E948B1F38F00E94921F20F095233B
:103E400011F00C94821F0C94881F11240C94CD1F28
:103E50000E94AA1F70F3959FC1F3950F50E0551F64
:103E6000629FF001729FBB27F00DB11D639FAA27CF
:103E7000F00DB11DAA1F649F6627B00DA11D661F1E
:103E8000829F2227B00DA11D621F739FB00DA11D3F
:103E9000621F839FA00D611D221F749F3327A00DF9
:103EA000611D231F849F600D211D822F762F6A2F95
:103EB00011249F5750409AF0F1F088234AF0EE0FFA
:103EC000FF1FBB1F661F771F881F91505040A9F727
:103ED0009E3F510580F00C94821F0C94CD1F5F3FD4
:103EE000E4F3983ED4F3869577956795B795F79563
:103EF000E7959F5FC1F7FE2B880F911D96958795DB
:103F000097F9089597F99F6780E870E060E0089559
:103F10009FEF80EC089500240A94161617061806E1
:103F20000906089500240A941216130614060506BD
:103F30000895092E0394000C11F4882352F0BB0F4E
:103F400040F4BF2B11F460FF04C06F5F7F4F8F4FB1
:103F50009F4F089557FD9058440F551F59F05F3FEC
:103F600071F04795880F97FB991F61F09F3F79F09B
:103F700087950895121613061406551FF2CF46951D
:103F8000F1DF08C0161617061806991FF1CF86959F
:103F90007105610508940895E894BB276627772783
:103FA000CB0197F90895F999FECF92BD81BDF89A9A
:103FB000992780B50895262FF999FECF1FBA92BD93
:103FC00081BD20BD0FB6F894FA9AF99A0FBE0196FA
:103FD00008955058BB27AA270E9401200C94991FCE
:103FE0000E948B1F38F00E94921F20F039F49F3FEF
:103FF00019F426F40C94881F0EF4E095E7FB0C945A
:10400000821FE92F0E94AA1F58F3BA17620773078D
:104010008407950720F079F4A6F50C94CC1F0EF4D4
:10402000E0950B2EBA2FA02D0B01B90190010C01C8
:10403000CA01A0011124FF27591B99F0593F50F4E0
:10404000503E68F11A16F040A22F232F342F442738
:10405000585FF3CF469537952795A795F040539530
:10406000C9F77EF41F16BA0B620B730B840BBAF000
:104070009150A1F0FF0FBB1F661F771F881FC2F76B
:104080000EC0BA0F621F731F841F48F4879577957F
:104090006795B795F7959E3F08F0B0CF9395880F39
:1040A00008F09927EE0F9795879508950E946A204A
:1040B0000C94991F0E94921F58F00E948B1F40F091
:1040C00029F45F3F29F00C94821F51110C94CD1FED
:1040D0000C94881F0E94AA1F68F39923B1F35523FB
:1040E00091F3951B550BBB27AA276217730784070B
:1040F00038F09F5F5F4F220F331F441FAA1FA9F3A1
:1041000035D00E2E3AF0E0E832D091505040E6958E
:10411000001CCAF72BD0FE2F29D0660F771F881FEF
:10412000BB1F261737074807AB07B0E809F0BB0BE2
:10413000802DBF01FF2793585F4F3AF09E3F5105F6
:1041400078F00C94821F0C94CD1F5F3FE4F3983EEF
:10415000D4F3869577956795B795F7959F5FC9F7DF
:10416000880F911D9695879597F90895E1E0660F60
:10417000771F881FBB1F621773078407BA0720F0D9
:10418000621B730B840BBA0BEE1F88F7E095089542
:104190000E94CF206894B1110C94CD1F08950E9405
:1041A000B21F88F09F5798F0B92F9927B751B0F0F8
:1041B000E1F0660F771F881F991F1AF0BA95C9F7AB
:1041C00014C0B13091F00E94CC1FB1E008950C945E
:1041D000CC1F672F782F8827B85F39F0B93FCCF311
:1041E000869577956795B395D9F73EF49095809528
:1041F000709561957F4F8F4F9F4F089597FB072EC6
:1042000016F4009407D077FD09D00E945B2107FCCB
:1042100005D03EF4909581959F4F089570956195D6
:104220007F4F0895A1E21A2EAA1BBB1BFD010DC0F2
:10423000AA1FBB1FEE1FFF1FA217B307E407F50756
:1042400020F0A21BB30BE40BF50B661F771F881F32
:10425000991F1A9469F760957095809590959B01C8
:10426000AC01BD01CF010895052E97FB1EF400940B
:104270000E944B2157FD07D00E94122107FC03D05A
:104280004EF40C944B2150954095309521953F4F1D
:104290004F4F5F4F089590958095709561957F4F32
:1042A0008F4F9F4F0895EE0FFF1F881F8BBF079002
:1042B000F691E02D1994AA1BBB1B51E107C0AA1F60
:1042C000BB1FA617B70710F0A61BB70B881F991FB7
:1042D0005A95A9F780959095BC01CD0108950F934B
:1042E0001F93CF93DF938230910510F482E090E02A
:1042F000E0918E06F0918F0630E020E0B0E0A0E083
:10430000309799F42115310509F44AC0281B390B5F
:1043100024303105D8F58A819B816115710589F1B9
:10432000FB0193838283FE0111C040815181028190
:10433000138148175907E0F04817590799F4109767
:1043400061F012960C93129713961C933296CF013C
:10435000DF91CF911F910F91089500938E061093D6
:104360008F06F4CF2115310551F04217530738F06D
:10437000A901DB019A01BD01DF01F801C1CFEF0105
:10438000F9CF90938F0680938E06CDCFFE01E20F7A
:10439000F31F819391932250310939832883D7CF1A
:1043A00020918C0630918D06232B41F4209125021B
:1043B0003091260230938D0620938C0620912302A3
:1043C000309124022115310541F42DB73EB74091BB
:1043D000270250912802241B350BE0918C06F091A6
:1043E0008D06E217F307A0F42E1B3F0B28173907A1
:1043F00078F0AC014E5F5F4F2417350748F04E0F41
:104400005F1F50938D0640938C06819391939FCFAD
:10441000F0E0E0E09CCFCF93DF930097E9F0FC0160
:10442000329713821282A0918E06B0918F06ED0111
:1044300030E020E01097A1F420813181820F931F9A
:1044400020918C0630918D062817390709F061C03C
:10445000F0938D06E0938C06DF91CF910895EA01E9
:10446000CE17DF07E8F54A815B819E0141155105B2
:10447000B1F7E901FB83EA8349915991C40FD51F34
:10448000EC17FD0761F4808191810296840F951FDE
:10449000E90199838883828193819B838A83F0E0F9
:1044A000E0E012968D919C9113970097B9F52D91AC
:1044B0003C911197CD010296820F931F20918C069B
:1044C00030918D062817390739F6309751F510923B
:1044D0008F0610928E06B0938D06A0938C06BCCFEB
:1044E000D383C28340815181840F951FC817D90798
:1044F00061F44E5F5F4F88819981480F591F518346
:1045000040838A819B81938382832115310509F041
:10451000B0CFF0938F06E0938E069ECFFD01DC01B5
:10452000C0CF13821282D7CF4F925F926F927F9249
:104530008F929F92AF92BF92CF92DF92EF92FF92B3
:104540000F931F93CF93DF938C01009799F4CB01C6
:10455000DF91CF911F910F91FF90EF90DF90CF905F
:10456000BF90AF909F908F907F906F905F904F9093
:104570000C946F21FC01E60FF71F9C0122503109BA
:10458000E217F30708F4AEC0D901CD91DC91119781
:10459000C617D70720F1C530D10578F0CE010497B2
:1045A0008617970750F0C61BD70B2297C193D1935C
:1045B0006D937C93CF010E940B22C801DF91CF91B4
:1045C0001F910F91FF90EF90DF90CF90BF90AF9031
:1045D0009F908F907F906F905F904F9008955B01B8
:1045E000AC1ABD0A4C018C0E9D1EA0918E06B09196
:1045F0008F06512C412CF12CE12C109731F5809134
:104600008C0690918D068815990509F05CC04616B8
:10461000570608F058C08091230290912402009719
:1046200041F48DB79EB74091270250912802841B18
:10463000950BE817F90708F055C0F0938D06E09345
:104640008C06F90171836083B8CF8D919C9111978D
:1046500012966C90129713967C901397A815B90533
:1046600059F56C0142E0C40ED11CCA14DB0420F1E0
:10467000AC014A195B09DA011296159780F0628243
:10468000738251834083D9016D937C93E114F104CB
:1046900071F0D7011396FC93EE9312978ECF22966A
:1046A0008C0F9D1FF90191838083F301EFCFF0936D
:1046B0008F06E0938E0681CF4816590608F42C0128
:1046C0007D01D3019ACFCB010E946F217C0100971D
:1046D00049F0AE01B8010E947523C8010E940B2267
:1046E00087016BCF10E000E068CFFB01DC0102C066
:1046F00001900D9241505040D8F70895FB01DC0124
:104700008D91019080190110D9F3990B0895FB0147
:10471000DC0101900D920020E1F7089511E0C4EE54
:10472000D1E000E006C0802FFE010E9453212196B7
:10473000011DC53ED10780E00807A9F7F894FFCF17
:1047400003000300030003000300011718191A29CE
:104750002A2B2C3132334134353642373839432A0B
:1047600030234400009006800000004000140054F4
:1047700000000E11111F1B1F1F000000008203E22A
:10478000020F03CF0340031E033203000000009F0B
:10479000087208B60948086B085808490800000064
:1047A000002F06EF05AC0400000000BB0BE202B6D0
:1047B00009B5090D0A006E7565766F002C0052521E
:1047C00000475255504F20320050524F59454354E4
:1047D0004F203100456C696A6120756E20766173E7
:1047E0006F3A00496E677265736F00436F7272654E
:1047F0006374616D656E7465005661736F206E6FD2
:10480000206578697374650043616E63656C6164EB
:104810006F005361626F72204E6F2E313A00313259
:10482000330031323400313235003132360031322A
:1048300037004E6F206578697374650068656C6138
:10484000646F006578697374656E63696173006C89
:10485000696D6F6E2030007661696E696C6C6120E5
:10486000300066726573612030007576612030001B
:104870006E61706F6C6974616E6F2030005072658C
:10488000706172616E646F0048656C61646F0053A3
:1048900061626F72204E6F2E007365727669646F6D
:1048A0002C6275656E206469610064697374616E61
:0648B0006369613A00009B
:020000040003F7
:10E000000D9489F10D94B2F10D94B2F10D94B2F129
:10E010000D94B2F10D94B2F10D94B2F10D94B2F1F0
:10E020000D94B2F10D94B2F10D94B2F10D94B2F1E0
:10E030000D94B2F10D94B2F10D94B2F10D94B2F1D0
:10E040000D94B2F10D94B2F10D94B2F10D94B2F1C0
:10E050000D94B2F10D94B2F10D94B2F10D94B2F1B0
:10E060000D94B2F10D94B2F10D94B2F10D94B2F1A0
:10E070000D94B2F10D94B2F10D94B2F10D94B2F190
:10E080000D94B2F10D94B2F10D94B2F10D94B2F180
:10E090000D94B2F10D94B2F10D94B2F10D94B2F170
:10E0A0000D94B2F10D94B2F10D94B2F10D94B2F160
:10E0B0000D94B2F10D94B2F10D94B2F10D94B2F150
:10E0C0000D94B2F10D94B2F10D94B2F10D94B2F140
:10E0D0000D94B2F10D94B2F10D94B2F10D94B2F130
:10E0E0000D94B2F141546D656761323536300041AF
:10E0F000726475696E6F206578706C6F72657220DE
:10E1000073746B3530305632206279204D4C530099
:10E11000426F6F746C6F616465723E004875683F52
:10E1200000436F6D70696C6564206F6E203D200048
:10E130004350552054797065202020203D20005FF9
:10E140005F4156525F415243485F5F3D2000415658
:10E1500052204C696243205665723D20004743437C
:10E160002056657273696F6E203D20004350552024
:10E1700049442020202020203D20004C6F7720663D
:10E18000757365202020203D20004869676820665F
:10E190007573652020203D200045787420667573D6
:10E1A00065202020203D20004C6F636B2066757336
:10E1B000652020203D20004D617220203720323024
:10E1C000313300312E362E3800342E332E350056A2
:10E1D00023202020414444522020206F7020636F70
:10E1E00064652020202020696E73747275637469E1
:10E1F0006F6E2061646472202020496E74657272B3
:10E20000757074006E6F20766563746F7200726A49
:10E210006D702020006A6D70200057686174207056
:10E220006F72743A00506F7274206E6F7420737541
:10E2300070706F72746564004D7573742062652030
:10E2400061206C6574746572002000577269747483
:10E25000696E672045450052656164696E672045B7
:10E26000450045452065727220636E743D00504F35
:10E27000525400303D5A65726F2061646472003FF1
:10E280003D43505520737461747300403D454550C3
:10E29000524F4D207465737400423D426C696E6B41
:10E2A000204C454400453D44756D70204545505215
:10E2B0004F4D00463D44756D7020464C415348001B
:10E2C000483D48656C70004C3D4C69737420492F83
:10E2D0004F20506F72747300513D51756974005234
:10E2E0003D44756D702052414D00563D73686F7707
:10E2F00020696E7465727275707420566563746FF0
:10E30000727300593D506F727420626C696E6B00BD
:10E310002A0011241FBECFEFD1E2DEBFCDBF01E046
:10E320000CBF12E0A0E0B2E0EEE1FDEF03E00BBFB6
:10E3300002C007900D92A030B107D9F712E0A0E01B
:10E34000B2E001C01D92AE30B107E1F70F9460F367
:10E350000D948DFE01E20EBF0FEF0DBF11241FBE05
:10E360000D9460F30D9400F020E030E040ED57E0B4
:10E3700005C0FA013197F1F72F5F3F4F2817390792
:10E38000C0F308959C01260F311DC901A0E0B0E043
:10E390002F5F3F4FABBFFC018791882361F08093D3
:10E3A000C6008091C00086FFFCCF8091C0008064D1
:10E3B0008093C000EACF08958DE08093C6008091DD
:10E3C000C00086FFFCCF8091C00080648093C000B5
:10E3D0008AE08093C6008091C00086FFFCCF8091C8
:10E3E000C00080648093C00008950F94C2F10F9420
:10E3F000DCF10895FC019081992359F09093C600B7
:10E400008091C00086FFFCCF8091C0008064809323
:10E41000C0003196992379F70895282F982F929567
:10E420009F70892F805D8A3308F0895F8093C600D2
:10E430008091C00086FFFCCF8091C00080648093F3
:10E44000C000822F8F70982F905D9A3308F0995FEB
:10E450009093C6008091C00086FFFCCF8091C000E1
:10E4600080648093C00008959C01FB01853691056E
:10E470001CF46330710594F0C90164E670E00F94F8
:10E480002EFE605D7F4F6093C6008091C00086FFC6
:10E49000FCCF8091C00080648093C0002B30310598
:10E4A00014F43297B4F0C90164E670E00F942EFEC4
:10E4B0006AE070E00F942EFE605D7F4F6093C600AF
:10E4C0008091C00086FFFCCF8091C0008064809363
:10E4D000C000C9016AE070E00F942EFEC0968093E0
:10E4E000C6008091C00086FFFCCF8091C000806490
:10E4F0008093C00008951F93182F8EE692EE60E07F
:10E500000F94C2F11093C6008091C00086FFFCCF2B
:10E510008091C00080648093C0000F94DCF11F9153
:10E5200008952F923F924F925F926F927F928F92B7
:10E530009F92AF92BF92CF92DF92EF92FF920F9392
:10E540001F93DF93CF93CDB7DEB762970FB6F894E2
:10E55000DEBF0FBECDBF382E622ECA01DB015C01CB
:10E560006D01772420E2222E2E010894411C511CBB
:10E570008BC081E0A81680E0B80681E0C80680E084
:10E58000D80628F0C601AA27BB270F940DF2BB2797
:10E59000AD2D9C2D8B2D0F940DF28A2D0F940DF225
:10E5A0002092C6008091C00086FFFCCF8091C00001
:10E5B00080648093C0009DE29093C6008091C0006B
:10E5C00086FFFCCF8091C00080648093C0002092C1
:10E5D000C6008091C00086FFFCCF8091C00080649F
:10E5E0008093C00019828601750188249924A1E0D6
:10E5F0003A1651F03A1620F0B2E03B1661F409C029
:10E600000BBFF701779007C0C7010F9477FE782EF4
:10E6100002C0F7017080872D0F940DF22092C60082
:10E620008091C00086FFFCCF8091C0008064809301
:10E63000C000872D8052F401EF70F0708F3520F408
:10E64000E40DF51D708204C0E40DF51D8EE280839B
:10E650000894E11CF11C011D111D0894811C911CE2
:10E6600090E18916910409F0C2CF80E190E0A0E02A
:10E67000B0E0A80EB91ECA1EDB1E198AC2010F9493
:10E68000FAF10F94DCF16A94662009F072CF629679
:10E690000FB6F894DEBF0FBECDBFCF91DF911F91B3
:10E6A0000F91FF90EF90DF90CF90BF90AF909F9031
:10E6B0008F907F906F905F904F903F902F90089534
:10E6C0002F923F924F925F926F927F928F929F9282
:10E6D000AF92BF92CF92DF92EF92FF920F931F9370
:10E6E000DF93CF93CDB7DEB7CD53D1400FB6F894BB
:10E6F000DEBF0FBECDBF01E20EBF0FEF0DBF94B75F
:10E70000F894A89514BE80916000886180936000A1
:10E7100010926000789493FF05C0E0910002F091A0
:10E7200001021995279A2F9A8091C00082608093E8
:10E73000C00080E18093C40088E18093C1000000A4
:10E74000EE24FF24870144E0A42EB12CCC24DD2448
:10E7500024C0C5010197F1F70894E11CF11C011DCB
:10E76000111D21E2E2162EE4F20620E0020720E06D
:10E77000120718F031E0C32ED12CC801B70127ECE5
:10E780003BE140E050E00F9441FE611571058105C9
:10E79000910519F485B1805885B98091C00087FD35
:10E7A00003C0C114D104A9F2A6014F5F5F4FC25E3E
:10E7B000DE4F59834883CE51D140C25EDE4F8881FF
:10E7C0009981CE51D140019711F00D9410FEC05D9A
:10E7D000DE4F19821882C053D14060E0C15DDE4F28
:10E7E0001882CF52D14088249924C35DDE4F19820C
:10E7F0001882CD52D140C05EDE4F188219821A8233
:10E800001B82C052D140CE5CDE4F188219821A8220
:10E810001B82C253D140EE24FF2487010BBFF701B6
:10E8200007911691C45CDE4F19830883CC53D14005
:10E830000D940BFEC25EDE4F28813981CE51D1404E
:10E840002130310509F52091C600C25EDE4F1982E4
:10E850001882CE51D14022C02F5F3F4F4F4F5F4FA4
:10E86000213082E138078AE7480780E0580780F0C6
:10E87000C45CDE4FE881F981CC53D140EF5FFF4F9C
:10E8800019F0EE27FF27099420E030E040E050E047
:10E890008091C00087FFE0CF2091C600C35DDE4FAE
:10E8A00048815981CD52D1404F5F5F4FC35DDE4FEC
:10E8B00059834883CD52D140213209F063C64A3092
:10E8C000510508F05FC60894811C911C53E0851621
:10E8D000910409F059C600E010E018C081E280936D
:10E8E000C6008091C00086FFFCCF8091C00080648C
:10E8F0008093C0002F5F3F4F2931310579F70F9486
:10E90000DCF10F5F1F4F0530110519F020E030E0FA
:10E91000E5CF10920A0210920B0210920C02109294
:10E920000D02109206021092070210920802109235
:10E930000902109202021092030210920402109235
:10E9400005028FEE90EE60E00F94F5F180E191EE1C
:10E9500060E00F94C2F18091C00087FFFCCF9091DE
:10E96000C600903608F09F759032B8F09093C600BC
:10E970008091C00086FFFCCF8091C00080648093AE
:10E98000C000A0E2A093C6008091C00086FFFCCF2B
:10E990008091C00080648093C000983409F4D7C18E
:10E9A0009934B8F4923409F459C1933458F490333B
:10E9B00019F1903308F4E3C59F33A1F1903409F0C5
:10E9C000DEC5BDC0953409F470C1963409F0D7C5D1
:10E9D00098C1923509F42BC2933538F49C3409F46C
:10E9E000F5C1913509F0CBC518C2963509F445C279
:10E9F000993509F0C4C567C483E792EE62E00F94CD
:10EA0000F5F110920602109207021092080210927D
:10EA1000090210920A0210920B0210920C0210923C
:10EA20000D0213C18FE792EE62E00F94F5F18FEEC5
:10EA300090EE60E00F94F5F181E291EE60E00F94CA
:10EA4000C2F187EB91EE60E00F94F5F180E391EE77
:10EA500060E00F94C2F184EE90EE60E00F94F5F167
:10EA60008FE391EE60E00F94C2F186E090E061E008
:10EA700070E00F9434F20F94DCF18DE591EE60E0DC
:10EA80000F94C2F189EC91EE60E00F94F5F18EE401
:10EA900091EE60E00F94C2F183EC91EE60E00F9490
:10EAA000F5F18CE691EE60E00F94C2F18EE10F94E7
:10EAB0000DF288E90F940DF281E00F940DF20F949E
:10EAC000DCF18BE791EE60E00F94C2F119E0E0E039
:10EAD000F0E010935700E4918E2F0F940DF20F94F5
:10EAE000DCF18AE891EE60E00F94C2F1E3E0F0E03F
:10EAF00010935700E4918E2F0F940DF20F94DCF1D8
:10EB000089E991EE60E00F94C2F1E2E0F0E0109349
:10EB10005700E4918E2F0F940DF20F94DCF188EAE8
:10EB200091EE60E00F94C2F1E1E0F0E01093570045
:10EB30001491812F0F940DF20F94DCF107CF8BE825
:10EB400092EE62E00F94F5F18BE492EE60E00F94A8
:10EB5000F5F10F94DCF100E010E019C0C8016F2D51
:10EB60000F947FFEFF2031F489E492EE60E00F9471
:10EB7000C2F10BC0F092C6008091C00086FFFCCFAE
:10EB80008091C00080648093C0000F5F1F4FC80158
:10EB900081519F41A0E0B0E0ABBFFC01F790BAE229
:10EBA000FB1621F0E2E000301E07C1F60F94DCF105
:10EBB0000F94DCF187E592EE60E00F94F5F10F948D
:10EBC000DCF1CC24DD2400E010E01EC0C8010F946D
:10EBD00077FEF82E882331F489E492EE60E00F94FA
:10EBE000C2F10BC08093C6008091C00086FFFCCFAD
:10EBF0008091C00080648093C000FE1419F00894D6
:10EC0000C11CD11C0F5F1F4FC80181519F41A0E063
:10EC1000B0E0ABBFFC01E790FAE2EF1621F022E092
:10EC20000030120799F60F94DCF10F94DCF182E6C4
:10EC300092EE60E00F94C2F1C60161E070E00F94C3
:10EC400034F20F94DCF10F94DCF110920202109276
:10EC50000302109204021092050278CE89E992EE26
:10EC600062E00F94F5F1279A2F9A16C02F9880E052
:10EC700090E0E0EDF7E03197F1F7019684369105E9
:10EC8000C1F72F9A80E090E0E0EDF7E03197F1F7DF
:10EC9000019684369105C1F78091C00087FFE6CFC9
:10ECA0008091C00087FFFCCF64C485EA92EE62E0E9
:10ECB0000F94F5F140910202509103026091040219
:10ECC0007091050281E020E10F9491F2809102029F
:10ECD00090910302A0910402B091050280509F4FD1
:10ECE000AF4FBF4F8093020290930302A0930402A0
:10ECF000B093050280509041A040B04008F426CE69
:10ED0000A4CF83EB92EE62E00F94F5F140910602FE
:10ED100050910702609108027091090280E020E1A1
:10ED20000F9491F28091060290910702A09108023F
:10ED3000B091090280509F4FAF4FBF4F80930602A2
:10ED400090930702A0930802B0930902FFCD80ECD4
:10ED500092EE62E00F94F5F183E792EE60E00F949B
:10ED6000F5F18FE792EE60E00F94F5F18BE892EE0B
:10ED700060E00F94F5F189E992EE60E00F94F5F10F
:10ED800085EA92EE60E00F94F5F183EB92EE60E09D
:10ED90000F94F5F180EC92EE60E00F94F5F187ECC2
:10EDA00092EE60E00F94F5F188ED92EE60E00F9442
:10EDB000F5F18FED92EE60E00F94F5F18AEE92EEB0
:10EDC00060E00F94F5F183E093EEBDCD87EC92EE19
:10EDD00062E00F94F5F181E40F947BF282E40F94EA
:10EDE0007BF283E40F947BF284E40F947BF285E45E
:10EDF0000F947BF286E40F947BF287E40F947BF20E
:10EE000088E40F947BF28AE40F947BF28BE40F94F6
:10EE10007BF28CE40F947BF299CD88ED92EE62E068
:10EE20000F94F5F1772473948824992409C48FED05
:10EE300092EE62E00F94F5F140910A0250910B02BC
:10EE400060910C0270910D0282E020E10F9491F22A
:10EE500080910A0290910B02A0910C02B0910D02D8
:10EE600080509F4FAF4FBF4F80930A0290930B0289
:10EE7000A0930C02B0930D0269CD8AEE92EE62E08F
:10EE80000F94F5F184EE90EE60E00F94F5F18FECC5
:10EE900091EE60E00F94F5F1662477244301CC5D98
:10EEA000DE4F19821882C452D140D401C301B695F5
:10EEB000A79597958795CA5DDE4F88839983AA8326
:10EEC000BB83C652D140CC5DDE4FA881B981C4520C
:10EED000D1401196CC5DDE4FB983A883C452D14096
:10EEE000CD0162E070E00F9434F2B0E2B093C6005E
:10EEF0008091C00086FFFCCF8091C0008064809329
:10EF0000C000EDE2E093C6008091C00086FFFCCF18
:10EF10008091C00080648093C000F0E2F093C6004E
:10EF20008091C00086FFFCCF8091C00080648093F8
:10EF3000C000CA5DDE4FE880F9800A811B81C6529D
:10EF4000D140BB27A12F902F8F2D0F940DF2CA5DBA
:10EF5000DE4F8881C652D1400F940DF2B0E2FB2EF5
:10EF6000F092C6008091C00086FFFCCF8091C00067
:10EF700080648093C0000DE30093C6008091C000C0
:10EF800086FFFCCF8091C00080648093C00010E2B7
:10EF90001093C6008091C00086FFFCCF8091C00016
:10EFA00080648093C0008BBEF3012791C65DDE4F65
:10EFB0002883CA52D140A22EBB24CC24DD2408943D
:10EFC000611C711C811C911C8BBEF3018791282E42
:10EFD0003324442455240894611C711C811C911C09
:10EFE0008BBEF3013791C55DDE4F3883CB52D140E4
:10EFF0000894611C711C811C911C8BBEF30147910C
:10F00000C45DDE4F4883CC52D140ADEFEA2EAFEF66
:10F01000FA2EAFEF0A2FAFEF1A2F6E0C7F1C801E57
:10F02000911E142D032DF22CEE24EA0CFB1C0C1D5A
:10F030001D1D0F940DF220E22093C6008091C000A8
:10F0400086FFFCCF8091C00080648093C000C65DC5
:10F05000DE4F8881CA52D1400F940DF230E23093D6
:10F06000C6008091C00086FFFCCF8091C000806404
:10F070008093C000C45DDE4F8881CC52D1400F9494
:10F080000DF240E24093C6008091C00086FFFCCFA5
:10F090008091C00080648093C000C55DDE4F888190
:10F0A000CB52D1400F940DF250E25093C6008091A4
:10F0B000C00086FFFCCF8091C00080648093C000B8
:10F0C0008FEFE8168FEFF80680E0080780E018075A
:10F0D00031F484E092EE60E00F94C2F1DFC0D80119
:10F0E000C7018070907CA070B0708050904CA040A0
:10F0F000B040D1F52FEF3FE340E050E0E222F322B1
:10F1000004231523CA5DDE4FA880B980CA80DB8046
:10F11000C652D140AE0CBF1CC01ED11EAA0CBB1CD7
:10F12000CC1CDD1C8EE092EE60E00F94C2F1BB2798
:10F13000A12F902F8F2D0F940DF28E2D0F940DF285
:10F1400030E23093C6008091C00086FFFCCF8091F2
:10F15000C00080648093C0004EE34093C60080915D
:10F16000C00086FFFCCF87C08EE09EEFA0E0B0E03D
:10F17000E822F9220A231B239CE0E91694E9F90608
:10F1800090E0090790E0190709F088C0C45DDE4FE0
:10F19000A881CC52D140EA2EFF2400E010E0102FCD
:10F1A0000F2DFE2CEE24C55DDE4FB881CB52D14031
:10F1B000EB0EF11C011D111DD601C501817090706F
:10F1C000A070B070DC0199278827E80EF91E0A1F8D
:10F1D0001B1F20EF30E040E050E0A222B322C42207
:10F1E000D52241E1AA0CBB1CCC1CDD1C4A95D1F7F1
:10F1F000EA0CFB1C0C1D1D1D81E090E0A0E0B0E0BE
:10F20000282239224A225B2235E1220C331C441C7D
:10F21000551C3A95D1F7E20CF31C041D151D57013E
