:100000000C9468010C9499010C9499010C94990139
:100010000C9499010C9499010C9499010C949901F8
:100020000C9499010C9499010C9499010C949901E8
:100030000C9499010C9499010C9499010C949901D8
:100040000C9499010C9499010C9499010C949901C8
:100050000C9499010C9499010C9499010C941A0D2B
:100060000C9499010C94E40C0C94BA0C0C94990126
:100070000C9499010C9499010C9499010C94990198
:100080000C9499010C9499010C9499010C94990188
:100090000C9499010C9499010C9499010C94640DA1
:1000A0000C9499010C9499010C9499010C94990168
:1000B0000C9499010C9499010C9499010C94990158
:1000C0000C9499010C9499010C9499010C94990148
:1000D0000C9499010C9499010C9499010C94990138
:1000E0000C9499010C94AA030C94C6030C948005FB
:1000F0000C94A9070C94BC070C94B8030C949702B9
:100100000C94C4040C94A0030C94C2030C943F05FB
:100110000C9427050C9407090C94C4170C948B03BA
:100120000C94CD0E0C9412050C9466020C943805B8
:100130000C941C030C9430020C94C3070C9414050B
:100140000C94A6030C9495030C94CC030C94B0036C
:100150000C94BE030C942F020C94B4030C949A07D5
:100160000C94E1040C9499030C942E040C942E022C
:100170000C94FD030C94F0070C94CF020C948902AC
:100180000C949D030C94D0040C9475020C94CB0336
:100190000C9491030C9499070C941B050C94D003B8
:1001A0000C94F7040C940C0B0C940609000021002D
:1001B000240027002A002D00300033000101000038
:1001C000040107010A0100002200250028002B007D
:1001D0002E003100340002010000050108010B016E
:1001E00000000A0B02090C0D0E08070304010000B1
:1001F00000000000000000000000000000000000FF
:1002000000000000000000000000000012111000BB
:1002100000000000000000000000000000000000DE
:10022000000000000000000020002300260029003C
:100230002C002F003200000100000301060109011B
:1002400005050505070508080808020202020A0A52
:100250000808040404040101010101010101030370
:10026000030303030303040707070C0C0C0C0C0C1B
:100270000C0C0202020206060606060606060B0B18
:100280000B0B0B0B0B0B0102102020080810204059
:10029000102040800201020108040201010204084A
:1002A00010204080804020100804020180040201D8
:1002B0008040201008040201080402010102040821
:1002C000102040800102040810204080CD0EC41789
:1002D00011241FBECFEFD1E2DEBFCDBF00E00CBFC7
:1002E00025E0ACE5B3E001C01D92A73DB207E1F700
:1002F00013E0A0E0B2E0ECE4FAE300E00BBF02C0E0
:1003000007900D92AC35B107D9F711E0C7E6D1E0FF
:1003100000E006C021970109802FFE010E94D91A32
:10032000C636D10780E00807A9F70E9473100C9425
:10033000141D0C94000096E0899FD0011124A05256
:10034000BB4F90967C936E935F9791E091969C93B0
:100350009197E0914D05F0914E0590914C059923B0
:1003600039F0309751F0811108C08091FC04199444
:10037000309719F05C968C91FACF0895CF92DF9266
:10038000EF92FF920F931F9396E0899FF001112443
:10039000E052FB4F11A2278D30A12130310551F1E0
:1003A00078F02230310509F451C02330310509F4C9
:1003B00052C01F910F91FF90EF90DF90CF90089562
:1003C0006623B9F361E070E00E949B012FB7F894B7
:1003D0008091330490913404A0913504B091360497
:1003E0002FBF8093380590933905A0933A05B093B9
:1003F0003B05DFCF9FB7F894C0903304D09034040E
:10040000E0903504F09036049FBF009138051091BC
:10041000390520913A0530913B05C01AD10AE20A0C
:10042000F30A00914A0510914B0530E020E00C15CD
:100430001D052E053F0550F462E070E01F910F91FD
:10044000FF90EF90DF90CF900C949B016111B1CFA2
:1004500063E070E0F3CF70E060E0F0CF08950895BE
:10046000AF92BF92CF92DF92EF92FF920F931F93C2
:10047000CF93DF936C017B018B01040F151FEB0100
:100480005E01AE18BF08C017D10759F06991D601B7
:10049000ED91FC910190F081E02DC6011995892B19
:1004A00079F7C501DF91CF911F910F91FF90EF90E8
:1004B000DF90CF90BF90AF900895FC0144815581AB
:1004C0006081718187EC95E00C943002FC01538DC2
:1004D000448D252F30E0842F90E0821B930B54171E
:1004E00010F0CF96089501970895FC01918D828DAB
:1004F000981761F0A28DAE0FBF2FB11D5D968C9144
:10050000928D9F5F9F73928F90E008958FEF9FEF82
:100510000895FC01918D828D981731F0828DE80F3E
:10052000F11D858D90E008958FEF9FEF0895FC01F8
:10053000918D228D892F90E0805C9F4F821B9109C5
:100540008F739927089587E394E00E94970221E032
:10055000892B09F420E0822F0895FC01A48DA80FB7
:10056000B92FB11DA35ABF4F2C91848D90E00196F5
:100570008F739927848FA689B7892C93A089B18915
:100580008C91837080648C93938D848D981306C0B6
:100590000288F389E02D80818F7D80830895EF921A
:1005A000FF920F931F93CF93DF93EC0181E0888F2D
:1005B0009B8D8C8D98131AC0E889F989808185FFFD
:1005C00015C09FB7F894EE89FF896083E889F9899F
:1005D00080818370806480839FBF81E090E0DF91A1
:1005E000CF911F910F91FF90EF900895F62E0B8DF4
:1005F00010E00F5F1F4F0F731127E02E8C8D8E11AF
:100600000CC00FB607FCFACFE889F989808185FF15
:10061000F5CFCE010E94AD02F1CFEB8DEC0FFD2F97
:10062000F11DE35AFF4FF0829FB7F8940B8FEA89D0
:10063000FB8980818062CFCFCF93DF93EC01888DDF
:100640008823B9F0AA89BB89E889F9898C9185FD4D
:1006500003C0808186FD0DC00FB607FCF7CF8C91DB
:1006600085FFF2CF808185FFEDCFCE010E94AD02E4
:10067000E9CFDF91CF91089580E090E0892B29F0B8
:100680000E94A30281110E94000080E090E0892B6B
:1006900049F080E090E0892B29F00E940000811150
:1006A0000E94000080E090E0892B49F080E090E01B
:1006B000892B29F00E94000081110E94000080E037
:1006C00090E0892B49F080E090E0892B29F00E948E
:1006D000000081110C94000008958150823108F0CF
:1006E0005AC0E82FF0E08827E758FC4F8F4F0C9452
:1006F000D91A99039D038B0391039503CB03A003A0
:10070000A603AA03B003B403B803BE03C203CB031A
:10071000C603CC03D003809180008F778093800044
:100720000895809180008F7DF9CF80918000877F30
:10073000F5CF84B58F7784BD089584B58F7DFBCFC9
:100740008091B0008F778093B00008958091B000C1
:100750008F7DF9CF809190008F77809390000895DE
:10076000809190008F7DF9CF80919000877FF5CFA9
:100770008091A0008F778093A00008958091A000C1
:100780008F7DF9CF8091A000877FF5CF80912001E8
:100790008F77809320010895809120018F7DF9CF7C
:1007A00080912001877FF5CFCF93DF93282F30E012
:1007B000F901E052FE4F8491F901EA57FD4FD491BF
:1007C000F901E05CFD4FC491CC23A1F081110E949E
:1007D0006D03EC2FF0E0EE0FFF1FEA5DFD4FA591DA
:1007E000B491EC91ED2381E090E009F480E0DF9199
:1007F000CF91089580E090E0FACF862F0C94D40337
:100800001F93CF93DF93282F30E0F901E052FE4F82
:100810008491F901EA57FD4FD491F901E05CFD4F55
:10082000C491CC23A9F0162F81110E946D03EC2FE7
:10083000F0E0EE0FFF1FEA53FE4FA591B4918FB782
:10084000F894EC91111108C0D095DE23DC938FBF92
:10085000DF91CF911F910895DE2BF8CF862F642F63
:100860000C940004CF93DF93EC0180915705909195
:100870005805029749F4C130D10509F43DC07CF513
:1008800060E0209709F439C0809157059091580590
:10089000049749F4C130D10509F45EC00CF039C0A9
:1008A000209709F444C08091570590915805059709
:1008B00009F0E7C0CA30D10508F0E3C0FE0188277F
:1008C000EB59FB4F8F4F0C94D91AC404D004E104A8
:1008D000F704120514051B05270538053F05C2302E
:1008E000D105A9F060E0C330D10571F680915B05B8
:1008F0000E94000460E006C061E080915B050E94F8
:10090000000461E080915D050E940004BDCF61E0BC
:10091000EDCFC230D10539F1C330D10509F0C3CFD5
:1009200061E080915B050E94000460E022C061E00C
:1009300080915B050E94000460E080915D050E944B
:10094000000461E080915F050E94000460E08091F6
:1009500061050E940004A7CF60E080915B050E94C2
:10096000000461E0EACF60E080915B050E94000432
:1009700061E080915D050E94000460E080915F0568
:100980000E94000461E0E3CF60E080915B050E947B
:10099000000461E080915D050E94000461E00BC0ED
:1009A00060E080915B050E94000461E080915D053C
:1009B0000E94000460E080915F050E94000460E0F6
:1009C00010C060E080915B050E94000461E08091AE
:1009D0005D050E94000460E080915F050E940004B4
:1009E00061E0809161050E94000461E015C060E053
:1009F00080915B050E94000461E080915D050E948A
:100A0000000460E080915F050E94000461E0809135
:100A100061050E94000460E080916305DF91CF9141
:100A20000C94000461E0E4CF61E080915B050E94DA
:100A3000000460E0E2CF61E080915B050E94000469
:100A400060E080915D050E94000461E0DBCF61E021
:100A500080915B050E94000460E080915D050E942A
:100A6000000461E080915F050E94000460E0CFCF48
:100A700061E080915B050E94000460E08BCF60E044
:100A8000F8CFDF91CF910895CF93DF9390E0FC01F1
:100A9000EA57FD4F2491805C9D4FFC01849188238F
:100AA000C9F090E0880F991FFC01E455FE4FA59115
:100AB000B491FC01EA53FE4FC591D49161110DC070
:100AC0009FB7F8948C91209582238C93888128235A
:100AD00028839FBFDF91CF910895623051F49FB773
:100AE000F8943C91822F809583238C93E8812E2B60
:100AF000EFCF8FB7F894EC912E2B2C938FBFEACFCA
:100B0000862F642F0C9444056F927F928F929F9250
:100B1000AF92BF92CF92DF92EF92FF920F931F930B
:100B2000CF93DF9381E080934C058FB7F894409189
:100B300033045091340460913504709136048FBFB2
:100B400080913C0590913D05A0913E05B0913F05F7
:100B5000481B590B6A0B7B0B809148059091490506
:100B6000B0E0A0E084179507A607B70708F01DC1FD
:100B7000C0E080914605C81760F4E0914205F0910D
:100B80004305EC0FF11D62E080810E944405CF5FB8
:100B9000F0CF712C812C912C5401839480914705C6
:100BA000781608F05FC0072D10E0E0914405F09141
:100BB0004505E00FF11F61E080810E944405E0914E
:100BC0004405F0914505E00FF11F60E080810E942F
:100BD0000004D501C401072C04C0880F991FAA1F67
:100BE000BB1F0A94D2F76C017C01E094F094612C55
:100BF000809146056816F8F4C62DD0E0E0914205D4
:100C0000F0914305EC0FFD1F80810E94D4032496D0
:100C1000CC0FDD1FC052DB4F892B41F488819981B5
:100C20008C299D29998388836394E2CF8881998157
:100C30008E219F21F7CFE0914405F0914505E00F0B
:100C4000F11F61E080810E94000480914405909131
:100C50004505080F191F60E0F80180810E944405D6
:100C600073949CCFC0EED4E0FE018FEF9FEF278DF1
:100C700030A1232B21F4148E968F858F11A23696E6
:100C800025E0EC31F20799F7F12C96E0D92E80910E
:100C90004605F81608F050C0E12C0F2D10E0000FAB
:100CA000111F08511B4F20914705E21608F042C062
:100CB000F801608171810E2C02C0769567950A94C7
:100CC000E2F7F29E900111242E0D311DE0EEF4E0CA
:100CD00080E0458D568D2417350709F46AC08F5F73
:100CE00036968A30B1F760FF23C0E0EEF4E090E082
:100CF00080E0448D411117C0E0914005F09141051D
:100D0000E20FF31F4081D89EF001D99EF00D11240F
:100D1000E052FB4F448F368F258F10A2178E61E073
:100D20000E94BE0105C0019636968A30910509F7EA
:100D3000E394B9CFF394ABCF80E099A19111892FBF
:100D40002696F5E0CC31DF07C1F79FB7F8944091C4
:100D500033045091340460913504709136049FBF80
:100D600040933C0550933D0560933E0570933F05CD
:100D70008823D9F0809101058823B9F08091FF0480
:100D800090910005019789F48091FC04DF91CF9147
:100D90001F910F91FF90EF90DF90CF90BF90AF9099
:100DA0009F908F907F906F90089510924C0580E0F7
:100DB000EDCF6170B5CF3FB7F89480910F0490915B
:100DC0001004A0911104B091120426B5A89B05C08F
:100DD0002F3F19F00196A11DB11D3FBFBA2FA92FBA
:100DE000982F8827BC01CD01620F711D811D911DB7
:100DF00042E0660F771F881F991F4A95D1F7089523
:100E00008F929F92AF92BF92CF92DF92EF92FF921A
:100E10006B017C010E94DB064B015C01C114D10413
:100E2000E104F104B9F00E94DB06681979098A0926
:100E30009B09683E73408105910580F321E0C21A49
:100E4000D108E108F10888EE880E83E0981EA11C05
:100E5000B11CE4CFFF90EF90DF90CF90BF90AF90A8
:100E60009F908F9008952091C403260F3327331F3E
:100E700021323105ECF42091E803FC0190E080E0A0
:100E8000243069F082E00895A091C4032191AC015F
:100E90004C555C4FA40FB52FB11D2C9301968617AE
:100EA00098F38091C403680F6093C40380E00895B1
:100EB00081E008951092E80381E08093EA031092A4
:100EC000E90361E084E10E94000461E085E10E94A1
:100ED0000004E9EBF0E080818E7F808380818D7F4C
:100EE000808388E48093B80085E48093BC000895F3
:100EF000CF93DF9391E09093A3038823B9F0C0913F
:100F0000B800D091BA008091BC008A7B8093BC006D
:100F100060E084E10E94000460E085E10E9400043A
:100F20000E945A07D093BA00C093B800DF91CF91C6
:100F300008950895E0911A0480911904E81730F497
:100F4000F0E0E258FC4F808190E008958FEF9FEF32
:100F5000089590911A04809119042FEF3FEF98178C
:100F600048F4E92FF0E0E258FC4F208130E09F5F29
:100F700090931A04C90108958091190490911A045C
:100F8000891B990B0895CF92DF92EF92FF920F93F6
:100F90001F93CF93DF937C01CB018A0120917D03C6
:100FA000222389F0EB016B01C40ED51ECC15DD05A3
:100FB00069F06991D701ED91FC910190F081E02DEC
:100FC000C7011995F3CF642F0E943307C801DF9141
:100FD000CF911F910F91FF90EF90DF90CF900895E8
:100FE000CF93DF931F92CDB7DEB7698320917D0346
:100FF0002223F9F020911704203258F021E030E04C
:10100000FC013383228390E080E00F90DF91CF9149
:10101000089580911804E82FF0E0E35AFC4F99817D
:1010200090838F5F809318048093170481E090E091
:10103000ECCF61E0CE0101960E943307F7CFCF924B
:10104000DF92EF92FF920F931F93CF93DF93FC01F8
:10105000C48121E020937D03C0935C0310921804A7
:10106000109217048385682B84ED94E00E94F007AA
:10107000D0911704D13208F092C00E94DB066B01B8
:101080007C018091E803811165C082E08093E803D0
:1010900081E08093EA038FEF8093E70310920C04C2
:1010A000D0930B04ADE5B3E0EBEEF3E080E0D813B2
:1010B00085C010920D0480910D04CC0FC82BC093F5
:1010C0000D048091E903813009F07CC01092E9039E
:1010D0000E94DB066B017C0180910D048093BB00B4
:1010E00080919F039091A003A091A103B091A203CE
:1010F000892B8A2B8B2B99F00E94DB0600919F0392
:101100001091A0032091A1033091A2036C197D09D5
:101110008E099F090617170728073907E0F1809104
:10112000BC0083FDD9CF85EC8093BC000E94DB0618
:101130006B017C018091E803823009F445C0809105
:10114000E7038F3F61F18091E703803241F18091A5
:10115000E70325C080919F039091A003A091A10374
:10116000B091A203892B8A2B8B2B09F48ACF0E9482
:10117000DB0600919F031091A0032091A103309101
:10118000A2036C197D098E099F0906171707280706
:10119000390708F076CF80919E030E94780710925D
:1011A00018041092170410927D03DF91CF911F91C4
:1011B0000F91FF90EF90DF90CF9008959D919193C4
:1011C0008F5F75CF85EEB0CF80919F039091A00384
:1011D000A091A103B091A203892B8A2B8B2B09F438
:1011E000A9CF0E94DB0600919F031091A0032091DC
:1011F000A1033091A2036C197D098E099F0906177E
:1012000017072807390708F095CFC5CF089590E054
:1012100080E00895CF92DF92EF92FF920F931F9399
:1012200081E090E09093500580934F050E94DB068B
:10123000009165051091660520916705309168055C
:101240006B017C01C01AD10AE20AF30A0091510530
:10125000109152052091530530915405C016D106C6
:10126000E206F30618F360936505709366058093B4
:101270006705909368058091590590915A052091D2
:101280004F05309150052130310569F1892B11F15D
:101290008091590590915A05019790935A05809332
:1012A00059058091590590915A0520915705309123
:1012B000580564E070E02530310511F46AE070E013
:1012C0000E94841A1F910F91FF90EF90DF90CF90B2
:1012D0000C943204809155059091560590935A05CF
:1012E00080935905D5CF019690935A05809359055F
:1012F00020915505309156058217930791F610926B
:101300005A0510925905CDCFCF93DF932091550503
:1013100030915605032E000C440B550B60E077E826
:1013200083E993E00E94BA1ACA01B90123E030E0D0
:1013300040E050E00E94BA1A2093510530935205C4
:101340004093530550935405C3E0D0E080910202CE
:10135000882309F460C00E940A0961E084E00E94C9
:10136000000460E085E00E94000461E086E00E94E5
:10137000000460E087E00E94000468E270E080E022
:1013800090E00E9400070E940A0961E084E00E9448
:10139000000460E085E00E94000460E086E00E94B6
:1013A000000461E087E00E94000468E270E080E0F1
:1013B00090E00E9400070E940A0960E084E00E9419
:1013C000000461E085E00E94000460E086E00E9485
:1013D000000461E087E00E94000468E270E080E0C1
:1013E00090E00E9400070E940A0960E084E00E94E9
:1013F000000461E085E00E94000461E086E00E9454
:10140000000460E087E00E94000468E270E080E091
:1014100090E00E940007219709F098CF10920202F5
:1014200060E084E00E94000460E085E00E94000427
:1014300060E086E00E94000460E087E0DF91CF91E9
:101440000C940004CF92DF92EF92FF920F931F93C0
:10145000CF93DF931F921F92CDB7DEB769834A8384
:10146000880F991F0091C5051091C605000F111F27
:10147000EFE6F5E09F012F5635402017310714F4B1
:101480001192F8CF2981FC01E159FA4F21838A8119
:10149000808360E08091C3050E940004101611064D
:1014A00004F501501109F801E159FA4FE080D0909C
:1014B000C105C090BF0588E0F82E6E2D661F662717
:1014C000661F8C2D0E940004EE0C61E08D2D0E94A1
:1014D000000460E08D2D0E940004FA94F110EDCF1D
:1014E000DDCF61E08091C3050F900F90DF91CF9128
:1014F0001F910F91FF90EF90DF90CF900C9400041C
:10150000EF92FF920F931F93CF937C018C0183E0A6
:10151000000F111F8A95E1F701581A4FC1E0F80139
:1015200011928F0140E06C2FC7010E94220ACF5F09
:10153000C930A9F7CF911F910F91FF90EF900895B7
:101540000F931F93CF938C01C62F0E941F086C2FFF
:101550006460C8010E941F086C2F6B7FC8010E9445
:101560001F0883EC90E00197F1F7CF911F910F9145
:1015700008950F931F93CF93DF938C01D62FC42F21
:10158000607F642B0E94A00A80E1D89FB0011124E3
:101590006C2BC801DF91CF911F910F910C94A00A81
:1015A000CF93DF9300D000D01F921F92CDB7DEB74C
:1015B00098E0E1E2F2E0DE01119601900D929A9539
:1015C000E1F79091CF05961708F46FEF262F30E0E2
:1015D000220F331F41E050E04C0F5D1F240F351FD9
:1015E000F9016081680F606840E087EC95E028961B
:1015F0000FB6F894DEBF0FBECDBFDF91CF910C9434
:10160000B90A40E061E087EC95E00E94B90A8BE3FB
:101610009FE10197F1F7089541E00E94B90A81E046
:1016200090E00895FB0101900020E9F73197AF01A8
:10163000461B570BDC01ED91FC910280F381E02DFC
:1016400019948F929F92AF92BF920F931F93CF9353
:10165000DF93CDB7DEB7A1970FB6F894DEBF0FBE0C
:10166000CDBF19A2423008F44AE08E010F5D1F4F32
:10167000842E912CB12CA12CA50194010E94981AC2
:10168000E62FB901CA01EA3004F5E05DD801EE9316
:101690008D01232B242B252B79F790E080E01097E8
:1016A00029F0BD0187E394E00E94120BA1960FB6CA
:1016B000F894DEBF0FBECDBFDF91CF911F910F9188
:1016C000BF90AF909F908F900895E95CDFCFCF924D
:1016D000DF92EF92FF92CF93DF936C01990FEE08A8
:1016E000FF08F7FE21C06DE287E394E00E94CF027D
:1016F000EC0166277727CB016C197D098E099F09BC
:101700004AE00E94210BC80FD91F6BE672E087E305
:1017100094E00E94120B8C0F9D1FDF91CF91FF90E0
:10172000EF90DF90CF9008954AE0C701B6010E9484
:10173000210BEC01EACF0C94120BFC01808191810A
:10174000009711F00C94911B089520916D05309134
:101750006E05232B39F421E0FC018081882361F0A0
:1017600020E00AC0BC018091690590916A050E9441
:10177000041D21E0892BA1F7822F08950F931F9359
:1017800090E0FC01EA57FD4F6491FC01E05CFD4FE5
:10179000E491F0E0EE0FFF1FEA5DFD4F859194911B
:1017A00000E412E42FE030E0462F0E94880E61151D
:1017B00071058105910529F06F5F7F4F8F4F9F4F16
:1017C0009F701F910F9108950F931F93CF93DF93F5
:1017D0008C01EB010E945D198883C80101960E946B
:1017E0005D198983CE01DF91CF911F910F910895EB
:1017F0000F931F93CF93DF93EC018881998100971A
:1018000059F02A813B812617370730F081E0DF91BC
:10181000CF911F910F9108958B016F5F7F4F0E94B1
:101820001A1C009759F0998388831B830A832C81A3
:101830003D81232B59F7FC011082E8CF80E0E7CFF0
:10184000EF92FF920F931F93CF93DF93EC017B01F5
:10185000FB0101900020E9F731978F01061B170B60
:10186000B8010E94F80B28813981811113C021151C
:10187000310519F0C9010E94911B198218821D823D
:101880001C821B821A82DF91CF911F910F91FF90D2
:10189000EF9008951D830C83B701C901DF91CF91AB
:1018A0001F910F91FF90EF900C940D1D0F931F93BC
:1018B000CF93DF93CDB7DEB762970FB6F894DEBF54
:1018C0000FBECDBF8C01CB01F801118210821382B3
:1018D0001282158214824AE0BE016F5F7F4F0E9420
:1018E000EF17BE016F5F7F4FC8010E94200C629608
:1018F0000FB6F894DEBF0FBECDBFDF91CF911F9121
:101900000F91089585ED8093BC0080919F03909185
:10191000A003A091A103B091A2030796A11DB11D40
:1019200023E0B695A795979587952A95D1F72091AD
:10193000BC0024FD03C01092E803089540919F036A
:101940005091A0036091A1037091A203452B462BF7
:10195000472B69F30097A105B10541F025E32A95CE
:10196000F1F700000197A109B109E1CF80919E0331
:101970000C9478071F920F920FB60F9211240BB69A
:101980000F922F933F934F935F936F937F938F9318
:101990009F93AF93BF93EF93FF9387E394E00E94ED
:1019A000AD02FF91EF91BF91AF919F918F917F9188
:1019B0006F915F914F913F912F910F900BBE0F90C0
:1019C0000FBE0F901F9018951F920F920FB60F9297
:1019D00011240BB60F922F938F939F93EF93FF9346
:1019E000E0914704F09148048081E0914D04F0912A
:1019F0004E0482FD1DC09081809150048F5F8F73D3
:101A000020915104821741F0E0915004F0E0E95C2C
:101A1000FB4F958F80935004FF91EF919F918F9191
:101A20002F910F900BBE0F900FBE0F901F90189527
:101A30008081F2CF1F920F920FB60F9211242F9335
:101A40003F938F939F93AF93BF9380913304909173
:101A50003404A0913504B091360430910E0423E093
:101A6000230F2D3758F50196A11DB11D20930E04AB
:101A70008093330490933404A0933504B0933604D8
:101A800080910F0490911004A0911104B091120460
:101A90000196A11DB11D80930F0490931004A09393
:101AA0001104B0931204BF91AF919F918F913F9118
:101AB0002F910F900FBE0F901F90189526E8230FBF
:101AC0000296A11DB11DD2CF1F920F920FB60F9299
:101AD00011240BB60F922F933F934F935F936F9305
:101AE0007F938F939F93AF93BF93EF93FF938091D7
:101AF000B900887F803609F44DC008F040C08832B4
:101B000009F4A9C028F5803109F49DC0C8F48823E0
:101B100009F4FBC0883009F496C0FF91EF91BF91A2
:101B2000AF919F918F917F916F915F914F913F9175
:101B30002F910F900BBE0F900FBE0F901F90189516
:101B4000883109F488C0803241F78093E70314C0DC
:101B5000803409F49DC040F48033B9F38833E9F64A
:101B60008093E70385ECB0C0803509F485C08835E3
:101B700009F496C0883489F60E94820CCECF883949
:101B800009F48CC038F5883729F050F4883611F004
:101B9000803719F683E08093E8031092E60357C07C
:101BA000883809F47BC0803919F0803809F0B5CF46
:101BB0008091E603803208F071C0E091E60381E095
:101BC0008E0F8093E6038091BB00F0E0EA53FC4F58
:101BD00080833DC0803B39F0E0F4803A09F479C05D
:101BE000883A09F09ACF84E08093E8031092C50305
:101BF0001092C403E0911504F09116041995809198
:101C0000C40381110FC081E08093C4031092A40328
:101C100009C0803C09F4A6CF883C09F4A3CF883BD7
:101C200009F07BCFE091C50381E08E0F8093C5035F
:101C3000F0E0EC55FC4F80818093BB009091C50390
:101C40008091C40329C080910D048093BB0085EC72
:101C50008093BC0062CF90910C0480910B04981784
:101C600058F5E0910C0481E08E0F80930C04F0E0B5
:101C7000E551FC4F8081E9CFE0910C0481E08E0FAB
:101C800080930C048091BB00F0E0E551FC4F808311
:101C900090910C0480910B049817C8F285E8D8CF76
:101CA000E0910C0481E08E0F80930C048091BB00C6
:101CB000F0E0E551FC4F80838091EA0381115CCF15
:101CC00081E08093E90384EA8093BC001092E803EA
:101CD00024CF85EC8093BC001092E8038091E6034A
:101CE000803230F4E091E603F0E0EA53FC4F1082DA
:101CF0006091E60370E0E0911304F091140486EC27
:101D000093E019951092E60308CF1092E70334CFC1
:101D1000CF92DF92EF92FF920F931F93E82FF92F4C
:101D200005C0015011092109310961F19081962303
:101D30009417B9F305C0015011092109310911F1B6
:101D4000908196239413F7CFC12CD12CE12CF12C48
:101D50000AC08FEFC81AD80AE80AF80A0C151D0540
:101D60002E053F0579F080818623841791F36C2D31
:101D70007D2D8E2D9F2D1F910F91FF90EF90DF9065
:101D8000CF90089560E070E080E090E01F910F91A7
:101D9000FF90EF90DF90CF900895CF93DF93109254
:101DA0003A041092390488EE93E0A0E0B0E080930A
:101DB0003B0490933C04A0933D04B0933E0425E380
:101DC00032E0309338042093370425EC30E0309330
:101DD00044042093430424EC30E0309346042093E1
:101DE000450420EC30E0309348042093470421EC74
:101DF00030E030934A042093490422EC30E03093E1
:101E00004C0420934B0426EC30E030934E04209396
:101E10004D041092500410925104109252041092EA
:101E200053041092D7041092D6048093D804909350
:101E3000D904A093DA04B093DB0487E492E0909392
:101E4000D5048093D4041092CA051092C90583E684
:101E500092E09093C8058093C70587E28093CB05F5
:101E600080E18093D00582E08093D1051092D20565
:101E7000C3E3D0E0D093C005C093BF0584E390E0F6
:101E80009093C2058093C10585E390E09093C405CB
:101E90008093C30581E090E09093C6058093C505CB
:101EA00061E083E30E94440561E08091C1050E94E6
:101EB000440561E08091C3050E94440561E0809182
:101EC000C3050E940004D093C005C093BF05EFE78F
:101ED000F5E08FEB95E011928E179F07E1F7D0E0C8
:101EE000C0E08091C5059091C605C817D90774F563
:101EF00040E06FE0CE010E94220A8091C5059091DA
:101F0000C605C817D9072CF447E06BE0CE010E9444
:101F1000220A40E069E0CE010E94220A8091C505B4
:101F20009091C605C817D9071CF4CE010E94800AFB
:101F30008091C5059091C605C817D9072CF440E0DB
:101F40006CE0CE010E94220A2196CBCF10926A0546
:101F50001092690510926C0510926B0510926E0537
:101F600010926D0570E060E089E695E00E94F80B44
:101F70002091690530916A058111ABC021153105A9
:101F800019F0C9010E94911B10926A05109269050F
:101F900010926E0510926D0510926C0510926B05F3
:101FA00010925A05109259051092500510924F0543
:101FB00010926505109266051092670510926805EB
:101FC00084E690E0909356058093550588E090E074
:101FD00090935C0580935B0589E090E090935E05AB
:101FE00080935D058AE090E09093600580935F05A3
:101FF0008BE090E0909362058093610561E088E05A
:102000000E94440561E080915D050E94440561E005
:1020100080915F050E94440561E0809161050E9406
:102020004405109264051092630584E090E090935B
:102030005805809357051092E2041092E60410921E
:10204000E5041092E70489E592E09093E10480931F
:10205000E004ECEFF4E088E395E010821482138250
:10206000158236968E179F07C1F787E092E090930E
:1020700043058093420583E092E090934505809369
:10208000440584E080934605809347058BE092E009
:1020900090934105809340058AE090E09093490534
:1020A0008093480584EF91E090934B0580934A0517
:1020B00010924E0510924D0510923C0510923D0570
:1020C00010923E0510923F0510924C05DF91CF9182
:1020D000089510926E0510926D056DE672E0C901CB
:1020E0000E940D1D5DCFCF93DF9300D000D000D0B4
:1020F0001F92CDB7DEB7789484B5826084BD84B575
:10210000816084BD85B5826085BD85B5816085BDF2
:1021100080916E00816080936E00109281008091AA
:102120008100826080938100809181008160809332
:102130008100809180008160809380008091B10057
:1021400084608093B1008091B00081608093B00082
:1021500080919100826080939100809191008160D4
:102160008093910080919000816080939000809195
:10217000A10082608093A1008091A1008160809382
:10218000A1008091A00081608093A0008091210136
:1021900082608093210180912101816080932101DF
:1021A0008091200181608093200180917A00846079
:1021B00080937A0080917A00826080937A00809187
:1021C0007A00816080937A0080917A0080688093A1
:1021D0007A001092C100E0914704F091480482E037
:1021E0008083E0914304F09144041082E09145041F
:1021F000F09146048FEC808310924F04E0914B04E1
:10220000F0914C0486E08083E0914904F0914A0407
:10221000808180618083E0914904F0914A0480814B
:1022200088608083E0914904F0914A04808180684D
:102230008083E0914904F0914A0480818F7D8083FE
:1022400061E088E20E94440510921A041092190479
:1022500010921804109217040E945A078EE292E01E
:1022600090931604809315048FE292E090931404E7
:10227000809313041092CC058091D105823018F020
:1022800098E09093CC058093CF0562E370E080E006
:1022900090E00E9400076091D20587EC95E00E94D3
:1022A0001F0868EE73E080E090E00E94000760E3A2
:1022B00087EC95E00E94A00A0BE416E4C8010197A0
:1022C000F1F760E387EC95E00E94A00AC80101974E
:1022D000F1F760E387EC95E00E94A00A83E592E0C5
:1022E0000197F1F760E287EC95E00E94A00A609107
:1022F000CC05606240E087EC95E00E94B90A84E07A
:102300008093CD0540E06CE087EC95E00E94B90A2F
:102310000E94010B82E08093CE0540E066E087ECEE
:1023200095E00E94B90A40E062E087EC95E00E94E7
:10233000B90A8BE39FE10197F1F78091C505909170
:10234000C6051816190634F441E06CE090E080E010
:102350000E94220A8091C5059091C605181619069B
:1023600034F44FE06AE090E080E00E94220A80911D
:10237000C5059091C6051816190624F490E080E072
:102380000E94800A61E084E00E94440561E085E0EB
:102390000E94440561E086E00E94440561E087E018
:1023A0000E94440561E08CE00E94440561E08DE0FC
:1023B0000E94440561E08EE00E94440561E08FE0E8
:1023C0000E94440561E080E10E94440561E08EE1E5
:1023D0000E94440560E08FE10E94440560E072E0E5
:1023E00090E080E00E94E40BFC0180819181909359
:1023F00001028093000267E274E08AE090E00E94AC
:10240000E40BFC0180819181909328048093270440
:1024100065E274E084E190E00E94E40BFC018081BD
:102420009181909326048093250463E274E08EE109
:1024300090E00E94E40BFC01808191819093240440
:102440008093230461E274E088E290E00E94E40B50
:10245000FC0180819181909322048093210482E386
:1024600090E00E945D1980931B0483E390E00E943A
:102470005D1980931C0484E390E00E945D198093B1
:102480001D0485E390E00E945D1980931E048091F5
:102490000002909101020E94670B809127049091A5
:1024A00028040E94670B80912504909126040E94C5
:1024B000670B80912304909124040E94670B809104
:1024C0002104909122040E94670BC0901B04D090BD
:1024D0001C04E0901D04F0901E04A7019601C701A2
:1024E000B6010E947F1A6EE672E081111BC04601A0
:1024F0005701E894B7F82FEF3FEF4FE75FE7C501CB
:10250000B4010E947F1A811171C12FEF3FEF4FE795
:102510005FE7C501B4010E94391818160CF066C1B6
:1025200062E772E087E394E00E94120B6BE672E0D0
:1025300087E394E00E94120B88E0E9E2F2E0DE011A
:10254000119601900D928A95E1F70E94010B40E0EF
:1025500060E487EC95E00E94B90A8E010F5F1F4F7F
:102560007E01F9E0EF0EF11CF80161918F0187EC1B
:1025700095E00E940C0BE016F106B1F760E082E0F6
:102580000E94D00A60E087EC95E00E940C0B60E0AE
:1025900083E00E94D00A6AE772E087EC95E00E942F
:1025A0009B0B60E08AE00E94D00A60E087EC95E037
:1025B0000E940C0B61E081E00E94D00A62E872E0A8
:1025C00087EC95E00E949B0B68E873E180E090E067
:1025D0000E94000733E0832E912C0E94010B60E0E3
:1025E00080E00E94D00A6DE872E087EC95E00E94DE
:1025F0009B0B61E080E00E94D00A0E948405882342
:10260000E1F38A3209F0A2C10E94010B60E080E090
:102610000E94D00A6CE972E087EC95E00E949B0B67
:1026200061E080E00E94D00A64EA72E087EC95E005
:102630000E949B0B8BE892E00E94A50B882309F473
:102640004CC141E050E05093200440931F0481E0CE
:102650008093320480913204882309F428C30E94B5
:10266000010B60E080E00E94D00A6BEC72E087EC26
:1026700095E00E949B0B61E080E00E94D00A6DE62D
:1026800072E089E695E00E94200CEE24E394F12CA0
:1026900080913204882309F40AC30E948405D82E4D
:1026A0008823B1F39AE28913BDC287ED92E00E94BC
:1026B000A50B182F811119C08BED92E00E94A50B7C
:1026C000811113C08FED92E00E94A50B81110DC006
:1026D00083EE92E00E94A50B811107C087EE92E085
:1026E0000E94A50B882309F471C1A0900002B0904C
:1026F0000102A114B10411F41111BFC1C09027044B
:10270000D0902804C114D10431F48BED92E00E94E2
:10271000A50B8111DAC16090250470902604611424
:10272000710431F48FED92E00E94A50B8111E0C19C
:1027300040902304509024044114510431F483EE5A
:1027400092E00E94A50B8111E6C1209021043090F7
:1027500022042114310431F487EE92E00E94A50B8B
:102760008111ECC18091690590916A0520911F0447
:1027700030912004870101501109A7014F5F5F4F7D
:102780005A8749872E153F0509F0EFC1009709F4D4
:10279000E8C10E94C817000F111FF801E55DFB4F4B
:1027A00071836083E984FA840E94010B60E080E019
:1027B0000E94D00A66E373E087EC95E00E949B0BD1
:1027C00061E080E00E94D00A61E473E087EC95E06C
:1027D0000E949B0B109232046DE672E089E695E050
:1027E0000E94200C81E08093310469C12FEF3FEFFC
:1027F0004FE75FE4C701B6010E947A1A18161CF46D
:1028000066E772E08FCE2FEF3FEF4FE75FECC70137
:10281000B6010E94391887FDF3CF20E030E0A9010E
:10282000C701B6010E94391887FF09C06DE287E32E
:1028300094E00E94CF02F7FAF094F7F8F0942AE0BF
:1028400037ED43EA5BE3C701B6010E9466194B010D
:102850005C010E944B1A6B017C010E943E189B0197
:10286000AC01C501B4010E9465194B015C014AE04D
:10287000C701B6010E94210B6EE287E394E00E943B
:10288000CF0220E030E040E251E4C501B4010E94F3
:102890009F184B015C010E944B1A6B01F12CE12C3B
:1028A0004AE0C701B6010E94210BC701B6010E9490
:1028B0003E189B01AC01C501B4010E94651920E0DE
:1028C00030E040E251E40E949F180E944B1A90E0D1
:1028D00080E04AE00E94210B29CE80E892E00E942D
:1028E000A50B882339F082E090E090932004809338
:1028F0001F04ADCE89ED92E00E94A50B882329F03C
:102900009092200480921F04A2CE10922004109274
:102910001F046DE672E089E695E00E94200C0E949B
:10292000010B60E080E00E94D00A62EB72E087EC6D
:1029300095E00E949B0B61E080E00E94D00A68EE67
:1029400073E080E090E00E94000747CE8332B9F444
:102950000E94010B60E080E00E94D00A6CE972E006
:1029600087EC95E00E949B0B61E080E00E94D00A1A
:1029700061EC72E087EC95E00E949B0B6BCE898343
:102980001A8200916D0510916E050F5F1F4FB801FF
:1029900089E695E00E94F80B882399F0209169055B
:1029A00030916A0580916D0590916E05BE016F5F53
:1029B0007F4F820F931F0E940D1D10936E05009391
:1029C0006D0589E695E00E945D0217CE0E94010B1D
:1029D00060E080E00E94D00A6BEE72E087EC95E048
:1029E0000E949B0B61E080E00E94D00A65EF72E0DC
:1029F00087EC95E00E949B0B6DE672E089E695E01E
:102A00000E94200C68EE73E080E090E00E940007D6
:102A1000E4E0EE16F1040CF03BCE0E94010B60E006
:102A200080E00E94D00A60E081E00E94D00A68E461
:102A300073E087EC95E00E949B0B60E08AE00E94C7
:102A4000D00AB701CE0101960E94560CCE01019624
:102A50000E945D02CE0101960E949D0B60E08BE01A
:102A60000E94D00A65ED72E087EC95E00E949B0B16
:102A700061E080E00E94D00A0BCE0E94010B60E072
:102A800080E00E94D00A6CEF72E087EC95E00E9433
:102A90009B0B61E080E00E94D00A68E073E087EC65
:102AA00095E00E949B0B6DE672E089E695E00E943E
:102AB000200C68EE73E080E090E00E94000744E0A4
:102AC000E416F1040CF0E4CDA8CF0E94010B60E005
:102AD00080E00E94D00A6CEF72E087EC95E00E94E3
:102AE0009B0B61E080E00E94D00A60E173E0D7CFE9
:102AF0000E94010B60E080E00E94D00A6CEF72E05F
:102B000087EC95E00E949B0B61E080E00E94D00A78
:102B10006BE173E0C4CF0E94010B60E080E00E9493
:102B2000D00A6CEF72E087EC95E00E949B0B61E0AD
:102B300080E00E94D00A63E273E0B1CF0E94010BF3
:102B400060E080E00E94D00A6CEF72E087EC95E0D4
:102B50000E949B0B61E080E00E94D00A69E273E072
:102B60009ECF60E070E0CB0116CE0097F9F00E9496
:102B7000C817000F111FF801E55DFB4F71836083DB
:102B800087ED92E00E94A50B8823A1F051E0A51AE1
:102B9000B108B0920102A09200026DE672E089E6EF
:102BA00095E00E94200CE984FA8489CF60E070E00F
:102BB000CB01DFCF8BED92E00E94A50B882341F083
:102BC00081E0C81AD108D0922804C0922704E5CF2A
:102BD0008FED92E00E94A50B882341F091E0691AE5
:102BE00071087092260460922504D7CF83EE92E09C
:102BF0000E94A50B882341F0E1E04E1A5108509243
:102C0000240440922304C9CF87EE92E00E94A50BD2
:102C1000882319F2F1E02F1A310830922204209211
:102C20002104BBCF53E2851319C00E94010B60E061
:102C300080E00E94D00A6CE972E087EC95E00E9487
:102C40009B0B61E080E00E94D00A61EC72E087ECAF
:102C500095E00E949B0B109232041ACD89831A8250
:102C600000916D0510916E050F5F1F4FB80189E649
:102C700095E00E94F80B882399F020916905309126
:102C80006A0580916D0590916E05BE016F5F7F4F63
:102C9000820F931F0E940D1D10936E0500936D050A
:102CA00041E06D2D87EC95E00E94B90AF1CC80914E
:102CB0003104882309F451C180912B0490912C0494
:102CC00020912D0430912E0440912F045091300416
:102CD000281739070CF044C1722F632F4817590782
:102CE0000CF445C19A01472F562F70E060E0281779
:102CF00039070CF4ADC0672B09F0AFC0782F692FEE
:102D0000CA0170932D0460932E04309330042093F5
:102D10002F0490932C0480932B0460E08EE10E949A
:102D20000004C4010197F1F761E08EE10E94000404
:102D300083E290E00197F1F760E08EE10E940004E9
:102D40008FE10E94BE0B072E000C880B990B0E948E
:102D5000401826E933E44BE05DE30E949F1820E031
:102D600030E040EA51E40E94D2190E94441A709364
:102D70002A04609329040BE214E0FF24F394F80181
:102D8000819191918F018B37910509F083C00E9449
:102D90008409F092020261E08CE00E94000468EB7A
:102DA0007BE080E090E00E94000760E08CE00E9401
:102DB0000004F4E001331F0711F70E94840981E049
:102DC000809302021092310461E088E20E940004C4
:102DD00060ED77E080E090E00E94000760E088E22C
:102DE0000E9400048091290490912A044A970CF0D3
:102DF000A2C060E08EE10E940004C4010197F1F7D7
:102E000061E08EE10E94000483E290E00197F1F717
:102E100060E08EE10E9400048FE10E94BE0B072E4D
:102E2000000C880B990B0E94401826E933E44BE014
:102E30005DE30E949F1820E030E040EA51E40E94E8
:102E4000D2190E94441A70932A0460932904CACFAD
:102E5000782F692FC901272F362F841795072CF457
:102E6000782F692FCA01472F562F281739072CF4BE
:102E7000782F692FC901272F362F90932E04809326
:102E80002D043093300420932F0450932C0440934E
:102E90002B0443CF8C37910589F40E948409F0926A
:102EA000020261E08DE00E94000468EB7BE080E0BC
:102EB00090E00E94000760E08DE079CF8D379105AA
:102EC00089F40E948409F092020261E08EE00E947F
:102ED000000468EB7BE080E090E00E94000760E087
:102EE0008EE065CF8E37910589F40E948409F092B7
:102EF000020261E08FE00E94000468EB7BE080E06A
:102F000090E00E94000760E08FE051CF8F3791057D
:102F100009F04FCF0E948409F092020261E080E143
:102F20000E94000468EB7BE080E090E00E940007D4
:102F300060E080E13CCF62E573E087E394E00E94CB
:102F40009B0B10922C0410922B0410922E041092C2
:102F50002D041092300410922F040E943C033DCBAC
:102F6000421753073CF0722F632F9A01CACE9C017F
:102F7000872F962F61E070E0481759070CF4B7CE01
:102F8000782F692FCA01AFCE89E695E00C949D0B8E
:102F90001F93FC0199278827BC01E89411911032F6
:102FA000E9F3193010F01E30C8F31B3251F01D3216
:102FB00049F4689406C00E94FA17610F711D811DC3
:102FC000911D119110531A30B0F33EF490958095F5
:102FD000709561957F4F8F4F9F4F1F910895BB272D
:102FE0004A3031F4992322F4BDE2909581959F4FA8
:102FF0000C941018592F482F372F262F660F771F44
:10300000881F991F660F771F881F991F620F731FF4
:10301000841F951F660F771F881F991F0895BB2770
:10302000FB015527AA27880F991FAA1FA41710F084
:10303000A41B83955051B9F7A05DAA3308F0A95D90
:10304000A193009779F7B111B1931192CB010C9430
:103050002918DC01FC01672F71917723E1F7329782
:1030600004C07C916D9370836291AE17BF07C8F363
:1030700008950E947B1808F481E00895E89409C03F
:1030800097FB3EF490958095709561957F4F8F4F9B
:103090009F4F9923A9F0F92F96E9BB279395F695B1
:1030A000879577956795B795F111F8CFFAF4BB0F2F
:1030B00011F460FF1BC06F5F7F4F8F4F9F4F16C093
:1030C000882311F096E911C0772321F09EE8872F1D
:1030D000762F05C0662371F096E8862F70E060E0D9
:1030E0002AF09A95660F771F881FDAF7880F969552
:1030F000879597F90895990F0008550FAA0BE0E8F6
:10310000FEEF16161706E807F907C0F012161306A9
:10311000E407F50798F0621B730B840B950B39F4E9
:103120000A2661F0232B242B252B21F408950A264F
:1031300009F4A140A6958FEF811D811D08950E947D
:10314000B2180C9423190E94151938F00E941C190A
:1031500020F0952311F00C940C190C9412191124E1
:103160000C9457190E94341970F3959FC1F3950F71
:1031700050E0551F629FF001729FBB27F00DB11DFB
:10318000639FAA27F00DB11DAA1F649F6627B00D8B
:10319000A11D661F829F2227B00DA11D621F739F74
:1031A000B00DA11D621F839FA00D611D221F749F82
:1031B0003327A00D611D231F849F600D211D822FC9
:1031C000762F6A2F11249F5750409AF0F1F08823F0
:1031D0004AF0EE0FFF1FBB1F661F771F881F91501D
:1031E0005040A9F79E3F510580F00C940C190C94A7
:1031F00057195F3FE4F3983ED4F38695779567952A
:10320000B795F795E7959F5FC1F7FE2B880F911D46
:103210009695879597F9089597F99F6780E870E0EC
:1032200060E008959FEF80EC089500240A9416163C
:10323000170618060906089500240A9412161306A4
:10324000140605060895092E0394000C11F4882332
:1032500052F0BB0F40F4BF2B11F460FF04C06F5F4E
:103260007F4F8F4F9F4F089557FD9058440F551F24
:1032700059F05F3F71F04795880F97FB991F61F0F8
:103280009F3F79F087950895121613061406551F6F
:10329000F2CF4695F1DF08C0161617061806991FDB
:1032A000F1CF86957105610508940895E894BB27D0
:1032B00066277727CB0197F90895F999FECF92BD3C
:1032C00081BDF89A992780B508955058BB27AA2741
:1032D0000E947D190C9423190E94151938F00E9440
:1032E0001C1920F039F49F3F19F426F40C9412199C
:1032F0000EF4E095E7FB0C940C19E92F0E943419A9
:1033000058F3BA17620773078407950720F079F41A
:10331000A6F50C9456190EF4E0950B2EBA2FA02D9D
:103320000B01B90190010C01CA01A0011124FF2772
:10333000591B99F0593F50F4503E68F11A16F0406D
:10334000A22F232F342F4427585FF3CF469537956C
:103350002795A795F0405395C9F77EF41F16BA0B31
:10336000620B730B840BBAF09150A1F0FF0FBB1FDF
:10337000661F771F881FC2F70EC0BA0F621F731F28
:10338000841F48F4879577956795B795F7959E3F85
:1033900008F0B0CF9395880F08F09927EE0F979516
:1033A000879508950E94E6190C9423190E941C1910
:1033B00058F00E94151940F029F45F3F29F00C9451
:1033C0000C1951110C9457190C9412190E943419AC
:1033D00068F39923B1F3552391F3951B550BBB2744
:1033E000AA2762177307840738F09F5F5F4F220F89
:1033F000331F441FAA1FA9F335D00E2E3AF0E0E880
:1034000032D091505040E695001CCAF72BD0FE2FC9
:1034100029D0660F771F881FBB1F2617370748075D
:10342000AB07B0E809F0BB0B802DBF01FF27935815
:103430005F4F3AF09E3F510578F00C940C190C94B4
:1034400057195F3FE4F3983ED4F3869577956795D7
:10345000B795F7959F5FC9F7880F911D969587954A
:1034600097F90895E1E0660F771F881FBB1F621769
:1034700073078407BA0720F0621B730B840BBA0B27
:10348000EE1F88F7E09508950E944B1A6894B111D9
:103490000C94571908950E943C1988F09F5798F092
:1034A000B92F9927B751B0F0E1F0660F771F881F49
:1034B000991F1AF0BA95C9F714C0B13091F00E9463
:1034C0005619B1E008950C945619672F782F882764
:1034D000B85F39F0B93FCCF3869577956795B3958A
:1034E000D9F73EF490958095709561957F4F8F4FF9
:1034F0009F4F08950E947B1808F48FEF08950E9453
:103500007B18880B990B089597FB072E16F40094EF
:1035100007D077FD09D00E94E11A07FC05D03EF4E0
:10352000909581959F4F0895709561957F4F08956F
:10353000A1E21A2EAA1BBB1BFD010DC0AA1FBB1FB7
:10354000EE1FFF1FA217B307E407F50720F0A21B29
:10355000B30BE40BF50B661F771F881F991F1A9496
:1035600069F760957095809590959B01AC01BD01C0
:10357000CF010895052E97FB1EF400940E94D11AE6
:1035800057FD07D00E94981A07FC03D04EF40C9404
:10359000D11A50954095309521953F4F4F4F5F4F31
:1035A000089590958095709561957F4F8F4F9F4FAF
:1035B0000895EE0FFF1F881F8BBF0790F691E02D37
:1035C0001994AA1BBB1B51E107C0AA1FBB1FA6175A
:1035D000B70710F0A61BB70B881F991F5A95A9F7BC
:1035E00080959095BC01CD0108950F931F93CF93C3
:1035F000DF938230910510F482E090E0E091D505F0
:10360000F091D60530E020E0B0E0A0E0309799F4EA
:103610002115310509F44AC0281B390B2430310526
:10362000D8F58A819B816115710589F1FB0193832E
:103630008283FE0111C040815181028113814817AC
:103640005907E0F04817590799F4109761F012965E
:103650000C93129713961C933296CF01DF91CF9162
:103660001F910F9108950093D5051093D605F4CFBF
:103670002115310551F04217530738F0A901DB013C
:103680009A01BD01DF01F801C1CFEF01F9CF90939D
:10369000D6058093D505CDCFFE01E20FF31F8193B0
:1036A00091932250310939832883D7CF2091D305B4
:1036B0003091D405232B41F420911D0230911E023C
:1036C0003093D4052093D30520911B0230911C0226
:1036D0002115310541F42DB73EB740911F0250919D
:1036E0002002241B350BE091D305F091D405E2179D
:1036F000F307A0F42E1B3F0B2817390778F0AC0115
:103700004E5F5F4F2417350748F04E0F5F1F5093F1
:10371000D4054093D305819391939FCFF0E0E0E0EF
:103720009CCFCF93DF930097E9F0FC01329713828F
:103730001282A091D505B091D605ED0130E020E0D0
:103740001097A1F420813181820F931F2091D3051E
:103750003091D4052817390709F061C0F093D405DA
:10376000E093D305DF91CF910895EA01CE17DF07EB
:10377000E8F54A815B819E0141155105B1F7E901E8
:10378000FB83EA8349915991C40FD51FEC17FD07BC
:1037900061F4808191810296840F951FE9019983DC
:1037A0008883828193819B838A83F0E0E0E0129694
:1037B0008D919C9113970097B9F52D913C9111979C
:1037C000CD010296820F931F2091D3053091D4052D
:1037D0002817390739F6309751F51092D60510920F
:1037E000D505B093D405A093D305BCCFD383C283B2
:1037F00040815181840F951FC817D90761F44E5F2E
:103800005F4F88819981480F591F518340838A8176
:103810009B81938382832115310509F0B0CFF0930A
:10382000D605E093D5059ECFFD01DC01C0CF138204
:103830001282D7CF4F925F926F927F928F929F9218
:10384000AF92BF92CF92DF92EF92FF920F931F93AE
:10385000CF93DF938C01009799F4CB01DF91CF9147
:103860001F910F91FF90EF90DF90CF90BF90AF909E
:103870009F908F907F906F905F904F900C94F51A6F
:10388000FC01E60FF71F9C0122503109E217F307F4
:1038900008F4AEC0D901CD91DC911197C617D707B6
:1038A00020F1C530D10578F0CE010497861797072F
:1038B00050F0C61BD70B2297C193D1936D937C9385
:1038C000CF010E94911BC801DF91CF911F910F91F1
:1038D000FF90EF90DF90CF90BF90AF909F908F9030
:1038E0007F906F905F904F9008955B01AC1ABD0A76
:1038F0004C018C0E9D1EA091D505B091D605512C82
:10390000412CF12CE12C109731F58091D305909149
:10391000D4058815990509F05CC04616570608F0CD
:1039200058C080911B0290911C02009741F48DB702
:103930009EB740911F0250912002841B950BE817FF
:10394000F90708F055C0F093D405E093D305F901C9
:1039500071836083B8CF8D919C91119712966C9072
:10396000129713967C901397A815B90559F56C0119
:1039700042E0C40ED11CCA14DB0420F1AC014A1988
:103980005B09DA011296159780F062827382518387
:103990004083D9016D937C93E114F10471F0D70158
:1039A0001396FC93EE9312978ECF22968C0F9D1F49
:1039B000F90191838083F301EFCFF093D605E09373
:1039C000D50581CF4816590608F42C017D01D30195
:1039D0009ACFCB010E94F51A7C01009749F0AE0105
:1039E000B8010E94FB1CC8010E94911B87016BCF8C
:1039F00010E000E068CFFB01DC0102C001900D92F5
:103A000041505040D8F70895FB01DC018D910190A1
:103A100080190110D9F3990B0895FB01DC01019085
:103A20000D920020E1F7089511E0C7E6D1E000E033
:103A300006C0802FFE010E94D91A2196011DC836AA
:0C3A4000D10780E00807A9F7F894FFCF39
:103A4C000200011718191A292A2B2C313233413450
:103A5C00353642373839432A3023440000D70580A5
:103A6C00000000400014005400000E11111F1B1F19
:103A7C001F00000000CF02300266021C0397027583
:103A8C0002890200000000F007C30707099907BC70
:103A9C0007A9079A070000000080052E04FD03000B
:103AAC000000000C0B3002070906090D0A006E61BC
:103ABC006E00696E66006F766600475255504F2057
:103ACC00320050524F594543544F203100456C69D8
:103ADC006A6120756E207661736F3A00496E677269
:103AEC0065736F00436F7272656374616D656E749C
:103AFC0065005661736F206E6F206578697374650D
:103B0C000043616E63656C61646F005361626F7238
:103B1C00204E6F2E313A00313233003132340031C5
:103B2C0032350031323600313237004E6F20657835
:103B3C00697374650068656C61646F00657869739E
:103B4C0074656E63696173006C696D6F6E20300013
:103B5C007661696E696C6C612030006672657361A8
:103B6C002030007576612030006E61706F6C697466
:103B7C00616E6F203000507265706172616E646F9F
:103B8C000048656C61646F005361626F72204E6F08
:0C3B9C002E00726574697261646F000095
:00000001FF
