:100000000C9449010C947A010C947A010C947A01B5
:100010000C947A010C947A010C947A010C947A0174
:100020000C947A010C947A010C947A010C947A0164
:100030000C947A010C947A010C947A010C947A0154
:100040000C947A010C947A010C947A010C947A0144
:100050000C947A010C947A010C947A010C94FB06AE
:100060000C947A010C94C5060C949B060C947A01AE
:100070000C947A010C947A010C947A010C947A0114
:100080000C947A010C947A010C947A010C947A0104
:100090000C947A010C947A010C947A010C947A01F4
:1000A0000C947A010C947A010C947A010C947A01E4
:1000B0000C947A010C947A010C947A010C947A01D4
:1000C0000C947A010C947A010C947A010C947A01C4
:1000D0000C947A010C947A010C947A010C947A01B4
:1000E0000C947A010C94E5020C941E040C942C03DD
:1000F0000C9401040C948A070C94CE030C94B80160
:100100000C9424030C9428030C9432030C942504BF
:100110000C9412020C941E030C9410030C94030311
:100120000C941C040C94CC010C9406030C94E00277
:100130000C94F7020C9436030C94DA010C94160319
:100140000C9449040C947C010C9442040C94DA0342
:100150000C94A9010C94EB030C94FB020C94FF0289
:100160000C941A030C9431040C940C030C945F024D
:1001700000002100240027002A002D003000330059
:1001800001010000040107010A010000220025000E
:1001900028002B002E003100340002010000050170
:1001A00008010B0100000A0B02090C0D0E080703E1
:1001B000040100000000000000000000000000003A
:1001C000000000000000000000000000000000002F
:1001D00012111000000000000000000000000000EC
:1001E00000000000000000000000000020002300CC
:1001F000260029002C002F0032000001000003011E
:100200000601090105050505070508080808020299
:1002100002020A0A080804040404010101010101A0
:1002200001010303030303030303040707070C0C83
:100230000C0C0C0C0C0C020202020606060606064A
:1002400006060B0B0B0B0B0B0B0B010210202008EF
:100250000810204010204080020102010804020121
:100260000102040810204080804020100804020190
:1002700080040201804020100804020108040201E9
:100280000102040810204080010204081020408070
:100290008A0711241FBECFEFD1E2DEBFCDBF00E041
:1002A0000CBF12E0A0E0B2E0EEE2F9E100E00BBF2B
:1002B00002C007900D92A431B107D9F723E0A4E161
:1002C000B2E001C01D92A233B207E1F711E0C9E428
:1002D000D1E000E006C021970109802FFE010E94B5
:1002E000790CC834D10780E00807A9F70E94A30859
:1002F0000C94950C0C940000AF92BF92CF92DF92B9
:10030000EF92FF920F931F93CF93DF936C017B01CA
:100310008B01040F151FEB015E01AE18BF08C0175B
:10032000D10759F06991D601ED91FC910190F081CE
:10033000E02DC6011995892B79F7C501DF91CF9181
:100340001F910F91FF90EF90DF90CF90BF90AF90F3
:100350000895FC01538D448D252F30E0842F90E0CB
:10036000821B930B541710F0CF96089501970895B0
:10037000FC01918D828D981761F0A28DAE0FBF2F79
:10038000B11D5D968C91928D9F5F9F73928F90E0CF
:1003900008958FEF9FEF0895FC01918D828D98173E
:1003A00031F0828DE80FF11D858D90E008958FEF7B
:1003B0009FEF0895FC01918D228D892F90E0805C44
:1003C0009F4F821B91098F739927089583E292E0D2
:1003D0000E94DA0121E0892B09F420E0822F0895A0
:1003E000FC01A48DA80FB92FB11DA35ABF4F2C91AA
:1003F000848D90E001968F739927848FA689B789A1
:100400002C93A089B1898C91837080648C93938D97
:10041000848D981306C00288F389E02D80818F7D3A
:1004200080830895EF92FF920F931F93CF93DF93F2
:10043000EC0181E0888F9B8D8C8D98131AC0E88920
:10044000F989808185FF15C09FB7F894EE89FF89EF
:100450006083E889F98980818370806480839FBF8D
:1004600081E090E0DF91CF911F910F91FF90EF908D
:100470000895F62E0B8D10E00F5F1F4F0F7311279D
:10048000E02E8C8D8E110CC00FB607FCFACFE889D8
:10049000F989808185FFF5CFCE010E94F001F1CF6F
:1004A000EB8DEC0FFD2FF11DE35AFF4FF0829FB74C
:1004B000F8940B8FEA89FB8980818062CFCFCF933C
:1004C000DF93EC01888D8823B9F0AA89BB89E8897C
:1004D000F9898C9185FD03C0808186FD0DC00FB622
:1004E00007FCF7CF8C9185FFF2CF808185FFEDCFA0
:1004F000CE010E94F001E9CFDF91CF91089580E015
:1005000090E0892B29F00E94E60181110E940000F1
:1005100080E090E0892B49F080E090E0892B29F081
:100520000E94000081110E94000080E090E0892B71
:1005300049F080E090E0892B29F00E9400008111B1
:100540000E94000080E090E0892B49F080E090E07C
:10055000892B29F00E94000081110C94000008955D
:10056000282F30E0F901EC55FE4F9491F901E65B3C
:10057000FD4F44912C5F3D4FF9012491222309F452
:1005800035C0992311F191509231F8F4E92FF0E040
:100590008827E253FD4F8F4F0C94790CFF02030321
:1005A000E002F702FB02E50206030C031003160348
:1005B0001A031E0324032803E5022C033203360327
:1005C000809180008F7780938000E22FF0E0EE0F23
:1005D000FF1FE657FE4FA591B4918FB7F894EC91A9
:1005E000611148C040954E234C938FBF0895809170
:1005F00080008F7DE8CF80918000877FE4CF84B535
:100600008F7784BDE2CF84B58F7DFBCF8091B00022
:100610008F778093B000D9CF8091B0008F7DF9CFD4
:10062000809190008F7780939000CFCF8091900041
:100630008F7DF9CF80919000877FF5CF8091A000CA
:100640008F778093A000C1CF8091A0008F7DF9CFDC
:100650008091A000877FF5CF809120018F778093D4
:100660002001B3CF809120018F7DF9CF80912001AF
:10067000877FF5CF4E2BB8CFCF93DF93EC018091DE
:10068000C8029091C902029749F4C130D10509F41A
:100690003DC07CF560E0209709F439C08091C80224
:1006A0009091C902049749F4C130D10509F45EC0A4
:1006B0000CF039C0209709F444C08091C802909191
:1006C000C902059709F0E7C0CA30D10508F0E3C0B8
:1006D000FE018827E159FC4F8F4F0C94790CCE0313
:1006E000DA03EB0301041C041E0425043104420454
:1006F0004904C230D105A9F060E0C330D10571F6DC
:100700008091CC020E94B00260E006C061E080915E
:10071000CC020E94B00261E08091CE020E94B00241
:10072000BDCF61E0EDCFC230D10539F1C330D10585
:1007300009F0C3CF61E08091CC020E94B00260E07A
:1007400022C061E08091CC020E94B00260E0809102
:10075000CE020E94B00261E08091D0020E94B002FD
:1007600060E08091D2020E94B002A7CF60E0809149
:10077000CC020E94B00261E0EACF60E08091CC023E
:100780000E94B00261E08091CE020E94B00260E05F
:100790008091D0020E94B00261E0E3CF60E08091DE
:1007A000CC020E94B00261E08091CE020E94B002B1
:1007B00061E00BC060E08091CC020E94B00261E079
:1007C0008091CE020E94B00260E08091D0020E942F
:1007D000B00260E010C060E08091CC020E94B002E4
:1007E00061E08091CE020E94B00260E08091D00270
:1007F0000E94B00261E08091D2020E94B00261E0EA
:1008000015C060E08091CC020E94B00261E080914E
:10081000CE020E94B00260E08091D0020E94B0023D
:1008200061E08091D2020E94B00260E08091D40227
:10083000DF91CF910C94B00261E0E4CF61E0809150
:10084000CC020E94B00260E0E2CF61E08091CC0275
:100850000E94B00260E08091CE020E94B00261E08E
:10086000DBCF61E08091CC020E94B00260E0809119
:10087000CE020E94B00261E08091D0020E94B002DC
:1008800060E0CFCF61E08091CC020E94B00260E0D6
:100890008BCF60E0F8CFDF91CF910895CF93DF93B6
:1008A00090E0FC01E65BFD4F24918C5F9D4FFC01C5
:1008B00084918823D1F090E0880F991FFC01E059C2
:1008C000FE4FA591B491FC01E657FE4FC591D4911E
:1008D00061110EC09FB7F8948C91E22FE0958E23A2
:1008E0008C932881E223E8839FBFDF91CF91089505
:1008F0008FB7F894EC91E22BEC938FBFF6CF3FB714
:10090000F8948091190290911A02A0911B02B09163
:100910001C0226B5A89B05C02F3F19F00196A11D0A
:10092000B11D3FBFBA2FA92F982F8827BC01CD0139
:10093000620F711D811D911D42E0660F771F881F98
:10094000991F4A95D1F708958F929F92AF92BF92C7
:10095000CF92DF92EF92FF926B017C010E947F04A5
:100960004B015C01C114D104E104F104B9F00E940F
:100970007F04681979098A099B09683E73408105DB
:10098000910580F321E0C21AD108E108F10888EE50
:10099000880E83E0981EA11CB11CE4CFFF90EF905D
:1009A000DF90CF90BF90AF909F908F900895CF929F
:1009B000DF92EF92FF920F931F9381E090E090936C
:1009C000C1028093C0020E947F040091D602109160
:1009D000D7022091D8023091D9026B017C01C01A54
:1009E000D10AE20AF30A0091C2021091C3022091D7
:1009F000C4023091C502C016D106E206F30618F310
:100A00006093D6027093D7028093D8029093D90254
:100A10008091CA029091CB022091C0023091C10214
:100A20002130310569F1892B11F18091CA02909131
:100A3000CB0201979093CB028093CA028091CA02A5
:100A40009091CB022091C8023091C90264E070E01D
:100A50002530310511F46AE070E00E94240C1F91EA
:100A60000F91FF90EF90DF90CF900C943C0380911A
:100A7000C6029091C7029093CB028093CA02D5CF51
:100A800001969093CB028093CA022091C6023091C6
:100A9000C7028217930791F61092CB021092CA02F6
:100AA000CDCFCF93DF932091C6023091C702032EA2
:100AB000000C440B550B60E077E883E993E00E945B
:100AC0005A0CCA01B90123E030E040E050E00E9436
:100AD0005A0C2093C2023093C3024093C402509335
:100AE000C502C3E0D0E080910002882309F460C011
:100AF0000E94D70461E084E00E94B00260E085E0DB
:100B00000E94B00261E086E00E94B00260E087E0EF
:100B10000E94B00268E270E080E090E00E94A404CD
:100B20000E94D70461E084E00E94B00260E085E0AA
:100B30000E94B00260E086E00E94B00261E087E0BF
:100B40000E94B00268E270E080E090E00E94A4049D
:100B50000E94D70460E084E00E94B00261E085E07A
:100B60000E94B00260E086E00E94B00261E087E08F
:100B70000E94B00268E270E080E090E00E94A4046D
:100B80000E94D70460E084E00E94B00261E085E04A
:100B90000E94B00261E086E00E94B00260E087E05F
:100BA0000E94B00268E270E080E090E00E94A4043D
:100BB000219709F098CF1092000260E084E00E9433
:100BC000B00260E085E00E94B00260E086E00E9432
:100BD000B00260E087E0DF91CF910C94B002CF9239
:100BE000DF92EF92FF920F931F93CF93DF931F92A9
:100BF0001F92CDB7DEB769834A83880F991F009192
:100C0000300310913103000F111FEAEDF2E09F0154
:100C10002A5D32402017310714F41192F8CF298150
:100C2000FC01E652FD4F21838A81808360E0809140
:100C30002E030E94B0021016110604F5015011098E
:100C4000F801E652FD4FE080D0902C03C0902A03BB
:100C500088E0F82E6E2D661F6627661F8C2D0E9479
:100C6000B002EE0C61E08D2D0E94B00260E08D2D8F
:100C70000E94B002FA94F110EDCFDDCF61E08091D7
:100C80002E030F900F90DF91CF911F910F91FF9046
:100C9000EF90DF90CF900C94B0028F929F92AF9222
:100CA000BF920F931F93CF93DF93CDB7DEB7A1977A
:100CB0000FB6F894DEBF0FBECDBF19A2423008F4C4
:100CC0004AE08E010F5D1F4F842E912CB12CA12C78
:100CD000A50194010E94380CE62FB901CA01EA303F
:100CE00044F5E05DD801EE938D01232B242B252BB9
:100CF00079F790E080E0109769F0FD010190002005
:100D0000E9F73197AF014A1B5B0BBD0183E292E02B
:100D10000E947C01A1960FB6F894DEBF0FBECDBF36
:100D2000DF91CF911F910F91BF90AF909F908F90C7
:100D30000895E95CD7CF1F920F920FB60F9211243E
:100D40000BB60F922F933F934F935F936F937F93C5
:100D50008F939F93AF93BF93EF93FF9383E292E0C0
:100D60000E94F001FF91EF91BF91AF919F918F9100
:100D70007F916F915F914F913F912F910F900BBE9B
:100D80000F900FBE0F901F9018951F920F920FB6E5
:100D90000F9211240BB60F922F938F939F93EF9383
:100DA000FF93E0913302F09134028081E0913902A7
:100DB000F0913A0282FD1DC0908180913C028F5FCC
:100DC0008F7320913D02821741F0E0913C02F0E0E8
:100DD000ED5DFD4F958F80933C02FF91EF919F91C8
:100DE0008F912F910F900BBE0F900FBE0F901F9001
:100DF00018958081F2CF1F920F920FB60F92112497
:100E00002F933F938F939F93AF93BF93809115023E
:100E100090911602A0911702B0911802309114021D
:100E200023E0230F2D3758F50196A11DB11D209306
:100E300014028093150290931602A0931702B093A8
:100E400018028091190290911A02A0911B02B09190
:100E50001C020196A11DB11D8093190290931A02E4
:100E6000A0931B02B0931C02BF91AF919F918F91F1
:100E70003F912F910F900FBE0F901F90189526E86D
:100E8000230F0296A11DB11DD2CFCF92DF92EF9218
:100E9000FF920F931F93E82FF92F05C001501109FE
:100EA0002109310961F1908196239417B9F305C0A6
:100EB000015011092109310911F1908196239413F0
:100EC000F7CFC12CD12CE12CF12C0AC08FEFC81A1E
:100ED000D80AE80AF80A0C151D052E053F0579F019
:100EE00080818623841791F36C2D7D2D8E2D9F2D6F
:100EF0001F910F91FF90EF90DF90CF90089560E0E9
:100F000070E080E090E01F910F91FF90EF90DF90F4
:100F1000CF900895EF92FF921F93CF93DF9310929B
:100F200026021092250288EE93E0A0E0B0E08093C4
:100F3000270290932802A0932902B0932A0286E008
:100F400092E0909324028093230285EC90E09093AA
:100F5000300280932F0284EC90E0909332028093D1
:100F6000310280EC90E0909334028093330281EC64
:100F700090E0909336028093350282EC90E090935B
:100F800038028093370286EC90E090933A02809387
:100F9000390210923C0210923D0210923E021092D1
:100FA0003F02C3E3D0E0D0932B03C0932A0384E332
:100FB00090E090932D0380932C0385E390E0909331
:100FC0002F0380932E0381E090E090933103809370
:100FD000300361E083E30E944E0461E080912C03C2
:100FE0000E944E0461E080912E030E944E0461E055
:100FF00080912E030E94B002D0932B03C0932A034A
:10100000EAEEF2E0119223E0EA32F207D9F7D0E0FB
:10101000C0E08091300390913103C817D9070CF0DC
:1010200041C040E06FE0CE010E94EF0580913003A7
:1010300090913103C817D9072CF447E06BE0CE013B
:101040000E94EF0540E069E0CE010E94EF0580912B
:10105000300390913103C817D907B4F4CE0123E0CF
:10106000880F991F2A95E1F7FC01E651FD4F7F019A
:1010700011E0F70111927F0140E0612FCE010E9443
:10108000EF051F5F1930A9F780913003909131036C
:10109000C817D9072CF440E06CE0CE010E94EF05A0
:1010A0002196B7CF1092CB021092CA021092C102C1
:1010B0001092C0021092D6021092D7021092D8025B
:1010C0001092D90284E690E09093C7028093C60202
:1010D00088E090E09093CD028093CC0289E090E08C
:1010E0009093CF028093CE028AE090E09093D10259
:1010F0008093D0028BE090E09093D3028093D20251
:1011000061E088E00E944E0461E08091CE020E947E
:101110004E0461E08091D0020E944E0461E0809113
:10112000D2020E944E041092D5021092D40284E0A2
:1011300090E09093C9028093C802DF91CF911F91F4
:10114000FF90EF900895789484B5826084BD84B553
:10115000816084BD85B5826085BD85B5816085BDB2
:1011600080916E00816080936E001092810080916A
:1011700081008260809381008091810081608093F2
:101180008100809180008160809380008091B10017
:1011900084608093B1008091B00081608093B00042
:1011A0008091910082608093910080919100816094
:1011B0008093910080919000816080939000809155
:1011C000A10082608093A1008091A1008160809342
:1011D000A1008091A00081608093A00080912101F6
:1011E000826080932101809121018160809321019F
:1011F0008091200181608093200180917A00846039
:1012000080937A0080917A00826080937A00809146
:101210007A00816080937A0080917A008068809360
:101220007A001092C100E0913302F091340282E022
:101230008083E0912F02F09130021082E091310220
:10124000F09132028FEC808310923B02E0913702E2
:10125000F091380286E08083E0913502F091360209
:10126000808180618083E0913502F0913602808137
:1012700088608083E0913502F09136028081806839
:101280008083E0913502F091360280818F7D8083EA
:1012900061E088E20E944E0461E084E00E944E0416
:1012A00061E085E00E944E0461E086E00E944E0409
:1012B00061E087E00E944E0461E08CE00E944E04F1
:1012C00061E08DE00E944E0461E08EE00E944E04D9
:1012D00061E08FE00E944E0461E080E10E944E04D4
:1012E0008FE790E090931E0280931D028CE790E0C0
:1012F0009093200280931F028EE790E09093220249
:101300008093210261E08EE10E944E0460E08FE153
:101310000E944E04C3E0D0E023E2E22EF12C39E635
:10132000C32E32E0D32E43E2A42E42E0B42E8091AD
:101330000102882309F4CAC080911D0290911E0207
:1013400020911F02309120024091210250912202EF
:10135000281739070CF034C1481759070CF437C166
:10136000782F692FC9019A01472F562F782F692F9F
:10137000CA01472F562F70E060E0281739070CF498
:10138000A8C0672B09F0AAC0782F692FCA017093F3
:101390001F02609320023093220220932102909337
:1013A0001E0280931D029DE1892E92E0992E60E03D
:1013B0008EE10E94B002CE010197F1F761E08EE16B
:1013C0000E94B002C7010197F1F760E08EE10E9430
:1013D000B002F6016491F5018491E82FF0E0EE0F80
:1013E000FF1FE651FE4F8591949100E412E42FE037
:1013F00030E0462F0E944507611571058105910572
:1014000029F06F5F7F4F8F4F9F4F9F70072E000C0B
:10141000880B990B0E942B0B26E933E44BE05DE32C
:101420000E948F0B20E030E040E05FE30E948F0BD2
:101430000E94F30A2B01770F660877084AE0C30180
:10144000B20177FE0DC06DE283E292E00E941202CB
:1014500066277727CB0164197509860997094AE041
:101460000E944D06F401819191914F018B379105B6
:1014700009F051C00E94510581E08093000261E0B3
:101480008CE00E94B00268E873E180E090E00E9486
:10149000A40460E08CE00E94B002F3E28F16F2E058
:1014A0009F0609F084CF0E94510581E080930002DD
:1014B0001092010210921E0210921D021092200240
:1014C00010921F0210922202109221020E947F02AB
:1014D0002ECF782F692FC901272F362F8417950714
:1014E0002CF4782F692FCA01472F562F2817390758
:1014F0002CF4782F692FC901272F362F90932002C3
:1015000080931F02309322022093210250931E02E7
:1015100040931D0248CF8C37910591F40E945105EC
:1015200081E08093000261E08DE00E94B00268E8F3
:1015300073E180E090E00E94A40460E08DE0ABCF16
:101540008D37910591F40E94510581E0809300024E
:1015500061E08EE00E94B00268E873E180E090E014
:101560000E94A40460E08EE096CF8E37910591F43E
:101570000E94510581E08093000261E08FE00E94AB
:10158000B00268E873E180E090E00E94A40460E0AB
:101590008FE081CF8F37910509F07FCF0E945105F1
:1015A00081E08093000261E080E10E94B00268E87F
:1015B00073E180E090E00E94A40460E080E16BCFE2
:1015C000421753074CF0722F632F9A01E0CE722F0F
:1015D000632F9C01872F962F61E070E04817590711
:1015E0000CF4CBCEC3CE0E94FA0A6894B1110C94CD
:1015F000890B08950E946E0B88F09F5798F0B92FC1
:101600009927B751B0F0E1F0660F771F881F991F37
:101610001AF0BA95C9F714C0B13091F00E94880B46
:10162000B1E008950C94880B672F782F8827B85F56
:1016300039F0B93FCCF3869577956795B395D9F78F
:101640003EF490958095709561957F4F8F4F9F4F99
:101650000895E89409C097FB3EF4909580957095A5
:1016600061957F4F8F4F9F4F9923A9F0F92F96E9EE
:10167000BB279395F695879577956795B795F11163
:10168000F8CFFAF4BB0F11F460FF1BC06F5F7F4F00
:101690008F4F9F4F16C0882311F096E911C0772312
:1016A00021F09EE8872F762F05C0662371F096E81B
:1016B000862F70E060E02AF09A95660F771F881FEA
:1016C000DAF7880F9695879597F9089557FD905802
:1016D000440F551F59F05F3F71F04795880F97FBF6
:1016E000991F61F09F3F79F08795089512161306B0
:1016F0001406551FF2CF4695F1DF08C016161706DF
:101700001806991FF1CF8695710561050894089513
:10171000E894BB2766277727CB0197F908950E94A5
:10172000A20B0C94130C0E94050C38F00E940C0CB8
:1017300020F0952311F00C94FC0B0C94020C112456
:101740000C94890B0E94660B70F3959FC1F3950F63
:1017500050E0551F629FF001729FBB27F00DB11D35
:10176000639FAA27F00DB11DAA1F649F6627B00DC5
:10177000A11D661F829F2227B00DA11D621F739FAE
:10178000B00DA11D621F839FA00D611D221F749FBC
:101790003327A00D611D231F849F600D211D822F03
:1017A000762F6A2F11249F5750409AF0F1F088232A
:1017B0004AF0EE0FFF1FBB1F661F771F881F915057
:1017C0005040A9F79E3F510580F00C94FC0B0C94FF
:1017D000890B5F3FE4F3983ED4F386957795679540
:1017E000B795F795E7959F5FC1F7FE2B880F911D81
:1017F0009695879597F9089597F99F6780E870E027
:1018000060E008959FEF80EC089500240A94161676
:10181000170618060906089500240A9412161306DE
:10182000140605060895092E0394000C11F488236C
:1018300052F0BB0F40F4BF2B11F460FF04C06F5F88
:101840007F4F8F4F9F4F089597FB072E16F40094FC
:1018500007D077FD09D00E94810C07FC05D03EF42B
:10186000909581959F4F0895709561957F4F08954C
:10187000A1E21A2EAA1BBB1BFD010DC0AA1FBB1F94
:10188000EE1FFF1FA217B307E407F50720F0A21B06
:10189000B30BE40BF50B661F771F881F991F1A9473
:1018A00069F760957095809590959B01AC01BD019D
:1018B000CF010895052E97FB1EF400940E94710C31
:1018C00057FD07D00E94380C07FC03D04EF40C944F
:1018D000710C50954095309521953F4F4F4F5F4F7C
:1018E000089590958095709561957F4F8F4F9F4F8C
:1018F0000895EE0FFF1F881F8BBF0790F691E02D14
:101900001994AA1BBB1B51E107C0AA1FBB1FA61736
:10191000B70710F0A61BB70B881F991F5A95A9F798
:0E19200080959095BC01CD010895F894FFCFFD
:10192E0001010000000012027C01A9015F02DA0130
:04193E00B801CC011F
:00000001FF
